{
  "address": "0x6Fccb6A10eF3Bc26d37CDfC0445E3b611Cf64e16",
  "abi": [
    {
      "inputs": [
        {
          "internalType": "string",
          "name": "metadataBaseURI",
          "type": "string"
        },
        {
          "internalType": "address payable",
          "name": "_delugeWallet",
          "type": "address"
        },
        {
          "internalType": "address payable",
          "name": "_wurmWallet",
          "type": "address"
        },
        {
          "internalType": "address payable",
          "name": "_violetWallet",
          "type": "address"
        },
        {
          "internalType": "address payable",
          "name": "_nemesisWallet",
          "type": "address"
        },
        {
          "internalType": "address payable",
          "name": "_chrisWallet",
          "type": "address"
        },
        {
          "internalType": "uint256",
          "name": "_redeemStartsAt",
          "type": "uint256"
        },
        {
          "internalType": "uint256",
          "name": "_saleStartsAt",
          "type": "uint256"
        },
        {
          "internalType": "address[]",
          "name": "novelTokenHolders",
          "type": "address[]"
        }
      ],
      "stateMutability": "nonpayable",
      "type": "constructor"
    },
    {
      "anonymous": false,
      "inputs": [
        {
          "indexed": true,
          "internalType": "address",
          "name": "owner",
          "type": "address"
        },
        {
          "indexed": true,
          "internalType": "address",
          "name": "approved",
          "type": "address"
        },
        {
          "indexed": true,
          "internalType": "uint256",
          "name": "tokenId",
          "type": "uint256"
        }
      ],
      "name": "Approval",
      "type": "event"
    },
    {
      "anonymous": false,
      "inputs": [
        {
          "indexed": true,
          "internalType": "address",
          "name": "owner",
          "type": "address"
        },
        {
          "indexed": true,
          "internalType": "address",
          "name": "operator",
          "type": "address"
        },
        {
          "indexed": false,
          "internalType": "bool",
          "name": "approved",
          "type": "bool"
        }
      ],
      "name": "ApprovalForAll",
      "type": "event"
    },
    {
      "anonymous": false,
      "inputs": [
        {
          "indexed": false,
          "internalType": "address",
          "name": "recipient",
          "type": "address"
        },
        {
          "indexed": false,
          "internalType": "uint256",
          "name": "tokenId",
          "type": "uint256"
        }
      ],
      "name": "KnotMinted",
      "type": "event"
    },
    {
      "anonymous": false,
      "inputs": [
        {
          "indexed": true,
          "internalType": "address",
          "name": "previousOwner",
          "type": "address"
        },
        {
          "indexed": true,
          "internalType": "address",
          "name": "newOwner",
          "type": "address"
        }
      ],
      "name": "OwnershipTransferred",
      "type": "event"
    },
    {
      "anonymous": false,
      "inputs": [
        {
          "indexed": false,
          "internalType": "address",
          "name": "account",
          "type": "address"
        }
      ],
      "name": "Paused",
      "type": "event"
    },
    {
      "anonymous": false,
      "inputs": [
        {
          "indexed": true,
          "internalType": "address",
          "name": "from",
          "type": "address"
        },
        {
          "indexed": true,
          "internalType": "address",
          "name": "to",
          "type": "address"
        },
        {
          "indexed": true,
          "internalType": "uint256",
          "name": "tokenId",
          "type": "uint256"
        }
      ],
      "name": "Transfer",
      "type": "event"
    },
    {
      "anonymous": false,
      "inputs": [
        {
          "indexed": false,
          "internalType": "address",
          "name": "account",
          "type": "address"
        }
      ],
      "name": "Unpaused",
      "type": "event"
    },
    {
      "inputs": [
        {
          "internalType": "address",
          "name": "to",
          "type": "address"
        },
        {
          "internalType": "uint256",
          "name": "tokenId",
          "type": "uint256"
        }
      ],
      "name": "approve",
      "outputs": [],
      "stateMutability": "nonpayable",
      "type": "function"
    },
    {
      "inputs": [
        {
          "internalType": "address",
          "name": "owner",
          "type": "address"
        }
      ],
      "name": "balanceOf",
      "outputs": [
        {
          "internalType": "uint256",
          "name": "",
          "type": "uint256"
        }
      ],
      "stateMutability": "view",
      "type": "function"
    },
    {
      "inputs": [
        {
          "internalType": "uint256",
          "name": "tokenId",
          "type": "uint256"
        }
      ],
      "name": "getApproved",
      "outputs": [
        {
          "internalType": "address",
          "name": "",
          "type": "address"
        }
      ],
      "stateMutability": "view",
      "type": "function"
    },
    {
      "inputs": [
        {
          "internalType": "address",
          "name": "recipient",
          "type": "address"
        }
      ],
      "name": "hasVouchers",
      "outputs": [
        {
          "internalType": "bool",
          "name": "",
          "type": "bool"
        }
      ],
      "stateMutability": "view",
      "type": "function"
    },
    {
      "inputs": [
        {
          "internalType": "address",
          "name": "owner",
          "type": "address"
        },
        {
          "internalType": "address",
          "name": "operator",
          "type": "address"
        }
      ],
      "name": "isApprovedForAll",
      "outputs": [
        {
          "internalType": "bool",
          "name": "",
          "type": "bool"
        }
      ],
      "stateMutability": "view",
      "type": "function"
    },
    {
      "inputs": [
        {
          "internalType": "address",
          "name": "recipient",
          "type": "address"
        },
        {
          "internalType": "string",
          "name": "seed",
          "type": "string"
        },
        {
          "internalType": "uint256",
          "name": "count",
          "type": "uint256"
        }
      ],
      "name": "mint",
      "outputs": [],
      "stateMutability": "payable",
      "type": "function"
    },
    {
      "inputs": [],
      "name": "name",
      "outputs": [
        {
          "internalType": "string",
          "name": "",
          "type": "string"
        }
      ],
      "stateMutability": "view",
      "type": "function"
    },
    {
      "inputs": [],
      "name": "owner",
      "outputs": [
        {
          "internalType": "address",
          "name": "",
          "type": "address"
        }
      ],
      "stateMutability": "view",
      "type": "function"
    },
    {
      "inputs": [
        {
          "internalType": "uint256",
          "name": "tokenId",
          "type": "uint256"
        }
      ],
      "name": "ownerOf",
      "outputs": [
        {
          "internalType": "address",
          "name": "",
          "type": "address"
        }
      ],
      "stateMutability": "view",
      "type": "function"
    },
    {
      "inputs": [],
      "name": "paused",
      "outputs": [
        {
          "internalType": "bool",
          "name": "",
          "type": "bool"
        }
      ],
      "stateMutability": "view",
      "type": "function"
    },
    {
      "inputs": [],
      "name": "renounceOwnership",
      "outputs": [],
      "stateMutability": "nonpayable",
      "type": "function"
    },
    {
      "inputs": [
        {
          "internalType": "address",
          "name": "from",
          "type": "address"
        },
        {
          "internalType": "address",
          "name": "to",
          "type": "address"
        },
        {
          "internalType": "uint256",
          "name": "tokenId",
          "type": "uint256"
        }
      ],
      "name": "safeTransferFrom",
      "outputs": [],
      "stateMutability": "nonpayable",
      "type": "function"
    },
    {
      "inputs": [
        {
          "internalType": "address",
          "name": "from",
          "type": "address"
        },
        {
          "internalType": "address",
          "name": "to",
          "type": "address"
        },
        {
          "internalType": "uint256",
          "name": "tokenId",
          "type": "uint256"
        },
        {
          "internalType": "bytes",
          "name": "_data",
          "type": "bytes"
        }
      ],
      "name": "safeTransferFrom",
      "outputs": [],
      "stateMutability": "nonpayable",
      "type": "function"
    },
    {
      "inputs": [
        {
          "internalType": "address",
          "name": "operator",
          "type": "address"
        },
        {
          "internalType": "bool",
          "name": "approved",
          "type": "bool"
        }
      ],
      "name": "setApprovalForAll",
      "outputs": [],
      "stateMutability": "nonpayable",
      "type": "function"
    },
    {
      "inputs": [
        {
          "internalType": "bytes4",
          "name": "interfaceId",
          "type": "bytes4"
        }
      ],
      "name": "supportsInterface",
      "outputs": [
        {
          "internalType": "bool",
          "name": "",
          "type": "bool"
        }
      ],
      "stateMutability": "view",
      "type": "function"
    },
    {
      "inputs": [],
      "name": "symbol",
      "outputs": [
        {
          "internalType": "string",
          "name": "",
          "type": "string"
        }
      ],
      "stateMutability": "view",
      "type": "function"
    },
    {
      "inputs": [
        {
          "internalType": "uint256",
          "name": "tokenId",
          "type": "uint256"
        }
      ],
      "name": "tokenURI",
      "outputs": [
        {
          "internalType": "string",
          "name": "",
          "type": "string"
        }
      ],
      "stateMutability": "view",
      "type": "function"
    },
    {
      "inputs": [],
      "name": "totalSupply",
      "outputs": [
        {
          "internalType": "uint256",
          "name": "",
          "type": "uint256"
        }
      ],
      "stateMutability": "view",
      "type": "function"
    },
    {
      "inputs": [
        {
          "internalType": "address",
          "name": "from",
          "type": "address"
        },
        {
          "internalType": "address",
          "name": "to",
          "type": "address"
        },
        {
          "internalType": "uint256",
          "name": "tokenId",
          "type": "uint256"
        }
      ],
      "name": "transferFrom",
      "outputs": [],
      "stateMutability": "nonpayable",
      "type": "function"
    },
    {
      "inputs": [
        {
          "internalType": "address",
          "name": "newOwner",
          "type": "address"
        }
      ],
      "name": "transferOwnership",
      "outputs": [],
      "stateMutability": "nonpayable",
      "type": "function"
    },
    {
      "inputs": [
        {
          "internalType": "string",
          "name": "__baseURI",
          "type": "string"
        }
      ],
      "name": "updateBaseURI",
      "outputs": [],
      "stateMutability": "nonpayable",
      "type": "function"
    },
    {
      "inputs": [
        {
          "internalType": "bool",
          "name": "_paused",
          "type": "bool"
        }
      ],
      "name": "updatePaused",
      "outputs": [],
      "stateMutability": "nonpayable",
      "type": "function"
    },
    {
      "inputs": [
        {
          "internalType": "uint256",
          "name": "_redeemStartsAt",
          "type": "uint256"
        }
      ],
      "name": "updateRedeemStartsAt",
      "outputs": [],
      "stateMutability": "nonpayable",
      "type": "function"
    },
    {
      "inputs": [
        {
          "internalType": "uint256",
          "name": "_saleStartsAt",
          "type": "uint256"
        }
      ],
      "name": "updateSaleStartsAt",
      "outputs": [],
      "stateMutability": "nonpayable",
      "type": "function"
    }
  ],
  "transactionHash": "0x3cffc4cdca46b755b8a0a562fe6d1910ab3f7f7dba3563cec9e3d8653b96010f",
  "args": [
    "ipfs://QmZ2CQgQ18r3Bo5ArBSwHy1JmvkwUR3gCoYTrJWTb59N1d/",
    "0xd6b8d714d98057dac37034eaa26dd013b18d81da",
    "0xd3ca53890efa9c8739dfc34c697c5d8c9f5506cf",
    "0xd3ca53890efa9c8739dfc34c697c5d8c9f5506cf",
    "0xd3ca53890efa9c8739dfc34c697c5d8c9f5506cf",
    "0xd3ca53890efa9c8739dfc34c697c5d8c9f5506cf",
    1644807335,
    1644807815,
    [
      "0x4b8c87E697AD25994FD5c6BADD5A3e0e498ce9d1",
      "0xBE5837B0A6eBD3a4Ea573Deb783749AddeF42891"
    ]
  ],
  "numDeployments": 3,
  "solcInputHash": "39f99a02cc76a8627890f5795954c46a",
  "bytecode": "0x608060405261012d600660156101000a81548161ffff021916908361ffff1602179055506005600660176101000a81548160ff021916908360ff16021790555065f5904616e000600755600660159054906101000a900461ffff1661ffff1667ffffffffffffffff8111156200009e577f4e487b7100000000000000000000000000000000000000000000000000000000600052604160045260246000fd5b604051908082528060200260200182016040528015620000cd5781602001602082028036833780820191505090505b5060099080519060200190620000e592919062000e0d565b506014601160146101000a81548160ff021916908360ff160217905550601e601160156101000a81548160ff021916908360ff160217905550600a601160166101000a81548160ff021916908360ff160217905550600a601160176101000a81548160ff021916908360ff1602179055503480156200016357600080fd5b5060405162005aa138038062005aa18339818101604052810190620001899190620010c7565b6040518060400160405280600581526020017f4b4e4f54530000000000000000000000000000000000000000000000000000008152506040518060400160405280600481526020017f4b4e4f540000000000000000000000000000000000000000000000000000000081525081600090805190602001906200020d92919062000ebe565b5080600190805190602001906200022692919062000ebe565b505050620002496200023d6200075f60201b60201c565b6200076760201b60201c565b6000600660146101000a81548160ff02191690831515021790555060005b600660159054906101000a900461ffff1661ffff168161ffff1610156200031b576001816200029791906200141b565b60098261ffff1681548110620002d6577f4e487b7100000000000000000000000000000000000000000000000000000000600052603260045260246000fd5b90600052602060002090601091828204019190066002026101000a81548161ffff021916908361ffff1602179055508080620003129062001601565b91505062000267565b5086600d60006101000a81548173ffffffffffffffffffffffffffffffffffffffff021916908373ffffffffffffffffffffffffffffffffffffffff16021790555085600e60006101000a81548173ffffffffffffffffffffffffffffffffffffffff021916908373ffffffffffffffffffffffffffffffffffffffff16021790555084600f60006101000a81548173ffffffffffffffffffffffffffffffffffffffff021916908373ffffffffffffffffffffffffffffffffffffffff16021790555083601060006101000a81548173ffffffffffffffffffffffffffffffffffffffff021916908373ffffffffffffffffffffffffffffffffffffffff16021790555087601160006101000a81548173ffffffffffffffffffffffffffffffffffffffff021916908373ffffffffffffffffffffffffffffffffffffffff16021790555082600b8190555081600a8190555060005b81518161ffff1610156200053357600160086000848461ffff1681518110620004c4577f4e487b7100000000000000000000000000000000000000000000000000000000600052603260045260246000fd5b602002602001015173ffffffffffffffffffffffffffffffffffffffff1673ffffffffffffffffffffffffffffffffffffffff16815260200190815260200160002060006101000a81548160ff02191690831515021790555080806200052a9062001601565b91505062000472565b5062000577600d60009054906101000a900473ffffffffffffffffffffffffffffffffffffffff16604051806020016040528060008152506200082d60201b60201c565b50620005bb600d60009054906101000a900473ffffffffffffffffffffffffffffffffffffffff16604051806020016040528060008152506200082d60201b60201c565b50620005ff600e60009054906101000a900473ffffffffffffffffffffffffffffffffffffffff16604051806020016040528060008152506200082d60201b60201c565b5062000643600e60009054906101000a900473ffffffffffffffffffffffffffffffffffffffff16604051806020016040528060008152506200082d60201b60201c565b5062000687600f60009054906101000a900473ffffffffffffffffffffffffffffffffffffffff16604051806020016040528060008152506200082d60201b60201c565b50620006cb601060009054906101000a900473ffffffffffffffffffffffffffffffffffffffff16604051806020016040528060008152506200082d60201b60201c565b5060005b600e8160ff16101562000736576200071f601160009054906101000a900473ffffffffffffffffffffffffffffffffffffffff16604051806020016040528060008152506200082d60201b60201c565b5080806200072d9062001631565b915050620006cf565b5088600c90805190602001906200074f92919062000ebe565b5050505050505050505062001854565b600033905090565b6000600660009054906101000a900473ffffffffffffffffffffffffffffffffffffffff16905081600660006101000a81548173ffffffffffffffffffffffffffffffffffffffff021916908373ffffffffffffffffffffffffffffffffffffffff1602179055508173ffffffffffffffffffffffffffffffffffffffff168173ffffffffffffffffffffffffffffffffffffffff167f8be0079c531659141344cd1fd0a4f28419497f9722a3daafe3b4186f6b6457e060405160405180910390a35050565b6000806009805490509050600081116200087e576040517f08c379a000000000000000000000000000000000000000000000000000000000815260040162000875906200132d565b60405180910390fd5b6000838051906020012060001c9050600082826200089d919062001660565b9050600060098281548110620008dc577f4e487b7100000000000000000000000000000000000000000000000000000000600052603260045260246000fd5b90600052602060002090601091828204019190066002029054906101000a900461ffff1661ffff1690506009600185620009179190620014b7565b815481106200094f577f4e487b7100000000000000000000000000000000000000000000000000000000600052603260045260246000fd5b90600052602060002090601091828204019190066002029054906101000a900461ffff1660098381548110620009ae577f4e487b7100000000000000000000000000000000000000000000000000000000600052603260045260246000fd5b90600052602060002090601091828204019190066002026101000a81548161ffff021916908361ffff160217905550600980548062000a16577f4e487b7100000000000000000000000000000000000000000000000000000000600052603160045260246000fd5b60019003818190600052602060002090601091828204019190066002026101000a81549061ffff0219169055905562000a906040518060400160405280601b81526020017f202e204d696e74696e6720746f6b656e206e756d6265723a20257300000000008152508262000ae760201b620017991760201c565b62000aa2878262000b8d60201b60201c565b7f0342545ef0c22a18976b8b2eb9bb9401037d89bfe2295c856f0c95a651185e0a878260405162000ad5929190620012aa565b60405180910390a15050505092915050565b62000b89828260405160240162000b00929190620012d7565b6040516020818303038152906040527f9710a9d0000000000000000000000000000000000000000000000000000000007bffffffffffffffffffffffffffffffffffffffffffffffffffffffff19166020820180517bffffffffffffffffffffffffffffffffffffffffffffffffffffffff838183161783525050505062000d7360201b60201c565b5050565b600073ffffffffffffffffffffffffffffffffffffffff168273ffffffffffffffffffffffffffffffffffffffff16141562000c00576040517f08c379a000000000000000000000000000000000000000000000000000000000815260040162000bf7906200134f565b60405180910390fd5b62000c118162000d9c60201b60201c565b1562000c54576040517f08c379a000000000000000000000000000000000000000000000000000000000815260040162000c4b906200130b565b60405180910390fd5b62000c686000838362000e0860201b60201c565b6001600360008473ffffffffffffffffffffffffffffffffffffffff1673ffffffffffffffffffffffffffffffffffffffff168152602001908152602001600020600082825462000cba91906200145a565b92505081905550816002600083815260200190815260200160002060006101000a81548173ffffffffffffffffffffffffffffffffffffffff021916908373ffffffffffffffffffffffffffffffffffffffff160217905550808273ffffffffffffffffffffffffffffffffffffffff16600073ffffffffffffffffffffffffffffffffffffffff167fddf252ad1be2c89b69c2b068fc378daa952ba7f163c4a11628f55a4df523b3ef60405160405180910390a45050565b60008151905060006a636f6e736f6c652e6c6f679050602083016000808483855afa5050505050565b60008073ffffffffffffffffffffffffffffffffffffffff166002600084815260200190815260200160002060009054906101000a900473ffffffffffffffffffffffffffffffffffffffff1673ffffffffffffffffffffffffffffffffffffffff1614159050919050565b505050565b82805482825590600052602060002090600f0160109004810192821562000eab5791602002820160005b8382111562000e7957835183826101000a81548161ffff021916908361ffff160217905550926020019260020160208160010104928301926001030262000e37565b801562000ea95782816101000a81549061ffff021916905560020160208160010104928301926001030262000e79565b505b50905062000eba919062000f4f565b5090565b82805462000ecc9062001595565b90600052602060002090601f01602090048101928262000ef0576000855562000f3c565b82601f1062000f0b57805160ff191683800117855562000f3c565b8280016001018555821562000f3c579182015b8281111562000f3b57825182559160200191906001019062000f1e565b5b50905062000f4b919062000f4f565b5090565b5b8082111562000f6a57600081600090555060010162000f50565b5090565b600062000f8562000f7f846200139a565b62001371565b9050808382526020820190508285602086028201111562000fa557600080fd5b60005b8581101562000fd9578162000fbe888262001028565b84526020840193506020830192505060018101905062000fa8565b5050509392505050565b600062000ffa62000ff484620013c9565b62001371565b9050828152602081018484840111156200101357600080fd5b620010208482856200155f565b509392505050565b600081519050620010398162001806565b92915050565b600081519050620010508162001820565b92915050565b600082601f8301126200106857600080fd5b81516200107a84826020860162000f6e565b91505092915050565b600082601f8301126200109557600080fd5b8151620010a784826020860162000fe3565b91505092915050565b600081519050620010c1816200183a565b92915050565b60008060008060008060008060006101208a8c031215620010e757600080fd5b60008a015167ffffffffffffffff8111156200110257600080fd5b620011108c828d0162001083565b9950506020620011238c828d016200103f565b9850506040620011368c828d016200103f565b9750506060620011498c828d016200103f565b96505060806200115c8c828d016200103f565b95505060a06200116f8c828d016200103f565b94505060c0620011828c828d01620010b0565b93505060e0620011958c828d01620010b0565b9250506101008a015167ffffffffffffffff811115620011b457600080fd5b620011c28c828d0162001056565b9150509295985092959850929598565b620011dd81620014f2565b82525050565b6000620011f082620013ff565b620011fc81856200140a565b93506200120e8185602086016200155f565b620012198162001754565b840191505092915050565b600062001233601c836200140a565b9150620012408262001765565b602082019050919050565b60006200125a602a836200140a565b915062001267826200178e565b604082019050919050565b6000620012816020836200140a565b91506200128e82620017dd565b602082019050919050565b620012a48162001548565b82525050565b6000604082019050620012c16000830185620011d2565b620012d0602083018462001299565b9392505050565b60006040820190508181036000830152620012f38185620011e3565b905062001304602083018462001299565b9392505050565b60006020820190508181036000830152620013268162001224565b9050919050565b6000602082019050818103600083015262001348816200124b565b9050919050565b600060208201905081810360008301526200136a8162001272565b9050919050565b60006200137d62001390565b90506200138b8282620015cb565b919050565b6000604051905090565b600067ffffffffffffffff821115620013b857620013b762001725565b5b602082029050602081019050919050565b600067ffffffffffffffff821115620013e757620013e662001725565b5b620013f28262001754565b9050602081019050919050565b600081519050919050565b600082825260208201905092915050565b600062001428826200151a565b915062001435836200151a565b92508261ffff038211156200144f576200144e62001698565b5b828201905092915050565b6000620014678262001548565b9150620014748362001548565b9250827fffffffffffffffffffffffffffffffffffffffffffffffffffffffffffffffff03821115620014ac57620014ab62001698565b5b828201905092915050565b6000620014c48262001548565b9150620014d18362001548565b925082821015620014e757620014e662001698565b5b828203905092915050565b6000620014ff8262001528565b9050919050565b6000620015138262001528565b9050919050565b600061ffff82169050919050565b600073ffffffffffffffffffffffffffffffffffffffff82169050919050565b6000819050919050565b600060ff82169050919050565b60005b838110156200157f57808201518184015260208101905062001562565b838111156200158f576000848401525b50505050565b60006002820490506001821680620015ae57607f821691505b60208210811415620015c557620015c4620016f6565b5b50919050565b620015d68262001754565b810181811067ffffffffffffffff82111715620015f857620015f762001725565b5b80604052505050565b60006200160e826200151a565b915061ffff82141562001626576200162562001698565b5b600182019050919050565b60006200163e8262001552565b915060ff82141562001655576200165462001698565b5b600182019050919050565b60006200166d8262001548565b91506200167a8362001548565b9250826200168d576200168c620016c7565b5b828206905092915050565b7f4e487b7100000000000000000000000000000000000000000000000000000000600052601160045260246000fd5b7f4e487b7100000000000000000000000000000000000000000000000000000000600052601260045260246000fd5b7f4e487b7100000000000000000000000000000000000000000000000000000000600052602260045260246000fd5b7f4e487b7100000000000000000000000000000000000000000000000000000000600052604160045260246000fd5b6000601f19601f8301169050919050565b7f4552433732313a20746f6b656e20616c7265616479206d696e74656400000000600082015250565b7f4b6e6f74733a206e6f7420656e6f756768206b6e6f747320617661696c61626c60008201527f6520666f72206d696e7400000000000000000000000000000000000000000000602082015250565b7f4552433732313a206d696e7420746f20746865207a65726f2061646472657373600082015250565b6200181181620014f2565b81146200181d57600080fd5b50565b6200182b8162001506565b81146200183757600080fd5b50565b620018458162001548565b81146200185157600080fd5b50565b61423d80620018646000396000f3fe60806040526004361061014b5760003560e01c8063715018a6116100b6578063ba7aef431161006f578063ba7aef431461047a578063c2ae621214610496578063c87b56dd146104bf578063e985e9c5146104fc578063eae9f32714610539578063f2fde38b146105765761014b565b8063715018a6146103925780638da5cb5b146103a9578063931688cb146103d457806395d89b41146103fd578063a22cb46514610428578063b88d4fde146104515761014b565b806323b872dd1161010857806323b872dd1461027257806342842e0e1461029b5780635c975abb146102c45780635dd7b59d146102ef5780636352211e1461031857806370a08231146103555761014b565b806301ffc9a71461015057806306fdde031461018d578063081812fc146101b857806308cdc2a8146101f5578063095ea7b31461021e57806318160ddd14610247575b600080fd5b34801561015c57600080fd5b5061017760048036038101906101729190612db4565b61059f565b6040516101849190613363565b60405180910390f35b34801561019957600080fd5b506101a2610681565b6040516101af919061337e565b60405180910390f35b3480156101c457600080fd5b506101df60048036038101906101da9190612e4b565b610713565b6040516101ec91906132d3565b60405180910390f35b34801561020157600080fd5b5061021c60048036038101906102179190612d8b565b610798565b005b34801561022a57600080fd5b5061024560048036038101906102409190612d4f565b610833565b005b34801561025357600080fd5b5061025c61094b565b60405161026991906136f0565b60405180910390f35b34801561027e57600080fd5b5061029960048036038101906102949190612be2565b610977565b005b3480156102a757600080fd5b506102c260048036038101906102bd9190612be2565b6109d7565b005b3480156102d057600080fd5b506102d96109f7565b6040516102e69190613363565b60405180910390f35b3480156102fb57600080fd5b5061031660048036038101906103119190612e4b565b610a0e565b005b34801561032457600080fd5b5061033f600480360381019061033a9190612e4b565b610a94565b60405161034c91906132d3565b60405180910390f35b34801561036157600080fd5b5061037c60048036038101906103779190612b7d565b610b46565b60405161038991906136f0565b60405180910390f35b34801561039e57600080fd5b506103a7610bfe565b005b3480156103b557600080fd5b506103be610c86565b6040516103cb91906132d3565b60405180910390f35b3480156103e057600080fd5b506103fb60048036038101906103f69190612e06565b610cb0565b005b34801561040957600080fd5b50610412610d42565b60405161041f919061337e565b60405180910390f35b34801561043457600080fd5b5061044f600480360381019061044a9190612cac565b610dd4565b005b34801561045d57600080fd5b5061047860048036038101906104739190612c31565b610dea565b005b610494600480360381019061048f9190612ce8565b610e4c565b005b3480156104a257600080fd5b506104bd60048036038101906104b89190612e4b565b61148a565b005b3480156104cb57600080fd5b506104e660048036038101906104e19190612e4b565b611510565b6040516104f3919061337e565b60405180910390f35b34801561050857600080fd5b50610523600480360381019061051e9190612ba6565b6115b7565b6040516105309190613363565b60405180910390f35b34801561054557600080fd5b50610560600480360381019061055b9190612b7d565b61164b565b60405161056d9190613363565b60405180910390f35b34801561058257600080fd5b5061059d60048036038101906105989190612b7d565b6116a1565b005b60007f80ac58cd000000000000000000000000000000000000000000000000000000007bffffffffffffffffffffffffffffffffffffffffffffffffffffffff1916827bffffffffffffffffffffffffffffffffffffffffffffffffffffffff1916148061066a57507f5b5e139f000000000000000000000000000000000000000000000000000000007bffffffffffffffffffffffffffffffffffffffffffffffffffffffff1916827bffffffffffffffffffffffffffffffffffffffffffffffffffffffff1916145b8061067a575061067982611835565b5b9050919050565b606060008054610690906139a0565b80601f01602080910402602001604051908101604052809291908181526020018280546106bc906139a0565b80156107095780601f106106de57610100808354040283529160200191610709565b820191906000526020600020905b8154815290600101906020018083116106ec57829003601f168201915b5050505050905090565b600061071e8261189f565b61075d576040517f08c379a0000000000000000000000000000000000000000000000000000000008152600401610754906135b0565b60405180910390fd5b6004600083815260200190815260200160002060009054906101000a900473ffffffffffffffffffffffffffffffffffffffff169050919050565b6107a061190b565b73ffffffffffffffffffffffffffffffffffffffff166107be610c86565b73ffffffffffffffffffffffffffffffffffffffff1614610814576040517f08c379a000000000000000000000000000000000000000000000000000000000815260040161080b906135d0565b60405180910390fd5b801561082757610822611913565b610830565b61082f6119b6565b5b50565b600061083e82610a94565b90508073ffffffffffffffffffffffffffffffffffffffff168373ffffffffffffffffffffffffffffffffffffffff1614156108af576040517f08c379a00000000000000000000000000000000000000000000000000000000081526004016108a690613650565b60405180910390fd5b8073ffffffffffffffffffffffffffffffffffffffff166108ce61190b565b73ffffffffffffffffffffffffffffffffffffffff1614806108fd57506108fc816108f761190b565b6115b7565b5b61093c576040517f08c379a000000000000000000000000000000000000000000000000000000000815260040161093390613530565b60405180910390fd5b6109468383611a58565b505050565b6000600980549050600660159054906101000a900461ffff1661ffff1661097291906138b6565b905090565b61098861098261190b565b82611b11565b6109c7576040517f08c379a00000000000000000000000000000000000000000000000000000000081526004016109be90613690565b60405180910390fd5b6109d2838383611bef565b505050565b6109f283838360405180602001604052806000815250610dea565b505050565b6000600660149054906101000a900460ff16905090565b610a1661190b565b73ffffffffffffffffffffffffffffffffffffffff16610a34610c86565b73ffffffffffffffffffffffffffffffffffffffff1614610a8a576040517f08c379a0000000000000000000000000000000000000000000000000000000008152600401610a81906135d0565b60405180910390fd5b80600a8190555050565b6000806002600084815260200190815260200160002060009054906101000a900473ffffffffffffffffffffffffffffffffffffffff169050600073ffffffffffffffffffffffffffffffffffffffff168173ffffffffffffffffffffffffffffffffffffffff161415610b3d576040517f08c379a0000000000000000000000000000000000000000000000000000000008152600401610b3490613570565b60405180910390fd5b80915050919050565b60008073ffffffffffffffffffffffffffffffffffffffff168273ffffffffffffffffffffffffffffffffffffffff161415610bb7576040517f08c379a0000000000000000000000000000000000000000000000000000000008152600401610bae90613550565b60405180910390fd5b600360008373ffffffffffffffffffffffffffffffffffffffff1673ffffffffffffffffffffffffffffffffffffffff168152602001908152602001600020549050919050565b610c0661190b565b73ffffffffffffffffffffffffffffffffffffffff16610c24610c86565b73ffffffffffffffffffffffffffffffffffffffff1614610c7a576040517f08c379a0000000000000000000000000000000000000000000000000000000008152600401610c71906135d0565b60405180910390fd5b610c846000611e4b565b565b6000600660009054906101000a900473ffffffffffffffffffffffffffffffffffffffff16905090565b610cb861190b565b73ffffffffffffffffffffffffffffffffffffffff16610cd6610c86565b73ffffffffffffffffffffffffffffffffffffffff1614610d2c576040517f08c379a0000000000000000000000000000000000000000000000000000000008152600401610d23906135d0565b60405180910390fd5b8181600c9190610d3d929190612957565b505050565b606060018054610d51906139a0565b80601f0160208091040260200160405190810160405280929190818152602001828054610d7d906139a0565b8015610dca5780601f10610d9f57610100808354040283529160200191610dca565b820191906000526020600020905b815481529060010190602001808311610dad57829003601f168201915b5050505050905090565b610de6610ddf61190b565b8383611f11565b5050565b610dfb610df561190b565b83611b11565b610e3a576040517f08c379a0000000000000000000000000000000000000000000000000000000008152600401610e3190613690565b60405180910390fd5b610e468484848461207e565b50505050565b610e546109f7565b15610e94576040517f08c379a0000000000000000000000000000000000000000000000000000000008152600401610e8b906134f0565b60405180910390fd5b600060098054905011610edc576040517f08c379a0000000000000000000000000000000000000000000000000000000008152600401610ed390613670565b60405180910390fd5b600081118015610efe5750600660179054906101000a900460ff1660ff168111155b610f3d576040517f08c379a0000000000000000000000000000000000000000000000000000000008152600401610f3490613630565b60405180910390fd5b600860003373ffffffffffffffffffffffffffffffffffffffff1673ffffffffffffffffffffffffffffffffffffffff16815260200190815260200160002060009054906101000a900460ff161561108c57600b54421015610fd4576040517f08c379a0000000000000000000000000000000000000000000000000000000008152600401610fcb90613450565b60405180910390fd5b600754600182610fe491906138b6565b610fee919061385c565b341461102f576040517f08c379a0000000000000000000000000000000000000000000000000000000008152600401611026906136d0565b60405180910390fd5b6000600860003373ffffffffffffffffffffffffffffffffffffffff1673ffffffffffffffffffffffffffffffffffffffff16815260200190815260200160002060006101000a81548160ff021916908315150217905550611121565b600a544210156110d1576040517f08c379a00000000000000000000000000000000000000000000000000000000081526004016110c890613510565b60405180910390fd5b600754816110df919061385c565b3414611120576040517f08c379a0000000000000000000000000000000000000000000000000000000008152600401611117906136b0565b60405180910390fd5b5b6111606040518060400160405280601381526020017f436f756e74207265717565737465643a2025730000000000000000000000000081525082611799565b60005b818110156111895761117584846120da565b50808061118190613a03565b915050611163565b5060006064601160149054906101000a900460ff1660ff16346111ac919061385c565b6111b6919061382b565b905060006064601160159054906101000a900460ff1660ff16346111da919061385c565b6111e4919061382b565b905060006064601160179054906101000a900460ff1660ff1634611208919061385c565b611212919061382b565b905060006064601160169054906101000a900460ff1660ff1634611236919061385c565b611240919061382b565b90506000818385873461125391906138b6565b61125d91906138b6565b61126791906138b6565b61127191906138b6565b9050600d60009054906101000a900473ffffffffffffffffffffffffffffffffffffffff1673ffffffffffffffffffffffffffffffffffffffff166108fc869081150290604051600060405180830381858888f193505050501580156112db573d6000803e3d6000fd5b50600f60009054906101000a900473ffffffffffffffffffffffffffffffffffffffff1673ffffffffffffffffffffffffffffffffffffffff166108fc839081150290604051600060405180830381858888f19350505050158015611344573d6000803e3d6000fd5b50600e60009054906101000a900473ffffffffffffffffffffffffffffffffffffffff1673ffffffffffffffffffffffffffffffffffffffff166108fc859081150290604051600060405180830381858888f193505050501580156113ad573d6000803e3d6000fd5b50601060009054906101000a900473ffffffffffffffffffffffffffffffffffffffff1673ffffffffffffffffffffffffffffffffffffffff166108fc849081150290604051600060405180830381858888f19350505050158015611416573d6000803e3d6000fd5b50601160009054906101000a900473ffffffffffffffffffffffffffffffffffffffff1673ffffffffffffffffffffffffffffffffffffffff166108fc829081150290604051600060405180830381858888f1935050505015801561147f573d6000803e3d6000fd5b505050505050505050565b61149261190b565b73ffffffffffffffffffffffffffffffffffffffff166114b0610c86565b73ffffffffffffffffffffffffffffffffffffffff1614611506576040517f08c379a00000000000000000000000000000000000000000000000000000000081526004016114fd906135d0565b60405180910390fd5b80600b8190555050565b606061151b8261189f565b61155a576040517f08c379a000000000000000000000000000000000000000000000000000000000815260040161155190613610565b60405180910390fd5b6000611564612372565b9050600081511161158457604051806020016040528060008152506115af565b8061158e84612404565b60405160200161159f9291906132af565b6040516020818303038152906040525b915050919050565b6000600560008473ffffffffffffffffffffffffffffffffffffffff1673ffffffffffffffffffffffffffffffffffffffff16815260200190815260200160002060008373ffffffffffffffffffffffffffffffffffffffff1673ffffffffffffffffffffffffffffffffffffffff16815260200190815260200160002060009054906101000a900460ff16905092915050565b6000600860008373ffffffffffffffffffffffffffffffffffffffff1673ffffffffffffffffffffffffffffffffffffffff16815260200190815260200160002060009054906101000a900460ff169050919050565b6116a961190b565b73ffffffffffffffffffffffffffffffffffffffff166116c7610c86565b73ffffffffffffffffffffffffffffffffffffffff161461171d576040517f08c379a0000000000000000000000000000000000000000000000000000000008152600401611714906135d0565b60405180910390fd5b600073ffffffffffffffffffffffffffffffffffffffff168173ffffffffffffffffffffffffffffffffffffffff16141561178d576040517f08c379a000000000000000000000000000000000000000000000000000000000815260040161178490613410565b60405180910390fd5b61179681611e4b565b50565b61183182826040516024016117af9291906133a0565b6040516020818303038152906040527f9710a9d0000000000000000000000000000000000000000000000000000000007bffffffffffffffffffffffffffffffffffffffffffffffffffffffff19166020820180517bffffffffffffffffffffffffffffffffffffffffffffffffffffffff83818316178352505050506125b1565b5050565b60007f01ffc9a7000000000000000000000000000000000000000000000000000000007bffffffffffffffffffffffffffffffffffffffffffffffffffffffff1916827bffffffffffffffffffffffffffffffffffffffffffffffffffffffff1916149050919050565b60008073ffffffffffffffffffffffffffffffffffffffff166002600084815260200190815260200160002060009054906101000a900473ffffffffffffffffffffffffffffffffffffffff1673ffffffffffffffffffffffffffffffffffffffff1614159050919050565b600033905090565b61191b6109f7565b1561195b576040517f08c379a0000000000000000000000000000000000000000000000000000000008152600401611952906134f0565b60405180910390fd5b6001600660146101000a81548160ff0219169083151502179055507f62e78cea01bee320cd4e420270b5ea74000d11b0c9f74754ebdbfc544b05a25861199f61190b565b6040516119ac91906132d3565b60405180910390a1565b6119be6109f7565b6119fd576040517f08c379a00000000000000000000000000000000000000000000000000000000081526004016119f4906133d0565b60405180910390fd5b6000600660146101000a81548160ff0219169083151502179055507f5db9ee0a495bf2e6ff9c91a7834c1ba4fdd244a5e8aa4e537bd38aeae4b073aa611a4161190b565b604051611a4e91906132d3565b60405180910390a1565b816004600083815260200190815260200160002060006101000a81548173ffffffffffffffffffffffffffffffffffffffff021916908373ffffffffffffffffffffffffffffffffffffffff160217905550808273ffffffffffffffffffffffffffffffffffffffff16611acb83610a94565b73ffffffffffffffffffffffffffffffffffffffff167f8c5be1e5ebec7d5bd14f71427d1e84f3dd0314c0f7b2291e5b200ac8c7c3b92560405160405180910390a45050565b6000611b1c8261189f565b611b5b576040517f08c379a0000000000000000000000000000000000000000000000000000000008152600401611b52906134d0565b60405180910390fd5b6000611b6683610a94565b90508073ffffffffffffffffffffffffffffffffffffffff168473ffffffffffffffffffffffffffffffffffffffff161480611bd557508373ffffffffffffffffffffffffffffffffffffffff16611bbd84610713565b73ffffffffffffffffffffffffffffffffffffffff16145b80611be65750611be581856115b7565b5b91505092915050565b8273ffffffffffffffffffffffffffffffffffffffff16611c0f82610a94565b73ffffffffffffffffffffffffffffffffffffffff1614611c65576040517f08c379a0000000000000000000000000000000000000000000000000000000008152600401611c5c906135f0565b60405180910390fd5b600073ffffffffffffffffffffffffffffffffffffffff168273ffffffffffffffffffffffffffffffffffffffff161415611cd5576040517f08c379a0000000000000000000000000000000000000000000000000000000008152600401611ccc90613470565b60405180910390fd5b611ce08383836125da565b611ceb600082611a58565b6001600360008573ffffffffffffffffffffffffffffffffffffffff1673ffffffffffffffffffffffffffffffffffffffff1681526020019081526020016000206000828254611d3b91906138b6565b925050819055506001600360008473ffffffffffffffffffffffffffffffffffffffff1673ffffffffffffffffffffffffffffffffffffffff1681526020019081526020016000206000828254611d9291906137d5565b92505081905550816002600083815260200190815260200160002060006101000a81548173ffffffffffffffffffffffffffffffffffffffff021916908373ffffffffffffffffffffffffffffffffffffffff160217905550808273ffffffffffffffffffffffffffffffffffffffff168473ffffffffffffffffffffffffffffffffffffffff167fddf252ad1be2c89b69c2b068fc378daa952ba7f163c4a11628f55a4df523b3ef60405160405180910390a4505050565b6000600660009054906101000a900473ffffffffffffffffffffffffffffffffffffffff16905081600660006101000a81548173ffffffffffffffffffffffffffffffffffffffff021916908373ffffffffffffffffffffffffffffffffffffffff1602179055508173ffffffffffffffffffffffffffffffffffffffff168173ffffffffffffffffffffffffffffffffffffffff167f8be0079c531659141344cd1fd0a4f28419497f9722a3daafe3b4186f6b6457e060405160405180910390a35050565b8173ffffffffffffffffffffffffffffffffffffffff168373ffffffffffffffffffffffffffffffffffffffff161415611f80576040517f08c379a0000000000000000000000000000000000000000000000000000000008152600401611f7790613490565b60405180910390fd5b80600560008573ffffffffffffffffffffffffffffffffffffffff1673ffffffffffffffffffffffffffffffffffffffff16815260200190815260200160002060008473ffffffffffffffffffffffffffffffffffffffff1673ffffffffffffffffffffffffffffffffffffffff16815260200190815260200160002060006101000a81548160ff0219169083151502179055508173ffffffffffffffffffffffffffffffffffffffff168373ffffffffffffffffffffffffffffffffffffffff167f17307eab39ab6107e8899845ad3d59bd9653f200f220920489ca2b5937696c31836040516120719190613363565b60405180910390a3505050565b612089848484611bef565b612095848484846125df565b6120d4576040517f08c379a00000000000000000000000000000000000000000000000000000000081526004016120cb906133f0565b60405180910390fd5b50505050565b600080600980549050905060008111612128576040517f08c379a000000000000000000000000000000000000000000000000000000000815260040161211f906134b0565b60405180910390fd5b6000838051906020012060001c9050600082826121459190613a4c565b9050600060098281548110612183577f4e487b7100000000000000000000000000000000000000000000000000000000600052603260045260246000fd5b90600052602060002090601091828204019190066002029054906101000a900461ffff1661ffff16905060096001856121bc91906138b6565b815481106121f3577f4e487b7100000000000000000000000000000000000000000000000000000000600052603260045260246000fd5b90600052602060002090601091828204019190066002029054906101000a900461ffff1660098381548110612251577f4e487b7100000000000000000000000000000000000000000000000000000000600052603260045260246000fd5b90600052602060002090601091828204019190066002026101000a81548161ffff021916908361ffff16021790555060098054806122b8577f4e487b7100000000000000000000000000000000000000000000000000000000600052603160045260246000fd5b60019003818190600052602060002090601091828204019190066002026101000a81549061ffff021916905590556123256040518060400160405280601b81526020017f202e204d696e74696e6720746f6b656e206e756d6265723a202573000000000081525082611799565b61232f8782612776565b7f0342545ef0c22a18976b8b2eb9bb9401037d89bfe2295c856f0c95a651185e0a878260405161236092919061333a565b60405180910390a15050505092915050565b6060600c8054612381906139a0565b80601f01602080910402602001604051908101604052809291908181526020018280546123ad906139a0565b80156123fa5780601f106123cf576101008083540402835291602001916123fa565b820191906000526020600020905b8154815290600101906020018083116123dd57829003601f168201915b5050505050905090565b6060600082141561244c576040518060400160405280600181526020017f300000000000000000000000000000000000000000000000000000000000000081525090506125ac565b600082905060005b6000821461247e57808061246790613a03565b915050600a82612477919061382b565b9150612454565b60008167ffffffffffffffff8111156124c0577f4e487b7100000000000000000000000000000000000000000000000000000000600052604160045260246000fd5b6040519080825280601f01601f1916602001820160405280156124f25781602001600182028036833780820191505090505b5090505b600085146125a55760018261250b91906138b6565b9150600a8561251a9190613a4c565b603061252691906137d5565b60f81b818381518110612562577f4e487b7100000000000000000000000000000000000000000000000000000000600052603260045260246000fd5b60200101907effffffffffffffffffffffffffffffffffffffffffffffffffffffffffffff1916908160001a905350600a8561259e919061382b565b94506124f6565b8093505050505b919050565b60008151905060006a636f6e736f6c652e6c6f679050602083016000808483855afa5050505050565b505050565b60006126008473ffffffffffffffffffffffffffffffffffffffff16612944565b15612769578373ffffffffffffffffffffffffffffffffffffffff1663150b7a0261262961190b565b8786866040518563ffffffff1660e01b815260040161264b94939291906132ee565b602060405180830381600087803b15801561266557600080fd5b505af192505050801561269657506040513d601f19601f820116820180604052508101906126939190612ddd565b60015b612719573d80600081146126c6576040519150601f19603f3d011682016040523d82523d6000602084013e6126cb565b606091505b50600081511415612711576040517f08c379a0000000000000000000000000000000000000000000000000000000008152600401612708906133f0565b60405180910390fd5b805181602001fd5b63150b7a0260e01b7bffffffffffffffffffffffffffffffffffffffffffffffffffffffff1916817bffffffffffffffffffffffffffffffffffffffffffffffffffffffff19161491505061276e565b600190505b949350505050565b600073ffffffffffffffffffffffffffffffffffffffff168273ffffffffffffffffffffffffffffffffffffffff1614156127e6576040517f08c379a00000000000000000000000000000000000000000000000000000000081526004016127dd90613590565b60405180910390fd5b6127ef8161189f565b1561282f576040517f08c379a000000000000000000000000000000000000000000000000000000000815260040161282690613430565b60405180910390fd5b61283b600083836125da565b6001600360008473ffffffffffffffffffffffffffffffffffffffff1673ffffffffffffffffffffffffffffffffffffffff168152602001908152602001600020600082825461288b91906137d5565b92505081905550816002600083815260200190815260200160002060006101000a81548173ffffffffffffffffffffffffffffffffffffffff021916908373ffffffffffffffffffffffffffffffffffffffff160217905550808273ffffffffffffffffffffffffffffffffffffffff16600073ffffffffffffffffffffffffffffffffffffffff167fddf252ad1be2c89b69c2b068fc378daa952ba7f163c4a11628f55a4df523b3ef60405160405180910390a45050565b600080823b905060008111915050919050565b828054612963906139a0565b90600052602060002090601f01602090048101928261298557600085556129cc565b82601f1061299e57803560ff19168380011785556129cc565b828001600101855582156129cc579182015b828111156129cb5782358255916020019190600101906129b0565b5b5090506129d991906129dd565b5090565b5b808211156129f65760008160009055506001016129de565b5090565b6000612a0d612a0884613730565b61370b565b905082815260208101848484011115612a2557600080fd5b612a3084828561395e565b509392505050565b6000612a4b612a4684613761565b61370b565b905082815260208101848484011115612a6357600080fd5b612a6e84828561395e565b509392505050565b600081359050612a85816141ab565b92915050565b600081359050612a9a816141c2565b92915050565b600081359050612aaf816141d9565b92915050565b600081519050612ac4816141d9565b92915050565b600082601f830112612adb57600080fd5b8135612aeb8482602086016129fa565b91505092915050565b60008083601f840112612b0657600080fd5b8235905067ffffffffffffffff811115612b1f57600080fd5b602083019150836001820283011115612b3757600080fd5b9250929050565b600082601f830112612b4f57600080fd5b8135612b5f848260208601612a38565b91505092915050565b600081359050612b77816141f0565b92915050565b600060208284031215612b8f57600080fd5b6000612b9d84828501612a76565b91505092915050565b60008060408385031215612bb957600080fd5b6000612bc785828601612a76565b9250506020612bd885828601612a76565b9150509250929050565b600080600060608486031215612bf757600080fd5b6000612c0586828701612a76565b9350506020612c1686828701612a76565b9250506040612c2786828701612b68565b9150509250925092565b60008060008060808587031215612c4757600080fd5b6000612c5587828801612a76565b9450506020612c6687828801612a76565b9350506040612c7787828801612b68565b925050606085013567ffffffffffffffff811115612c9457600080fd5b612ca087828801612aca565b91505092959194509250565b60008060408385031215612cbf57600080fd5b6000612ccd85828601612a76565b9250506020612cde85828601612a8b565b9150509250929050565b600080600060608486031215612cfd57600080fd5b6000612d0b86828701612a76565b935050602084013567ffffffffffffffff811115612d2857600080fd5b612d3486828701612b3e565b9250506040612d4586828701612b68565b9150509250925092565b60008060408385031215612d6257600080fd5b6000612d7085828601612a76565b9250506020612d8185828601612b68565b9150509250929050565b600060208284031215612d9d57600080fd5b6000612dab84828501612a8b565b91505092915050565b600060208284031215612dc657600080fd5b6000612dd484828501612aa0565b91505092915050565b600060208284031215612def57600080fd5b6000612dfd84828501612ab5565b91505092915050565b60008060208385031215612e1957600080fd5b600083013567ffffffffffffffff811115612e3357600080fd5b612e3f85828601612af4565b92509250509250929050565b600060208284031215612e5d57600080fd5b6000612e6b84828501612b68565b91505092915050565b612e7d816138ea565b82525050565b612e8c816138fc565b82525050565b6000612e9d82613792565b612ea781856137a8565b9350612eb781856020860161396d565b612ec081613b39565b840191505092915050565b6000612ed68261379d565b612ee081856137b9565b9350612ef081856020860161396d565b612ef981613b39565b840191505092915050565b6000612f0f8261379d565b612f1981856137ca565b9350612f2981856020860161396d565b80840191505092915050565b6000612f426014836137b9565b9150612f4d82613b4a565b602082019050919050565b6000612f656032836137b9565b9150612f7082613b73565b604082019050919050565b6000612f886026836137b9565b9150612f9382613bc2565b604082019050919050565b6000612fab601c836137b9565b9150612fb682613c11565b602082019050919050565b6000612fce6023836137b9565b9150612fd982613c3a565b604082019050919050565b6000612ff16024836137b9565b9150612ffc82613c89565b604082019050919050565b60006130146019836137b9565b915061301f82613cd8565b602082019050919050565b6000613037602a836137b9565b915061304282613d01565b604082019050919050565b600061305a602c836137b9565b915061306582613d50565b604082019050919050565b600061307d6010836137b9565b915061308882613d9f565b602082019050919050565b60006130a0601b836137b9565b91506130ab82613dc8565b602082019050919050565b60006130c36038836137b9565b91506130ce82613df1565b604082019050919050565b60006130e6602a836137b9565b91506130f182613e40565b604082019050919050565b60006131096029836137b9565b915061311482613e8f565b604082019050919050565b600061312c6020836137b9565b915061313782613ede565b602082019050919050565b600061314f602c836137b9565b915061315a82613f07565b604082019050919050565b60006131726020836137b9565b915061317d82613f56565b602082019050919050565b60006131956029836137b9565b91506131a082613f7f565b604082019050919050565b60006131b8602f836137b9565b91506131c382613fce565b604082019050919050565b60006131db6022836137b9565b91506131e68261401d565b604082019050919050565b60006131fe6021836137b9565b91506132098261406c565b604082019050919050565b6000613221600f836137b9565b915061322c826140bb565b602082019050919050565b60006132446031836137b9565b915061324f826140e4565b604082019050919050565b60006132676017836137b9565b915061327282614133565b602082019050919050565b600061328a602e836137b9565b91506132958261415c565b604082019050919050565b6132a981613954565b82525050565b60006132bb8285612f04565b91506132c78284612f04565b91508190509392505050565b60006020820190506132e86000830184612e74565b92915050565b60006080820190506133036000830187612e74565b6133106020830186612e74565b61331d60408301856132a0565b818103606083015261332f8184612e92565b905095945050505050565b600060408201905061334f6000830185612e74565b61335c60208301846132a0565b9392505050565b60006020820190506133786000830184612e83565b92915050565b600060208201905081810360008301526133988184612ecb565b905092915050565b600060408201905081810360008301526133ba8185612ecb565b90506133c960208301846132a0565b9392505050565b600060208201905081810360008301526133e981612f35565b9050919050565b6000602082019050818103600083015261340981612f58565b9050919050565b6000602082019050818103600083015261342981612f7b565b9050919050565b6000602082019050818103600083015261344981612f9e565b9050919050565b6000602082019050818103600083015261346981612fc1565b9050919050565b6000602082019050818103600083015261348981612fe4565b9050919050565b600060208201905081810360008301526134a981613007565b9050919050565b600060208201905081810360008301526134c98161302a565b9050919050565b600060208201905081810360008301526134e98161304d565b9050919050565b6000602082019050818103600083015261350981613070565b9050919050565b6000602082019050818103600083015261352981613093565b9050919050565b60006020820190508181036000830152613549816130b6565b9050919050565b60006020820190508181036000830152613569816130d9565b9050919050565b60006020820190508181036000830152613589816130fc565b9050919050565b600060208201905081810360008301526135a98161311f565b9050919050565b600060208201905081810360008301526135c981613142565b9050919050565b600060208201905081810360008301526135e981613165565b9050919050565b6000602082019050818103600083015261360981613188565b9050919050565b60006020820190508181036000830152613629816131ab565b9050919050565b60006020820190508181036000830152613649816131ce565b9050919050565b60006020820190508181036000830152613669816131f1565b9050919050565b6000602082019050818103600083015261368981613214565b9050919050565b600060208201905081810360008301526136a981613237565b9050919050565b600060208201905081810360008301526136c98161325a565b9050919050565b600060208201905081810360008301526136e98161327d565b9050919050565b600060208201905061370560008301846132a0565b92915050565b6000613715613726565b905061372182826139d2565b919050565b6000604051905090565b600067ffffffffffffffff82111561374b5761374a613b0a565b5b61375482613b39565b9050602081019050919050565b600067ffffffffffffffff82111561377c5761377b613b0a565b5b61378582613b39565b9050602081019050919050565b600081519050919050565b600081519050919050565b600082825260208201905092915050565b600082825260208201905092915050565b600081905092915050565b60006137e082613954565b91506137eb83613954565b9250827fffffffffffffffffffffffffffffffffffffffffffffffffffffffffffffffff038211156138205761381f613a7d565b5b828201905092915050565b600061383682613954565b915061384183613954565b92508261385157613850613aac565b5b828204905092915050565b600061386782613954565b915061387283613954565b9250817fffffffffffffffffffffffffffffffffffffffffffffffffffffffffffffffff04831182151516156138ab576138aa613a7d565b5b828202905092915050565b60006138c182613954565b91506138cc83613954565b9250828210156138df576138de613a7d565b5b828203905092915050565b60006138f582613934565b9050919050565b60008115159050919050565b60007fffffffff0000000000000000000000000000000000000000000000000000000082169050919050565b600073ffffffffffffffffffffffffffffffffffffffff82169050919050565b6000819050919050565b82818337600083830152505050565b60005b8381101561398b578082015181840152602081019050613970565b8381111561399a576000848401525b50505050565b600060028204905060018216806139b857607f821691505b602082108114156139cc576139cb613adb565b5b50919050565b6139db82613b39565b810181811067ffffffffffffffff821117156139fa576139f9613b0a565b5b80604052505050565b6000613a0e82613954565b91507fffffffffffffffffffffffffffffffffffffffffffffffffffffffffffffffff821415613a4157613a40613a7d565b5b600182019050919050565b6000613a5782613954565b9150613a6283613954565b925082613a7257613a71613aac565b5b828206905092915050565b7f4e487b7100000000000000000000000000000000000000000000000000000000600052601160045260246000fd5b7f4e487b7100000000000000000000000000000000000000000000000000000000600052601260045260246000fd5b7f4e487b7100000000000000000000000000000000000000000000000000000000600052602260045260246000fd5b7f4e487b7100000000000000000000000000000000000000000000000000000000600052604160045260246000fd5b6000601f19601f8301169050919050565b7f5061757361626c653a206e6f7420706175736564000000000000000000000000600082015250565b7f4552433732313a207472616e7366657220746f206e6f6e20455243373231526560008201527f63656976657220696d706c656d656e7465720000000000000000000000000000602082015250565b7f4f776e61626c653a206e6577206f776e657220697320746865207a65726f206160008201527f6464726573730000000000000000000000000000000000000000000000000000602082015250565b7f4552433732313a20746f6b656e20616c7265616479206d696e74656400000000600082015250565b7f4b6e6f74733a2072656465656d2077696e646f7720686173206e6f74206f706560008201527f6e65640000000000000000000000000000000000000000000000000000000000602082015250565b7f4552433732313a207472616e7366657220746f20746865207a65726f2061646460008201527f7265737300000000000000000000000000000000000000000000000000000000602082015250565b7f4552433732313a20617070726f766520746f2063616c6c657200000000000000600082015250565b7f4b6e6f74733a206e6f7420656e6f756768206b6e6f747320617661696c61626c60008201527f6520666f72206d696e7400000000000000000000000000000000000000000000602082015250565b7f4552433732313a206f70657261746f7220717565727920666f72206e6f6e657860008201527f697374656e7420746f6b656e0000000000000000000000000000000000000000602082015250565b7f5061757361626c653a2070617573656400000000000000000000000000000000600082015250565b7f4b6e6f74733a2073616c6520686173206e6f7420737461727465640000000000600082015250565b7f4552433732313a20617070726f76652063616c6c6572206973206e6f74206f7760008201527f6e6572206e6f7220617070726f76656420666f7220616c6c0000000000000000602082015250565b7f4552433732313a2062616c616e636520717565727920666f7220746865207a6560008201527f726f206164647265737300000000000000000000000000000000000000000000602082015250565b7f4552433732313a206f776e657220717565727920666f72206e6f6e657869737460008201527f656e7420746f6b656e0000000000000000000000000000000000000000000000602082015250565b7f4552433732313a206d696e7420746f20746865207a65726f2061646472657373600082015250565b7f4552433732313a20617070726f76656420717565727920666f72206e6f6e657860008201527f697374656e7420746f6b656e0000000000000000000000000000000000000000602082015250565b7f4f776e61626c653a2063616c6c6572206973206e6f7420746865206f776e6572600082015250565b7f4552433732313a207472616e73666572206f6620746f6b656e2074686174206960008201527f73206e6f74206f776e0000000000000000000000000000000000000000000000602082015250565b7f4552433732314d657461646174613a2055524920717565727920666f72206e6f60008201527f6e6578697374656e7420746f6b656e0000000000000000000000000000000000602082015250565b7f4b6e6f74733a206d6178696d756d206d696e7420636f756e742065786365656460008201527f6564000000000000000000000000000000000000000000000000000000000000602082015250565b7f4552433732313a20617070726f76616c20746f2063757272656e74206f776e6560008201527f7200000000000000000000000000000000000000000000000000000000000000602082015250565b7f4b6e6f74733a20736f6c64206f75740000000000000000000000000000000000600082015250565b7f4552433732313a207472616e736665722063616c6c6572206973206e6f74206f60008201527f776e6572206e6f7220617070726f766564000000000000000000000000000000602082015250565b7f4b6e6f74733a20696e76616c6964206d696e7420666565000000000000000000600082015250565b7f4b6e6f74733a20696e76616c6964206d696e742066656520666f72206e6f766560008201527f6c20746f6b656e20686f6c646572000000000000000000000000000000000000602082015250565b6141b4816138ea565b81146141bf57600080fd5b50565b6141cb816138fc565b81146141d657600080fd5b50565b6141e281613908565b81146141ed57600080fd5b50565b6141f981613954565b811461420457600080fd5b5056fea2646970667358221220dfb56eefa3f8a9e961f62a573bd4ff2e3adeb0d5ca56d97805fe53787ad1b28464736f6c63430008040033",
  "devdoc": {
    "kind": "dev",
    "methods": {
      "approve(address,uint256)": {
        "details": "See {IERC721-approve}."
      },
      "balanceOf(address)": {
        "details": "See {IERC721-balanceOf}."
      },
      "getApproved(uint256)": {
        "details": "See {IERC721-getApproved}."
      },
      "isApprovedForAll(address,address)": {
        "details": "See {IERC721-isApprovedForAll}."
      },
      "name()": {
        "details": "See {IERC721Metadata-name}."
      },
      "owner()": {
        "details": "Returns the address of the current owner."
      },
      "ownerOf(uint256)": {
        "details": "See {IERC721-ownerOf}."
      },
      "paused()": {
        "details": "Returns true if the contract is paused, and false otherwise."
      },
      "renounceOwnership()": {
        "details": "Leaves the contract without owner. It will not be possible to call `onlyOwner` functions anymore. Can only be called by the current owner. NOTE: Renouncing ownership will leave the contract without an owner, thereby removing any functionality that is only available to the owner."
      },
      "safeTransferFrom(address,address,uint256)": {
        "details": "See {IERC721-safeTransferFrom}."
      },
      "safeTransferFrom(address,address,uint256,bytes)": {
        "details": "See {IERC721-safeTransferFrom}."
      },
      "setApprovalForAll(address,bool)": {
        "details": "See {IERC721-setApprovalForAll}."
      },
      "supportsInterface(bytes4)": {
        "details": "See {IERC165-supportsInterface}."
      },
      "symbol()": {
        "details": "See {IERC721Metadata-symbol}."
      },
      "tokenURI(uint256)": {
        "details": "See {IERC721Metadata-tokenURI}."
      },
      "transferFrom(address,address,uint256)": {
        "details": "See {IERC721-transferFrom}."
      },
      "transferOwnership(address)": {
        "details": "Transfers ownership of the contract to a new account (`newOwner`). Can only be called by the current owner."
      }
    },
    "version": 1
  },
  "userdoc": {
    "kind": "user",
    "methods": {},
    "version": 1
  },
  "storageLayout": {
    "storage": [
      {
        "astId": 871,
        "contract": "contracts/Knots.sol:Knots",
        "label": "_name",
        "offset": 0,
        "slot": "0",
        "type": "t_string_storage"
      },
      {
        "astId": 873,
        "contract": "contracts/Knots.sol:Knots",
        "label": "_symbol",
        "offset": 0,
        "slot": "1",
        "type": "t_string_storage"
      },
      {
        "astId": 877,
        "contract": "contracts/Knots.sol:Knots",
        "label": "_owners",
        "offset": 0,
        "slot": "2",
        "type": "t_mapping(t_uint256,t_address)"
      },
      {
        "astId": 881,
        "contract": "contracts/Knots.sol:Knots",
        "label": "_balances",
        "offset": 0,
        "slot": "3",
        "type": "t_mapping(t_address,t_uint256)"
      },
      {
        "astId": 885,
        "contract": "contracts/Knots.sol:Knots",
        "label": "_tokenApprovals",
        "offset": 0,
        "slot": "4",
        "type": "t_mapping(t_uint256,t_address)"
      },
      {
        "astId": 891,
        "contract": "contracts/Knots.sol:Knots",
        "label": "_operatorApprovals",
        "offset": 0,
        "slot": "5",
        "type": "t_mapping(t_address,t_mapping(t_address,t_bool))"
      },
      {
        "astId": 7,
        "contract": "contracts/Knots.sol:Knots",
        "label": "_owner",
        "offset": 0,
        "slot": "6",
        "type": "t_address"
      },
      {
        "astId": 122,
        "contract": "contracts/Knots.sol:Knots",
        "label": "_paused",
        "offset": 20,
        "slot": "6",
        "type": "t_bool"
      },
      {
        "astId": 2506,
        "contract": "contracts/Knots.sol:Knots",
        "label": "MAX_KNOTS",
        "offset": 21,
        "slot": "6",
        "type": "t_uint16"
      },
      {
        "astId": 2509,
        "contract": "contracts/Knots.sol:Knots",
        "label": "MAX_MINTS",
        "offset": 23,
        "slot": "6",
        "type": "t_uint8"
      },
      {
        "astId": 2514,
        "contract": "contracts/Knots.sol:Knots",
        "label": "MINT_PRICE",
        "offset": 0,
        "slot": "7",
        "type": "t_uint256"
      },
      {
        "astId": 2518,
        "contract": "contracts/Knots.sol:Knots",
        "label": "hasVoucher",
        "offset": 0,
        "slot": "8",
        "type": "t_mapping(t_address,t_bool)"
      },
      {
        "astId": 2526,
        "contract": "contracts/Knots.sol:Knots",
        "label": "knotsAvailable",
        "offset": 0,
        "slot": "9",
        "type": "t_array(t_uint16)dyn_storage"
      },
      {
        "astId": 2528,
        "contract": "contracts/Knots.sol:Knots",
        "label": "saleStartsAt",
        "offset": 0,
        "slot": "10",
        "type": "t_uint256"
      },
      {
        "astId": 2530,
        "contract": "contracts/Knots.sol:Knots",
        "label": "redeemStartsAt",
        "offset": 0,
        "slot": "11",
        "type": "t_uint256"
      },
      {
        "astId": 2532,
        "contract": "contracts/Knots.sol:Knots",
        "label": "baseURI",
        "offset": 0,
        "slot": "12",
        "type": "t_string_storage"
      },
      {
        "astId": 2534,
        "contract": "contracts/Knots.sol:Knots",
        "label": "wurmWallet",
        "offset": 0,
        "slot": "13",
        "type": "t_address_payable"
      },
      {
        "astId": 2536,
        "contract": "contracts/Knots.sol:Knots",
        "label": "violetWallet",
        "offset": 0,
        "slot": "14",
        "type": "t_address_payable"
      },
      {
        "astId": 2538,
        "contract": "contracts/Knots.sol:Knots",
        "label": "nemesisWallet",
        "offset": 0,
        "slot": "15",
        "type": "t_address_payable"
      },
      {
        "astId": 2540,
        "contract": "contracts/Knots.sol:Knots",
        "label": "chrisWallet",
        "offset": 0,
        "slot": "16",
        "type": "t_address_payable"
      },
      {
        "astId": 2542,
        "contract": "contracts/Knots.sol:Knots",
        "label": "delugeWallet",
        "offset": 0,
        "slot": "17",
        "type": "t_address_payable"
      },
      {
        "astId": 2545,
        "contract": "contracts/Knots.sol:Knots",
        "label": "wurmShare",
        "offset": 20,
        "slot": "17",
        "type": "t_uint8"
      },
      {
        "astId": 2548,
        "contract": "contracts/Knots.sol:Knots",
        "label": "violetShare",
        "offset": 21,
        "slot": "17",
        "type": "t_uint8"
      },
      {
        "astId": 2551,
        "contract": "contracts/Knots.sol:Knots",
        "label": "nemesisShare",
        "offset": 22,
        "slot": "17",
        "type": "t_uint8"
      },
      {
        "astId": 2554,
        "contract": "contracts/Knots.sol:Knots",
        "label": "chrisShare",
        "offset": 23,
        "slot": "17",
        "type": "t_uint8"
      }
    ],
    "types": {
      "t_address": {
        "encoding": "inplace",
        "label": "address",
        "numberOfBytes": "20"
      },
      "t_address_payable": {
        "encoding": "inplace",
        "label": "address payable",
        "numberOfBytes": "20"
      },
      "t_array(t_uint16)dyn_storage": {
        "base": "t_uint16",
        "encoding": "dynamic_array",
        "label": "uint16[]",
        "numberOfBytes": "32"
      },
      "t_bool": {
        "encoding": "inplace",
        "label": "bool",
        "numberOfBytes": "1"
      },
      "t_mapping(t_address,t_bool)": {
        "encoding": "mapping",
        "key": "t_address",
        "label": "mapping(address => bool)",
        "numberOfBytes": "32",
        "value": "t_bool"
      },
      "t_mapping(t_address,t_mapping(t_address,t_bool))": {
        "encoding": "mapping",
        "key": "t_address",
        "label": "mapping(address => mapping(address => bool))",
        "numberOfBytes": "32",
        "value": "t_mapping(t_address,t_bool)"
      },
      "t_mapping(t_address,t_uint256)": {
        "encoding": "mapping",
        "key": "t_address",
        "label": "mapping(address => uint256)",
        "numberOfBytes": "32",
        "value": "t_uint256"
      },
      "t_mapping(t_uint256,t_address)": {
        "encoding": "mapping",
        "key": "t_uint256",
        "label": "mapping(uint256 => address)",
        "numberOfBytes": "32",
        "value": "t_address"
      },
      "t_string_storage": {
        "encoding": "bytes",
        "label": "string",
        "numberOfBytes": "32"
      },
      "t_uint16": {
        "encoding": "inplace",
        "label": "uint16",
        "numberOfBytes": "2"
      },
      "t_uint256": {
        "encoding": "inplace",
        "label": "uint256",
        "numberOfBytes": "32"
      },
      "t_uint8": {
        "encoding": "inplace",
        "label": "uint8",
        "numberOfBytes": "1"
      }
    }
  }
}