{
  "address": "0x5FbDB2315678afecb367f032d93F642f64180aa3",
  "abi": [
    {
      "inputs": [
        {
          "internalType": "string",
          "name": "metadataBaseURI",
          "type": "string"
        },
        {
          "internalType": "address payable",
          "name": "_wurmWallet",
          "type": "address"
        },
        {
          "internalType": "address payable",
          "name": "_violetWallet",
          "type": "address"
        },
        {
          "internalType": "address payable",
          "name": "_nemesisWallet",
          "type": "address"
        },
        {
          "internalType": "address payable",
          "name": "_chrisWallet",
          "type": "address"
        },
        {
          "internalType": "address payable",
          "name": "_delugeWallet",
          "type": "address"
        },
        {
          "internalType": "uint256",
          "name": "_saleStartsAt",
          "type": "uint256"
        },
        {
          "internalType": "uint256",
          "name": "_redeemStartsAt",
          "type": "uint256"
        },
        {
          "internalType": "address[]",
          "name": "novelTokenHolders",
          "type": "address[]"
        }
      ],
      "stateMutability": "nonpayable",
      "type": "constructor"
    },
    {
      "inputs": [
        {
          "internalType": "uint256",
          "name": "received",
          "type": "uint256"
        },
        {
          "internalType": "uint256",
          "name": "expected",
          "type": "uint256"
        }
      ],
      "name": "WrongPrice",
      "type": "error"
    },
    {
      "anonymous": false,
      "inputs": [
        {
          "indexed": true,
          "internalType": "address",
          "name": "owner",
          "type": "address"
        },
        {
          "indexed": true,
          "internalType": "address",
          "name": "approved",
          "type": "address"
        },
        {
          "indexed": true,
          "internalType": "uint256",
          "name": "tokenId",
          "type": "uint256"
        }
      ],
      "name": "Approval",
      "type": "event"
    },
    {
      "anonymous": false,
      "inputs": [
        {
          "indexed": true,
          "internalType": "address",
          "name": "owner",
          "type": "address"
        },
        {
          "indexed": true,
          "internalType": "address",
          "name": "operator",
          "type": "address"
        },
        {
          "indexed": false,
          "internalType": "bool",
          "name": "approved",
          "type": "bool"
        }
      ],
      "name": "ApprovalForAll",
      "type": "event"
    },
    {
      "anonymous": false,
      "inputs": [
        {
          "indexed": true,
          "internalType": "address",
          "name": "previousOwner",
          "type": "address"
        },
        {
          "indexed": true,
          "internalType": "address",
          "name": "newOwner",
          "type": "address"
        }
      ],
      "name": "OwnershipTransferred",
      "type": "event"
    },
    {
      "anonymous": false,
      "inputs": [
        {
          "indexed": false,
          "internalType": "address",
          "name": "account",
          "type": "address"
        }
      ],
      "name": "Paused",
      "type": "event"
    },
    {
      "anonymous": false,
      "inputs": [
        {
          "indexed": true,
          "internalType": "address",
          "name": "from",
          "type": "address"
        },
        {
          "indexed": true,
          "internalType": "address",
          "name": "to",
          "type": "address"
        },
        {
          "indexed": true,
          "internalType": "uint256",
          "name": "tokenId",
          "type": "uint256"
        }
      ],
      "name": "Transfer",
      "type": "event"
    },
    {
      "anonymous": false,
      "inputs": [
        {
          "indexed": false,
          "internalType": "address",
          "name": "account",
          "type": "address"
        }
      ],
      "name": "Unpaused",
      "type": "event"
    },
    {
      "inputs": [
        {
          "internalType": "address",
          "name": "to",
          "type": "address"
        },
        {
          "internalType": "uint256",
          "name": "tokenId",
          "type": "uint256"
        }
      ],
      "name": "approve",
      "outputs": [],
      "stateMutability": "nonpayable",
      "type": "function"
    },
    {
      "inputs": [
        {
          "internalType": "address",
          "name": "owner",
          "type": "address"
        }
      ],
      "name": "balanceOf",
      "outputs": [
        {
          "internalType": "uint256",
          "name": "",
          "type": "uint256"
        }
      ],
      "stateMutability": "view",
      "type": "function"
    },
    {
      "inputs": [
        {
          "internalType": "uint256",
          "name": "tokenId",
          "type": "uint256"
        }
      ],
      "name": "getApproved",
      "outputs": [
        {
          "internalType": "address",
          "name": "",
          "type": "address"
        }
      ],
      "stateMutability": "view",
      "type": "function"
    },
    {
      "inputs": [
        {
          "internalType": "address",
          "name": "recipient",
          "type": "address"
        }
      ],
      "name": "hasVouchers",
      "outputs": [
        {
          "internalType": "bool",
          "name": "",
          "type": "bool"
        }
      ],
      "stateMutability": "view",
      "type": "function"
    },
    {
      "inputs": [
        {
          "internalType": "address",
          "name": "owner",
          "type": "address"
        },
        {
          "internalType": "address",
          "name": "operator",
          "type": "address"
        }
      ],
      "name": "isApprovedForAll",
      "outputs": [
        {
          "internalType": "bool",
          "name": "",
          "type": "bool"
        }
      ],
      "stateMutability": "view",
      "type": "function"
    },
    {
      "inputs": [
        {
          "internalType": "address",
          "name": "recipient",
          "type": "address"
        },
        {
          "internalType": "uint256",
          "name": "seed",
          "type": "uint256"
        },
        {
          "internalType": "uint256",
          "name": "numKnots",
          "type": "uint256"
        }
      ],
      "name": "mint",
      "outputs": [],
      "stateMutability": "payable",
      "type": "function"
    },
    {
      "inputs": [],
      "name": "name",
      "outputs": [
        {
          "internalType": "string",
          "name": "",
          "type": "string"
        }
      ],
      "stateMutability": "view",
      "type": "function"
    },
    {
      "inputs": [],
      "name": "owner",
      "outputs": [
        {
          "internalType": "address",
          "name": "",
          "type": "address"
        }
      ],
      "stateMutability": "view",
      "type": "function"
    },
    {
      "inputs": [
        {
          "internalType": "uint256",
          "name": "tokenId",
          "type": "uint256"
        }
      ],
      "name": "ownerOf",
      "outputs": [
        {
          "internalType": "address",
          "name": "",
          "type": "address"
        }
      ],
      "stateMutability": "view",
      "type": "function"
    },
    {
      "inputs": [],
      "name": "paused",
      "outputs": [
        {
          "internalType": "bool",
          "name": "",
          "type": "bool"
        }
      ],
      "stateMutability": "view",
      "type": "function"
    },
    {
      "inputs": [],
      "name": "renounceOwnership",
      "outputs": [],
      "stateMutability": "nonpayable",
      "type": "function"
    },
    {
      "inputs": [
        {
          "internalType": "address",
          "name": "from",
          "type": "address"
        },
        {
          "internalType": "address",
          "name": "to",
          "type": "address"
        },
        {
          "internalType": "uint256",
          "name": "tokenId",
          "type": "uint256"
        }
      ],
      "name": "safeTransferFrom",
      "outputs": [],
      "stateMutability": "nonpayable",
      "type": "function"
    },
    {
      "inputs": [
        {
          "internalType": "address",
          "name": "from",
          "type": "address"
        },
        {
          "internalType": "address",
          "name": "to",
          "type": "address"
        },
        {
          "internalType": "uint256",
          "name": "tokenId",
          "type": "uint256"
        },
        {
          "internalType": "bytes",
          "name": "_data",
          "type": "bytes"
        }
      ],
      "name": "safeTransferFrom",
      "outputs": [],
      "stateMutability": "nonpayable",
      "type": "function"
    },
    {
      "inputs": [
        {
          "internalType": "address",
          "name": "operator",
          "type": "address"
        },
        {
          "internalType": "bool",
          "name": "approved",
          "type": "bool"
        }
      ],
      "name": "setApprovalForAll",
      "outputs": [],
      "stateMutability": "nonpayable",
      "type": "function"
    },
    {
      "inputs": [
        {
          "internalType": "bytes4",
          "name": "interfaceId",
          "type": "bytes4"
        }
      ],
      "name": "supportsInterface",
      "outputs": [
        {
          "internalType": "bool",
          "name": "",
          "type": "bool"
        }
      ],
      "stateMutability": "view",
      "type": "function"
    },
    {
      "inputs": [],
      "name": "symbol",
      "outputs": [
        {
          "internalType": "string",
          "name": "",
          "type": "string"
        }
      ],
      "stateMutability": "view",
      "type": "function"
    },
    {
      "inputs": [
        {
          "internalType": "uint256",
          "name": "tokenId",
          "type": "uint256"
        }
      ],
      "name": "tokenURI",
      "outputs": [
        {
          "internalType": "string",
          "name": "",
          "type": "string"
        }
      ],
      "stateMutability": "view",
      "type": "function"
    },
    {
      "inputs": [
        {
          "internalType": "address",
          "name": "from",
          "type": "address"
        },
        {
          "internalType": "address",
          "name": "to",
          "type": "address"
        },
        {
          "internalType": "uint256",
          "name": "tokenId",
          "type": "uint256"
        }
      ],
      "name": "transferFrom",
      "outputs": [],
      "stateMutability": "nonpayable",
      "type": "function"
    },
    {
      "inputs": [
        {
          "internalType": "address",
          "name": "newOwner",
          "type": "address"
        }
      ],
      "name": "transferOwnership",
      "outputs": [],
      "stateMutability": "nonpayable",
      "type": "function"
    },
    {
      "inputs": [
        {
          "internalType": "string",
          "name": "_baseURI",
          "type": "string"
        }
      ],
      "name": "updateBaseURI",
      "outputs": [],
      "stateMutability": "nonpayable",
      "type": "function"
    },
    {
      "inputs": [
        {
          "internalType": "bool",
          "name": "_paused",
          "type": "bool"
        }
      ],
      "name": "updatePaused",
      "outputs": [],
      "stateMutability": "nonpayable",
      "type": "function"
    }
  ],
  "transactionHash": "0x52bdb15cc35eae15c3646d36514a534df271212672b1bc077de6912e80902d1e",
  "args": [
    "ipfs://QmZ2CQgQ18r3Bo5ArBSwHy1JmvkwUR3gCoYTrJWTb59N1d/",
    "0xf39Fd6e51aad88F6F4ce6aB8827279cffFb92266",
    "0xf39Fd6e51aad88F6F4ce6aB8827279cffFb92266",
    "0xf39Fd6e51aad88F6F4ce6aB8827279cffFb92266",
    "0xf39Fd6e51aad88F6F4ce6aB8827279cffFb92266",
    "0xf39Fd6e51aad88F6F4ce6aB8827279cffFb92266",
    1644786852,
    1644786952,
    [
      "0xf39Fd6e51aad88F6F4ce6aB8827279cffFb92266",
      "0xf39Fd6e51aad88F6F4ce6aB8827279cffFb92266",
      "0xf39Fd6e51aad88F6F4ce6aB8827279cffFb92266",
      "0xf39Fd6e51aad88F6F4ce6aB8827279cffFb92266",
      "0xf39Fd6e51aad88F6F4ce6aB8827279cffFb92266"
    ]
  ],
  "numDeployments": 1,
  "solcInputHash": "8681fba735f799de7ef0a889890ed8fe",
  "bytecode": "0x60806040526102d0600660156101000a81548161ffff021916908361ffff1602179055506005600660176101000a81548160ff021916908360ff16021790555065f5904616e000600755600660159054906101000a900461ffff1661ffff1667ffffffffffffffff8111156200009e577f4e487b7100000000000000000000000000000000000000000000000000000000600052604160045260246000fd5b604051908082528060200260200182016040528015620000cd5781602001602082028036833780820191505090505b5060099080519060200190620000e5929190620005ce565b50600a601255601e601355600a601455600a6015553480156200010757600080fd5b5060405162004aa838038062004aa883398181016040528101906200012d919062000888565b6040518060400160405280600581526020017f4b4e4f54530000000000000000000000000000000000000000000000000000008152506040518060400160405280600481526020017f4b4e4f54000000000000000000000000000000000000000000000000000000008152508160009080519060200190620001b19291906200067f565b508060019080519060200190620001ca9291906200067f565b505050620001ed620001e16200050060201b60201c565b6200050860201b60201c565b6000600660146101000a81548160ff02191690831515021790555060005b600660159054906101000a900461ffff1661ffff168161ffff161015620002bf576001816200023b919062000a21565b60098261ffff16815481106200027a577f4e487b7100000000000000000000000000000000000000000000000000000000600052603260045260246000fd5b90600052602060002090601091828204019190066002026101000a81548161ffff021916908361ffff1602179055508080620002b69062000b62565b9150506200020b565b5087600d60006101000a81548173ffffffffffffffffffffffffffffffffffffffff021916908373ffffffffffffffffffffffffffffffffffffffff16021790555086600e60006101000a81548173ffffffffffffffffffffffffffffffffffffffff021916908373ffffffffffffffffffffffffffffffffffffffff16021790555085600f60006101000a81548173ffffffffffffffffffffffffffffffffffffffff021916908373ffffffffffffffffffffffffffffffffffffffff16021790555084601060006101000a81548173ffffffffffffffffffffffffffffffffffffffff021916908373ffffffffffffffffffffffffffffffffffffffff16021790555083601160006101000a81548173ffffffffffffffffffffffffffffffffffffffff021916908373ffffffffffffffffffffffffffffffffffffffff16021790555082600a8190555081600b8190555060005b81518161ffff161015620004d757600160086000848461ffff168151811062000468577f4e487b7100000000000000000000000000000000000000000000000000000000600052603260045260246000fd5b602002602001015173ffffffffffffffffffffffffffffffffffffffff1673ffffffffffffffffffffffffffffffffffffffff16815260200190815260200160002060006101000a81548160ff0219169083151502179055508080620004ce9062000b62565b91505062000416565b5088600c9080519060200190620004f09291906200067f565b5050505050505050505062000c7e565b600033905090565b6000600660009054906101000a900473ffffffffffffffffffffffffffffffffffffffff16905081600660006101000a81548173ffffffffffffffffffffffffffffffffffffffff021916908373ffffffffffffffffffffffffffffffffffffffff1602179055508173ffffffffffffffffffffffffffffffffffffffff168173ffffffffffffffffffffffffffffffffffffffff167f8be0079c531659141344cd1fd0a4f28419497f9722a3daafe3b4186f6b6457e060405160405180910390a35050565b82805482825590600052602060002090600f016010900481019282156200066c5791602002820160005b838211156200063a57835183826101000a81548161ffff021916908361ffff1602179055509260200192600201602081600101049283019260010302620005f8565b80156200066a5782816101000a81549061ffff02191690556002016020816001010492830192600103026200063a565b505b5090506200067b919062000710565b5090565b8280546200068d9062000af6565b90600052602060002090601f016020900481019282620006b15760008555620006fd565b82601f10620006cc57805160ff1916838001178555620006fd565b82800160010185558215620006fd579182015b82811115620006fc578251825591602001919060010190620006df565b5b5090506200070c919062000710565b5090565b5b808211156200072b57600081600090555060010162000711565b5090565b6000620007466200074084620009bc565b62000993565b905080838252602082019050828560208602820111156200076657600080fd5b60005b858110156200079a57816200077f8882620007e9565b84526020840193506020830192505060018101905062000769565b5050509392505050565b6000620007bb620007b584620009eb565b62000993565b905082815260208101848484011115620007d457600080fd5b620007e184828562000ac0565b509392505050565b600081519050620007fa8162000c30565b92915050565b600081519050620008118162000c4a565b92915050565b600082601f8301126200082957600080fd5b81516200083b8482602086016200072f565b91505092915050565b600082601f8301126200085657600080fd5b815162000868848260208601620007a4565b91505092915050565b600081519050620008828162000c64565b92915050565b60008060008060008060008060006101208a8c031215620008a857600080fd5b60008a015167ffffffffffffffff811115620008c357600080fd5b620008d18c828d0162000844565b9950506020620008e48c828d0162000800565b9850506040620008f78c828d0162000800565b97505060606200090a8c828d0162000800565b96505060806200091d8c828d0162000800565b95505060a0620009308c828d0162000800565b94505060c0620009438c828d0162000871565b93505060e0620009568c828d0162000871565b9250506101008a015167ffffffffffffffff8111156200097557600080fd5b620009838c828d0162000817565b9150509295985092959850929598565b60006200099f620009b2565b9050620009ad828262000b2c565b919050565b6000604051905090565b600067ffffffffffffffff821115620009da57620009d962000bf0565b5b602082029050602081019050919050565b600067ffffffffffffffff82111562000a095762000a0862000bf0565b5b62000a148262000c1f565b9050602081019050919050565b600062000a2e8262000a88565b915062000a3b8362000a88565b92508261ffff0382111562000a555762000a5462000b92565b5b828201905092915050565b600062000a6d8262000a96565b9050919050565b600062000a818262000a96565b9050919050565b600061ffff82169050919050565b600073ffffffffffffffffffffffffffffffffffffffff82169050919050565b6000819050919050565b60005b8381101562000ae057808201518184015260208101905062000ac3565b8381111562000af0576000848401525b50505050565b6000600282049050600182168062000b0f57607f821691505b6020821081141562000b265762000b2562000bc1565b5b50919050565b62000b378262000c1f565b810181811067ffffffffffffffff8211171562000b595762000b5862000bf0565b5b80604052505050565b600062000b6f8262000a88565b915061ffff82141562000b875762000b8662000b92565b5b600182019050919050565b7f4e487b7100000000000000000000000000000000000000000000000000000000600052601160045260246000fd5b7f4e487b7100000000000000000000000000000000000000000000000000000000600052602260045260246000fd5b7f4e487b7100000000000000000000000000000000000000000000000000000000600052604160045260246000fd5b6000601f19601f8301169050919050565b62000c3b8162000a60565b811462000c4757600080fd5b50565b62000c558162000a74565b811462000c6157600080fd5b50565b62000c6f8162000ab6565b811462000c7b57600080fd5b50565b613e1a8062000c8e6000396000f3fe60806040526004361061012a5760003560e01c806370a08231116100ab578063a22cb4651161006f578063a22cb465146103cf578063b88d4fde146103f8578063c87b56dd14610421578063e985e9c51461045e578063eae9f3271461049b578063f2fde38b146104d85761012a565b806370a08231146102fc578063715018a6146103395780638da5cb5b14610350578063931688cb1461037b57806395d89b41146103a45761012a565b8063156e29f6116100f2578063156e29f61461022657806323b872dd1461024257806342842e0e1461026b5780635c975abb146102945780636352211e146102bf5761012a565b806301ffc9a71461012f57806306fdde031461016c578063081812fc1461019757806308cdc2a8146101d4578063095ea7b3146101fd575b600080fd5b34801561013b57600080fd5b5061015660048036038101906101519190612a96565b610501565b6040516101639190612fd2565b60405180910390f35b34801561017857600080fd5b506101816105e3565b60405161018e9190612fed565b60405180910390f35b3480156101a357600080fd5b506101be60048036038101906101b99190612b29565b610675565b6040516101cb9190612f6b565b60405180910390f35b3480156101e057600080fd5b506101fb60048036038101906101f69190612a6d565b6106fa565b005b34801561020957600080fd5b50610224600480360381019061021f91906129e2565b610795565b005b610240600480360381019061023b9190612a1e565b6108ad565b005b34801561024e57600080fd5b50610269600480360381019061026491906128dc565b610ed4565b005b34801561027757600080fd5b50610292600480360381019061028d91906128dc565b610f34565b005b3480156102a057600080fd5b506102a9610f54565b6040516102b69190612fd2565b60405180910390f35b3480156102cb57600080fd5b506102e660048036038101906102e19190612b29565b610f6b565b6040516102f39190612f6b565b60405180910390f35b34801561030857600080fd5b50610323600480360381019061031e9190612877565b61101d565b604051610330919061331f565b60405180910390f35b34801561034557600080fd5b5061034e6110d5565b005b34801561035c57600080fd5b5061036561115d565b6040516103729190612f6b565b60405180910390f35b34801561038757600080fd5b506103a2600480360381019061039d9190612ae8565b611187565b005b3480156103b057600080fd5b506103b961121d565b6040516103c69190612fed565b60405180910390f35b3480156103db57600080fd5b506103f660048036038101906103f191906129a6565b6112af565b005b34801561040457600080fd5b5061041f600480360381019061041a919061292b565b6112c5565b005b34801561042d57600080fd5b5061044860048036038101906104439190612b29565b611327565b6040516104559190612fed565b60405180910390f35b34801561046a57600080fd5b50610485600480360381019061048091906128a0565b6113ce565b6040516104929190612fd2565b60405180910390f35b3480156104a757600080fd5b506104c260048036038101906104bd9190612877565b611462565b6040516104cf9190612fd2565b60405180910390f35b3480156104e457600080fd5b506104ff60048036038101906104fa9190612877565b6114b8565b005b60007f80ac58cd000000000000000000000000000000000000000000000000000000007bffffffffffffffffffffffffffffffffffffffffffffffffffffffff1916827bffffffffffffffffffffffffffffffffffffffffffffffffffffffff191614806105cc57507f5b5e139f000000000000000000000000000000000000000000000000000000007bffffffffffffffffffffffffffffffffffffffffffffffffffffffff1916827bffffffffffffffffffffffffffffffffffffffffffffffffffffffff1916145b806105dc57506105db826115b0565b5b9050919050565b6060600080546105f2906135cf565b80601f016020809104026020016040519081016040528092919081815260200182805461061e906135cf565b801561066b5780601f106106405761010080835404028352916020019161066b565b820191906000526020600020905b81548152906001019060200180831161064e57829003601f168201915b5050505050905090565b60006106808261161a565b6106bf576040517f08c379a00000000000000000000000000000000000000000000000000000000081526004016106b69061323f565b60405180910390fd5b6004600083815260200190815260200160002060009054906101000a900473ffffffffffffffffffffffffffffffffffffffff169050919050565b610702611686565b73ffffffffffffffffffffffffffffffffffffffff1661072061115d565b73ffffffffffffffffffffffffffffffffffffffff1614610776576040517f08c379a000000000000000000000000000000000000000000000000000000000815260040161076d9061325f565b60405180910390fd5b80156107895761078461168e565b610792565b610791611731565b5b50565b60006107a082610f6b565b90508073ffffffffffffffffffffffffffffffffffffffff168373ffffffffffffffffffffffffffffffffffffffff161415610811576040517f08c379a0000000000000000000000000000000000000000000000000000000008152600401610808906132bf565b60405180910390fd5b8073ffffffffffffffffffffffffffffffffffffffff16610830611686565b73ffffffffffffffffffffffffffffffffffffffff16148061085f575061085e81610859611686565b6113ce565b5b61089e576040517f08c379a00000000000000000000000000000000000000000000000000000000081526004016108959061319f565b60405180910390fd5b6108a883836117d3565b505050565b6108b5610f54565b156108f5576040517f08c379a00000000000000000000000000000000000000000000000000000000081526004016108ec9061315f565b60405180910390fd5b6000811180156109175750600660179054906101000a900460ff1660ff168111155b610956576040517f08c379a000000000000000000000000000000000000000000000000000000000815260040161094d9061313f565b60405180910390fd5b600860003373ffffffffffffffffffffffffffffffffffffffff1673ffffffffffffffffffffffffffffffffffffffff16815260200190815260200160002060009054906101000a900460ff1615610ac457600b544210156109ed576040517f08c379a00000000000000000000000000000000000000000000000000000000081526004016109e4906130bf565b60405180910390fd5b60006007546001836109ff91906134e5565b610a09919061348b565b90506000600860003373ffffffffffffffffffffffffffffffffffffffff1673ffffffffffffffffffffffffffffffffffffffff16815260200190815260200160002060006101000a81548160ff021916908315150217905550600754600183610a7391906134e5565b610a7d919061348b565b3414610abe576040517f08c379a0000000000000000000000000000000000000000000000000000000008152600401610ab5906132ff565b60405180910390fd5b50610b59565b600a54421015610b09576040517f08c379a0000000000000000000000000000000000000000000000000000000008152600401610b009061317f565b60405180910390fd5b60075481610b17919061348b565b3414610b58576040517f08c379a0000000000000000000000000000000000000000000000000000000008152600401610b4f9061321f565b60405180910390fd5b5b610b986040518060400160405280601781526020017f4e756d204b6e6f7473207265717565737465643a2025730000000000000000008152508261188c565b60005b81811015610c0d576000610bae84611928565b9050610bef6040518060400160405280601881526020017f4d696e74696e6720746f6b656e206e756d6265723a20257300000000000000008152508261188c565b610bf98582611aed565b508080610c0590613632565b915050610b9b565b5060003490506000606460125483610c25919061348b565b610c2f919061345a565b90506000606460135484610c43919061348b565b610c4d919061345a565b90506000606460155485610c61919061348b565b610c6b919061345a565b90506000606460145486610c7f919061348b565b610c89919061345a565b905060008183858789610c9c91906134e5565b610ca691906134e5565b610cb091906134e5565b610cba91906134e5565b9050601160009054906101000a900473ffffffffffffffffffffffffffffffffffffffff1673ffffffffffffffffffffffffffffffffffffffff166108fc829081150290604051600060405180830381858888f19350505050158015610d24573d6000803e3d6000fd5b50600d60009054906101000a900473ffffffffffffffffffffffffffffffffffffffff1673ffffffffffffffffffffffffffffffffffffffff166108fc869081150290604051600060405180830381858888f19350505050158015610d8d573d6000803e3d6000fd5b50600f60009054906101000a900473ffffffffffffffffffffffffffffffffffffffff1673ffffffffffffffffffffffffffffffffffffffff166108fc839081150290604051600060405180830381858888f19350505050158015610df6573d6000803e3d6000fd5b50600e60009054906101000a900473ffffffffffffffffffffffffffffffffffffffff1673ffffffffffffffffffffffffffffffffffffffff166108fc859081150290604051600060405180830381858888f19350505050158015610e5f573d6000803e3d6000fd5b50601060009054906101000a900473ffffffffffffffffffffffffffffffffffffffff1673ffffffffffffffffffffffffffffffffffffffff166108fc849081150290604051600060405180830381858888f19350505050158015610ec8573d6000803e3d6000fd5b50505050505050505050565b610ee5610edf611686565b82611cbb565b610f24576040517f08c379a0000000000000000000000000000000000000000000000000000000008152600401610f1b906132df565b60405180910390fd5b610f2f838383611d99565b505050565b610f4f838383604051806020016040528060008152506112c5565b505050565b6000600660149054906101000a900460ff16905090565b6000806002600084815260200190815260200160002060009054906101000a900473ffffffffffffffffffffffffffffffffffffffff169050600073ffffffffffffffffffffffffffffffffffffffff168173ffffffffffffffffffffffffffffffffffffffff161415611014576040517f08c379a000000000000000000000000000000000000000000000000000000000815260040161100b906131df565b60405180910390fd5b80915050919050565b60008073ffffffffffffffffffffffffffffffffffffffff168273ffffffffffffffffffffffffffffffffffffffff16141561108e576040517f08c379a0000000000000000000000000000000000000000000000000000000008152600401611085906131bf565b60405180910390fd5b600360008373ffffffffffffffffffffffffffffffffffffffff1673ffffffffffffffffffffffffffffffffffffffff168152602001908152602001600020549050919050565b6110dd611686565b73ffffffffffffffffffffffffffffffffffffffff166110fb61115d565b73ffffffffffffffffffffffffffffffffffffffff1614611151576040517f08c379a00000000000000000000000000000000000000000000000000000000081526004016111489061325f565b60405180910390fd5b61115b6000611ff5565b565b6000600660009054906101000a900473ffffffffffffffffffffffffffffffffffffffff16905090565b61118f611686565b73ffffffffffffffffffffffffffffffffffffffff166111ad61115d565b73ffffffffffffffffffffffffffffffffffffffff1614611203576040517f08c379a00000000000000000000000000000000000000000000000000000000081526004016111fa9061325f565b60405180910390fd5b80600c908051906020019061121992919061269b565b5050565b60606001805461122c906135cf565b80601f0160208091040260200160405190810160405280929190818152602001828054611258906135cf565b80156112a55780601f1061127a576101008083540402835291602001916112a5565b820191906000526020600020905b81548152906001019060200180831161128857829003601f168201915b5050505050905090565b6112c16112ba611686565b83836120bb565b5050565b6112d66112d0611686565b83611cbb565b611315576040517f08c379a000000000000000000000000000000000000000000000000000000000815260040161130c906132df565b60405180910390fd5b61132184848484612228565b50505050565b60606113328261161a565b611371576040517f08c379a00000000000000000000000000000000000000000000000000000000081526004016113689061329f565b60405180910390fd5b600061137b612284565b9050600081511161139b57604051806020016040528060008152506113c6565b806113a584612316565b6040516020016113b6929190612f47565b6040516020818303038152906040525b915050919050565b6000600560008473ffffffffffffffffffffffffffffffffffffffff1673ffffffffffffffffffffffffffffffffffffffff16815260200190815260200160002060008373ffffffffffffffffffffffffffffffffffffffff1673ffffffffffffffffffffffffffffffffffffffff16815260200190815260200160002060009054906101000a900460ff16905092915050565b6000600860008373ffffffffffffffffffffffffffffffffffffffff1673ffffffffffffffffffffffffffffffffffffffff16815260200190815260200160002060009054906101000a900460ff169050919050565b6114c0611686565b73ffffffffffffffffffffffffffffffffffffffff166114de61115d565b73ffffffffffffffffffffffffffffffffffffffff1614611534576040517f08c379a000000000000000000000000000000000000000000000000000000000815260040161152b9061325f565b60405180910390fd5b600073ffffffffffffffffffffffffffffffffffffffff168173ffffffffffffffffffffffffffffffffffffffff1614156115a4576040517f08c379a000000000000000000000000000000000000000000000000000000000815260040161159b9061307f565b60405180910390fd5b6115ad81611ff5565b50565b60007f01ffc9a7000000000000000000000000000000000000000000000000000000007bffffffffffffffffffffffffffffffffffffffffffffffffffffffff1916827bffffffffffffffffffffffffffffffffffffffffffffffffffffffff1916149050919050565b60008073ffffffffffffffffffffffffffffffffffffffff166002600084815260200190815260200160002060009054906101000a900473ffffffffffffffffffffffffffffffffffffffff1673ffffffffffffffffffffffffffffffffffffffff1614159050919050565b600033905090565b611696610f54565b156116d6576040517f08c379a00000000000000000000000000000000000000000000000000000000081526004016116cd9061315f565b60405180910390fd5b6001600660146101000a81548160ff0219169083151502179055507f62e78cea01bee320cd4e420270b5ea74000d11b0c9f74754ebdbfc544b05a25861171a611686565b6040516117279190612f6b565b60405180910390a1565b611739610f54565b611778576040517f08c379a000000000000000000000000000000000000000000000000000000000815260040161176f9061303f565b60405180910390fd5b6000600660146101000a81548160ff0219169083151502179055507f5db9ee0a495bf2e6ff9c91a7834c1ba4fdd244a5e8aa4e537bd38aeae4b073aa6117bc611686565b6040516117c99190612f6b565b60405180910390a1565b816004600083815260200190815260200160002060006101000a81548173ffffffffffffffffffffffffffffffffffffffff021916908373ffffffffffffffffffffffffffffffffffffffff160217905550808273ffffffffffffffffffffffffffffffffffffffff1661184683610f6b565b73ffffffffffffffffffffffffffffffffffffffff167f8c5be1e5ebec7d5bd14f71427d1e84f3dd0314c0f7b2291e5b200ac8c7c3b92560405160405180910390a45050565b61192482826040516024016118a292919061300f565b6040516020818303038152906040527f9710a9d0000000000000000000000000000000000000000000000000000000007bffffffffffffffffffffffffffffffffffffffffffffffffffffffff19166020820180517bffffffffffffffffffffffffffffffffffffffffffffffffffffffff83818316178352505050506124c3565b5050565b600080600980549050905060008184611941919061367b565b905060006009828154811061197f577f4e487b7100000000000000000000000000000000000000000000000000000000600052603260045260246000fd5b90600052602060002090601091828204019190066002029054906101000a900461ffff1661ffff16905060096001846119b891906134e5565b815481106119ef577f4e487b7100000000000000000000000000000000000000000000000000000000600052603260045260246000fd5b90600052602060002090601091828204019190066002029054906101000a900461ffff1660098381548110611a4d577f4e487b7100000000000000000000000000000000000000000000000000000000600052603260045260246000fd5b90600052602060002090601091828204019190066002026101000a81548161ffff021916908361ffff1602179055506009805480611ab4577f4e487b7100000000000000000000000000000000000000000000000000000000600052603160045260246000fd5b60019003818190600052602060002090601091828204019190066002026101000a81549061ffff02191690559055809350505050919050565b600073ffffffffffffffffffffffffffffffffffffffff168273ffffffffffffffffffffffffffffffffffffffff161415611b5d576040517f08c379a0000000000000000000000000000000000000000000000000000000008152600401611b54906131ff565b60405180910390fd5b611b668161161a565b15611ba6576040517f08c379a0000000000000000000000000000000000000000000000000000000008152600401611b9d9061309f565b60405180910390fd5b611bb2600083836124ec565b6001600360008473ffffffffffffffffffffffffffffffffffffffff1673ffffffffffffffffffffffffffffffffffffffff1681526020019081526020016000206000828254611c029190613404565b92505081905550816002600083815260200190815260200160002060006101000a81548173ffffffffffffffffffffffffffffffffffffffff021916908373ffffffffffffffffffffffffffffffffffffffff160217905550808273ffffffffffffffffffffffffffffffffffffffff16600073ffffffffffffffffffffffffffffffffffffffff167fddf252ad1be2c89b69c2b068fc378daa952ba7f163c4a11628f55a4df523b3ef60405160405180910390a45050565b6000611cc68261161a565b611d05576040517f08c379a0000000000000000000000000000000000000000000000000000000008152600401611cfc9061311f565b60405180910390fd5b6000611d1083610f6b565b90508073ffffffffffffffffffffffffffffffffffffffff168473ffffffffffffffffffffffffffffffffffffffff161480611d7f57508373ffffffffffffffffffffffffffffffffffffffff16611d6784610675565b73ffffffffffffffffffffffffffffffffffffffff16145b80611d905750611d8f81856113ce565b5b91505092915050565b8273ffffffffffffffffffffffffffffffffffffffff16611db982610f6b565b73ffffffffffffffffffffffffffffffffffffffff1614611e0f576040517f08c379a0000000000000000000000000000000000000000000000000000000008152600401611e069061327f565b60405180910390fd5b600073ffffffffffffffffffffffffffffffffffffffff168273ffffffffffffffffffffffffffffffffffffffff161415611e7f576040517f08c379a0000000000000000000000000000000000000000000000000000000008152600401611e76906130df565b60405180910390fd5b611e8a8383836124ec565b611e956000826117d3565b6001600360008573ffffffffffffffffffffffffffffffffffffffff1673ffffffffffffffffffffffffffffffffffffffff1681526020019081526020016000206000828254611ee591906134e5565b925050819055506001600360008473ffffffffffffffffffffffffffffffffffffffff1673ffffffffffffffffffffffffffffffffffffffff1681526020019081526020016000206000828254611f3c9190613404565b92505081905550816002600083815260200190815260200160002060006101000a81548173ffffffffffffffffffffffffffffffffffffffff021916908373ffffffffffffffffffffffffffffffffffffffff160217905550808273ffffffffffffffffffffffffffffffffffffffff168473ffffffffffffffffffffffffffffffffffffffff167fddf252ad1be2c89b69c2b068fc378daa952ba7f163c4a11628f55a4df523b3ef60405160405180910390a4505050565b6000600660009054906101000a900473ffffffffffffffffffffffffffffffffffffffff16905081600660006101000a81548173ffffffffffffffffffffffffffffffffffffffff021916908373ffffffffffffffffffffffffffffffffffffffff1602179055508173ffffffffffffffffffffffffffffffffffffffff168173ffffffffffffffffffffffffffffffffffffffff167f8be0079c531659141344cd1fd0a4f28419497f9722a3daafe3b4186f6b6457e060405160405180910390a35050565b8173ffffffffffffffffffffffffffffffffffffffff168373ffffffffffffffffffffffffffffffffffffffff16141561212a576040517f08c379a0000000000000000000000000000000000000000000000000000000008152600401612121906130ff565b60405180910390fd5b80600560008573ffffffffffffffffffffffffffffffffffffffff1673ffffffffffffffffffffffffffffffffffffffff16815260200190815260200160002060008473ffffffffffffffffffffffffffffffffffffffff1673ffffffffffffffffffffffffffffffffffffffff16815260200190815260200160002060006101000a81548160ff0219169083151502179055508173ffffffffffffffffffffffffffffffffffffffff168373ffffffffffffffffffffffffffffffffffffffff167f17307eab39ab6107e8899845ad3d59bd9653f200f220920489ca2b5937696c318360405161221b9190612fd2565b60405180910390a3505050565b612233848484611d99565b61223f848484846124f1565b61227e576040517f08c379a00000000000000000000000000000000000000000000000000000000081526004016122759061305f565b60405180910390fd5b50505050565b6060600c8054612293906135cf565b80601f01602080910402602001604051908101604052809291908181526020018280546122bf906135cf565b801561230c5780601f106122e15761010080835404028352916020019161230c565b820191906000526020600020905b8154815290600101906020018083116122ef57829003601f168201915b5050505050905090565b6060600082141561235e576040518060400160405280600181526020017f300000000000000000000000000000000000000000000000000000000000000081525090506124be565b600082905060005b6000821461239057808061237990613632565b915050600a82612389919061345a565b9150612366565b60008167ffffffffffffffff8111156123d2577f4e487b7100000000000000000000000000000000000000000000000000000000600052604160045260246000fd5b6040519080825280601f01601f1916602001820160405280156124045781602001600182028036833780820191505090505b5090505b600085146124b75760018261241d91906134e5565b9150600a8561242c919061367b565b60306124389190613404565b60f81b818381518110612474577f4e487b7100000000000000000000000000000000000000000000000000000000600052603260045260246000fd5b60200101907effffffffffffffffffffffffffffffffffffffffffffffffffffffffffffff1916908160001a905350600a856124b0919061345a565b9450612408565b8093505050505b919050565b60008151905060006a636f6e736f6c652e6c6f679050602083016000808483855afa5050505050565b505050565b60006125128473ffffffffffffffffffffffffffffffffffffffff16612688565b1561267b578373ffffffffffffffffffffffffffffffffffffffff1663150b7a0261253b611686565b8786866040518563ffffffff1660e01b815260040161255d9493929190612f86565b602060405180830381600087803b15801561257757600080fd5b505af19250505080156125a857506040513d601f19601f820116820180604052508101906125a59190612abf565b60015b61262b573d80600081146125d8576040519150601f19603f3d011682016040523d82523d6000602084013e6125dd565b606091505b50600081511415612623576040517f08c379a000000000000000000000000000000000000000000000000000000000815260040161261a9061305f565b60405180910390fd5b805181602001fd5b63150b7a0260e01b7bffffffffffffffffffffffffffffffffffffffffffffffffffffffff1916817bffffffffffffffffffffffffffffffffffffffffffffffffffffffff191614915050612680565b600190505b949350505050565b600080823b905060008111915050919050565b8280546126a7906135cf565b90600052602060002090601f0160209004810192826126c95760008555612710565b82601f106126e257805160ff1916838001178555612710565b82800160010185558215612710579182015b8281111561270f5782518255916020019190600101906126f4565b5b50905061271d9190612721565b5090565b5b8082111561273a576000816000905550600101612722565b5090565b600061275161274c8461335f565b61333a565b90508281526020810184848401111561276957600080fd5b61277484828561358d565b509392505050565b600061278f61278a84613390565b61333a565b9050828152602081018484840111156127a757600080fd5b6127b284828561358d565b509392505050565b6000813590506127c981613d88565b92915050565b6000813590506127de81613d9f565b92915050565b6000813590506127f381613db6565b92915050565b60008151905061280881613db6565b92915050565b600082601f83011261281f57600080fd5b813561282f84826020860161273e565b91505092915050565b600082601f83011261284957600080fd5b813561285984826020860161277c565b91505092915050565b60008135905061287181613dcd565b92915050565b60006020828403121561288957600080fd5b6000612897848285016127ba565b91505092915050565b600080604083850312156128b357600080fd5b60006128c1858286016127ba565b92505060206128d2858286016127ba565b9150509250929050565b6000806000606084860312156128f157600080fd5b60006128ff868287016127ba565b9350506020612910868287016127ba565b925050604061292186828701612862565b9150509250925092565b6000806000806080858703121561294157600080fd5b600061294f878288016127ba565b9450506020612960878288016127ba565b935050604061297187828801612862565b925050606085013567ffffffffffffffff81111561298e57600080fd5b61299a8782880161280e565b91505092959194509250565b600080604083850312156129b957600080fd5b60006129c7858286016127ba565b92505060206129d8858286016127cf565b9150509250929050565b600080604083850312156129f557600080fd5b6000612a03858286016127ba565b9250506020612a1485828601612862565b9150509250929050565b600080600060608486031215612a3357600080fd5b6000612a41868287016127ba565b9350506020612a5286828701612862565b9250506040612a6386828701612862565b9150509250925092565b600060208284031215612a7f57600080fd5b6000612a8d848285016127cf565b91505092915050565b600060208284031215612aa857600080fd5b6000612ab6848285016127e4565b91505092915050565b600060208284031215612ad157600080fd5b6000612adf848285016127f9565b91505092915050565b600060208284031215612afa57600080fd5b600082013567ffffffffffffffff811115612b1457600080fd5b612b2084828501612838565b91505092915050565b600060208284031215612b3b57600080fd5b6000612b4984828501612862565b91505092915050565b612b5b81613519565b82525050565b612b6a8161352b565b82525050565b6000612b7b826133c1565b612b8581856133d7565b9350612b9581856020860161359c565b612b9e81613768565b840191505092915050565b6000612bb4826133cc565b612bbe81856133e8565b9350612bce81856020860161359c565b612bd781613768565b840191505092915050565b6000612bed826133cc565b612bf781856133f9565b9350612c0781856020860161359c565b80840191505092915050565b6000612c206014836133e8565b9150612c2b82613779565b602082019050919050565b6000612c436032836133e8565b9150612c4e826137a2565b604082019050919050565b6000612c666026836133e8565b9150612c71826137f1565b604082019050919050565b6000612c89601c836133e8565b9150612c9482613840565b602082019050919050565b6000612cac6023836133e8565b9150612cb782613869565b604082019050919050565b6000612ccf6024836133e8565b9150612cda826138b8565b604082019050919050565b6000612cf26019836133e8565b9150612cfd82613907565b602082019050919050565b6000612d15602c836133e8565b9150612d2082613930565b604082019050919050565b6000612d38602d836133e8565b9150612d438261397f565b604082019050919050565b6000612d5b6010836133e8565b9150612d66826139ce565b602082019050919050565b6000612d7e601b836133e8565b9150612d89826139f7565b602082019050919050565b6000612da16038836133e8565b9150612dac82613a20565b604082019050919050565b6000612dc4602a836133e8565b9150612dcf82613a6f565b604082019050919050565b6000612de76029836133e8565b9150612df282613abe565b604082019050919050565b6000612e0a6020836133e8565b9150612e1582613b0d565b602082019050919050565b6000612e2d6027836133e8565b9150612e3882613b36565b604082019050919050565b6000612e50602c836133e8565b9150612e5b82613b85565b604082019050919050565b6000612e736020836133e8565b9150612e7e82613bd4565b602082019050919050565b6000612e966029836133e8565b9150612ea182613bfd565b604082019050919050565b6000612eb9602f836133e8565b9150612ec482613c4c565b604082019050919050565b6000612edc6021836133e8565b9150612ee782613c9b565b604082019050919050565b6000612eff6031836133e8565b9150612f0a82613cea565b604082019050919050565b6000612f22602e836133e8565b9150612f2d82613d39565b604082019050919050565b612f4181613583565b82525050565b6000612f538285612be2565b9150612f5f8284612be2565b91508190509392505050565b6000602082019050612f806000830184612b52565b92915050565b6000608082019050612f9b6000830187612b52565b612fa86020830186612b52565b612fb56040830185612f38565b8181036060830152612fc78184612b70565b905095945050505050565b6000602082019050612fe76000830184612b61565b92915050565b600060208201905081810360008301526130078184612ba9565b905092915050565b600060408201905081810360008301526130298185612ba9565b90506130386020830184612f38565b9392505050565b6000602082019050818103600083015261305881612c13565b9050919050565b6000602082019050818103600083015261307881612c36565b9050919050565b6000602082019050818103600083015261309881612c59565b9050919050565b600060208201905081810360008301526130b881612c7c565b9050919050565b600060208201905081810360008301526130d881612c9f565b9050919050565b600060208201905081810360008301526130f881612cc2565b9050919050565b6000602082019050818103600083015261311881612ce5565b9050919050565b6000602082019050818103600083015261313881612d08565b9050919050565b6000602082019050818103600083015261315881612d2b565b9050919050565b6000602082019050818103600083015261317881612d4e565b9050919050565b6000602082019050818103600083015261319881612d71565b9050919050565b600060208201905081810360008301526131b881612d94565b9050919050565b600060208201905081810360008301526131d881612db7565b9050919050565b600060208201905081810360008301526131f881612dda565b9050919050565b6000602082019050818103600083015261321881612dfd565b9050919050565b6000602082019050818103600083015261323881612e20565b9050919050565b6000602082019050818103600083015261325881612e43565b9050919050565b6000602082019050818103600083015261327881612e66565b9050919050565b6000602082019050818103600083015261329881612e89565b9050919050565b600060208201905081810360008301526132b881612eac565b9050919050565b600060208201905081810360008301526132d881612ecf565b9050919050565b600060208201905081810360008301526132f881612ef2565b9050919050565b6000602082019050818103600083015261331881612f15565b9050919050565b60006020820190506133346000830184612f38565b92915050565b6000613344613355565b90506133508282613601565b919050565b6000604051905090565b600067ffffffffffffffff82111561337a57613379613739565b5b61338382613768565b9050602081019050919050565b600067ffffffffffffffff8211156133ab576133aa613739565b5b6133b482613768565b9050602081019050919050565b600081519050919050565b600081519050919050565b600082825260208201905092915050565b600082825260208201905092915050565b600081905092915050565b600061340f82613583565b915061341a83613583565b9250827fffffffffffffffffffffffffffffffffffffffffffffffffffffffffffffffff0382111561344f5761344e6136ac565b5b828201905092915050565b600061346582613583565b915061347083613583565b9250826134805761347f6136db565b5b828204905092915050565b600061349682613583565b91506134a183613583565b9250817fffffffffffffffffffffffffffffffffffffffffffffffffffffffffffffffff04831182151516156134da576134d96136ac565b5b828202905092915050565b60006134f082613583565b91506134fb83613583565b92508282101561350e5761350d6136ac565b5b828203905092915050565b600061352482613563565b9050919050565b60008115159050919050565b60007fffffffff0000000000000000000000000000000000000000000000000000000082169050919050565b600073ffffffffffffffffffffffffffffffffffffffff82169050919050565b6000819050919050565b82818337600083830152505050565b60005b838110156135ba57808201518184015260208101905061359f565b838111156135c9576000848401525b50505050565b600060028204905060018216806135e757607f821691505b602082108114156135fb576135fa61370a565b5b50919050565b61360a82613768565b810181811067ffffffffffffffff8211171561362957613628613739565b5b80604052505050565b600061363d82613583565b91507fffffffffffffffffffffffffffffffffffffffffffffffffffffffffffffffff8214156136705761366f6136ac565b5b600182019050919050565b600061368682613583565b915061369183613583565b9250826136a1576136a06136db565b5b828206905092915050565b7f4e487b7100000000000000000000000000000000000000000000000000000000600052601160045260246000fd5b7f4e487b7100000000000000000000000000000000000000000000000000000000600052601260045260246000fd5b7f4e487b7100000000000000000000000000000000000000000000000000000000600052602260045260246000fd5b7f4e487b7100000000000000000000000000000000000000000000000000000000600052604160045260246000fd5b6000601f19601f8301169050919050565b7f5061757361626c653a206e6f7420706175736564000000000000000000000000600082015250565b7f4552433732313a207472616e7366657220746f206e6f6e20455243373231526560008201527f63656976657220696d706c656d656e7465720000000000000000000000000000602082015250565b7f4f776e61626c653a206e6577206f776e657220697320746865207a65726f206160008201527f6464726573730000000000000000000000000000000000000000000000000000602082015250565b7f4552433732313a20746f6b656e20616c7265616479206d696e74656400000000600082015250565b7f4b6e6f74733a2072656465656d2077696e646f7720686173206e6f74206f706560008201527f6e65640000000000000000000000000000000000000000000000000000000000602082015250565b7f4552433732313a207472616e7366657220746f20746865207a65726f2061646460008201527f7265737300000000000000000000000000000000000000000000000000000000602082015250565b7f4552433732313a20617070726f766520746f2063616c6c657200000000000000600082015250565b7f4552433732313a206f70657261746f7220717565727920666f72206e6f6e657860008201527f697374656e7420746f6b656e0000000000000000000000000000000000000000602082015250565b7f4b6e6f74733a206d6178696d756d206d696e7420636f756e74206f662035206b60008201527f6e6f747320657863656564656400000000000000000000000000000000000000602082015250565b7f5061757361626c653a2070617573656400000000000000000000000000000000600082015250565b7f4b6e6f74733a2073616c6520686173206e6f7420737461727465640000000000600082015250565b7f4552433732313a20617070726f76652063616c6c6572206973206e6f74206f7760008201527f6e6572206e6f7220617070726f76656420666f7220616c6c0000000000000000602082015250565b7f4552433732313a2062616c616e636520717565727920666f7220746865207a6560008201527f726f206164647265737300000000000000000000000000000000000000000000602082015250565b7f4552433732313a206f776e657220717565727920666f72206e6f6e657869737460008201527f656e7420746f6b656e0000000000000000000000000000000000000000000000602082015250565b7f4552433732313a206d696e7420746f20746865207a65726f2061646472657373600082015250565b7f4b6e6f74733a2072656465656d2077696e646f7720686173206e6f74206e6f7460008201527f206f70656e656400000000000000000000000000000000000000000000000000602082015250565b7f4552433732313a20617070726f76656420717565727920666f72206e6f6e657860008201527f697374656e7420746f6b656e0000000000000000000000000000000000000000602082015250565b7f4f776e61626c653a2063616c6c6572206973206e6f7420746865206f776e6572600082015250565b7f4552433732313a207472616e73666572206f6620746f6b656e2074686174206960008201527f73206e6f74206f776e0000000000000000000000000000000000000000000000602082015250565b7f4552433732314d657461646174613a2055524920717565727920666f72206e6f60008201527f6e6578697374656e7420746f6b656e0000000000000000000000000000000000602082015250565b7f4552433732313a20617070726f76616c20746f2063757272656e74206f776e6560008201527f7200000000000000000000000000000000000000000000000000000000000000602082015250565b7f4552433732313a207472616e736665722063616c6c6572206973206e6f74206f60008201527f776e6572206e6f7220617070726f766564000000000000000000000000000000602082015250565b7f4b6e6f74733a20696e76616c6964206d696e742066656520666f72206e6f766560008201527f6c20746f6b656e20686f6c646572000000000000000000000000000000000000602082015250565b613d9181613519565b8114613d9c57600080fd5b50565b613da88161352b565b8114613db357600080fd5b50565b613dbf81613537565b8114613dca57600080fd5b50565b613dd681613583565b8114613de157600080fd5b5056fea2646970667358221220562c7d3844c4b0ff38cf89430ead19a79dbe37f24e57ce37c7c7445809cf049064736f6c63430008040033",
  "devdoc": {
    "kind": "dev",
    "methods": {
      "approve(address,uint256)": {
        "details": "See {IERC721-approve}."
      },
      "balanceOf(address)": {
        "details": "See {IERC721-balanceOf}."
      },
      "getApproved(uint256)": {
        "details": "See {IERC721-getApproved}."
      },
      "isApprovedForAll(address,address)": {
        "details": "See {IERC721-isApprovedForAll}."
      },
      "name()": {
        "details": "See {IERC721Metadata-name}."
      },
      "owner()": {
        "details": "Returns the address of the current owner."
      },
      "ownerOf(uint256)": {
        "details": "See {IERC721-ownerOf}."
      },
      "paused()": {
        "details": "Returns true if the contract is paused, and false otherwise."
      },
      "renounceOwnership()": {
        "details": "Leaves the contract without owner. It will not be possible to call `onlyOwner` functions anymore. Can only be called by the current owner. NOTE: Renouncing ownership will leave the contract without an owner, thereby removing any functionality that is only available to the owner."
      },
      "safeTransferFrom(address,address,uint256)": {
        "details": "See {IERC721-safeTransferFrom}."
      },
      "safeTransferFrom(address,address,uint256,bytes)": {
        "details": "See {IERC721-safeTransferFrom}."
      },
      "setApprovalForAll(address,bool)": {
        "details": "See {IERC721-setApprovalForAll}."
      },
      "supportsInterface(bytes4)": {
        "details": "See {IERC165-supportsInterface}."
      },
      "symbol()": {
        "details": "See {IERC721Metadata-symbol}."
      },
      "tokenURI(uint256)": {
        "details": "See {IERC721Metadata-tokenURI}."
      },
      "transferFrom(address,address,uint256)": {
        "details": "See {IERC721-transferFrom}."
      },
      "transferOwnership(address)": {
        "details": "Transfers ownership of the contract to a new account (`newOwner`). Can only be called by the current owner."
      }
    },
    "version": 1
  },
  "userdoc": {
    "kind": "user",
    "methods": {},
    "version": 1
  },
  "storageLayout": {
    "storage": [
      {
        "astId": 871,
        "contract": "contracts/Knots.sol:Knots",
        "label": "_name",
        "offset": 0,
        "slot": "0",
        "type": "t_string_storage"
      },
      {
        "astId": 873,
        "contract": "contracts/Knots.sol:Knots",
        "label": "_symbol",
        "offset": 0,
        "slot": "1",
        "type": "t_string_storage"
      },
      {
        "astId": 877,
        "contract": "contracts/Knots.sol:Knots",
        "label": "_owners",
        "offset": 0,
        "slot": "2",
        "type": "t_mapping(t_uint256,t_address)"
      },
      {
        "astId": 881,
        "contract": "contracts/Knots.sol:Knots",
        "label": "_balances",
        "offset": 0,
        "slot": "3",
        "type": "t_mapping(t_address,t_uint256)"
      },
      {
        "astId": 885,
        "contract": "contracts/Knots.sol:Knots",
        "label": "_tokenApprovals",
        "offset": 0,
        "slot": "4",
        "type": "t_mapping(t_uint256,t_address)"
      },
      {
        "astId": 891,
        "contract": "contracts/Knots.sol:Knots",
        "label": "_operatorApprovals",
        "offset": 0,
        "slot": "5",
        "type": "t_mapping(t_address,t_mapping(t_address,t_bool))"
      },
      {
        "astId": 7,
        "contract": "contracts/Knots.sol:Knots",
        "label": "_owner",
        "offset": 0,
        "slot": "6",
        "type": "t_address"
      },
      {
        "astId": 122,
        "contract": "contracts/Knots.sol:Knots",
        "label": "_paused",
        "offset": 20,
        "slot": "6",
        "type": "t_bool"
      },
      {
        "astId": 2500,
        "contract": "contracts/Knots.sol:Knots",
        "label": "MAX_KNOTS",
        "offset": 21,
        "slot": "6",
        "type": "t_uint16"
      },
      {
        "astId": 2503,
        "contract": "contracts/Knots.sol:Knots",
        "label": "MAX_MINTS",
        "offset": 23,
        "slot": "6",
        "type": "t_uint8"
      },
      {
        "astId": 2508,
        "contract": "contracts/Knots.sol:Knots",
        "label": "MINT_PRICE",
        "offset": 0,
        "slot": "7",
        "type": "t_uint256"
      },
      {
        "astId": 2512,
        "contract": "contracts/Knots.sol:Knots",
        "label": "hasVoucher",
        "offset": 0,
        "slot": "8",
        "type": "t_mapping(t_address,t_bool)"
      },
      {
        "astId": 2520,
        "contract": "contracts/Knots.sol:Knots",
        "label": "knotsAvailable",
        "offset": 0,
        "slot": "9",
        "type": "t_array(t_uint16)dyn_storage"
      },
      {
        "astId": 2522,
        "contract": "contracts/Knots.sol:Knots",
        "label": "saleStartsAt",
        "offset": 0,
        "slot": "10",
        "type": "t_uint256"
      },
      {
        "astId": 2524,
        "contract": "contracts/Knots.sol:Knots",
        "label": "redeemStartsAt",
        "offset": 0,
        "slot": "11",
        "type": "t_uint256"
      },
      {
        "astId": 2526,
        "contract": "contracts/Knots.sol:Knots",
        "label": "baseURI",
        "offset": 0,
        "slot": "12",
        "type": "t_string_storage"
      },
      {
        "astId": 2528,
        "contract": "contracts/Knots.sol:Knots",
        "label": "wurmWallet",
        "offset": 0,
        "slot": "13",
        "type": "t_address_payable"
      },
      {
        "astId": 2530,
        "contract": "contracts/Knots.sol:Knots",
        "label": "violetWallet",
        "offset": 0,
        "slot": "14",
        "type": "t_address_payable"
      },
      {
        "astId": 2532,
        "contract": "contracts/Knots.sol:Knots",
        "label": "nemesisWallet",
        "offset": 0,
        "slot": "15",
        "type": "t_address_payable"
      },
      {
        "astId": 2534,
        "contract": "contracts/Knots.sol:Knots",
        "label": "chrisWallet",
        "offset": 0,
        "slot": "16",
        "type": "t_address_payable"
      },
      {
        "astId": 2536,
        "contract": "contracts/Knots.sol:Knots",
        "label": "delugeWallet",
        "offset": 0,
        "slot": "17",
        "type": "t_address_payable"
      },
      {
        "astId": 2539,
        "contract": "contracts/Knots.sol:Knots",
        "label": "wurmShare",
        "offset": 0,
        "slot": "18",
        "type": "t_uint256"
      },
      {
        "astId": 2542,
        "contract": "contracts/Knots.sol:Knots",
        "label": "violetShare",
        "offset": 0,
        "slot": "19",
        "type": "t_uint256"
      },
      {
        "astId": 2545,
        "contract": "contracts/Knots.sol:Knots",
        "label": "nemesisShare",
        "offset": 0,
        "slot": "20",
        "type": "t_uint256"
      },
      {
        "astId": 2548,
        "contract": "contracts/Knots.sol:Knots",
        "label": "chrisShare",
        "offset": 0,
        "slot": "21",
        "type": "t_uint256"
      }
    ],
    "types": {
      "t_address": {
        "encoding": "inplace",
        "label": "address",
        "numberOfBytes": "20"
      },
      "t_address_payable": {
        "encoding": "inplace",
        "label": "address payable",
        "numberOfBytes": "20"
      },
      "t_array(t_uint16)dyn_storage": {
        "base": "t_uint16",
        "encoding": "dynamic_array",
        "label": "uint16[]",
        "numberOfBytes": "32"
      },
      "t_bool": {
        "encoding": "inplace",
        "label": "bool",
        "numberOfBytes": "1"
      },
      "t_mapping(t_address,t_bool)": {
        "encoding": "mapping",
        "key": "t_address",
        "label": "mapping(address => bool)",
        "numberOfBytes": "32",
        "value": "t_bool"
      },
      "t_mapping(t_address,t_mapping(t_address,t_bool))": {
        "encoding": "mapping",
        "key": "t_address",
        "label": "mapping(address => mapping(address => bool))",
        "numberOfBytes": "32",
        "value": "t_mapping(t_address,t_bool)"
      },
      "t_mapping(t_address,t_uint256)": {
        "encoding": "mapping",
        "key": "t_address",
        "label": "mapping(address => uint256)",
        "numberOfBytes": "32",
        "value": "t_uint256"
      },
      "t_mapping(t_uint256,t_address)": {
        "encoding": "mapping",
        "key": "t_uint256",
        "label": "mapping(uint256 => address)",
        "numberOfBytes": "32",
        "value": "t_address"
      },
      "t_string_storage": {
        "encoding": "bytes",
        "label": "string",
        "numberOfBytes": "32"
      },
      "t_uint16": {
        "encoding": "inplace",
        "label": "uint16",
        "numberOfBytes": "2"
      },
      "t_uint256": {
        "encoding": "inplace",
        "label": "uint256",
        "numberOfBytes": "32"
      },
      "t_uint8": {
        "encoding": "inplace",
        "label": "uint8",
        "numberOfBytes": "1"
      }
    }
  }
}