{
  "address": "0x864245f6F5C6190A1e5ea0F1167913172cD7b23E",
  "abi": [
    {
      "inputs": [
        {
          "internalType": "uint256",
          "name": "_saleStartsAt",
          "type": "uint256"
        },
        {
          "internalType": "string",
          "name": "_sneakerBaseURI",
          "type": "string"
        },
        {
          "internalType": "string",
          "name": "_standardBaseURI",
          "type": "string"
        },
        {
          "components": [
            {
              "internalType": "address",
              "name": "addr",
              "type": "address"
            },
            {
              "internalType": "uint256",
              "name": "tokenId",
              "type": "uint256"
            }
          ],
          "internalType": "struct FlyingFormations.PremintEntry[]",
          "name": "premintEntries",
          "type": "tuple[]"
        },
        {
          "internalType": "address payable",
          "name": "_footballTeamWallet",
          "type": "address"
        },
        {
          "internalType": "address payable",
          "name": "_ducksWallet",
          "type": "address"
        },
        {
          "internalType": "address payable",
          "name": "_divisionStWallet",
          "type": "address"
        }
      ],
      "stateMutability": "nonpayable",
      "type": "constructor"
    },
    {
      "anonymous": false,
      "inputs": [
        {
          "indexed": true,
          "internalType": "address",
          "name": "owner",
          "type": "address"
        },
        {
          "indexed": true,
          "internalType": "address",
          "name": "approved",
          "type": "address"
        },
        {
          "indexed": true,
          "internalType": "uint256",
          "name": "tokenId",
          "type": "uint256"
        }
      ],
      "name": "Approval",
      "type": "event"
    },
    {
      "anonymous": false,
      "inputs": [
        {
          "indexed": true,
          "internalType": "address",
          "name": "owner",
          "type": "address"
        },
        {
          "indexed": true,
          "internalType": "address",
          "name": "operator",
          "type": "address"
        },
        {
          "indexed": false,
          "internalType": "bool",
          "name": "approved",
          "type": "bool"
        }
      ],
      "name": "ApprovalForAll",
      "type": "event"
    },
    {
      "anonymous": false,
      "inputs": [
        {
          "indexed": true,
          "internalType": "address",
          "name": "previousOwner",
          "type": "address"
        },
        {
          "indexed": true,
          "internalType": "address",
          "name": "newOwner",
          "type": "address"
        }
      ],
      "name": "OwnershipTransferred",
      "type": "event"
    },
    {
      "anonymous": false,
      "inputs": [
        {
          "indexed": false,
          "internalType": "address",
          "name": "account",
          "type": "address"
        }
      ],
      "name": "Paused",
      "type": "event"
    },
    {
      "anonymous": false,
      "inputs": [
        {
          "indexed": false,
          "internalType": "uint256",
          "name": "tokenId",
          "type": "uint256"
        },
        {
          "indexed": false,
          "internalType": "address",
          "name": "recipient",
          "type": "address"
        }
      ],
      "name": "SneakerRedeemed",
      "type": "event"
    },
    {
      "anonymous": false,
      "inputs": [
        {
          "indexed": false,
          "internalType": "uint256",
          "name": "tokenId",
          "type": "uint256"
        },
        {
          "indexed": false,
          "internalType": "address",
          "name": "recipient",
          "type": "address"
        },
        {
          "indexed": false,
          "internalType": "uint256",
          "name": "paid",
          "type": "uint256"
        },
        {
          "indexed": false,
          "internalType": "uint256",
          "name": "footballTeamReceives",
          "type": "uint256"
        },
        {
          "indexed": false,
          "internalType": "uint256",
          "name": "ducksReceives",
          "type": "uint256"
        },
        {
          "indexed": false,
          "internalType": "uint256",
          "name": "divisionStReceives",
          "type": "uint256"
        }
      ],
      "name": "TokenBought",
      "type": "event"
    },
    {
      "anonymous": false,
      "inputs": [
        {
          "indexed": true,
          "internalType": "address",
          "name": "from",
          "type": "address"
        },
        {
          "indexed": true,
          "internalType": "address",
          "name": "to",
          "type": "address"
        },
        {
          "indexed": true,
          "internalType": "uint256",
          "name": "tokenId",
          "type": "uint256"
        }
      ],
      "name": "Transfer",
      "type": "event"
    },
    {
      "anonymous": false,
      "inputs": [
        {
          "indexed": false,
          "internalType": "address",
          "name": "account",
          "type": "address"
        }
      ],
      "name": "Unpaused",
      "type": "event"
    },
    {
      "inputs": [
        {
          "internalType": "address",
          "name": "to",
          "type": "address"
        },
        {
          "internalType": "uint256",
          "name": "tokenId",
          "type": "uint256"
        }
      ],
      "name": "approve",
      "outputs": [],
      "stateMutability": "nonpayable",
      "type": "function"
    },
    {
      "inputs": [
        {
          "internalType": "address",
          "name": "owner",
          "type": "address"
        }
      ],
      "name": "balanceOf",
      "outputs": [
        {
          "internalType": "uint256",
          "name": "",
          "type": "uint256"
        }
      ],
      "stateMutability": "view",
      "type": "function"
    },
    {
      "inputs": [
        {
          "internalType": "address",
          "name": "recipient",
          "type": "address"
        },
        {
          "internalType": "uint256",
          "name": "tokenId",
          "type": "uint256"
        }
      ],
      "name": "buy",
      "outputs": [],
      "stateMutability": "payable",
      "type": "function"
    },
    {
      "inputs": [],
      "name": "getAllTokens",
      "outputs": [
        {
          "internalType": "uint256[]",
          "name": "",
          "type": "uint256[]"
        }
      ],
      "stateMutability": "view",
      "type": "function"
    },
    {
      "inputs": [
        {
          "internalType": "uint256",
          "name": "tokenId",
          "type": "uint256"
        }
      ],
      "name": "getApproved",
      "outputs": [
        {
          "internalType": "address",
          "name": "",
          "type": "address"
        }
      ],
      "stateMutability": "view",
      "type": "function"
    },
    {
      "inputs": [],
      "name": "getPrice",
      "outputs": [
        {
          "internalType": "uint256",
          "name": "",
          "type": "uint256"
        }
      ],
      "stateMutability": "view",
      "type": "function"
    },
    {
      "inputs": [
        {
          "internalType": "address",
          "name": "owner",
          "type": "address"
        },
        {
          "internalType": "address",
          "name": "operator",
          "type": "address"
        }
      ],
      "name": "isApprovedForAll",
      "outputs": [
        {
          "internalType": "bool",
          "name": "",
          "type": "bool"
        }
      ],
      "stateMutability": "view",
      "type": "function"
    },
    {
      "inputs": [],
      "name": "name",
      "outputs": [
        {
          "internalType": "string",
          "name": "",
          "type": "string"
        }
      ],
      "stateMutability": "view",
      "type": "function"
    },
    {
      "inputs": [],
      "name": "owner",
      "outputs": [
        {
          "internalType": "address",
          "name": "",
          "type": "address"
        }
      ],
      "stateMutability": "view",
      "type": "function"
    },
    {
      "inputs": [
        {
          "internalType": "uint256",
          "name": "tokenId",
          "type": "uint256"
        }
      ],
      "name": "ownerOf",
      "outputs": [
        {
          "internalType": "address",
          "name": "",
          "type": "address"
        }
      ],
      "stateMutability": "view",
      "type": "function"
    },
    {
      "inputs": [],
      "name": "paused",
      "outputs": [
        {
          "internalType": "bool",
          "name": "",
          "type": "bool"
        }
      ],
      "stateMutability": "view",
      "type": "function"
    },
    {
      "inputs": [
        {
          "internalType": "uint256",
          "name": "tokenId",
          "type": "uint256"
        }
      ],
      "name": "redeem",
      "outputs": [],
      "stateMutability": "nonpayable",
      "type": "function"
    },
    {
      "inputs": [],
      "name": "renounceOwnership",
      "outputs": [],
      "stateMutability": "nonpayable",
      "type": "function"
    },
    {
      "inputs": [
        {
          "internalType": "address",
          "name": "from",
          "type": "address"
        },
        {
          "internalType": "address",
          "name": "to",
          "type": "address"
        },
        {
          "internalType": "uint256",
          "name": "tokenId",
          "type": "uint256"
        }
      ],
      "name": "safeTransferFrom",
      "outputs": [],
      "stateMutability": "nonpayable",
      "type": "function"
    },
    {
      "inputs": [
        {
          "internalType": "address",
          "name": "from",
          "type": "address"
        },
        {
          "internalType": "address",
          "name": "to",
          "type": "address"
        },
        {
          "internalType": "uint256",
          "name": "tokenId",
          "type": "uint256"
        },
        {
          "internalType": "bytes",
          "name": "_data",
          "type": "bytes"
        }
      ],
      "name": "safeTransferFrom",
      "outputs": [],
      "stateMutability": "nonpayable",
      "type": "function"
    },
    {
      "inputs": [
        {
          "internalType": "address",
          "name": "operator",
          "type": "address"
        },
        {
          "internalType": "bool",
          "name": "approved",
          "type": "bool"
        }
      ],
      "name": "setApprovalForAll",
      "outputs": [],
      "stateMutability": "nonpayable",
      "type": "function"
    },
    {
      "inputs": [
        {
          "internalType": "uint256",
          "name": "",
          "type": "uint256"
        }
      ],
      "name": "sneakerRedeemedBy",
      "outputs": [
        {
          "internalType": "address",
          "name": "",
          "type": "address"
        }
      ],
      "stateMutability": "view",
      "type": "function"
    },
    {
      "inputs": [
        {
          "internalType": "bytes4",
          "name": "interfaceId",
          "type": "bytes4"
        }
      ],
      "name": "supportsInterface",
      "outputs": [
        {
          "internalType": "bool",
          "name": "",
          "type": "bool"
        }
      ],
      "stateMutability": "view",
      "type": "function"
    },
    {
      "inputs": [],
      "name": "symbol",
      "outputs": [
        {
          "internalType": "string",
          "name": "",
          "type": "string"
        }
      ],
      "stateMutability": "view",
      "type": "function"
    },
    {
      "inputs": [
        {
          "internalType": "uint256",
          "name": "index",
          "type": "uint256"
        }
      ],
      "name": "tokenByIndex",
      "outputs": [
        {
          "internalType": "uint256",
          "name": "",
          "type": "uint256"
        }
      ],
      "stateMutability": "view",
      "type": "function"
    },
    {
      "inputs": [
        {
          "internalType": "address",
          "name": "owner",
          "type": "address"
        },
        {
          "internalType": "uint256",
          "name": "index",
          "type": "uint256"
        }
      ],
      "name": "tokenOfOwnerByIndex",
      "outputs": [
        {
          "internalType": "uint256",
          "name": "",
          "type": "uint256"
        }
      ],
      "stateMutability": "view",
      "type": "function"
    },
    {
      "inputs": [
        {
          "internalType": "uint256",
          "name": "tokenId",
          "type": "uint256"
        }
      ],
      "name": "tokenURI",
      "outputs": [
        {
          "internalType": "string",
          "name": "",
          "type": "string"
        }
      ],
      "stateMutability": "view",
      "type": "function"
    },
    {
      "inputs": [],
      "name": "totalSupply",
      "outputs": [
        {
          "internalType": "uint256",
          "name": "",
          "type": "uint256"
        }
      ],
      "stateMutability": "view",
      "type": "function"
    },
    {
      "inputs": [
        {
          "internalType": "address",
          "name": "from",
          "type": "address"
        },
        {
          "internalType": "address",
          "name": "to",
          "type": "address"
        },
        {
          "internalType": "uint256",
          "name": "tokenId",
          "type": "uint256"
        }
      ],
      "name": "transferFrom",
      "outputs": [],
      "stateMutability": "nonpayable",
      "type": "function"
    },
    {
      "inputs": [
        {
          "internalType": "address",
          "name": "newOwner",
          "type": "address"
        }
      ],
      "name": "transferOwnership",
      "outputs": [],
      "stateMutability": "nonpayable",
      "type": "function"
    },
    {
      "inputs": [
        {
          "internalType": "string",
          "name": "__baseURI",
          "type": "string"
        }
      ],
      "name": "updateBaseURI",
      "outputs": [],
      "stateMutability": "nonpayable",
      "type": "function"
    },
    {
      "inputs": [
        {
          "internalType": "address payable",
          "name": "_wallet",
          "type": "address"
        }
      ],
      "name": "updateDivisionStWallet",
      "outputs": [],
      "stateMutability": "nonpayable",
      "type": "function"
    },
    {
      "inputs": [
        {
          "internalType": "address payable",
          "name": "_wallet",
          "type": "address"
        }
      ],
      "name": "updateDucksWallet",
      "outputs": [],
      "stateMutability": "nonpayable",
      "type": "function"
    },
    {
      "inputs": [
        {
          "internalType": "address payable",
          "name": "_wallet",
          "type": "address"
        }
      ],
      "name": "updateFootballTeamWallet",
      "outputs": [],
      "stateMutability": "nonpayable",
      "type": "function"
    },
    {
      "inputs": [
        {
          "internalType": "bool",
          "name": "_paused",
          "type": "bool"
        }
      ],
      "name": "updatePaused",
      "outputs": [],
      "stateMutability": "nonpayable",
      "type": "function"
    },
    {
      "inputs": [
        {
          "internalType": "bool",
          "name": "_redeemEnabled",
          "type": "bool"
        }
      ],
      "name": "updateRedeemEnabled",
      "outputs": [],
      "stateMutability": "nonpayable",
      "type": "function"
    },
    {
      "inputs": [
        {
          "internalType": "bool",
          "name": "_redeemExpired",
          "type": "bool"
        }
      ],
      "name": "updateRedeemExpired",
      "outputs": [],
      "stateMutability": "nonpayable",
      "type": "function"
    },
    {
      "inputs": [
        {
          "internalType": "uint256",
          "name": "_saleStartsAt",
          "type": "uint256"
        }
      ],
      "name": "updateSaleStartsAt",
      "outputs": [],
      "stateMutability": "nonpayable",
      "type": "function"
    },
    {
      "inputs": [
        {
          "internalType": "string",
          "name": "__baseURI",
          "type": "string"
        }
      ],
      "name": "updateSneakerBaseURI",
      "outputs": [],
      "stateMutability": "nonpayable",
      "type": "function"
    }
  ],
  "transactionHash": "0x0e5db25b7334130106aed74ec5ecee96f87625818744c3bde3fff74bdd6fa1d6",
  "args": [
    1645320057,
    "ipfs://QmR4DvpTpMu83hfE213fMiEP5jLqYBbfTZCvmpHBUi8AL6/",
    "ipfs://QmaN8W7fo2ju5B2aqtHYCQYkMYJeAAFWfYLowS8xshXU7F/",
    [
      {
        "addr": "0xe4bBCbFf51e61D0D95FcC5016609aC8354B177C4",
        "tokenId": 30
      },
      {
        "addr": "0xa0ac662f58d3507a6f4a37f8532df201d9010fe7",
        "tokenId": 85
      },
      {
        "addr": "0xa0ac662f58d3507a6f4a37f8532df201d9010fe7",
        "tokenId": 89
      },
      {
        "addr": "0x689717c0B1Ab0f188235CfA487CeD32fEEbF9698",
        "tokenId": 23
      },
      {
        "addr": "0xbD40Ad5c8F59D140869504a55295Ae650078fc41",
        "tokenId": 117
      },
      {
        "addr": "0x2b5aC9107e0FfADCB5fa9bc9AAf42C9094693d47",
        "tokenId": 118
      },
      {
        "addr": "0xcd21d7CB36f0BD063C99B9Fc7565335Fa24029D5",
        "tokenId": 119
      },
      {
        "addr": "0xA8BAd4743Bbdd8817D0042f82e350C29B728ec72",
        "tokenId": 11
      },
      {
        "addr": "0x9094b9De66790E0a5aB0e3299D38AFB037be458B",
        "tokenId": 84
      },
      {
        "addr": "0x54C1316c11Ee8086BDCF051680025f61c276e58a",
        "tokenId": 111
      }
    ],
    "0x1a003aE61B44A3eD1fAfBf8549856a4Da9c7312E",
    "0x7afa12A8708C7069Cde17d4D3c90f01AA6653797",
    "0x15b7f743e2bcBA33320e26d145D7628149D73337"
  ],
  "numDeployments": 3,
  "solcInputHash": "d847133dc166b170f03bbd9dcefcd897",
  "bytecode": "0x60806040523480156200001157600080fd5b5060405162006aeb38038062006aeb833981810160405281019062000037919062000f71565b6040518060400160405280601181526020017f466c79696e6720466f726d6174696f6e730000000000000000000000000000008152506040518060400160405280600381526020017f46465400000000000000000000000000000000000000000000000000000000008152508160009080519060200190620000bb92919062000d15565b508060019080519060200190620000d492919062000d15565b505050620000f7620000eb6200045460201b60201c565b6200045c60201b60201c565b6000600a60146101000a81548160ff02191690831515021790555086600c8190555085600e90805190602001906200013192919062000d15565b5084600f90805190602001906200014a92919062000d15565b5060005b84518110156200038357620001f485828151811062000196577f4e487b7100000000000000000000000000000000000000000000000000000000600052603260045260246000fd5b602002602001015160000151868381518110620001dc577f4e487b7100000000000000000000000000000000000000000000000000000000600052603260045260246000fd5b6020026020010151602001516200052260201b60201c565b6001600b600087848151811062000234577f4e487b7100000000000000000000000000000000000000000000000000000000600052603260045260246000fd5b60200260200101516000015173ffffffffffffffffffffffffffffffffffffffff1673ffffffffffffffffffffffffffffffffffffffff16815260200190815260200160002060006101000a81548160ff021916908315150217905550848181518110620002cb577f4e487b7100000000000000000000000000000000000000000000000000000000600052603260045260246000fd5b6020026020010151600001516010600087848151811062000315577f4e487b7100000000000000000000000000000000000000000000000000000000600052603260045260246000fd5b602002602001015160200151815260200190815260200160002060006101000a81548173ffffffffffffffffffffffffffffffffffffffff021916908373ffffffffffffffffffffffffffffffffffffffff16021790555080806200037a906200136f565b9150506200014e565b5082601160006101000a81548173ffffffffffffffffffffffffffffffffffffffff021916908373ffffffffffffffffffffffffffffffffffffffff16021790555081601260006101000a81548173ffffffffffffffffffffffffffffffffffffffff021916908373ffffffffffffffffffffffffffffffffffffffff16021790555080601360006101000a81548173ffffffffffffffffffffffffffffffffffffffff021916908373ffffffffffffffffffffffffffffffffffffffff160217905550505050505050506200154a565b600033905090565b6000600a60009054906101000a900473ffffffffffffffffffffffffffffffffffffffff16905081600a60006101000a81548173ffffffffffffffffffffffffffffffffffffffff021916908373ffffffffffffffffffffffffffffffffffffffff1602179055508173ffffffffffffffffffffffffffffffffffffffff168173ffffffffffffffffffffffffffffffffffffffff167f8be0079c531659141344cd1fd0a4f28419497f9722a3daafe3b4186f6b6457e060405160405180910390a35050565b600073ffffffffffffffffffffffffffffffffffffffff168273ffffffffffffffffffffffffffffffffffffffff16141562000595576040517f08c379a00000000000000000000000000000000000000000000000000000000081526004016200058c9062001122565b60405180910390fd5b620005a6816200070860201b60201c565b15620005e9576040517f08c379a0000000000000000000000000000000000000000000000000000000008152600401620005e090620010de565b60405180910390fd5b620005fd600083836200077460201b60201c565b6001600360008473ffffffffffffffffffffffffffffffffffffffff1673ffffffffffffffffffffffffffffffffffffffff16815260200190815260200160002060008282546200064f9190620011e3565b92505081905550816002600083815260200190815260200160002060006101000a81548173ffffffffffffffffffffffffffffffffffffffff021916908373ffffffffffffffffffffffffffffffffffffffff160217905550808273ffffffffffffffffffffffffffffffffffffffff16600073ffffffffffffffffffffffffffffffffffffffff167fddf252ad1be2c89b69c2b068fc378daa952ba7f163c4a11628f55a4df523b3ef60405160405180910390a45050565b60008073ffffffffffffffffffffffffffffffffffffffff166002600084815260200190815260200160002060009054906101000a900473ffffffffffffffffffffffffffffffffffffffff1673ffffffffffffffffffffffffffffffffffffffff1614159050919050565b6200078c838383620008bb60201b620022ed1760201c565b600073ffffffffffffffffffffffffffffffffffffffff168373ffffffffffffffffffffffffffffffffffffffff161415620007d957620007d381620008c060201b60201c565b62000821565b8173ffffffffffffffffffffffffffffffffffffffff168373ffffffffffffffffffffffffffffffffffffffff161462000820576200081f83826200090960201b60201c565b5b5b600073ffffffffffffffffffffffffffffffffffffffff168273ffffffffffffffffffffffffffffffffffffffff1614156200086e57620008688162000a8660201b60201c565b620008b6565b8273ffffffffffffffffffffffffffffffffffffffff168273ffffffffffffffffffffffffffffffffffffffff1614620008b557620008b4828262000bce60201b60201c565b5b5b505050565b505050565b6008805490506009600083815260200190815260200160002081905550600881908060018154018082558091505060019003906000526020600020016000909190919091505550565b60006001620009238462000c5a60201b62000ffd1760201c565b6200092f919062001240565b905060006007600084815260200190815260200160002054905081811462000a15576000600660008673ffffffffffffffffffffffffffffffffffffffff1673ffffffffffffffffffffffffffffffffffffffff168152602001908152602001600020600084815260200190815260200160002054905080600660008773ffffffffffffffffffffffffffffffffffffffff1673ffffffffffffffffffffffffffffffffffffffff168152602001908152602001600020600084815260200190815260200160002081905550816007600083815260200190815260200160002081905550505b6007600084815260200190815260200160002060009055600660008573ffffffffffffffffffffffffffffffffffffffff1673ffffffffffffffffffffffffffffffffffffffff16815260200190815260200160002060008381526020019081526020016000206000905550505050565b6000600160088054905062000a9c919062001240565b905060006009600084815260200190815260200160002054905060006008838154811062000af3577f4e487b7100000000000000000000000000000000000000000000000000000000600052603260045260246000fd5b90600052602060002001549050806008838154811062000b3c577f4e487b7100000000000000000000000000000000000000000000000000000000600052603260045260246000fd5b90600052602060002001819055508160096000838152602001908152602001600020819055506009600085815260200190815260200160002060009055600880548062000bb2577f4e487b7100000000000000000000000000000000000000000000000000000000600052603160045260246000fd5b6001900381819060005260206000200160009055905550505050565b600062000be68362000c5a60201b62000ffd1760201c565b905081600660008573ffffffffffffffffffffffffffffffffffffffff1673ffffffffffffffffffffffffffffffffffffffff168152602001908152602001600020600083815260200190815260200160002081905550806007600084815260200190815260200160002081905550505050565b60008073ffffffffffffffffffffffffffffffffffffffff168273ffffffffffffffffffffffffffffffffffffffff16141562000cce576040517f08c379a000000000000000000000000000000000000000000000000000000000815260040162000cc59062001100565b60405180910390fd5b600360008373ffffffffffffffffffffffffffffffffffffffff1673ffffffffffffffffffffffffffffffffffffffff168152602001908152602001600020549050919050565b82805462000d239062001303565b90600052602060002090601f01602090048101928262000d47576000855562000d93565b82601f1062000d6257805160ff191683800117855562000d93565b8280016001018555821562000d93579182015b8281111562000d9257825182559160200191906001019062000d75565b5b50905062000da2919062000da6565b5090565b5b8082111562000dc157600081600090555060010162000da7565b5090565b600062000ddc62000dd6846200116d565b62001144565b9050808382526020820190508285604086028201111562000dfc57600080fd5b60005b8581101562000e30578162000e15888262000f07565b84526020840193506040830192505060018101905062000dff565b5050509392505050565b600062000e5162000e4b846200119c565b62001144565b90508281526020810184848401111562000e6a57600080fd5b62000e77848285620012cd565b509392505050565b60008151905062000e9081620014fc565b92915050565b60008151905062000ea78162001516565b92915050565b600082601f83011262000ebf57600080fd5b815162000ed184826020860162000dc5565b91505092915050565b600082601f83011262000eec57600080fd5b815162000efe84826020860162000e3a565b91505092915050565b60006040828403121562000f1a57600080fd5b62000f26604062001144565b9050600062000f388482850162000e7f565b600083015250602062000f4e8482850162000f5a565b60208301525092915050565b60008151905062000f6b8162001530565b92915050565b600080600080600080600060e0888a03121562000f8d57600080fd5b600062000f9d8a828b0162000f5a565b975050602088015167ffffffffffffffff81111562000fbb57600080fd5b62000fc98a828b0162000eda565b965050604088015167ffffffffffffffff81111562000fe757600080fd5b62000ff58a828b0162000eda565b955050606088015167ffffffffffffffff8111156200101357600080fd5b620010218a828b0162000ead565b9450506080620010348a828b0162000e96565b93505060a0620010478a828b0162000e96565b92505060c06200105a8a828b0162000e96565b91505092959891949750929550565b600062001078601c83620011d2565b915062001085826200145b565b602082019050919050565b60006200109f602a83620011d2565b9150620010ac8262001484565b604082019050919050565b6000620010c6602083620011d2565b9150620010d382620014d3565b602082019050919050565b60006020820190508181036000830152620010f98162001069565b9050919050565b600060208201905081810360008301526200111b8162001090565b9050919050565b600060208201905081810360008301526200113d81620010b7565b9050919050565b60006200115062001163565b90506200115e828262001339565b919050565b6000604051905090565b600067ffffffffffffffff8211156200118b576200118a6200141b565b5b602082029050602081019050919050565b600067ffffffffffffffff821115620011ba57620011b96200141b565b5b620011c5826200144a565b9050602081019050919050565b600082825260208201905092915050565b6000620011f082620012c3565b9150620011fd83620012c3565b9250827fffffffffffffffffffffffffffffffffffffffffffffffffffffffffffffffff03821115620012355762001234620013bd565b5b828201905092915050565b60006200124d82620012c3565b91506200125a83620012c3565b92508282101562001270576200126f620013bd565b5b828203905092915050565b60006200128882620012a3565b9050919050565b60006200129c82620012a3565b9050919050565b600073ffffffffffffffffffffffffffffffffffffffff82169050919050565b6000819050919050565b60005b83811015620012ed578082015181840152602081019050620012d0565b83811115620012fd576000848401525b50505050565b600060028204905060018216806200131c57607f821691505b60208210811415620013335762001332620013ec565b5b50919050565b62001344826200144a565b810181811067ffffffffffffffff821117156200136657620013656200141b565b5b80604052505050565b60006200137c82620012c3565b91507fffffffffffffffffffffffffffffffffffffffffffffffffffffffffffffffff821415620013b257620013b1620013bd565b5b600182019050919050565b7f4e487b7100000000000000000000000000000000000000000000000000000000600052601160045260246000fd5b7f4e487b7100000000000000000000000000000000000000000000000000000000600052602260045260246000fd5b7f4e487b7100000000000000000000000000000000000000000000000000000000600052604160045260246000fd5b6000601f19601f8301169050919050565b7f4552433732313a20746f6b656e20616c7265616479206d696e74656400000000600082015250565b7f4552433732313a2062616c616e636520717565727920666f7220746865207a6560008201527f726f206164647265737300000000000000000000000000000000000000000000602082015250565b7f4552433732313a206d696e7420746f20746865207a65726f2061646472657373600082015250565b62001507816200127b565b81146200151357600080fd5b50565b62001521816200128f565b81146200152d57600080fd5b50565b6200153b81620012c3565b81146200154757600080fd5b50565b615591806200155a6000396000f3fe6080604052600436106101f85760003560e01c80637cb5f6781161010d578063b88d4fde116100a0578063db006a751161006f578063db006a751461071d578063e985e9c514610746578063f2fde38b14610783578063f74025cf146107ac578063f77f0b99146107e9576101f8565b8063b88d4fde14610672578063c87b56dd1461069b578063cce7ec13146106d8578063d287f619146106f4576101f8565b806398d5fdca116100dc57806398d5fdca146105cc578063a22cb465146105f7578063ab3b8a7114610620578063b6ff8b2514610649576101f8565b80637cb5f678146105245780638da5cb5b1461054d578063931688cb1461057857806395d89b41146105a1576101f8565b80632a5c792a116101905780635c975abb1161015f5780635c975abb1461043f5780635dd7b59d1461046a5780636352211e1461049357806370a08231146104d0578063715018a61461050d576101f8565b80632a5c792a146103715780632f745c591461039c57806342842e0e146103d95780634f6ccce714610402576101f8565b806308cdc2a8116101cc57806308cdc2a8146102cb578063095ea7b3146102f457806318160ddd1461031d57806323b872dd14610348576101f8565b8062f69f8f146101fd57806301ffc9a71461022657806306fdde0314610263578063081812fc1461028e575b600080fd5b34801561020957600080fd5b50610224600480360381019061021f9190613a0f565b610812565b005b34801561023257600080fd5b5061024d60048036038101906102489190613a38565b6108ab565b60405161025a919061423f565b60405180910390f35b34801561026f57600080fd5b50610278610925565b604051610285919061425a565b60405180910390f35b34801561029a57600080fd5b506102b560048036038101906102b09190613acf565b6109b7565b6040516102c291906141b6565b60405180910390f35b3480156102d757600080fd5b506102f260048036038101906102ed9190613a0f565b610a3c565b005b34801561030057600080fd5b5061031b600480360381019061031691906139d3565b610ad7565b005b34801561032957600080fd5b50610332610bef565b60405161033f919061467c565b60405180910390f35b34801561035457600080fd5b5061036f600480360381019061036a91906138cd565b610bfc565b005b34801561037d57600080fd5b50610386610c5c565b604051610393919061421d565b60405180910390f35b3480156103a857600080fd5b506103c360048036038101906103be91906139d3565b610d52565b6040516103d0919061467c565b60405180910390f35b3480156103e557600080fd5b5061040060048036038101906103fb91906138cd565b610df7565b005b34801561040e57600080fd5b5061042960048036038101906104249190613acf565b610e17565b604051610436919061467c565b60405180910390f35b34801561044b57600080fd5b50610454610eae565b604051610461919061423f565b60405180910390f35b34801561047657600080fd5b50610491600480360381019061048c9190613acf565b610ec5565b005b34801561049f57600080fd5b506104ba60048036038101906104b59190613acf565b610f4b565b6040516104c791906141b6565b60405180910390f35b3480156104dc57600080fd5b506104f760048036038101906104f2919061383f565b610ffd565b604051610504919061467c565b60405180910390f35b34801561051957600080fd5b506105226110b5565b005b34801561053057600080fd5b5061054b60048036038101906105469190613868565b61113d565b005b34801561055957600080fd5b506105626111fd565b60405161056f91906141b6565b60405180910390f35b34801561058457600080fd5b5061059f600480360381019061059a9190613a8a565b611227565b005b3480156105ad57600080fd5b506105b66112b9565b6040516105c3919061425a565b60405180910390f35b3480156105d857600080fd5b506105e161134b565b6040516105ee919061467c565b60405180910390f35b34801561060357600080fd5b5061061e60048036038101906106199190613997565b611517565b005b34801561062c57600080fd5b5061064760048036038101906106429190613a0f565b61152d565b005b34801561065557600080fd5b50610670600480360381019061066b9190613868565b6115c6565b005b34801561067e57600080fd5b506106996004803603810190610694919061391c565b611686565b005b3480156106a757600080fd5b506106c260048036038101906106bd9190613acf565b6116e8565b6040516106cf919061425a565b60405180910390f35b6106f260048036038101906106ed91906139d3565b611817565b005b34801561070057600080fd5b5061071b60048036038101906107169190613a8a565b611d8f565b005b34801561072957600080fd5b50610744600480360381019061073f9190613acf565b611e21565b005b34801561075257600080fd5b5061076d60048036038101906107689190613891565b61206e565b60405161077a919061423f565b60405180910390f35b34801561078f57600080fd5b506107aa60048036038101906107a5919061383f565b612102565b005b3480156107b857600080fd5b506107d360048036038101906107ce9190613acf565b6121fa565b6040516107e091906141b6565b60405180910390f35b3480156107f557600080fd5b50610810600480360381019061080b9190613868565b61222d565b005b61081a6122f2565b73ffffffffffffffffffffffffffffffffffffffff166108386111fd565b73ffffffffffffffffffffffffffffffffffffffff161461088e576040517f08c379a0000000000000000000000000000000000000000000000000000000008152600401610885906144dc565b60405180910390fd5b80600d60016101000a81548160ff02191690831515021790555050565b60007f780e9d63000000000000000000000000000000000000000000000000000000007bffffffffffffffffffffffffffffffffffffffffffffffffffffffff1916827bffffffffffffffffffffffffffffffffffffffffffffffffffffffff1916148061091e575061091d826122fa565b5b9050919050565b606060008054610934906149f0565b80601f0160208091040260200160405190810160405280929190818152602001828054610960906149f0565b80156109ad5780601f10610982576101008083540402835291602001916109ad565b820191906000526020600020905b81548152906001019060200180831161099057829003601f168201915b5050505050905090565b60006109c2826123dc565b610a01576040517f08c379a00000000000000000000000000000000000000000000000000000000081526004016109f89061449c565b60405180910390fd5b6004600083815260200190815260200160002060009054906101000a900473ffffffffffffffffffffffffffffffffffffffff169050919050565b610a446122f2565b73ffffffffffffffffffffffffffffffffffffffff16610a626111fd565b73ffffffffffffffffffffffffffffffffffffffff1614610ab8576040517f08c379a0000000000000000000000000000000000000000000000000000000008152600401610aaf906144dc565b60405180910390fd5b8015610acb57610ac6612448565b610ad4565b610ad36124eb565b5b50565b6000610ae282610f4b565b90508073ffffffffffffffffffffffffffffffffffffffff168373ffffffffffffffffffffffffffffffffffffffff161415610b53576040517f08c379a0000000000000000000000000000000000000000000000000000000008152600401610b4a9061457c565b60405180910390fd5b8073ffffffffffffffffffffffffffffffffffffffff16610b726122f2565b73ffffffffffffffffffffffffffffffffffffffff161480610ba15750610ba081610b9b6122f2565b61206e565b5b610be0576040517f08c379a0000000000000000000000000000000000000000000000000000000008152600401610bd7906143fc565b60405180910390fd5b610bea838361258d565b505050565b6000600880549050905090565b610c0d610c076122f2565b82612646565b610c4c576040517f08c379a0000000000000000000000000000000000000000000000000000000008152600401610c43906145bc565b60405180910390fd5b610c57838383612724565b505050565b60606000610c68610bef565b905060008167ffffffffffffffff811115610cac577f4e487b7100000000000000000000000000000000000000000000000000000000600052604160045260246000fd5b604051908082528060200260200182016040528015610cda5781602001602082028036833780820191505090505b50905060005b82811015610d4957610cf181610e17565b828281518110610d2a577f4e487b7100000000000000000000000000000000000000000000000000000000600052603260045260246000fd5b6020026020010181815250508080610d4190614a53565b915050610ce0565b50809250505090565b6000610d5d83610ffd565b8210610d9e576040517f08c379a0000000000000000000000000000000000000000000000000000000008152600401610d95906142bc565b60405180910390fd5b600660008473ffffffffffffffffffffffffffffffffffffffff1673ffffffffffffffffffffffffffffffffffffffff168152602001908152602001600020600083815260200190815260200160002054905092915050565b610e1283838360405180602001604052806000815250611686565b505050565b6000610e21610bef565b8210610e62576040517f08c379a0000000000000000000000000000000000000000000000000000000008152600401610e59906145fc565b60405180910390fd5b60088281548110610e9c577f4e487b7100000000000000000000000000000000000000000000000000000000600052603260045260246000fd5b90600052602060002001549050919050565b6000600a60149054906101000a900460ff16905090565b610ecd6122f2565b73ffffffffffffffffffffffffffffffffffffffff16610eeb6111fd565b73ffffffffffffffffffffffffffffffffffffffff1614610f41576040517f08c379a0000000000000000000000000000000000000000000000000000000008152600401610f38906144dc565b60405180910390fd5b80600c8190555050565b6000806002600084815260200190815260200160002060009054906101000a900473ffffffffffffffffffffffffffffffffffffffff169050600073ffffffffffffffffffffffffffffffffffffffff168173ffffffffffffffffffffffffffffffffffffffff161415610ff4576040517f08c379a0000000000000000000000000000000000000000000000000000000008152600401610feb9061443c565b60405180910390fd5b80915050919050565b60008073ffffffffffffffffffffffffffffffffffffffff168273ffffffffffffffffffffffffffffffffffffffff16141561106e576040517f08c379a00000000000000000000000000000000000000000000000000000000081526004016110659061441c565b60405180910390fd5b600360008373ffffffffffffffffffffffffffffffffffffffff1673ffffffffffffffffffffffffffffffffffffffff168152602001908152602001600020549050919050565b6110bd6122f2565b73ffffffffffffffffffffffffffffffffffffffff166110db6111fd565b73ffffffffffffffffffffffffffffffffffffffff1614611131576040517f08c379a0000000000000000000000000000000000000000000000000000000008152600401611128906144dc565b60405180910390fd5b61113b6000612980565b565b6111456122f2565b73ffffffffffffffffffffffffffffffffffffffff166111636111fd565b73ffffffffffffffffffffffffffffffffffffffff16146111b9576040517f08c379a00000000000000000000000000000000000000000000000000000000081526004016111b0906144dc565b60405180910390fd5b80601260006101000a81548173ffffffffffffffffffffffffffffffffffffffff021916908373ffffffffffffffffffffffffffffffffffffffff16021790555050565b6000600a60009054906101000a900473ffffffffffffffffffffffffffffffffffffffff16905090565b61122f6122f2565b73ffffffffffffffffffffffffffffffffffffffff1661124d6111fd565b73ffffffffffffffffffffffffffffffffffffffff16146112a3576040517f08c379a000000000000000000000000000000000000000000000000000000000815260040161129a906144dc565b60405180910390fd5b8181600f91906112b492919061366c565b505050565b6060600180546112c8906149f0565b80601f01602080910402602001604051908101604052809291908181526020018280546112f4906149f0565b80156113415780601f1061131657610100808354040283529160200191611341565b820191906000526020600020905b81548152906001019060200180831161132457829003601f168201915b5050505050905090565b6000600c54421015611392576040517f08c379a00000000000000000000000000000000000000000000000000000000081526004016113899061455c565b60405180910390fd5b6000600c54426113a291906148f4565b905061012c60036113b3919061489a565b81101561145c5761145461142661012c60036113cf919061489a565b662386f26fc1000060056113e3919061489a565b600a662386f26fc10000607d6113f9919061489a565b6114039190614869565b61140d91906148f4565b6114179190614869565b83612a4690919063ffffffff16565b600a662386f26fc10000607d61143c919061489a565b6114469190614869565b612a5c90919063ffffffff16565b915050611514565b61012c600961146b919061489a565b8110156114fc576114f46114d261012c6009611487919061489a565b662386f26fc10000600161149b919061489a565b662386f26fc1000060056114af919061489a565b6114b991906148f4565b6114c39190614869565b83612a4690919063ffffffff16565b662386f26fc1000060056114e6919061489a565b612a5c90919063ffffffff16565b915050611514565b662386f26fc100006001611510919061489a565b9150505b90565b6115296115226122f2565b8383612a72565b5050565b6115356122f2565b73ffffffffffffffffffffffffffffffffffffffff166115536111fd565b73ffffffffffffffffffffffffffffffffffffffff16146115a9576040517f08c379a00000000000000000000000000000000000000000000000000000000081526004016115a0906144dc565b60405180910390fd5b80600d60006101000a81548160ff02191690831515021790555050565b6115ce6122f2565b73ffffffffffffffffffffffffffffffffffffffff166115ec6111fd565b73ffffffffffffffffffffffffffffffffffffffff1614611642576040517f08c379a0000000000000000000000000000000000000000000000000000000008152600401611639906144dc565b60405180910390fd5b80601360006101000a81548173ffffffffffffffffffffffffffffffffffffffff021916908373ffffffffffffffffffffffffffffffffffffffff16021790555050565b6116976116916122f2565b83612646565b6116d6576040517f08c379a00000000000000000000000000000000000000000000000000000000081526004016116cd906145bc565b60405180910390fd5b6116e284848484612bdf565b50505050565b60606116f3826123dc565b611732576040517f08c379a00000000000000000000000000000000000000000000000000000000081526004016117299061453c565b60405180910390fd5b600d60019054906101000a900460ff16806117ad5750600073ffffffffffffffffffffffffffffffffffffffff166010600084815260200190815260200160002060009054906101000a900473ffffffffffffffffffffffffffffffffffffffff1673ffffffffffffffffffffffffffffffffffffffff1614155b156117e457600f6117bd83612c3b565b6040516020016117ce929190614172565b6040516020818303038152906040529050611812565b600e6117ef83612c3b565b604051602001611800929190614172565b60405160208183030381529060405290505b919050565b600b60003373ffffffffffffffffffffffffffffffffffffffff1673ffffffffffffffffffffffffffffffffffffffff16815260200190815260200160002060009054906101000a900460ff16156118a4576040517f08c379a000000000000000000000000000000000000000000000000000000000815260040161189b9061427c565b60405180910390fd5b3273ffffffffffffffffffffffffffffffffffffffff163373ffffffffffffffffffffffffffffffffffffffff1614611912576040517f08c379a0000000000000000000000000000000000000000000000000000000008152600401611909906144bc565b60405180910390fd5b600c54421015611957576040517f08c379a000000000000000000000000000000000000000000000000000000000815260040161194e9061455c565b60405180910390fd5b607881111580156119685750600081115b6119a7576040517f08c379a000000000000000000000000000000000000000000000000000000000815260040161199e9061465c565b60405180910390fd5b60006119b161134b565b9050803410156119f6576040517f08c379a00000000000000000000000000000000000000000000000000000000081526004016119ed906143dc565b60405180910390fd5b611a008383612de8565b6001600b60003373ffffffffffffffffffffffffffffffffffffffff1673ffffffffffffffffffffffffffffffffffffffff16815260200190815260200160002060006101000a81548160ff0219169083151502179055506000611a83612710611a75611a5e34612a4690919063ffffffff16565b612fb690919063ffffffff16565b90506000611ab0612710611aa26103e834612a4690919063ffffffff16565b612fb690919063ffffffff16565b90506000611ad982611acb8534612a5c90919063ffffffff16565b612a5c90919063ffffffff16565b90506000601160009054906101000a900473ffffffffffffffffffffffffffffffffffffffff1673ffffffffffffffffffffffffffffffffffffffff1684604051611b23906141a1565b60006040518083038185875af1925050503d8060008114611b60576040519150601f19603f3d011682016040523d82523d6000602084013e611b65565b606091505b5050905080611ba9576040517f08c379a0000000000000000000000000000000000000000000000000000000008152600401611ba0906144fc565b60405180910390fd5b601260009054906101000a900473ffffffffffffffffffffffffffffffffffffffff1673ffffffffffffffffffffffffffffffffffffffff1683604051611bef906141a1565b60006040518083038185875af1925050503d8060008114611c2c576040519150601f19603f3d011682016040523d82523d6000602084013e611c31565b606091505b50508091505080611c77576040517f08c379a0000000000000000000000000000000000000000000000000000000008152600401611c6e9061459c565b60405180910390fd5b601360009054906101000a900473ffffffffffffffffffffffffffffffffffffffff1673ffffffffffffffffffffffffffffffffffffffff1682604051611cbd906141a1565b60006040518083038185875af1925050503d8060008114611cfa576040519150601f19603f3d011682016040523d82523d6000602084013e611cff565b606091505b50508091505080611d45576040517f08c379a0000000000000000000000000000000000000000000000000000000008152600401611d3c906145dc565b60405180910390fd5b7f4689c69f82cdf5b000bb00a84dd3258356c9997272fd94a9153e9d13a5b7c29a868887878787604051611d7e969594939291906146c0565b60405180910390a150505050505050565b611d976122f2565b73ffffffffffffffffffffffffffffffffffffffff16611db56111fd565b73ffffffffffffffffffffffffffffffffffffffff1614611e0b576040517f08c379a0000000000000000000000000000000000000000000000000000000008152600401611e02906144dc565b60405180910390fd5b8181600e9190611e1c92919061366c565b505050565b600d60009054906101000a900460ff16611e70576040517f08c379a0000000000000000000000000000000000000000000000000000000008152600401611e679061445c565b60405180910390fd5b600d60019054906101000a900460ff1615611ec0576040517f08c379a0000000000000000000000000000000000000000000000000000000008152600401611eb79061439c565b60405180910390fd5b600073ffffffffffffffffffffffffffffffffffffffff166010600083815260200190815260200160002060009054906101000a900473ffffffffffffffffffffffffffffffffffffffff1673ffffffffffffffffffffffffffffffffffffffff1614611f62576040517f08c379a0000000000000000000000000000000000000000000000000000000008152600401611f599061461c565b60405180910390fd5b611f6b81610f4b565b73ffffffffffffffffffffffffffffffffffffffff163373ffffffffffffffffffffffffffffffffffffffff1614611fd8576040517f08c379a0000000000000000000000000000000000000000000000000000000008152600401611fcf9061463c565b60405180910390fd5b611fe181610f4b565b6010600083815260200190815260200160002060006101000a81548173ffffffffffffffffffffffffffffffffffffffff021916908373ffffffffffffffffffffffffffffffffffffffff1602179055507fb7d04369b0951a44d17f7ed06b0f42dac0f3c7904020fe8c88970ad31bc63dab8133604051612063929190614697565b60405180910390a150565b6000600560008473ffffffffffffffffffffffffffffffffffffffff1673ffffffffffffffffffffffffffffffffffffffff16815260200190815260200160002060008373ffffffffffffffffffffffffffffffffffffffff1673ffffffffffffffffffffffffffffffffffffffff16815260200190815260200160002060009054906101000a900460ff16905092915050565b61210a6122f2565b73ffffffffffffffffffffffffffffffffffffffff166121286111fd565b73ffffffffffffffffffffffffffffffffffffffff161461217e576040517f08c379a0000000000000000000000000000000000000000000000000000000008152600401612175906144dc565b60405180910390fd5b600073ffffffffffffffffffffffffffffffffffffffff168173ffffffffffffffffffffffffffffffffffffffff1614156121ee576040517f08c379a00000000000000000000000000000000000000000000000000000000081526004016121e5906142fc565b60405180910390fd5b6121f781612980565b50565b60106020528060005260406000206000915054906101000a900473ffffffffffffffffffffffffffffffffffffffff1681565b6122356122f2565b73ffffffffffffffffffffffffffffffffffffffff166122536111fd565b73ffffffffffffffffffffffffffffffffffffffff16146122a9576040517f08c379a00000000000000000000000000000000000000000000000000000000081526004016122a0906144dc565b60405180910390fd5b80601160006101000a81548173ffffffffffffffffffffffffffffffffffffffff021916908373ffffffffffffffffffffffffffffffffffffffff16021790555050565b505050565b600033905090565b60007f80ac58cd000000000000000000000000000000000000000000000000000000007bffffffffffffffffffffffffffffffffffffffffffffffffffffffff1916827bffffffffffffffffffffffffffffffffffffffffffffffffffffffff191614806123c557507f5b5e139f000000000000000000000000000000000000000000000000000000007bffffffffffffffffffffffffffffffffffffffffffffffffffffffff1916827bffffffffffffffffffffffffffffffffffffffffffffffffffffffff1916145b806123d557506123d482612fcc565b5b9050919050565b60008073ffffffffffffffffffffffffffffffffffffffff166002600084815260200190815260200160002060009054906101000a900473ffffffffffffffffffffffffffffffffffffffff1673ffffffffffffffffffffffffffffffffffffffff1614159050919050565b612450610eae565b15612490576040517f08c379a0000000000000000000000000000000000000000000000000000000008152600401612487906143bc565b60405180910390fd5b6001600a60146101000a81548160ff0219169083151502179055507f62e78cea01bee320cd4e420270b5ea74000d11b0c9f74754ebdbfc544b05a2586124d46122f2565b6040516124e191906141b6565b60405180910390a1565b6124f3610eae565b612532576040517f08c379a00000000000000000000000000000000000000000000000000000000081526004016125299061429c565b60405180910390fd5b6000600a60146101000a81548160ff0219169083151502179055507f5db9ee0a495bf2e6ff9c91a7834c1ba4fdd244a5e8aa4e537bd38aeae4b073aa6125766122f2565b60405161258391906141b6565b60405180910390a1565b816004600083815260200190815260200160002060006101000a81548173ffffffffffffffffffffffffffffffffffffffff021916908373ffffffffffffffffffffffffffffffffffffffff160217905550808273ffffffffffffffffffffffffffffffffffffffff1661260083610f4b565b73ffffffffffffffffffffffffffffffffffffffff167f8c5be1e5ebec7d5bd14f71427d1e84f3dd0314c0f7b2291e5b200ac8c7c3b92560405160405180910390a45050565b6000612651826123dc565b612690576040517f08c379a00000000000000000000000000000000000000000000000000000000081526004016126879061437c565b60405180910390fd5b600061269b83610f4b565b90508073ffffffffffffffffffffffffffffffffffffffff168473ffffffffffffffffffffffffffffffffffffffff16148061270a57508373ffffffffffffffffffffffffffffffffffffffff166126f2846109b7565b73ffffffffffffffffffffffffffffffffffffffff16145b8061271b575061271a818561206e565b5b91505092915050565b8273ffffffffffffffffffffffffffffffffffffffff1661274482610f4b565b73ffffffffffffffffffffffffffffffffffffffff161461279a576040517f08c379a00000000000000000000000000000000000000000000000000000000081526004016127919061451c565b60405180910390fd5b600073ffffffffffffffffffffffffffffffffffffffff168273ffffffffffffffffffffffffffffffffffffffff16141561280a576040517f08c379a00000000000000000000000000000000000000000000000000000000081526004016128019061433c565b60405180910390fd5b612815838383613036565b61282060008261258d565b6001600360008573ffffffffffffffffffffffffffffffffffffffff1673ffffffffffffffffffffffffffffffffffffffff168152602001908152602001600020600082825461287091906148f4565b925050819055506001600360008473ffffffffffffffffffffffffffffffffffffffff1673ffffffffffffffffffffffffffffffffffffffff16815260200190815260200160002060008282546128c79190614813565b92505081905550816002600083815260200190815260200160002060006101000a81548173ffffffffffffffffffffffffffffffffffffffff021916908373ffffffffffffffffffffffffffffffffffffffff160217905550808273ffffffffffffffffffffffffffffffffffffffff168473ffffffffffffffffffffffffffffffffffffffff167fddf252ad1be2c89b69c2b068fc378daa952ba7f163c4a11628f55a4df523b3ef60405160405180910390a4505050565b6000600a60009054906101000a900473ffffffffffffffffffffffffffffffffffffffff16905081600a60006101000a81548173ffffffffffffffffffffffffffffffffffffffff021916908373ffffffffffffffffffffffffffffffffffffffff1602179055508173ffffffffffffffffffffffffffffffffffffffff168173ffffffffffffffffffffffffffffffffffffffff167f8be0079c531659141344cd1fd0a4f28419497f9722a3daafe3b4186f6b6457e060405160405180910390a35050565b60008183612a54919061489a565b905092915050565b60008183612a6a91906148f4565b905092915050565b8173ffffffffffffffffffffffffffffffffffffffff168373ffffffffffffffffffffffffffffffffffffffff161415612ae1576040517f08c379a0000000000000000000000000000000000000000000000000000000008152600401612ad89061435c565b60405180910390fd5b80600560008573ffffffffffffffffffffffffffffffffffffffff1673ffffffffffffffffffffffffffffffffffffffff16815260200190815260200160002060008473ffffffffffffffffffffffffffffffffffffffff1673ffffffffffffffffffffffffffffffffffffffff16815260200190815260200160002060006101000a81548160ff0219169083151502179055508173ffffffffffffffffffffffffffffffffffffffff168373ffffffffffffffffffffffffffffffffffffffff167f17307eab39ab6107e8899845ad3d59bd9653f200f220920489ca2b5937696c3183604051612bd2919061423f565b60405180910390a3505050565b612bea848484612724565b612bf68484848461314a565b612c35576040517f08c379a0000000000000000000000000000000000000000000000000000000008152600401612c2c906142dc565b60405180910390fd5b50505050565b60606000821415612c83576040518060400160405280600181526020017f30000000000000000000000000000000000000000000000000000000000000008152509050612de3565b600082905060005b60008214612cb5578080612c9e90614a53565b915050600a82612cae9190614869565b9150612c8b565b60008167ffffffffffffffff811115612cf7577f4e487b7100000000000000000000000000000000000000000000000000000000600052604160045260246000fd5b6040519080825280601f01601f191660200182016040528015612d295781602001600182028036833780820191505090505b5090505b60008514612ddc57600182612d4291906148f4565b9150600a85612d519190614a9c565b6030612d5d9190614813565b60f81b818381518110612d99577f4e487b7100000000000000000000000000000000000000000000000000000000600052603260045260246000fd5b60200101907effffffffffffffffffffffffffffffffffffffffffffffffffffffffffffff1916908160001a905350600a85612dd59190614869565b9450612d2d565b8093505050505b919050565b600073ffffffffffffffffffffffffffffffffffffffff168273ffffffffffffffffffffffffffffffffffffffff161415612e58576040517f08c379a0000000000000000000000000000000000000000000000000000000008152600401612e4f9061447c565b60405180910390fd5b612e61816123dc565b15612ea1576040517f08c379a0000000000000000000000000000000000000000000000000000000008152600401612e989061431c565b60405180910390fd5b612ead60008383613036565b6001600360008473ffffffffffffffffffffffffffffffffffffffff1673ffffffffffffffffffffffffffffffffffffffff1681526020019081526020016000206000828254612efd9190614813565b92505081905550816002600083815260200190815260200160002060006101000a81548173ffffffffffffffffffffffffffffffffffffffff021916908373ffffffffffffffffffffffffffffffffffffffff160217905550808273ffffffffffffffffffffffffffffffffffffffff16600073ffffffffffffffffffffffffffffffffffffffff167fddf252ad1be2c89b69c2b068fc378daa952ba7f163c4a11628f55a4df523b3ef60405160405180910390a45050565b60008183612fc49190614869565b905092915050565b60007f01ffc9a7000000000000000000000000000000000000000000000000000000007bffffffffffffffffffffffffffffffffffffffffffffffffffffffff1916827bffffffffffffffffffffffffffffffffffffffffffffffffffffffff1916149050919050565b6130418383836122ed565b600073ffffffffffffffffffffffffffffffffffffffff168373ffffffffffffffffffffffffffffffffffffffff1614156130845761307f816132e1565b6130c3565b8173ffffffffffffffffffffffffffffffffffffffff168373ffffffffffffffffffffffffffffffffffffffff16146130c2576130c1838261332a565b5b5b600073ffffffffffffffffffffffffffffffffffffffff168273ffffffffffffffffffffffffffffffffffffffff1614156131065761310181613497565b613145565b8273ffffffffffffffffffffffffffffffffffffffff168273ffffffffffffffffffffffffffffffffffffffff16146131445761314382826135da565b5b5b505050565b600061316b8473ffffffffffffffffffffffffffffffffffffffff16613659565b156132d4578373ffffffffffffffffffffffffffffffffffffffff1663150b7a026131946122f2565b8786866040518563ffffffff1660e01b81526004016131b694939291906141d1565b602060405180830381600087803b1580156131d057600080fd5b505af192505050801561320157506040513d601f19601f820116820180604052508101906131fe9190613a61565b60015b613284573d8060008114613231576040519150601f19603f3d011682016040523d82523d6000602084013e613236565b606091505b5060008151141561327c576040517f08c379a0000000000000000000000000000000000000000000000000000000008152600401613273906142dc565b60405180910390fd5b805181602001fd5b63150b7a0260e01b7bffffffffffffffffffffffffffffffffffffffffffffffffffffffff1916817bffffffffffffffffffffffffffffffffffffffffffffffffffffffff1916149150506132d9565b600190505b949350505050565b6008805490506009600083815260200190815260200160002081905550600881908060018154018082558091505060019003906000526020600020016000909190919091505550565b6000600161333784610ffd565b61334191906148f4565b9050600060076000848152602001908152602001600020549050818114613426576000600660008673ffffffffffffffffffffffffffffffffffffffff1673ffffffffffffffffffffffffffffffffffffffff168152602001908152602001600020600084815260200190815260200160002054905080600660008773ffffffffffffffffffffffffffffffffffffffff1673ffffffffffffffffffffffffffffffffffffffff168152602001908152602001600020600084815260200190815260200160002081905550816007600083815260200190815260200160002081905550505b6007600084815260200190815260200160002060009055600660008573ffffffffffffffffffffffffffffffffffffffff1673ffffffffffffffffffffffffffffffffffffffff16815260200190815260200160002060008381526020019081526020016000206000905550505050565b600060016008805490506134ab91906148f4565b9050600060096000848152602001908152602001600020549050600060088381548110613501577f4e487b7100000000000000000000000000000000000000000000000000000000600052603260045260246000fd5b906000526020600020015490508060088381548110613549577f4e487b7100000000000000000000000000000000000000000000000000000000600052603260045260246000fd5b9060005260206000200181905550816009600083815260200190815260200160002081905550600960008581526020019081526020016000206000905560088054806135be577f4e487b7100000000000000000000000000000000000000000000000000000000600052603160045260246000fd5b6001900381819060005260206000200160009055905550505050565b60006135e583610ffd565b905081600660008573ffffffffffffffffffffffffffffffffffffffff1673ffffffffffffffffffffffffffffffffffffffff168152602001908152602001600020600083815260200190815260200160002081905550806007600084815260200190815260200160002081905550505050565b600080823b905060008111915050919050565b828054613678906149f0565b90600052602060002090601f01602090048101928261369a57600085556136e1565b82601f106136b357803560ff19168380011785556136e1565b828001600101855582156136e1579182015b828111156136e05782358255916020019190600101906136c5565b5b5090506136ee91906136f2565b5090565b5b8082111561370b5760008160009055506001016136f3565b5090565b600061372261371d84614746565b614721565b90508281526020810184848401111561373a57600080fd5b6137458482856149ae565b509392505050565b60008135905061375c816154e8565b92915050565b600081359050613771816154ff565b92915050565b60008135905061378681615516565b92915050565b60008135905061379b8161552d565b92915050565b6000815190506137b08161552d565b92915050565b600082601f8301126137c757600080fd5b81356137d784826020860161370f565b91505092915050565b60008083601f8401126137f257600080fd5b8235905067ffffffffffffffff81111561380b57600080fd5b60208301915083600182028301111561382357600080fd5b9250929050565b60008135905061383981615544565b92915050565b60006020828403121561385157600080fd5b600061385f8482850161374d565b91505092915050565b60006020828403121561387a57600080fd5b600061388884828501613762565b91505092915050565b600080604083850312156138a457600080fd5b60006138b28582860161374d565b92505060206138c38582860161374d565b9150509250929050565b6000806000606084860312156138e257600080fd5b60006138f08682870161374d565b93505060206139018682870161374d565b92505060406139128682870161382a565b9150509250925092565b6000806000806080858703121561393257600080fd5b60006139408782880161374d565b94505060206139518782880161374d565b93505060406139628782880161382a565b925050606085013567ffffffffffffffff81111561397f57600080fd5b61398b878288016137b6565b91505092959194509250565b600080604083850312156139aa57600080fd5b60006139b88582860161374d565b92505060206139c985828601613777565b9150509250929050565b600080604083850312156139e657600080fd5b60006139f48582860161374d565b9250506020613a058582860161382a565b9150509250929050565b600060208284031215613a2157600080fd5b6000613a2f84828501613777565b91505092915050565b600060208284031215613a4a57600080fd5b6000613a588482850161378c565b91505092915050565b600060208284031215613a7357600080fd5b6000613a81848285016137a1565b91505092915050565b60008060208385031215613a9d57600080fd5b600083013567ffffffffffffffff811115613ab757600080fd5b613ac3858286016137e0565b92509250509250929050565b600060208284031215613ae157600080fd5b6000613aef8482850161382a565b91505092915050565b6000613b048383614154565b60208301905092915050565b613b1981614928565b82525050565b6000613b2a8261479c565b613b3481856147ca565b9350613b3f83614777565b8060005b83811015613b70578151613b578882613af8565b9750613b62836147bd565b925050600181019050613b43565b5085935050505092915050565b613b868161494c565b82525050565b6000613b97826147a7565b613ba181856147db565b9350613bb18185602086016149bd565b613bba81614b89565b840191505092915050565b6000613bd0826147b2565b613bda81856147f7565b9350613bea8185602086016149bd565b613bf381614b89565b840191505092915050565b6000613c09826147b2565b613c138185614808565b9350613c238185602086016149bd565b80840191505092915050565b60008154613c3c816149f0565b613c468186614808565b94506001821660008114613c615760018114613c7257613ca5565b60ff19831686528186019350613ca5565b613c7b85614787565b60005b83811015613c9d57815481890152600182019150602081019050613c7e565b838801955050505b50505092915050565b6000613cbb6031836147f7565b9150613cc682614b9a565b604082019050919050565b6000613cde6014836147f7565b9150613ce982614be9565b602082019050919050565b6000613d01602b836147f7565b9150613d0c82614c12565b604082019050919050565b6000613d246032836147f7565b9150613d2f82614c61565b604082019050919050565b6000613d476026836147f7565b9150613d5282614cb0565b604082019050919050565b6000613d6a601c836147f7565b9150613d7582614cff565b602082019050919050565b6000613d8d6024836147f7565b9150613d9882614d28565b604082019050919050565b6000613db06019836147f7565b9150613dbb82614d77565b602082019050919050565b6000613dd3602c836147f7565b9150613dde82614da0565b604082019050919050565b6000613df6602b836147f7565b9150613e0182614def565b604082019050919050565b6000613e196010836147f7565b9150613e2482614e3e565b602082019050919050565b6000613e3c6045836147f7565b9150613e4782614e67565b606082019050919050565b6000613e5f6038836147f7565b9150613e6a82614edc565b604082019050919050565b6000613e82602a836147f7565b9150613e8d82614f2b565b604082019050919050565b6000613ea56029836147f7565b9150613eb082614f7a565b604082019050919050565b6000613ec86031836147f7565b9150613ed382614fc9565b604082019050919050565b6000613eeb6020836147f7565b9150613ef682615018565b602082019050919050565b6000613f0e602c836147f7565b9150613f1982615041565b604082019050919050565b6000613f31600583614808565b9150613f3c82615090565b600582019050919050565b6000613f546027836147f7565b9150613f5f826150b9565b604082019050919050565b6000613f776020836147f7565b9150613f8282615108565b602082019050919050565b6000613f9a6036836147f7565b9150613fa582615131565b604082019050919050565b6000613fbd6029836147f7565b9150613fc882615180565b604082019050919050565b6000613fe0602f836147f7565b9150613feb826151cf565b604082019050919050565b60006140036029836147f7565b915061400e8261521e565b604082019050919050565b60006140266021836147f7565b91506140318261526d565b604082019050919050565b60006140496000836147ec565b9150614054826152bc565b600082019050919050565b600061406c602f836147f7565b9150614077826152bf565b604082019050919050565b600061408f6031836147f7565b915061409a8261530e565b604082019050919050565b60006140b26034836147f7565b91506140bd8261535d565b604082019050919050565b60006140d5602c836147f7565b91506140e0826153ac565b604082019050919050565b60006140f86033836147f7565b9150614103826153fb565b604082019050919050565b600061411b6025836147f7565b91506141268261544a565b604082019050919050565b600061413e6021836147f7565b915061414982615499565b604082019050919050565b61415d816149a4565b82525050565b61416c816149a4565b82525050565b600061417e8285613c2f565b915061418a8284613bfe565b915061419582613f24565b91508190509392505050565b60006141ac8261403c565b9150819050919050565b60006020820190506141cb6000830184613b10565b92915050565b60006080820190506141e66000830187613b10565b6141f36020830186613b10565b6142006040830185614163565b81810360608301526142128184613b8c565b905095945050505050565b600060208201905081810360008301526142378184613b1f565b905092915050565b60006020820190506142546000830184613b7d565b92915050565b600060208201905081810360008301526142748184613bc5565b905092915050565b6000602082019050818103600083015261429581613cae565b9050919050565b600060208201905081810360008301526142b581613cd1565b9050919050565b600060208201905081810360008301526142d581613cf4565b9050919050565b600060208201905081810360008301526142f581613d17565b9050919050565b6000602082019050818103600083015261431581613d3a565b9050919050565b6000602082019050818103600083015261433581613d5d565b9050919050565b6000602082019050818103600083015261435581613d80565b9050919050565b6000602082019050818103600083015261437581613da3565b9050919050565b6000602082019050818103600083015261439581613dc6565b9050919050565b600060208201905081810360008301526143b581613de9565b9050919050565b600060208201905081810360008301526143d581613e0c565b9050919050565b600060208201905081810360008301526143f581613e2f565b9050919050565b6000602082019050818103600083015261441581613e52565b9050919050565b6000602082019050818103600083015261443581613e75565b9050919050565b6000602082019050818103600083015261445581613e98565b9050919050565b6000602082019050818103600083015261447581613ebb565b9050919050565b6000602082019050818103600083015261449581613ede565b9050919050565b600060208201905081810360008301526144b581613f01565b9050919050565b600060208201905081810360008301526144d581613f47565b9050919050565b600060208201905081810360008301526144f581613f6a565b9050919050565b6000602082019050818103600083015261451581613f8d565b9050919050565b6000602082019050818103600083015261453581613fb0565b9050919050565b6000602082019050818103600083015261455581613fd3565b9050919050565b6000602082019050818103600083015261457581613ff6565b9050919050565b6000602082019050818103600083015261459581614019565b9050919050565b600060208201905081810360008301526145b58161405f565b9050919050565b600060208201905081810360008301526145d581614082565b9050919050565b600060208201905081810360008301526145f5816140a5565b9050919050565b60006020820190508181036000830152614615816140c8565b9050919050565b60006020820190508181036000830152614635816140eb565b9050919050565b600060208201905081810360008301526146558161410e565b9050919050565b6000602082019050818103600083015261467581614131565b9050919050565b60006020820190506146916000830184614163565b92915050565b60006040820190506146ac6000830185614163565b6146b96020830184613b10565b9392505050565b600060c0820190506146d56000830189614163565b6146e26020830188613b10565b6146ef6040830187614163565b6146fc6060830186614163565b6147096080830185614163565b61471660a0830184614163565b979650505050505050565b600061472b61473c565b90506147378282614a22565b919050565b6000604051905090565b600067ffffffffffffffff82111561476157614760614b5a565b5b61476a82614b89565b9050602081019050919050565b6000819050602082019050919050565b60008190508160005260206000209050919050565b600081519050919050565b600081519050919050565b600081519050919050565b6000602082019050919050565b600082825260208201905092915050565b600082825260208201905092915050565b600081905092915050565b600082825260208201905092915050565b600081905092915050565b600061481e826149a4565b9150614829836149a4565b9250827fffffffffffffffffffffffffffffffffffffffffffffffffffffffffffffffff0382111561485e5761485d614acd565b5b828201905092915050565b6000614874826149a4565b915061487f836149a4565b92508261488f5761488e614afc565b5b828204905092915050565b60006148a5826149a4565b91506148b0836149a4565b9250817fffffffffffffffffffffffffffffffffffffffffffffffffffffffffffffffff04831182151516156148e9576148e8614acd565b5b828202905092915050565b60006148ff826149a4565b915061490a836149a4565b92508282101561491d5761491c614acd565b5b828203905092915050565b600061493382614984565b9050919050565b600061494582614984565b9050919050565b60008115159050919050565b60007fffffffff0000000000000000000000000000000000000000000000000000000082169050919050565b600073ffffffffffffffffffffffffffffffffffffffff82169050919050565b6000819050919050565b82818337600083830152505050565b60005b838110156149db5780820151818401526020810190506149c0565b838111156149ea576000848401525b50505050565b60006002820490506001821680614a0857607f821691505b60208210811415614a1c57614a1b614b2b565b5b50919050565b614a2b82614b89565b810181811067ffffffffffffffff82111715614a4a57614a49614b5a565b5b80604052505050565b6000614a5e826149a4565b91507fffffffffffffffffffffffffffffffffffffffffffffffffffffffffffffffff821415614a9157614a90614acd565b5b600182019050919050565b6000614aa7826149a4565b9150614ab2836149a4565b925082614ac257614ac1614afc565b5b828206905092915050565b7f4e487b7100000000000000000000000000000000000000000000000000000000600052601160045260246000fd5b7f4e487b7100000000000000000000000000000000000000000000000000000000600052601260045260246000fd5b7f4e487b7100000000000000000000000000000000000000000000000000000000600052602260045260246000fd5b7f4e487b7100000000000000000000000000000000000000000000000000000000600052604160045260246000fd5b6000601f19601f8301169050919050565b7f466c79696e67466f726d6174696f6e733a20557365722068617320616c72656160008201527f647920626f75676874206f6e65204e4654000000000000000000000000000000602082015250565b7f5061757361626c653a206e6f7420706175736564000000000000000000000000600082015250565b7f455243373231456e756d657261626c653a206f776e657220696e646578206f7560008201527f74206f6620626f756e6473000000000000000000000000000000000000000000602082015250565b7f4552433732313a207472616e7366657220746f206e6f6e20455243373231526560008201527f63656976657220696d706c656d656e7465720000000000000000000000000000602082015250565b7f4f776e61626c653a206e6577206f776e657220697320746865207a65726f206160008201527f6464726573730000000000000000000000000000000000000000000000000000602082015250565b7f4552433732313a20746f6b656e20616c7265616479206d696e74656400000000600082015250565b7f4552433732313a207472616e7366657220746f20746865207a65726f2061646460008201527f7265737300000000000000000000000000000000000000000000000000000000602082015250565b7f4552433732313a20617070726f766520746f2063616c6c657200000000000000600082015250565b7f4552433732313a206f70657261746f7220717565727920666f72206e6f6e657860008201527f697374656e7420746f6b656e0000000000000000000000000000000000000000602082015250565b7f466c79696e67466f726d6174696f6e733a2072656465656d2077696e646f772060008201527f6861732065787069726564000000000000000000000000000000000000000000602082015250565b7f5061757361626c653a2070617573656400000000000000000000000000000000600082015250565b7f466c79696e67466f726d6174696f6e733a20696e73756666696369656e74206660008201527f756e64732073656e742c20706c6561736520636865636b2063757272656e742060208201527f7072696365000000000000000000000000000000000000000000000000000000604082015250565b7f4552433732313a20617070726f76652063616c6c6572206973206e6f74206f7760008201527f6e6572206e6f7220617070726f76656420666f7220616c6c0000000000000000602082015250565b7f4552433732313a2062616c616e636520717565727920666f7220746865207a6560008201527f726f206164647265737300000000000000000000000000000000000000000000602082015250565b7f4552433732313a206f776e657220717565727920666f72206e6f6e657869737460008201527f656e7420746f6b656e0000000000000000000000000000000000000000000000602082015250565b7f466c79696e67466f726d6174696f6e733a2072656465656d206973206375727260008201527f656e746c79206e6f7420656e61626c6564000000000000000000000000000000602082015250565b7f4552433732313a206d696e7420746f20746865207a65726f2061646472657373600082015250565b7f4552433732313a20617070726f76656420717565727920666f72206e6f6e657860008201527f697374656e7420746f6b656e0000000000000000000000000000000000000000602082015250565b7f2e6a736f6e000000000000000000000000000000000000000000000000000000600082015250565b7f466c79696e67466f726d6174696f6e733a204163636f756e74206973206e6f7460008201527f20616e20454f4100000000000000000000000000000000000000000000000000602082015250565b7f4f776e61626c653a2063616c6c6572206973206e6f7420746865206f776e6572600082015250565b7f466c79696e67466f726d6174696f6e733a20666f6f7462616c6c5465616d576160008201527f6c6c6574206661696c656420746f207265636569766500000000000000000000602082015250565b7f4552433732313a207472616e73666572206f6620746f6b656e2074686174206960008201527f73206e6f74206f776e0000000000000000000000000000000000000000000000602082015250565b7f4552433732314d657461646174613a2055524920717565727920666f72206e6f60008201527f6e6578697374656e7420746f6b656e0000000000000000000000000000000000602082015250565b7f466c79696e67466f726d6174696f6e733a2061756374696f6e20686173206e6f60008201527f7420737461727465640000000000000000000000000000000000000000000000602082015250565b7f4552433732313a20617070726f76616c20746f2063757272656e74206f776e6560008201527f7200000000000000000000000000000000000000000000000000000000000000602082015250565b50565b7f466c79696e67466f726d6174696f6e733a206475636b7357616c6c657420666160008201527f696c656420746f20726563656976650000000000000000000000000000000000602082015250565b7f4552433732313a207472616e736665722063616c6c6572206973206e6f74206f60008201527f776e6572206e6f7220617070726f766564000000000000000000000000000000602082015250565b7f466c79696e67466f726d6174696f6e733a206469766973696f6e537457616c6c60008201527f6574206661696c656420746f2072656365697665000000000000000000000000602082015250565b7f455243373231456e756d657261626c653a20676c6f62616c20696e646578206f60008201527f7574206f6620626f756e64730000000000000000000000000000000000000000602082015250565b7f466c79696e67466f726d6174696f6e733a20746f6b656e2068617320616c726560008201527f616479206265656e65642072656465656d656400000000000000000000000000602082015250565b7f466c79696e67466f726d6174696f6e733a2063616c6c6572206973206e6f742060008201527f6f776e6572000000000000000000000000000000000000000000000000000000602082015250565b7f466c79696e67466f726d6174696f6e733a20696e76616c696420746f6b656e4960008201527f6400000000000000000000000000000000000000000000000000000000000000602082015250565b6154f181614928565b81146154fc57600080fd5b50565b6155088161493a565b811461551357600080fd5b50565b61551f8161494c565b811461552a57600080fd5b50565b61553681614958565b811461554157600080fd5b50565b61554d816149a4565b811461555857600080fd5b5056fea26469706673582212209ff0023dad896aa69d2586a60bc95f6e968427ce384110b5b037c26e2ca611a364736f6c63430008040033",
  "devdoc": {
    "kind": "dev",
    "methods": {
      "approve(address,uint256)": {
        "details": "See {IERC721-approve}."
      },
      "balanceOf(address)": {
        "details": "See {IERC721-balanceOf}."
      },
      "getApproved(uint256)": {
        "details": "See {IERC721-getApproved}."
      },
      "isApprovedForAll(address,address)": {
        "details": "See {IERC721-isApprovedForAll}."
      },
      "name()": {
        "details": "See {IERC721Metadata-name}."
      },
      "owner()": {
        "details": "Returns the address of the current owner."
      },
      "ownerOf(uint256)": {
        "details": "See {IERC721-ownerOf}."
      },
      "paused()": {
        "details": "Returns true if the contract is paused, and false otherwise."
      },
      "renounceOwnership()": {
        "details": "Leaves the contract without owner. It will not be possible to call `onlyOwner` functions anymore. Can only be called by the current owner. NOTE: Renouncing ownership will leave the contract without an owner, thereby removing any functionality that is only available to the owner."
      },
      "safeTransferFrom(address,address,uint256)": {
        "details": "See {IERC721-safeTransferFrom}."
      },
      "safeTransferFrom(address,address,uint256,bytes)": {
        "details": "See {IERC721-safeTransferFrom}."
      },
      "setApprovalForAll(address,bool)": {
        "details": "See {IERC721-setApprovalForAll}."
      },
      "supportsInterface(bytes4)": {
        "details": "See {IERC165-supportsInterface}."
      },
      "symbol()": {
        "details": "See {IERC721Metadata-symbol}."
      },
      "tokenByIndex(uint256)": {
        "details": "See {IERC721Enumerable-tokenByIndex}."
      },
      "tokenOfOwnerByIndex(address,uint256)": {
        "details": "See {IERC721Enumerable-tokenOfOwnerByIndex}."
      },
      "tokenURI(uint256)": {
        "details": "See {IERC721Metadata-tokenURI}."
      },
      "totalSupply()": {
        "details": "See {IERC721Enumerable-totalSupply}."
      },
      "transferFrom(address,address,uint256)": {
        "details": "See {IERC721-transferFrom}."
      },
      "transferOwnership(address)": {
        "details": "Transfers ownership of the contract to a new account (`newOwner`). Can only be called by the current owner."
      }
    },
    "version": 1
  },
  "userdoc": {
    "kind": "user",
    "methods": {},
    "version": 1
  },
  "storageLayout": {
    "storage": [
      {
        "astId": 912,
        "contract": "@contracts/FlyingFormations.sol:FlyingFormations",
        "label": "_name",
        "offset": 0,
        "slot": "0",
        "type": "t_string_storage"
      },
      {
        "astId": 914,
        "contract": "@contracts/FlyingFormations.sol:FlyingFormations",
        "label": "_symbol",
        "offset": 0,
        "slot": "1",
        "type": "t_string_storage"
      },
      {
        "astId": 918,
        "contract": "@contracts/FlyingFormations.sol:FlyingFormations",
        "label": "_owners",
        "offset": 0,
        "slot": "2",
        "type": "t_mapping(t_uint256,t_address)"
      },
      {
        "astId": 922,
        "contract": "@contracts/FlyingFormations.sol:FlyingFormations",
        "label": "_balances",
        "offset": 0,
        "slot": "3",
        "type": "t_mapping(t_address,t_uint256)"
      },
      {
        "astId": 926,
        "contract": "@contracts/FlyingFormations.sol:FlyingFormations",
        "label": "_tokenApprovals",
        "offset": 0,
        "slot": "4",
        "type": "t_mapping(t_uint256,t_address)"
      },
      {
        "astId": 932,
        "contract": "@contracts/FlyingFormations.sol:FlyingFormations",
        "label": "_operatorApprovals",
        "offset": 0,
        "slot": "5",
        "type": "t_mapping(t_address,t_mapping(t_address,t_bool))"
      },
      {
        "astId": 1866,
        "contract": "@contracts/FlyingFormations.sol:FlyingFormations",
        "label": "_ownedTokens",
        "offset": 0,
        "slot": "6",
        "type": "t_mapping(t_address,t_mapping(t_uint256,t_uint256))"
      },
      {
        "astId": 1870,
        "contract": "@contracts/FlyingFormations.sol:FlyingFormations",
        "label": "_ownedTokensIndex",
        "offset": 0,
        "slot": "7",
        "type": "t_mapping(t_uint256,t_uint256)"
      },
      {
        "astId": 1873,
        "contract": "@contracts/FlyingFormations.sol:FlyingFormations",
        "label": "_allTokens",
        "offset": 0,
        "slot": "8",
        "type": "t_array(t_uint256)dyn_storage"
      },
      {
        "astId": 1877,
        "contract": "@contracts/FlyingFormations.sol:FlyingFormations",
        "label": "_allTokensIndex",
        "offset": 0,
        "slot": "9",
        "type": "t_mapping(t_uint256,t_uint256)"
      },
      {
        "astId": 697,
        "contract": "@contracts/FlyingFormations.sol:FlyingFormations",
        "label": "_owner",
        "offset": 0,
        "slot": "10",
        "type": "t_address"
      },
      {
        "astId": 812,
        "contract": "@contracts/FlyingFormations.sol:FlyingFormations",
        "label": "_paused",
        "offset": 20,
        "slot": "10",
        "type": "t_bool"
      },
      {
        "astId": 91,
        "contract": "@contracts/FlyingFormations.sol:FlyingFormations",
        "label": "hasPurchased",
        "offset": 0,
        "slot": "11",
        "type": "t_mapping(t_address,t_bool)"
      },
      {
        "astId": 93,
        "contract": "@contracts/FlyingFormations.sol:FlyingFormations",
        "label": "saleStartsAt",
        "offset": 0,
        "slot": "12",
        "type": "t_uint256"
      },
      {
        "astId": 95,
        "contract": "@contracts/FlyingFormations.sol:FlyingFormations",
        "label": "redeemEnabled",
        "offset": 0,
        "slot": "13",
        "type": "t_bool"
      },
      {
        "astId": 97,
        "contract": "@contracts/FlyingFormations.sol:FlyingFormations",
        "label": "redeemExpired",
        "offset": 1,
        "slot": "13",
        "type": "t_bool"
      },
      {
        "astId": 99,
        "contract": "@contracts/FlyingFormations.sol:FlyingFormations",
        "label": "sneakerBaseURI",
        "offset": 0,
        "slot": "14",
        "type": "t_string_storage"
      },
      {
        "astId": 101,
        "contract": "@contracts/FlyingFormations.sol:FlyingFormations",
        "label": "standardBaseURI",
        "offset": 0,
        "slot": "15",
        "type": "t_string_storage"
      },
      {
        "astId": 110,
        "contract": "@contracts/FlyingFormations.sol:FlyingFormations",
        "label": "sneakerRedeemedBy",
        "offset": 0,
        "slot": "16",
        "type": "t_mapping(t_uint256,t_address)"
      },
      {
        "astId": 112,
        "contract": "@contracts/FlyingFormations.sol:FlyingFormations",
        "label": "footballTeamWallet",
        "offset": 0,
        "slot": "17",
        "type": "t_address_payable"
      },
      {
        "astId": 114,
        "contract": "@contracts/FlyingFormations.sol:FlyingFormations",
        "label": "ducksWallet",
        "offset": 0,
        "slot": "18",
        "type": "t_address_payable"
      },
      {
        "astId": 116,
        "contract": "@contracts/FlyingFormations.sol:FlyingFormations",
        "label": "divisionStWallet",
        "offset": 0,
        "slot": "19",
        "type": "t_address_payable"
      }
    ],
    "types": {
      "t_address": {
        "encoding": "inplace",
        "label": "address",
        "numberOfBytes": "20"
      },
      "t_address_payable": {
        "encoding": "inplace",
        "label": "address payable",
        "numberOfBytes": "20"
      },
      "t_array(t_uint256)dyn_storage": {
        "base": "t_uint256",
        "encoding": "dynamic_array",
        "label": "uint256[]",
        "numberOfBytes": "32"
      },
      "t_bool": {
        "encoding": "inplace",
        "label": "bool",
        "numberOfBytes": "1"
      },
      "t_mapping(t_address,t_bool)": {
        "encoding": "mapping",
        "key": "t_address",
        "label": "mapping(address => bool)",
        "numberOfBytes": "32",
        "value": "t_bool"
      },
      "t_mapping(t_address,t_mapping(t_address,t_bool))": {
        "encoding": "mapping",
        "key": "t_address",
        "label": "mapping(address => mapping(address => bool))",
        "numberOfBytes": "32",
        "value": "t_mapping(t_address,t_bool)"
      },
      "t_mapping(t_address,t_mapping(t_uint256,t_uint256))": {
        "encoding": "mapping",
        "key": "t_address",
        "label": "mapping(address => mapping(uint256 => uint256))",
        "numberOfBytes": "32",
        "value": "t_mapping(t_uint256,t_uint256)"
      },
      "t_mapping(t_address,t_uint256)": {
        "encoding": "mapping",
        "key": "t_address",
        "label": "mapping(address => uint256)",
        "numberOfBytes": "32",
        "value": "t_uint256"
      },
      "t_mapping(t_uint256,t_address)": {
        "encoding": "mapping",
        "key": "t_uint256",
        "label": "mapping(uint256 => address)",
        "numberOfBytes": "32",
        "value": "t_address"
      },
      "t_mapping(t_uint256,t_uint256)": {
        "encoding": "mapping",
        "key": "t_uint256",
        "label": "mapping(uint256 => uint256)",
        "numberOfBytes": "32",
        "value": "t_uint256"
      },
      "t_string_storage": {
        "encoding": "bytes",
        "label": "string",
        "numberOfBytes": "32"
      },
      "t_uint256": {
        "encoding": "inplace",
        "label": "uint256",
        "numberOfBytes": "32"
      }
    }
  }
}