{
  "address": "0x2Ad219bdCF2D0FcA970e4fE8FdeAbe101B73Da36",
  "abi": [
    {
      "inputs": [
        {
          "internalType": "uint256",
          "name": "_saleStartsAt",
          "type": "uint256"
        },
        {
          "internalType": "string",
          "name": "_sneakerBaseURI",
          "type": "string"
        },
        {
          "internalType": "string",
          "name": "_standardBaseURI",
          "type": "string"
        },
        {
          "components": [
            {
              "internalType": "address",
              "name": "addr",
              "type": "address"
            },
            {
              "internalType": "uint256",
              "name": "tokenId",
              "type": "uint256"
            }
          ],
          "internalType": "struct FlyingFormations.PremintEntry[]",
          "name": "premintEntries",
          "type": "tuple[]"
        },
        {
          "internalType": "address payable",
          "name": "_footballTeamWallet",
          "type": "address"
        },
        {
          "internalType": "address payable",
          "name": "_ducksWallet",
          "type": "address"
        },
        {
          "internalType": "address payable",
          "name": "_divisionStreetWallet",
          "type": "address"
        }
      ],
      "stateMutability": "nonpayable",
      "type": "constructor"
    },
    {
      "anonymous": false,
      "inputs": [
        {
          "indexed": true,
          "internalType": "address",
          "name": "owner",
          "type": "address"
        },
        {
          "indexed": true,
          "internalType": "address",
          "name": "approved",
          "type": "address"
        },
        {
          "indexed": true,
          "internalType": "uint256",
          "name": "tokenId",
          "type": "uint256"
        }
      ],
      "name": "Approval",
      "type": "event"
    },
    {
      "anonymous": false,
      "inputs": [
        {
          "indexed": true,
          "internalType": "address",
          "name": "owner",
          "type": "address"
        },
        {
          "indexed": true,
          "internalType": "address",
          "name": "operator",
          "type": "address"
        },
        {
          "indexed": false,
          "internalType": "bool",
          "name": "approved",
          "type": "bool"
        }
      ],
      "name": "ApprovalForAll",
      "type": "event"
    },
    {
      "anonymous": false,
      "inputs": [
        {
          "indexed": true,
          "internalType": "address",
          "name": "previousOwner",
          "type": "address"
        },
        {
          "indexed": true,
          "internalType": "address",
          "name": "newOwner",
          "type": "address"
        }
      ],
      "name": "OwnershipTransferred",
      "type": "event"
    },
    {
      "anonymous": false,
      "inputs": [
        {
          "indexed": false,
          "internalType": "address",
          "name": "account",
          "type": "address"
        }
      ],
      "name": "Paused",
      "type": "event"
    },
    {
      "anonymous": false,
      "inputs": [
        {
          "indexed": false,
          "internalType": "uint256",
          "name": "tokenId",
          "type": "uint256"
        },
        {
          "indexed": false,
          "internalType": "address",
          "name": "recipient",
          "type": "address"
        }
      ],
      "name": "SneakerRedeemed",
      "type": "event"
    },
    {
      "anonymous": false,
      "inputs": [
        {
          "indexed": false,
          "internalType": "uint256",
          "name": "tokenId",
          "type": "uint256"
        },
        {
          "indexed": false,
          "internalType": "address",
          "name": "recipient",
          "type": "address"
        },
        {
          "indexed": false,
          "internalType": "uint256",
          "name": "paid",
          "type": "uint256"
        },
        {
          "indexed": false,
          "internalType": "uint256",
          "name": "footballTeamReceives",
          "type": "uint256"
        },
        {
          "indexed": false,
          "internalType": "uint256",
          "name": "ducksReceives",
          "type": "uint256"
        },
        {
          "indexed": false,
          "internalType": "uint256",
          "name": "divisionStreetReceives",
          "type": "uint256"
        }
      ],
      "name": "TokenBought",
      "type": "event"
    },
    {
      "anonymous": false,
      "inputs": [
        {
          "indexed": true,
          "internalType": "address",
          "name": "from",
          "type": "address"
        },
        {
          "indexed": true,
          "internalType": "address",
          "name": "to",
          "type": "address"
        },
        {
          "indexed": true,
          "internalType": "uint256",
          "name": "tokenId",
          "type": "uint256"
        }
      ],
      "name": "Transfer",
      "type": "event"
    },
    {
      "anonymous": false,
      "inputs": [
        {
          "indexed": false,
          "internalType": "address",
          "name": "account",
          "type": "address"
        }
      ],
      "name": "Unpaused",
      "type": "event"
    },
    {
      "inputs": [
        {
          "internalType": "address",
          "name": "to",
          "type": "address"
        },
        {
          "internalType": "uint256",
          "name": "tokenId",
          "type": "uint256"
        }
      ],
      "name": "approve",
      "outputs": [],
      "stateMutability": "nonpayable",
      "type": "function"
    },
    {
      "inputs": [
        {
          "internalType": "address",
          "name": "owner",
          "type": "address"
        }
      ],
      "name": "balanceOf",
      "outputs": [
        {
          "internalType": "uint256",
          "name": "",
          "type": "uint256"
        }
      ],
      "stateMutability": "view",
      "type": "function"
    },
    {
      "inputs": [
        {
          "internalType": "address",
          "name": "recipient",
          "type": "address"
        },
        {
          "internalType": "uint256",
          "name": "tokenId",
          "type": "uint256"
        }
      ],
      "name": "buy",
      "outputs": [],
      "stateMutability": "payable",
      "type": "function"
    },
    {
      "inputs": [],
      "name": "getAllTokens",
      "outputs": [
        {
          "internalType": "uint256[]",
          "name": "",
          "type": "uint256[]"
        }
      ],
      "stateMutability": "view",
      "type": "function"
    },
    {
      "inputs": [
        {
          "internalType": "uint256",
          "name": "tokenId",
          "type": "uint256"
        }
      ],
      "name": "getApproved",
      "outputs": [
        {
          "internalType": "address",
          "name": "",
          "type": "address"
        }
      ],
      "stateMutability": "view",
      "type": "function"
    },
    {
      "inputs": [],
      "name": "getPrice",
      "outputs": [
        {
          "internalType": "uint256",
          "name": "",
          "type": "uint256"
        }
      ],
      "stateMutability": "view",
      "type": "function"
    },
    {
      "inputs": [
        {
          "internalType": "address",
          "name": "owner",
          "type": "address"
        },
        {
          "internalType": "address",
          "name": "operator",
          "type": "address"
        }
      ],
      "name": "isApprovedForAll",
      "outputs": [
        {
          "internalType": "bool",
          "name": "",
          "type": "bool"
        }
      ],
      "stateMutability": "view",
      "type": "function"
    },
    {
      "inputs": [],
      "name": "name",
      "outputs": [
        {
          "internalType": "string",
          "name": "",
          "type": "string"
        }
      ],
      "stateMutability": "view",
      "type": "function"
    },
    {
      "inputs": [],
      "name": "owner",
      "outputs": [
        {
          "internalType": "address",
          "name": "",
          "type": "address"
        }
      ],
      "stateMutability": "view",
      "type": "function"
    },
    {
      "inputs": [
        {
          "internalType": "uint256",
          "name": "tokenId",
          "type": "uint256"
        }
      ],
      "name": "ownerOf",
      "outputs": [
        {
          "internalType": "address",
          "name": "",
          "type": "address"
        }
      ],
      "stateMutability": "view",
      "type": "function"
    },
    {
      "inputs": [],
      "name": "paused",
      "outputs": [
        {
          "internalType": "bool",
          "name": "",
          "type": "bool"
        }
      ],
      "stateMutability": "view",
      "type": "function"
    },
    {
      "inputs": [
        {
          "internalType": "uint256",
          "name": "tokenId",
          "type": "uint256"
        }
      ],
      "name": "redeem",
      "outputs": [],
      "stateMutability": "nonpayable",
      "type": "function"
    },
    {
      "inputs": [],
      "name": "renounceOwnership",
      "outputs": [],
      "stateMutability": "nonpayable",
      "type": "function"
    },
    {
      "inputs": [
        {
          "internalType": "address",
          "name": "from",
          "type": "address"
        },
        {
          "internalType": "address",
          "name": "to",
          "type": "address"
        },
        {
          "internalType": "uint256",
          "name": "tokenId",
          "type": "uint256"
        }
      ],
      "name": "safeTransferFrom",
      "outputs": [],
      "stateMutability": "nonpayable",
      "type": "function"
    },
    {
      "inputs": [
        {
          "internalType": "address",
          "name": "from",
          "type": "address"
        },
        {
          "internalType": "address",
          "name": "to",
          "type": "address"
        },
        {
          "internalType": "uint256",
          "name": "tokenId",
          "type": "uint256"
        },
        {
          "internalType": "bytes",
          "name": "_data",
          "type": "bytes"
        }
      ],
      "name": "safeTransferFrom",
      "outputs": [],
      "stateMutability": "nonpayable",
      "type": "function"
    },
    {
      "inputs": [
        {
          "internalType": "address",
          "name": "operator",
          "type": "address"
        },
        {
          "internalType": "bool",
          "name": "approved",
          "type": "bool"
        }
      ],
      "name": "setApprovalForAll",
      "outputs": [],
      "stateMutability": "nonpayable",
      "type": "function"
    },
    {
      "inputs": [
        {
          "internalType": "uint256",
          "name": "",
          "type": "uint256"
        }
      ],
      "name": "sneakerRedeemedBy",
      "outputs": [
        {
          "internalType": "address",
          "name": "",
          "type": "address"
        }
      ],
      "stateMutability": "view",
      "type": "function"
    },
    {
      "inputs": [
        {
          "internalType": "bytes4",
          "name": "interfaceId",
          "type": "bytes4"
        }
      ],
      "name": "supportsInterface",
      "outputs": [
        {
          "internalType": "bool",
          "name": "",
          "type": "bool"
        }
      ],
      "stateMutability": "view",
      "type": "function"
    },
    {
      "inputs": [],
      "name": "symbol",
      "outputs": [
        {
          "internalType": "string",
          "name": "",
          "type": "string"
        }
      ],
      "stateMutability": "view",
      "type": "function"
    },
    {
      "inputs": [
        {
          "internalType": "uint256",
          "name": "index",
          "type": "uint256"
        }
      ],
      "name": "tokenByIndex",
      "outputs": [
        {
          "internalType": "uint256",
          "name": "",
          "type": "uint256"
        }
      ],
      "stateMutability": "view",
      "type": "function"
    },
    {
      "inputs": [
        {
          "internalType": "address",
          "name": "owner",
          "type": "address"
        },
        {
          "internalType": "uint256",
          "name": "index",
          "type": "uint256"
        }
      ],
      "name": "tokenOfOwnerByIndex",
      "outputs": [
        {
          "internalType": "uint256",
          "name": "",
          "type": "uint256"
        }
      ],
      "stateMutability": "view",
      "type": "function"
    },
    {
      "inputs": [
        {
          "internalType": "uint256",
          "name": "tokenId",
          "type": "uint256"
        }
      ],
      "name": "tokenURI",
      "outputs": [
        {
          "internalType": "string",
          "name": "",
          "type": "string"
        }
      ],
      "stateMutability": "view",
      "type": "function"
    },
    {
      "inputs": [],
      "name": "totalSupply",
      "outputs": [
        {
          "internalType": "uint256",
          "name": "",
          "type": "uint256"
        }
      ],
      "stateMutability": "view",
      "type": "function"
    },
    {
      "inputs": [
        {
          "internalType": "address",
          "name": "from",
          "type": "address"
        },
        {
          "internalType": "address",
          "name": "to",
          "type": "address"
        },
        {
          "internalType": "uint256",
          "name": "tokenId",
          "type": "uint256"
        }
      ],
      "name": "transferFrom",
      "outputs": [],
      "stateMutability": "nonpayable",
      "type": "function"
    },
    {
      "inputs": [
        {
          "internalType": "address",
          "name": "newOwner",
          "type": "address"
        }
      ],
      "name": "transferOwnership",
      "outputs": [],
      "stateMutability": "nonpayable",
      "type": "function"
    },
    {
      "inputs": [
        {
          "internalType": "string",
          "name": "__baseURI",
          "type": "string"
        }
      ],
      "name": "updateBaseURI",
      "outputs": [],
      "stateMutability": "nonpayable",
      "type": "function"
    },
    {
      "inputs": [
        {
          "internalType": "address payable",
          "name": "_wallet",
          "type": "address"
        }
      ],
      "name": "updateDivisionStreetWallet",
      "outputs": [],
      "stateMutability": "nonpayable",
      "type": "function"
    },
    {
      "inputs": [
        {
          "internalType": "address payable",
          "name": "_wallet",
          "type": "address"
        }
      ],
      "name": "updateDucksWallet",
      "outputs": [],
      "stateMutability": "nonpayable",
      "type": "function"
    },
    {
      "inputs": [
        {
          "internalType": "address payable",
          "name": "_wallet",
          "type": "address"
        }
      ],
      "name": "updateFootballTeamWallet",
      "outputs": [],
      "stateMutability": "nonpayable",
      "type": "function"
    },
    {
      "inputs": [
        {
          "internalType": "bool",
          "name": "_redeemEnabled",
          "type": "bool"
        }
      ],
      "name": "updateRedeemEnabled",
      "outputs": [],
      "stateMutability": "nonpayable",
      "type": "function"
    },
    {
      "inputs": [
        {
          "internalType": "bool",
          "name": "_redeemExpired",
          "type": "bool"
        }
      ],
      "name": "updateRedeemExpired",
      "outputs": [],
      "stateMutability": "nonpayable",
      "type": "function"
    },
    {
      "inputs": [
        {
          "internalType": "uint256",
          "name": "_saleStartsAt",
          "type": "uint256"
        }
      ],
      "name": "updateSaleStartsAt",
      "outputs": [],
      "stateMutability": "nonpayable",
      "type": "function"
    },
    {
      "inputs": [
        {
          "internalType": "string",
          "name": "__baseURI",
          "type": "string"
        }
      ],
      "name": "updateSneakerBaseURI",
      "outputs": [],
      "stateMutability": "nonpayable",
      "type": "function"
    }
  ],
  "transactionHash": "0xc3e1a6861a3747aa20e0f0fb05d0623e50588cba84c04d43e612bc974e0a5cf7",
  "args": [
    1645134092,
    "ipfs://QmemSxY51UTcmipLFpF3y8qdgpbsa95CxJqiCTdu8fMbzA/",
    "ipfs://QmR3UvvMqADkETboFRQYvdeKEE4ixak67rjLFDyeVWu2tB/",
    [
      {
        "addr": "0xd6b8d714d98057Dac37034Eaa26Dd013B18D81Da",
        "tokenId": 5
      },
      {
        "addr": "0xD3cA53890EFA9c8739dFC34c697C5D8c9f5506cF",
        "tokenId": 50
      },
      {
        "addr": "0x0e1a7aA63cB69e59dA1A3554a6FEa073379093bd",
        "tokenId": 101
      }
    ],
    "0xd6b8d714d98057Dac37034Eaa26Dd013B18D81Da",
    "0xD3cA53890EFA9c8739dFC34c697C5D8c9f5506cF",
    "0x0e1a7aA63cB69e59dA1A3554a6FEa073379093bd"
  ],
  "numDeployments": 3,
  "solcInputHash": "d28c4e753da0db94fff5f5c948507755",
  "bytecode": "0x6080604052662386f26fc10000600b55603c600c55600a600b54607d620000279190620012d5565b6200003391906200129d565b600d55600c546003620000479190620012d5565b600e55600b5460056200005b9190620012d5565b600f55600c5460096200006f9190620012d5565b601055600b546001620000839190620012d5565b601155620000b3600e54600f54600d546200009f919062001336565b6200049960201b62001fab1790919060201c565b601255620000e3601054601154600f54620000cf919062001336565b6200049960201b62001fab1790919060201c565b601355348015620000f357600080fd5b506040516200642338038062006423833981810160405281019062000119919062000fce565b6040518060400160405280601181526020017f466c79696e6720466f726d6174696f6e730000000000000000000000000000008152506040518060400160405280600381526020017f464654000000000000000000000000000000000000000000000000000000000081525081600090805190602001906200019d92919062000d72565b508060019080519060200190620001b692919062000d72565b505050620001d9620001cd620004b160201b60201c565b620004b960201b60201c565b6000600a60146101000a81548160ff0219169083151502179055508660158190555085601790805190602001906200021392919062000d72565b5084601890805190602001906200022c92919062000d72565b5060005b8451811015620003c857620002d685828151811062000278577f4e487b7100000000000000000000000000000000000000000000000000000000600052603260045260246000fd5b602002602001015160000151868381518110620002be577f4e487b7100000000000000000000000000000000000000000000000000000000600052603260045260246000fd5b6020026020010151602001516200057f60201b60201c565b84818151811062000310577f4e487b7100000000000000000000000000000000000000000000000000000000600052603260045260246000fd5b602002602001015160000151601960008784815181106200035a577f4e487b7100000000000000000000000000000000000000000000000000000000600052603260045260246000fd5b602002602001015160200151815260200190815260200160002060006101000a81548173ffffffffffffffffffffffffffffffffffffffff021916908373ffffffffffffffffffffffffffffffffffffffff1602179055508080620003bf9062001465565b91505062000230565b5082601a60006101000a81548173ffffffffffffffffffffffffffffffffffffffff021916908373ffffffffffffffffffffffffffffffffffffffff16021790555081601b60006101000a81548173ffffffffffffffffffffffffffffffffffffffff021916908373ffffffffffffffffffffffffffffffffffffffff16021790555080601c60006101000a81548173ffffffffffffffffffffffffffffffffffffffff021916908373ffffffffffffffffffffffffffffffffffffffff160217905550505050505050506200166f565b60008183620004a991906200129d565b905092915050565b600033905090565b6000600a60009054906101000a900473ffffffffffffffffffffffffffffffffffffffff16905081600a60006101000a81548173ffffffffffffffffffffffffffffffffffffffff021916908373ffffffffffffffffffffffffffffffffffffffff1602179055508173ffffffffffffffffffffffffffffffffffffffff168173ffffffffffffffffffffffffffffffffffffffff167f8be0079c531659141344cd1fd0a4f28419497f9722a3daafe3b4186f6b6457e060405160405180910390a35050565b600073ffffffffffffffffffffffffffffffffffffffff168273ffffffffffffffffffffffffffffffffffffffff161415620005f2576040517f08c379a0000000000000000000000000000000000000000000000000000000008152600401620005e9906200117f565b60405180910390fd5b62000603816200076560201b60201c565b1562000646576040517f08c379a00000000000000000000000000000000000000000000000000000000081526004016200063d906200113b565b60405180910390fd5b6200065a60008383620007d160201b60201c565b6001600360008473ffffffffffffffffffffffffffffffffffffffff1673ffffffffffffffffffffffffffffffffffffffff1681526020019081526020016000206000828254620006ac919062001240565b92505081905550816002600083815260200190815260200160002060006101000a81548173ffffffffffffffffffffffffffffffffffffffff021916908373ffffffffffffffffffffffffffffffffffffffff160217905550808273ffffffffffffffffffffffffffffffffffffffff16600073ffffffffffffffffffffffffffffffffffffffff167fddf252ad1be2c89b69c2b068fc378daa952ba7f163c4a11628f55a4df523b3ef60405160405180910390a45050565b60008073ffffffffffffffffffffffffffffffffffffffff166002600084815260200190815260200160002060009054906101000a900473ffffffffffffffffffffffffffffffffffffffff1673ffffffffffffffffffffffffffffffffffffffff1614159050919050565b620007e98383836200091860201b62001fc11760201c565b600073ffffffffffffffffffffffffffffffffffffffff168373ffffffffffffffffffffffffffffffffffffffff161415620008365762000830816200091d60201b60201c565b6200087e565b8173ffffffffffffffffffffffffffffffffffffffff168373ffffffffffffffffffffffffffffffffffffffff16146200087d576200087c83826200096660201b60201c565b5b5b600073ffffffffffffffffffffffffffffffffffffffff168273ffffffffffffffffffffffffffffffffffffffff161415620008cb57620008c58162000ae360201b60201c565b62000913565b8273ffffffffffffffffffffffffffffffffffffffff168273ffffffffffffffffffffffffffffffffffffffff1614620009125762000911828262000c2b60201b60201c565b5b5b505050565b505050565b6008805490506009600083815260200190815260200160002081905550600881908060018154018082558091505060019003906000526020600020016000909190919091505550565b60006001620009808462000cb760201b62000fee1760201c565b6200098c919062001336565b905060006007600084815260200190815260200160002054905081811462000a72576000600660008673ffffffffffffffffffffffffffffffffffffffff1673ffffffffffffffffffffffffffffffffffffffff168152602001908152602001600020600084815260200190815260200160002054905080600660008773ffffffffffffffffffffffffffffffffffffffff1673ffffffffffffffffffffffffffffffffffffffff168152602001908152602001600020600084815260200190815260200160002081905550816007600083815260200190815260200160002081905550505b6007600084815260200190815260200160002060009055600660008573ffffffffffffffffffffffffffffffffffffffff1673ffffffffffffffffffffffffffffffffffffffff16815260200190815260200160002060008381526020019081526020016000206000905550505050565b6000600160088054905062000af9919062001336565b905060006009600084815260200190815260200160002054905060006008838154811062000b50577f4e487b7100000000000000000000000000000000000000000000000000000000600052603260045260246000fd5b90600052602060002001549050806008838154811062000b99577f4e487b7100000000000000000000000000000000000000000000000000000000600052603260045260246000fd5b90600052602060002001819055508160096000838152602001908152602001600020819055506009600085815260200190815260200160002060009055600880548062000c0f577f4e487b7100000000000000000000000000000000000000000000000000000000600052603160045260246000fd5b6001900381819060005260206000200160009055905550505050565b600062000c438362000cb760201b62000fee1760201c565b905081600660008573ffffffffffffffffffffffffffffffffffffffff1673ffffffffffffffffffffffffffffffffffffffff168152602001908152602001600020600083815260200190815260200160002081905550806007600084815260200190815260200160002081905550505050565b60008073ffffffffffffffffffffffffffffffffffffffff168273ffffffffffffffffffffffffffffffffffffffff16141562000d2b576040517f08c379a000000000000000000000000000000000000000000000000000000000815260040162000d22906200115d565b60405180910390fd5b600360008373ffffffffffffffffffffffffffffffffffffffff1673ffffffffffffffffffffffffffffffffffffffff168152602001908152602001600020549050919050565b82805462000d8090620013f9565b90600052602060002090601f01602090048101928262000da4576000855562000df0565b82601f1062000dbf57805160ff191683800117855562000df0565b8280016001018555821562000df0579182015b8281111562000def57825182559160200191906001019062000dd2565b5b50905062000dff919062000e03565b5090565b5b8082111562000e1e57600081600090555060010162000e04565b5090565b600062000e3962000e3384620011ca565b620011a1565b9050808382526020820190508285604086028201111562000e5957600080fd5b60005b8581101562000e8d578162000e72888262000f64565b84526020840193506040830192505060018101905062000e5c565b5050509392505050565b600062000eae62000ea884620011f9565b620011a1565b90508281526020810184848401111562000ec757600080fd5b62000ed4848285620013c3565b509392505050565b60008151905062000eed8162001621565b92915050565b60008151905062000f04816200163b565b92915050565b600082601f83011262000f1c57600080fd5b815162000f2e84826020860162000e22565b91505092915050565b600082601f83011262000f4957600080fd5b815162000f5b84826020860162000e97565b91505092915050565b60006040828403121562000f7757600080fd5b62000f836040620011a1565b9050600062000f958482850162000edc565b600083015250602062000fab8482850162000fb7565b60208301525092915050565b60008151905062000fc88162001655565b92915050565b600080600080600080600060e0888a03121562000fea57600080fd5b600062000ffa8a828b0162000fb7565b975050602088015167ffffffffffffffff8111156200101857600080fd5b620010268a828b0162000f37565b965050604088015167ffffffffffffffff8111156200104457600080fd5b620010528a828b0162000f37565b955050606088015167ffffffffffffffff8111156200107057600080fd5b6200107e8a828b0162000f0a565b9450506080620010918a828b0162000ef3565b93505060a0620010a48a828b0162000ef3565b92505060c0620010b78a828b0162000ef3565b91505092959891949750929550565b6000620010d5601c836200122f565b9150620010e28262001580565b602082019050919050565b6000620010fc602a836200122f565b91506200110982620015a9565b604082019050919050565b6000620011236020836200122f565b91506200113082620015f8565b602082019050919050565b600060208201905081810360008301526200115681620010c6565b9050919050565b600060208201905081810360008301526200117881620010ed565b9050919050565b600060208201905081810360008301526200119a8162001114565b9050919050565b6000620011ad620011c0565b9050620011bb82826200142f565b919050565b6000604051905090565b600067ffffffffffffffff821115620011e857620011e762001540565b5b602082029050602081019050919050565b600067ffffffffffffffff82111562001217576200121662001540565b5b62001222826200156f565b9050602081019050919050565b600082825260208201905092915050565b60006200124d82620013b9565b91506200125a83620013b9565b9250827fffffffffffffffffffffffffffffffffffffffffffffffffffffffffffffffff03821115620012925762001291620014b3565b5b828201905092915050565b6000620012aa82620013b9565b9150620012b783620013b9565b925082620012ca57620012c9620014e2565b5b828204905092915050565b6000620012e282620013b9565b9150620012ef83620013b9565b9250817fffffffffffffffffffffffffffffffffffffffffffffffffffffffffffffffff04831182151516156200132b576200132a620014b3565b5b828202905092915050565b60006200134382620013b9565b91506200135083620013b9565b925082821015620013665762001365620014b3565b5b828203905092915050565b60006200137e8262001399565b9050919050565b6000620013928262001399565b9050919050565b600073ffffffffffffffffffffffffffffffffffffffff82169050919050565b6000819050919050565b60005b83811015620013e3578082015181840152602081019050620013c6565b83811115620013f3576000848401525b50505050565b600060028204905060018216806200141257607f821691505b6020821081141562001429576200142862001511565b5b50919050565b6200143a826200156f565b810181811067ffffffffffffffff821117156200145c576200145b62001540565b5b80604052505050565b60006200147282620013b9565b91507fffffffffffffffffffffffffffffffffffffffffffffffffffffffffffffffff821415620014a857620014a7620014b3565b5b600182019050919050565b7f4e487b7100000000000000000000000000000000000000000000000000000000600052601160045260246000fd5b7f4e487b7100000000000000000000000000000000000000000000000000000000600052601260045260246000fd5b7f4e487b7100000000000000000000000000000000000000000000000000000000600052602260045260246000fd5b7f4e487b7100000000000000000000000000000000000000000000000000000000600052604160045260246000fd5b6000601f19601f8301169050919050565b7f4552433732313a20746f6b656e20616c7265616479206d696e74656400000000600082015250565b7f4552433732313a2062616c616e636520717565727920666f7220746865207a6560008201527f726f206164647265737300000000000000000000000000000000000000000000602082015250565b7f4552433732313a206d696e7420746f20746865207a65726f2061646472657373600082015250565b6200162c8162001371565b81146200163857600080fd5b50565b620016468162001385565b81146200165257600080fd5b50565b6200166081620013b9565b81146200166c57600080fd5b50565b614da4806200167f6000396000f3fe6080604052600436106101ed5760003560e01c8063715018a61161010d578063b88d4fde116100a0578063db006a751161006f578063db006a75146106e9578063e985e9c514610712578063f2fde38b1461074f578063f74025cf14610778578063f77f0b99146107b5576101ed565b8063b88d4fde1461063e578063c87b56dd14610667578063cce7ec13146106a4578063d287f619146106c0576101ed565b806395d89b41116100dc57806395d89b411461059657806398d5fdca146105c1578063a22cb465146105ec578063ab3b8a7114610615576101ed565b8063715018a6146105025780637cb5f678146105195780638da5cb5b14610542578063931688cb1461056d576101ed565b80632a5c792a116101855780635c975abb116101545780635c975abb146104345780635dd7b59d1461045f5780636352211e1461048857806370a08231146104c5576101ed565b80632a5c792a146103665780632f745c591461039157806342842e0e146103ce5780634f6ccce7146103f7576101ed565b8063095ea7b3116101c1578063095ea7b3146102c057806318160ddd146102e957806323b872dd14610314578063264a53471461033d576101ed565b8062f69f8f146101f257806301ffc9a71461021b57806306fdde0314610258578063081812fc14610283575b600080fd5b3480156101fe57600080fd5b5061021960048036038101906102149190613588565b6107de565b005b34801561022757600080fd5b50610242600480360381019061023d91906135b1565b610877565b60405161024f9190613cae565b60405180910390f35b34801561026457600080fd5b5061026d6108f1565b60405161027a9190613cc9565b60405180910390f35b34801561028f57600080fd5b506102aa60048036038101906102a59190613648565b610983565b6040516102b79190613c25565b60405180910390f35b3480156102cc57600080fd5b506102e760048036038101906102e2919061354c565b610a08565b005b3480156102f557600080fd5b506102fe610b20565b60405161030b919061402b565b60405180910390f35b34801561032057600080fd5b5061033b60048036038101906103369190613446565b610b2d565b005b34801561034957600080fd5b50610364600480360381019061035f91906133e1565b610b8d565b005b34801561037257600080fd5b5061037b610c4d565b6040516103889190613c8c565b60405180910390f35b34801561039d57600080fd5b506103b860048036038101906103b3919061354c565b610d43565b6040516103c5919061402b565b60405180910390f35b3480156103da57600080fd5b506103f560048036038101906103f09190613446565b610de8565b005b34801561040357600080fd5b5061041e60048036038101906104199190613648565b610e08565b60405161042b919061402b565b60405180910390f35b34801561044057600080fd5b50610449610e9f565b6040516104569190613cae565b60405180910390f35b34801561046b57600080fd5b5061048660048036038101906104819190613648565b610eb6565b005b34801561049457600080fd5b506104af60048036038101906104aa9190613648565b610f3c565b6040516104bc9190613c25565b60405180910390f35b3480156104d157600080fd5b506104ec60048036038101906104e791906133b8565b610fee565b6040516104f9919061402b565b60405180910390f35b34801561050e57600080fd5b506105176110a6565b005b34801561052557600080fd5b50610540600480360381019061053b91906133e1565b61112e565b005b34801561054e57600080fd5b506105576111ee565b6040516105649190613c25565b60405180910390f35b34801561057957600080fd5b50610594600480360381019061058f9190613603565b611218565b005b3480156105a257600080fd5b506105ab6112aa565b6040516105b89190613cc9565b60405180910390f35b3480156105cd57600080fd5b506105d661133c565b6040516105e3919061402b565b60405180910390f35b3480156105f857600080fd5b50610613600480360381019061060e9190613510565b611415565b005b34801561062157600080fd5b5061063c60048036038101906106379190613588565b61142b565b005b34801561064a57600080fd5b5061066560048036038101906106609190613495565b6114c4565b005b34801561067357600080fd5b5061068e60048036038101906106899190613648565b611526565b60405161069b9190613cc9565b60405180910390f35b6106be60048036038101906106b9919061354c565b611655565b005b3480156106cc57600080fd5b506106e760048036038101906106e29190613603565b611a9d565b005b3480156106f557600080fd5b50610710600480360381019061070b9190613648565b611b2f565b005b34801561071e57600080fd5b506107396004803603810190610734919061340a565b611d2c565b6040516107469190613cae565b60405180910390f35b34801561075b57600080fd5b50610776600480360381019061077191906133b8565b611dc0565b005b34801561078457600080fd5b5061079f600480360381019061079a9190613648565b611eb8565b6040516107ac9190613c25565b60405180910390f35b3480156107c157600080fd5b506107dc60048036038101906107d791906133e1565b611eeb565b005b6107e6611fc6565b73ffffffffffffffffffffffffffffffffffffffff166108046111ee565b73ffffffffffffffffffffffffffffffffffffffff161461085a576040517f08c379a000000000000000000000000000000000000000000000000000000000815260040161085190613eeb565b60405180910390fd5b80601660016101000a81548160ff02191690831515021790555050565b60007f780e9d63000000000000000000000000000000000000000000000000000000007bffffffffffffffffffffffffffffffffffffffffffffffffffffffff1916827bffffffffffffffffffffffffffffffffffffffffffffffffffffffff191614806108ea57506108e982611fce565b5b9050919050565b60606000805461090090614394565b80601f016020809104026020016040519081016040528092919081815260200182805461092c90614394565b80156109795780601f1061094e57610100808354040283529160200191610979565b820191906000526020600020905b81548152906001019060200180831161095c57829003601f168201915b5050505050905090565b600061098e826120b0565b6109cd576040517f08c379a00000000000000000000000000000000000000000000000000000000081526004016109c490613eab565b60405180910390fd5b6004600083815260200190815260200160002060009054906101000a900473ffffffffffffffffffffffffffffffffffffffff169050919050565b6000610a1382610f3c565b90508073ffffffffffffffffffffffffffffffffffffffff168373ffffffffffffffffffffffffffffffffffffffff161415610a84576040517f08c379a0000000000000000000000000000000000000000000000000000000008152600401610a7b90613f6b565b60405180910390fd5b8073ffffffffffffffffffffffffffffffffffffffff16610aa3611fc6565b73ffffffffffffffffffffffffffffffffffffffff161480610ad25750610ad181610acc611fc6565b611d2c565b5b610b11576040517f08c379a0000000000000000000000000000000000000000000000000000000008152600401610b0890613e0b565b60405180910390fd5b610b1b838361211c565b505050565b6000600880549050905090565b610b3e610b38611fc6565b826121d5565b610b7d576040517f08c379a0000000000000000000000000000000000000000000000000000000008152600401610b7490613f8b565b60405180910390fd5b610b888383836122b3565b505050565b610b95611fc6565b73ffffffffffffffffffffffffffffffffffffffff16610bb36111ee565b73ffffffffffffffffffffffffffffffffffffffff1614610c09576040517f08c379a0000000000000000000000000000000000000000000000000000000008152600401610c0090613eeb565b60405180910390fd5b80601c60006101000a81548173ffffffffffffffffffffffffffffffffffffffff021916908373ffffffffffffffffffffffffffffffffffffffff16021790555050565b60606000610c59610b20565b905060008167ffffffffffffffff811115610c9d577f4e487b7100000000000000000000000000000000000000000000000000000000600052604160045260246000fd5b604051908082528060200260200182016040528015610ccb5781602001602082028036833780820191505090505b50905060005b82811015610d3a57610ce281610e08565b828281518110610d1b577f4e487b7100000000000000000000000000000000000000000000000000000000600052603260045260246000fd5b6020026020010181815250508080610d32906143f7565b915050610cd1565b50809250505090565b6000610d4e83610fee565b8210610d8f576040517f08c379a0000000000000000000000000000000000000000000000000000000008152600401610d8690613d0b565b60405180910390fd5b600660008473ffffffffffffffffffffffffffffffffffffffff1673ffffffffffffffffffffffffffffffffffffffff168152602001908152602001600020600083815260200190815260200160002054905092915050565b610e03838383604051806020016040528060008152506114c4565b505050565b6000610e12610b20565b8210610e53576040517f08c379a0000000000000000000000000000000000000000000000000000000008152600401610e4a90613fab565b60405180910390fd5b60088281548110610e8d577f4e487b7100000000000000000000000000000000000000000000000000000000600052603260045260246000fd5b90600052602060002001549050919050565b6000600a60149054906101000a900460ff16905090565b610ebe611fc6565b73ffffffffffffffffffffffffffffffffffffffff16610edc6111ee565b73ffffffffffffffffffffffffffffffffffffffff1614610f32576040517f08c379a0000000000000000000000000000000000000000000000000000000008152600401610f2990613eeb565b60405180910390fd5b8060158190555050565b6000806002600084815260200190815260200160002060009054906101000a900473ffffffffffffffffffffffffffffffffffffffff169050600073ffffffffffffffffffffffffffffffffffffffff168173ffffffffffffffffffffffffffffffffffffffff161415610fe5576040517f08c379a0000000000000000000000000000000000000000000000000000000008152600401610fdc90613e4b565b60405180910390fd5b80915050919050565b60008073ffffffffffffffffffffffffffffffffffffffff168273ffffffffffffffffffffffffffffffffffffffff16141561105f576040517f08c379a000000000000000000000000000000000000000000000000000000000815260040161105690613e2b565b60405180910390fd5b600360008373ffffffffffffffffffffffffffffffffffffffff1673ffffffffffffffffffffffffffffffffffffffff168152602001908152602001600020549050919050565b6110ae611fc6565b73ffffffffffffffffffffffffffffffffffffffff166110cc6111ee565b73ffffffffffffffffffffffffffffffffffffffff1614611122576040517f08c379a000000000000000000000000000000000000000000000000000000000815260040161111990613eeb565b60405180910390fd5b61112c600061250f565b565b611136611fc6565b73ffffffffffffffffffffffffffffffffffffffff166111546111ee565b73ffffffffffffffffffffffffffffffffffffffff16146111aa576040517f08c379a00000000000000000000000000000000000000000000000000000000081526004016111a190613eeb565b60405180910390fd5b80601b60006101000a81548173ffffffffffffffffffffffffffffffffffffffff021916908373ffffffffffffffffffffffffffffffffffffffff16021790555050565b6000600a60009054906101000a900473ffffffffffffffffffffffffffffffffffffffff16905090565b611220611fc6565b73ffffffffffffffffffffffffffffffffffffffff1661123e6111ee565b73ffffffffffffffffffffffffffffffffffffffff1614611294576040517f08c379a000000000000000000000000000000000000000000000000000000000815260040161128b90613eeb565b60405180910390fd5b8181601891906112a59291906131e5565b505050565b6060600180546112b990614394565b80601f01602080910402602001604051908101604052809291908181526020018280546112e590614394565b80156113325780601f1061130757610100808354040283529160200191611332565b820191906000526020600020905b81548152906001019060200180831161131557829003601f168201915b5050505050905090565b6000601554421015611383576040517f08c379a000000000000000000000000000000000000000000000000000000000815260040161137a90613f4b565b60405180910390fd5b6000601554426113939190614298565b9050600e548110156113d0576113c86113b7601254836125d590919063ffffffff16565b600d546125eb90919063ffffffff16565b915050611412565b60105481101561140b576114036113f2601354836125d590919063ffffffff16565b600f546125eb90919063ffffffff16565b915050611412565b6011549150505b90565b611427611420611fc6565b8383612601565b5050565b611433611fc6565b73ffffffffffffffffffffffffffffffffffffffff166114516111ee565b73ffffffffffffffffffffffffffffffffffffffff16146114a7576040517f08c379a000000000000000000000000000000000000000000000000000000000815260040161149e90613eeb565b60405180910390fd5b80601660006101000a81548160ff02191690831515021790555050565b6114d56114cf611fc6565b836121d5565b611514576040517f08c379a000000000000000000000000000000000000000000000000000000000815260040161150b90613f8b565b60405180910390fd5b6115208484848461276e565b50505050565b6060611531826120b0565b611570576040517f08c379a000000000000000000000000000000000000000000000000000000000815260040161156790613f2b565b60405180910390fd5b601660019054906101000a900460ff16806115eb5750600073ffffffffffffffffffffffffffffffffffffffff166019600084815260200190815260200160002060009054906101000a900473ffffffffffffffffffffffffffffffffffffffff1673ffffffffffffffffffffffffffffffffffffffff1614155b156116225760186115fb836127ca565b60405160200161160c929190613bf6565b6040516020818303038152906040529050611650565b601761162d836127ca565b60405160200161163e929190613bf6565b60405160208183030381529060405290505b919050565b601460003373ffffffffffffffffffffffffffffffffffffffff1673ffffffffffffffffffffffffffffffffffffffff16815260200190815260200160002060009054906101000a900460ff16156116e2576040517f08c379a00000000000000000000000000000000000000000000000000000000081526004016116d990613ceb565b60405180910390fd5b3273ffffffffffffffffffffffffffffffffffffffff163373ffffffffffffffffffffffffffffffffffffffff1614611750576040517f08c379a000000000000000000000000000000000000000000000000000000000815260040161174790613ecb565b60405180910390fd5b601554421015611795576040517f08c379a000000000000000000000000000000000000000000000000000000000815260040161178c90613f4b565b60405180910390fd5b607881111580156117a65750600081115b6117e5576040517f08c379a00000000000000000000000000000000000000000000000000000000081526004016117dc9061400b565b60405180910390fd5b60006117ef61133c565b905080341015611834576040517f08c379a000000000000000000000000000000000000000000000000000000000815260040161182b90613deb565b60405180910390fd5b61183e8383612977565b6001601460003373ffffffffffffffffffffffffffffffffffffffff1673ffffffffffffffffffffffffffffffffffffffff16815260200190815260200160002060006101000a81548160ff02191690831515021790555060006118c16127106118b3611a5e346125d590919063ffffffff16565b611fab90919063ffffffff16565b905060006118ee6127106118e06103e8346125d590919063ffffffff16565b611fab90919063ffffffff16565b905060006119178261190985346125eb90919063ffffffff16565b6125eb90919063ffffffff16565b9050601a60009054906101000a900473ffffffffffffffffffffffffffffffffffffffff1673ffffffffffffffffffffffffffffffffffffffff166108fc849081150290604051600060405180830381858888f19350505050158015611981573d6000803e3d6000fd5b50601b60009054906101000a900473ffffffffffffffffffffffffffffffffffffffff1673ffffffffffffffffffffffffffffffffffffffff166108fc839081150290604051600060405180830381858888f193505050501580156119ea573d6000803e3d6000fd5b50601c60009054906101000a900473ffffffffffffffffffffffffffffffffffffffff1673ffffffffffffffffffffffffffffffffffffffff166108fc829081150290604051600060405180830381858888f19350505050158015611a53573d6000803e3d6000fd5b507f4689c69f82cdf5b000bb00a84dd3258356c9997272fd94a9153e9d13a5b7c29a858786868686604051611a8d9695949392919061406f565b60405180910390a1505050505050565b611aa5611fc6565b73ffffffffffffffffffffffffffffffffffffffff16611ac36111ee565b73ffffffffffffffffffffffffffffffffffffffff1614611b19576040517f08c379a0000000000000000000000000000000000000000000000000000000008152600401611b1090613eeb565b60405180910390fd5b818160179190611b2a9291906131e5565b505050565b601660009054906101000a900460ff16611b7e576040517f08c379a0000000000000000000000000000000000000000000000000000000008152600401611b7590613e6b565b60405180910390fd5b600073ffffffffffffffffffffffffffffffffffffffff166019600083815260200190815260200160002060009054906101000a900473ffffffffffffffffffffffffffffffffffffffff1673ffffffffffffffffffffffffffffffffffffffff1614611c20576040517f08c379a0000000000000000000000000000000000000000000000000000000008152600401611c1790613fcb565b60405180910390fd5b611c2981610f3c565b73ffffffffffffffffffffffffffffffffffffffff163373ffffffffffffffffffffffffffffffffffffffff1614611c96576040517f08c379a0000000000000000000000000000000000000000000000000000000008152600401611c8d90613feb565b60405180910390fd5b611c9f81610f3c565b6019600083815260200190815260200160002060006101000a81548173ffffffffffffffffffffffffffffffffffffffff021916908373ffffffffffffffffffffffffffffffffffffffff1602179055507fb7d04369b0951a44d17f7ed06b0f42dac0f3c7904020fe8c88970ad31bc63dab8133604051611d21929190614046565b60405180910390a150565b6000600560008473ffffffffffffffffffffffffffffffffffffffff1673ffffffffffffffffffffffffffffffffffffffff16815260200190815260200160002060008373ffffffffffffffffffffffffffffffffffffffff1673ffffffffffffffffffffffffffffffffffffffff16815260200190815260200160002060009054906101000a900460ff16905092915050565b611dc8611fc6565b73ffffffffffffffffffffffffffffffffffffffff16611de66111ee565b73ffffffffffffffffffffffffffffffffffffffff1614611e3c576040517f08c379a0000000000000000000000000000000000000000000000000000000008152600401611e3390613eeb565b60405180910390fd5b600073ffffffffffffffffffffffffffffffffffffffff168173ffffffffffffffffffffffffffffffffffffffff161415611eac576040517f08c379a0000000000000000000000000000000000000000000000000000000008152600401611ea390613d4b565b60405180910390fd5b611eb58161250f565b50565b60196020528060005260406000206000915054906101000a900473ffffffffffffffffffffffffffffffffffffffff1681565b611ef3611fc6565b73ffffffffffffffffffffffffffffffffffffffff16611f116111ee565b73ffffffffffffffffffffffffffffffffffffffff1614611f67576040517f08c379a0000000000000000000000000000000000000000000000000000000008152600401611f5e90613eeb565b60405180910390fd5b80601a60006101000a81548173ffffffffffffffffffffffffffffffffffffffff021916908373ffffffffffffffffffffffffffffffffffffffff16021790555050565b60008183611fb9919061420d565b905092915050565b505050565b600033905090565b60007f80ac58cd000000000000000000000000000000000000000000000000000000007bffffffffffffffffffffffffffffffffffffffffffffffffffffffff1916827bffffffffffffffffffffffffffffffffffffffffffffffffffffffff1916148061209957507f5b5e139f000000000000000000000000000000000000000000000000000000007bffffffffffffffffffffffffffffffffffffffffffffffffffffffff1916827bffffffffffffffffffffffffffffffffffffffffffffffffffffffff1916145b806120a957506120a882612b45565b5b9050919050565b60008073ffffffffffffffffffffffffffffffffffffffff166002600084815260200190815260200160002060009054906101000a900473ffffffffffffffffffffffffffffffffffffffff1673ffffffffffffffffffffffffffffffffffffffff1614159050919050565b816004600083815260200190815260200160002060006101000a81548173ffffffffffffffffffffffffffffffffffffffff021916908373ffffffffffffffffffffffffffffffffffffffff160217905550808273ffffffffffffffffffffffffffffffffffffffff1661218f83610f3c565b73ffffffffffffffffffffffffffffffffffffffff167f8c5be1e5ebec7d5bd14f71427d1e84f3dd0314c0f7b2291e5b200ac8c7c3b92560405160405180910390a45050565b60006121e0826120b0565b61221f576040517f08c379a000000000000000000000000000000000000000000000000000000000815260040161221690613dcb565b60405180910390fd5b600061222a83610f3c565b90508073ffffffffffffffffffffffffffffffffffffffff168473ffffffffffffffffffffffffffffffffffffffff16148061229957508373ffffffffffffffffffffffffffffffffffffffff1661228184610983565b73ffffffffffffffffffffffffffffffffffffffff16145b806122aa57506122a98185611d2c565b5b91505092915050565b8273ffffffffffffffffffffffffffffffffffffffff166122d382610f3c565b73ffffffffffffffffffffffffffffffffffffffff1614612329576040517f08c379a000000000000000000000000000000000000000000000000000000000815260040161232090613f0b565b60405180910390fd5b600073ffffffffffffffffffffffffffffffffffffffff168273ffffffffffffffffffffffffffffffffffffffff161415612399576040517f08c379a000000000000000000000000000000000000000000000000000000000815260040161239090613d8b565b60405180910390fd5b6123a4838383612baf565b6123af60008261211c565b6001600360008573ffffffffffffffffffffffffffffffffffffffff1673ffffffffffffffffffffffffffffffffffffffff16815260200190815260200160002060008282546123ff9190614298565b925050819055506001600360008473ffffffffffffffffffffffffffffffffffffffff1673ffffffffffffffffffffffffffffffffffffffff168152602001908152602001600020600082825461245691906141b7565b92505081905550816002600083815260200190815260200160002060006101000a81548173ffffffffffffffffffffffffffffffffffffffff021916908373ffffffffffffffffffffffffffffffffffffffff160217905550808273ffffffffffffffffffffffffffffffffffffffff168473ffffffffffffffffffffffffffffffffffffffff167fddf252ad1be2c89b69c2b068fc378daa952ba7f163c4a11628f55a4df523b3ef60405160405180910390a4505050565b6000600a60009054906101000a900473ffffffffffffffffffffffffffffffffffffffff16905081600a60006101000a81548173ffffffffffffffffffffffffffffffffffffffff021916908373ffffffffffffffffffffffffffffffffffffffff1602179055508173ffffffffffffffffffffffffffffffffffffffff168173ffffffffffffffffffffffffffffffffffffffff167f8be0079c531659141344cd1fd0a4f28419497f9722a3daafe3b4186f6b6457e060405160405180910390a35050565b600081836125e3919061423e565b905092915050565b600081836125f99190614298565b905092915050565b8173ffffffffffffffffffffffffffffffffffffffff168373ffffffffffffffffffffffffffffffffffffffff161415612670576040517f08c379a000000000000000000000000000000000000000000000000000000000815260040161266790613dab565b60405180910390fd5b80600560008573ffffffffffffffffffffffffffffffffffffffff1673ffffffffffffffffffffffffffffffffffffffff16815260200190815260200160002060008473ffffffffffffffffffffffffffffffffffffffff1673ffffffffffffffffffffffffffffffffffffffff16815260200190815260200160002060006101000a81548160ff0219169083151502179055508173ffffffffffffffffffffffffffffffffffffffff168373ffffffffffffffffffffffffffffffffffffffff167f17307eab39ab6107e8899845ad3d59bd9653f200f220920489ca2b5937696c31836040516127619190613cae565b60405180910390a3505050565b6127798484846122b3565b61278584848484612cc3565b6127c4576040517f08c379a00000000000000000000000000000000000000000000000000000000081526004016127bb90613d2b565b60405180910390fd5b50505050565b60606000821415612812576040518060400160405280600181526020017f30000000000000000000000000000000000000000000000000000000000000008152509050612972565b600082905060005b6000821461284457808061282d906143f7565b915050600a8261283d919061420d565b915061281a565b60008167ffffffffffffffff811115612886577f4e487b7100000000000000000000000000000000000000000000000000000000600052604160045260246000fd5b6040519080825280601f01601f1916602001820160405280156128b85781602001600182028036833780820191505090505b5090505b6000851461296b576001826128d19190614298565b9150600a856128e09190614440565b60306128ec91906141b7565b60f81b818381518110612928577f4e487b7100000000000000000000000000000000000000000000000000000000600052603260045260246000fd5b60200101907effffffffffffffffffffffffffffffffffffffffffffffffffffffffffffff1916908160001a905350600a85612964919061420d565b94506128bc565b8093505050505b919050565b600073ffffffffffffffffffffffffffffffffffffffff168273ffffffffffffffffffffffffffffffffffffffff1614156129e7576040517f08c379a00000000000000000000000000000000000000000000000000000000081526004016129de90613e8b565b60405180910390fd5b6129f0816120b0565b15612a30576040517f08c379a0000000000000000000000000000000000000000000000000000000008152600401612a2790613d6b565b60405180910390fd5b612a3c60008383612baf565b6001600360008473ffffffffffffffffffffffffffffffffffffffff1673ffffffffffffffffffffffffffffffffffffffff1681526020019081526020016000206000828254612a8c91906141b7565b92505081905550816002600083815260200190815260200160002060006101000a81548173ffffffffffffffffffffffffffffffffffffffff021916908373ffffffffffffffffffffffffffffffffffffffff160217905550808273ffffffffffffffffffffffffffffffffffffffff16600073ffffffffffffffffffffffffffffffffffffffff167fddf252ad1be2c89b69c2b068fc378daa952ba7f163c4a11628f55a4df523b3ef60405160405180910390a45050565b60007f01ffc9a7000000000000000000000000000000000000000000000000000000007bffffffffffffffffffffffffffffffffffffffffffffffffffffffff1916827bffffffffffffffffffffffffffffffffffffffffffffffffffffffff1916149050919050565b612bba838383611fc1565b600073ffffffffffffffffffffffffffffffffffffffff168373ffffffffffffffffffffffffffffffffffffffff161415612bfd57612bf881612e5a565b612c3c565b8173ffffffffffffffffffffffffffffffffffffffff168373ffffffffffffffffffffffffffffffffffffffff1614612c3b57612c3a8382612ea3565b5b5b600073ffffffffffffffffffffffffffffffffffffffff168273ffffffffffffffffffffffffffffffffffffffff161415612c7f57612c7a81613010565b612cbe565b8273ffffffffffffffffffffffffffffffffffffffff168273ffffffffffffffffffffffffffffffffffffffff1614612cbd57612cbc8282613153565b5b5b505050565b6000612ce48473ffffffffffffffffffffffffffffffffffffffff166131d2565b15612e4d578373ffffffffffffffffffffffffffffffffffffffff1663150b7a02612d0d611fc6565b8786866040518563ffffffff1660e01b8152600401612d2f9493929190613c40565b602060405180830381600087803b158015612d4957600080fd5b505af1925050508015612d7a57506040513d601f19601f82011682018060405250810190612d7791906135da565b60015b612dfd573d8060008114612daa576040519150601f19603f3d011682016040523d82523d6000602084013e612daf565b606091505b50600081511415612df5576040517f08c379a0000000000000000000000000000000000000000000000000000000008152600401612dec90613d2b565b60405180910390fd5b805181602001fd5b63150b7a0260e01b7bffffffffffffffffffffffffffffffffffffffffffffffffffffffff1916817bffffffffffffffffffffffffffffffffffffffffffffffffffffffff191614915050612e52565b600190505b949350505050565b6008805490506009600083815260200190815260200160002081905550600881908060018154018082558091505060019003906000526020600020016000909190919091505550565b60006001612eb084610fee565b612eba9190614298565b9050600060076000848152602001908152602001600020549050818114612f9f576000600660008673ffffffffffffffffffffffffffffffffffffffff1673ffffffffffffffffffffffffffffffffffffffff168152602001908152602001600020600084815260200190815260200160002054905080600660008773ffffffffffffffffffffffffffffffffffffffff1673ffffffffffffffffffffffffffffffffffffffff168152602001908152602001600020600084815260200190815260200160002081905550816007600083815260200190815260200160002081905550505b6007600084815260200190815260200160002060009055600660008573ffffffffffffffffffffffffffffffffffffffff1673ffffffffffffffffffffffffffffffffffffffff16815260200190815260200160002060008381526020019081526020016000206000905550505050565b600060016008805490506130249190614298565b905060006009600084815260200190815260200160002054905060006008838154811061307a577f4e487b7100000000000000000000000000000000000000000000000000000000600052603260045260246000fd5b9060005260206000200154905080600883815481106130c2577f4e487b7100000000000000000000000000000000000000000000000000000000600052603260045260246000fd5b906000526020600020018190555081600960008381526020019081526020016000208190555060096000858152602001908152602001600020600090556008805480613137577f4e487b7100000000000000000000000000000000000000000000000000000000600052603160045260246000fd5b6001900381819060005260206000200160009055905550505050565b600061315e83610fee565b905081600660008573ffffffffffffffffffffffffffffffffffffffff1673ffffffffffffffffffffffffffffffffffffffff168152602001908152602001600020600083815260200190815260200160002081905550806007600084815260200190815260200160002081905550505050565b600080823b905060008111915050919050565b8280546131f190614394565b90600052602060002090601f016020900481019282613213576000855561325a565b82601f1061322c57803560ff191683800117855561325a565b8280016001018555821561325a579182015b8281111561325957823582559160200191906001019061323e565b5b509050613267919061326b565b5090565b5b8082111561328457600081600090555060010161326c565b5090565b600061329b613296846140f5565b6140d0565b9050828152602081018484840111156132b357600080fd5b6132be848285614352565b509392505050565b6000813590506132d581614cfb565b92915050565b6000813590506132ea81614d12565b92915050565b6000813590506132ff81614d29565b92915050565b60008135905061331481614d40565b92915050565b60008151905061332981614d40565b92915050565b600082601f83011261334057600080fd5b8135613350848260208601613288565b91505092915050565b60008083601f84011261336b57600080fd5b8235905067ffffffffffffffff81111561338457600080fd5b60208301915083600182028301111561339c57600080fd5b9250929050565b6000813590506133b281614d57565b92915050565b6000602082840312156133ca57600080fd5b60006133d8848285016132c6565b91505092915050565b6000602082840312156133f357600080fd5b6000613401848285016132db565b91505092915050565b6000806040838503121561341d57600080fd5b600061342b858286016132c6565b925050602061343c858286016132c6565b9150509250929050565b60008060006060848603121561345b57600080fd5b6000613469868287016132c6565b935050602061347a868287016132c6565b925050604061348b868287016133a3565b9150509250925092565b600080600080608085870312156134ab57600080fd5b60006134b9878288016132c6565b94505060206134ca878288016132c6565b93505060406134db878288016133a3565b925050606085013567ffffffffffffffff8111156134f857600080fd5b6135048782880161332f565b91505092959194509250565b6000806040838503121561352357600080fd5b6000613531858286016132c6565b9250506020613542858286016132f0565b9150509250929050565b6000806040838503121561355f57600080fd5b600061356d858286016132c6565b925050602061357e858286016133a3565b9150509250929050565b60006020828403121561359a57600080fd5b60006135a8848285016132f0565b91505092915050565b6000602082840312156135c357600080fd5b60006135d184828501613305565b91505092915050565b6000602082840312156135ec57600080fd5b60006135fa8482850161331a565b91505092915050565b6000806020838503121561361657600080fd5b600083013567ffffffffffffffff81111561363057600080fd5b61363c85828601613359565b92509250509250929050565b60006020828403121561365a57600080fd5b6000613668848285016133a3565b91505092915050565b600061367d8383613bd8565b60208301905092915050565b613692816142cc565b82525050565b60006136a38261414b565b6136ad8185614179565b93506136b883614126565b8060005b838110156136e95781516136d08882613671565b97506136db8361416c565b9250506001810190506136bc565b5085935050505092915050565b6136ff816142f0565b82525050565b600061371082614156565b61371a818561418a565b935061372a818560208601614361565b6137338161452d565b840191505092915050565b600061374982614161565b613753818561419b565b9350613763818560208601614361565b61376c8161452d565b840191505092915050565b600061378282614161565b61378c81856141ac565b935061379c818560208601614361565b80840191505092915050565b600081546137b581614394565b6137bf81866141ac565b945060018216600081146137da57600181146137eb5761381e565b60ff1983168652818601935061381e565b6137f485614136565b60005b83811015613816578154818901526001820191506020810190506137f7565b838801955050505b50505092915050565b600061383460318361419b565b915061383f8261453e565b604082019050919050565b6000613857602b8361419b565b91506138628261458d565b604082019050919050565b600061387a60328361419b565b9150613885826145dc565b604082019050919050565b600061389d60268361419b565b91506138a88261462b565b604082019050919050565b60006138c0601c8361419b565b91506138cb8261467a565b602082019050919050565b60006138e360248361419b565b91506138ee826146a3565b604082019050919050565b600061390660198361419b565b9150613911826146f2565b602082019050919050565b6000613929602c8361419b565b91506139348261471b565b604082019050919050565b600061394c60458361419b565b91506139578261476a565b606082019050919050565b600061396f60388361419b565b915061397a826147df565b604082019050919050565b6000613992602a8361419b565b915061399d8261482e565b604082019050919050565b60006139b560298361419b565b91506139c08261487d565b604082019050919050565b60006139d860318361419b565b91506139e3826148cc565b604082019050919050565b60006139fb60208361419b565b9150613a068261491b565b602082019050919050565b6000613a1e602c8361419b565b9150613a2982614944565b604082019050919050565b6000613a416005836141ac565b9150613a4c82614993565b600582019050919050565b6000613a6460278361419b565b9150613a6f826149bc565b604082019050919050565b6000613a8760208361419b565b9150613a9282614a0b565b602082019050919050565b6000613aaa60298361419b565b9150613ab582614a34565b604082019050919050565b6000613acd602f8361419b565b9150613ad882614a83565b604082019050919050565b6000613af060298361419b565b9150613afb82614ad2565b604082019050919050565b6000613b1360218361419b565b9150613b1e82614b21565b604082019050919050565b6000613b3660318361419b565b9150613b4182614b70565b604082019050919050565b6000613b59602c8361419b565b9150613b6482614bbf565b604082019050919050565b6000613b7c60338361419b565b9150613b8782614c0e565b604082019050919050565b6000613b9f60258361419b565b9150613baa82614c5d565b604082019050919050565b6000613bc260218361419b565b9150613bcd82614cac565b604082019050919050565b613be181614348565b82525050565b613bf081614348565b82525050565b6000613c0282856137a8565b9150613c0e8284613777565b9150613c1982613a34565b91508190509392505050565b6000602082019050613c3a6000830184613689565b92915050565b6000608082019050613c556000830187613689565b613c626020830186613689565b613c6f6040830185613be7565b8181036060830152613c818184613705565b905095945050505050565b60006020820190508181036000830152613ca68184613698565b905092915050565b6000602082019050613cc360008301846136f6565b92915050565b60006020820190508181036000830152613ce3818461373e565b905092915050565b60006020820190508181036000830152613d0481613827565b9050919050565b60006020820190508181036000830152613d248161384a565b9050919050565b60006020820190508181036000830152613d448161386d565b9050919050565b60006020820190508181036000830152613d6481613890565b9050919050565b60006020820190508181036000830152613d84816138b3565b9050919050565b60006020820190508181036000830152613da4816138d6565b9050919050565b60006020820190508181036000830152613dc4816138f9565b9050919050565b60006020820190508181036000830152613de48161391c565b9050919050565b60006020820190508181036000830152613e048161393f565b9050919050565b60006020820190508181036000830152613e2481613962565b9050919050565b60006020820190508181036000830152613e4481613985565b9050919050565b60006020820190508181036000830152613e64816139a8565b9050919050565b60006020820190508181036000830152613e84816139cb565b9050919050565b60006020820190508181036000830152613ea4816139ee565b9050919050565b60006020820190508181036000830152613ec481613a11565b9050919050565b60006020820190508181036000830152613ee481613a57565b9050919050565b60006020820190508181036000830152613f0481613a7a565b9050919050565b60006020820190508181036000830152613f2481613a9d565b9050919050565b60006020820190508181036000830152613f4481613ac0565b9050919050565b60006020820190508181036000830152613f6481613ae3565b9050919050565b60006020820190508181036000830152613f8481613b06565b9050919050565b60006020820190508181036000830152613fa481613b29565b9050919050565b60006020820190508181036000830152613fc481613b4c565b9050919050565b60006020820190508181036000830152613fe481613b6f565b9050919050565b6000602082019050818103600083015261400481613b92565b9050919050565b6000602082019050818103600083015261402481613bb5565b9050919050565b60006020820190506140406000830184613be7565b92915050565b600060408201905061405b6000830185613be7565b6140686020830184613689565b9392505050565b600060c0820190506140846000830189613be7565b6140916020830188613689565b61409e6040830187613be7565b6140ab6060830186613be7565b6140b86080830185613be7565b6140c560a0830184613be7565b979650505050505050565b60006140da6140eb565b90506140e682826143c6565b919050565b6000604051905090565b600067ffffffffffffffff8211156141105761410f6144fe565b5b6141198261452d565b9050602081019050919050565b6000819050602082019050919050565b60008190508160005260206000209050919050565b600081519050919050565b600081519050919050565b600081519050919050565b6000602082019050919050565b600082825260208201905092915050565b600082825260208201905092915050565b600082825260208201905092915050565b600081905092915050565b60006141c282614348565b91506141cd83614348565b9250827fffffffffffffffffffffffffffffffffffffffffffffffffffffffffffffffff0382111561420257614201614471565b5b828201905092915050565b600061421882614348565b915061422383614348565b925082614233576142326144a0565b5b828204905092915050565b600061424982614348565b915061425483614348565b9250817fffffffffffffffffffffffffffffffffffffffffffffffffffffffffffffffff048311821515161561428d5761428c614471565b5b828202905092915050565b60006142a382614348565b91506142ae83614348565b9250828210156142c1576142c0614471565b5b828203905092915050565b60006142d782614328565b9050919050565b60006142e982614328565b9050919050565b60008115159050919050565b60007fffffffff0000000000000000000000000000000000000000000000000000000082169050919050565b600073ffffffffffffffffffffffffffffffffffffffff82169050919050565b6000819050919050565b82818337600083830152505050565b60005b8381101561437f578082015181840152602081019050614364565b8381111561438e576000848401525b50505050565b600060028204905060018216806143ac57607f821691505b602082108114156143c0576143bf6144cf565b5b50919050565b6143cf8261452d565b810181811067ffffffffffffffff821117156143ee576143ed6144fe565b5b80604052505050565b600061440282614348565b91507fffffffffffffffffffffffffffffffffffffffffffffffffffffffffffffffff82141561443557614434614471565b5b600182019050919050565b600061444b82614348565b915061445683614348565b925082614466576144656144a0565b5b828206905092915050565b7f4e487b7100000000000000000000000000000000000000000000000000000000600052601160045260246000fd5b7f4e487b7100000000000000000000000000000000000000000000000000000000600052601260045260246000fd5b7f4e487b7100000000000000000000000000000000000000000000000000000000600052602260045260246000fd5b7f4e487b7100000000000000000000000000000000000000000000000000000000600052604160045260246000fd5b6000601f19601f8301169050919050565b7f466c79696e67466f726d6174696f6e733a20557365722068617320616c72656160008201527f647920626f75676874206f6e65204e4654000000000000000000000000000000602082015250565b7f455243373231456e756d657261626c653a206f776e657220696e646578206f7560008201527f74206f6620626f756e6473000000000000000000000000000000000000000000602082015250565b7f4552433732313a207472616e7366657220746f206e6f6e20455243373231526560008201527f63656976657220696d706c656d656e7465720000000000000000000000000000602082015250565b7f4f776e61626c653a206e6577206f776e657220697320746865207a65726f206160008201527f6464726573730000000000000000000000000000000000000000000000000000602082015250565b7f4552433732313a20746f6b656e20616c7265616479206d696e74656400000000600082015250565b7f4552433732313a207472616e7366657220746f20746865207a65726f2061646460008201527f7265737300000000000000000000000000000000000000000000000000000000602082015250565b7f4552433732313a20617070726f766520746f2063616c6c657200000000000000600082015250565b7f4552433732313a206f70657261746f7220717565727920666f72206e6f6e657860008201527f697374656e7420746f6b656e0000000000000000000000000000000000000000602082015250565b7f466c79696e67466f726d6174696f6e733a20696e73756666696369656e74206660008201527f756e64732073656e742c20706c6561736520636865636b2063757272656e742060208201527f7072696365000000000000000000000000000000000000000000000000000000604082015250565b7f4552433732313a20617070726f76652063616c6c6572206973206e6f74206f7760008201527f6e6572206e6f7220617070726f76656420666f7220616c6c0000000000000000602082015250565b7f4552433732313a2062616c616e636520717565727920666f7220746865207a6560008201527f726f206164647265737300000000000000000000000000000000000000000000602082015250565b7f4552433732313a206f776e657220717565727920666f72206e6f6e657869737460008201527f656e7420746f6b656e0000000000000000000000000000000000000000000000602082015250565b7f466c79696e67466f726d6174696f6e733a2072656465656d206973206375727260008201527f656e746c79206e6f7420656e61626c6564000000000000000000000000000000602082015250565b7f4552433732313a206d696e7420746f20746865207a65726f2061646472657373600082015250565b7f4552433732313a20617070726f76656420717565727920666f72206e6f6e657860008201527f697374656e7420746f6b656e0000000000000000000000000000000000000000602082015250565b7f2e6a736f6e000000000000000000000000000000000000000000000000000000600082015250565b7f466c79696e67466f726d6174696f6e733a204163636f756e74206973206e6f7460008201527f20616e20454f4100000000000000000000000000000000000000000000000000602082015250565b7f4f776e61626c653a2063616c6c6572206973206e6f7420746865206f776e6572600082015250565b7f4552433732313a207472616e73666572206f6620746f6b656e2074686174206960008201527f73206e6f74206f776e0000000000000000000000000000000000000000000000602082015250565b7f4552433732314d657461646174613a2055524920717565727920666f72206e6f60008201527f6e6578697374656e7420746f6b656e0000000000000000000000000000000000602082015250565b7f466c79696e67466f726d6174696f6e733a2061756374696f6e20686173206e6f60008201527f7420737461727465640000000000000000000000000000000000000000000000602082015250565b7f4552433732313a20617070726f76616c20746f2063757272656e74206f776e6560008201527f7200000000000000000000000000000000000000000000000000000000000000602082015250565b7f4552433732313a207472616e736665722063616c6c6572206973206e6f74206f60008201527f776e6572206e6f7220617070726f766564000000000000000000000000000000602082015250565b7f455243373231456e756d657261626c653a20676c6f62616c20696e646578206f60008201527f7574206f6620626f756e64730000000000000000000000000000000000000000602082015250565b7f466c79696e67466f726d6174696f6e733a20746f6b656e2068617320616c726560008201527f616479206265656e65642072656465656d656400000000000000000000000000602082015250565b7f466c79696e67466f726d6174696f6e733a2063616c6c6572206973206e6f742060008201527f6f776e6572000000000000000000000000000000000000000000000000000000602082015250565b7f466c79696e67466f726d6174696f6e733a20696e76616c696420746f6b656e4960008201527f6400000000000000000000000000000000000000000000000000000000000000602082015250565b614d04816142cc565b8114614d0f57600080fd5b50565b614d1b816142de565b8114614d2657600080fd5b50565b614d32816142f0565b8114614d3d57600080fd5b50565b614d49816142fc565b8114614d5457600080fd5b50565b614d6081614348565b8114614d6b57600080fd5b5056fea2646970667358221220f69ba1f9198e60aba07adbe6d4e3d09d37d7585ed3a4a42733d185fd6f4c281664736f6c63430008040033",
  "devdoc": {
    "kind": "dev",
    "methods": {
      "approve(address,uint256)": {
        "details": "See {IERC721-approve}."
      },
      "balanceOf(address)": {
        "details": "See {IERC721-balanceOf}."
      },
      "getApproved(uint256)": {
        "details": "See {IERC721-getApproved}."
      },
      "isApprovedForAll(address,address)": {
        "details": "See {IERC721-isApprovedForAll}."
      },
      "name()": {
        "details": "See {IERC721Metadata-name}."
      },
      "owner()": {
        "details": "Returns the address of the current owner."
      },
      "ownerOf(uint256)": {
        "details": "See {IERC721-ownerOf}."
      },
      "paused()": {
        "details": "Returns true if the contract is paused, and false otherwise."
      },
      "renounceOwnership()": {
        "details": "Leaves the contract without owner. It will not be possible to call `onlyOwner` functions anymore. Can only be called by the current owner. NOTE: Renouncing ownership will leave the contract without an owner, thereby removing any functionality that is only available to the owner."
      },
      "safeTransferFrom(address,address,uint256)": {
        "details": "See {IERC721-safeTransferFrom}."
      },
      "safeTransferFrom(address,address,uint256,bytes)": {
        "details": "See {IERC721-safeTransferFrom}."
      },
      "setApprovalForAll(address,bool)": {
        "details": "See {IERC721-setApprovalForAll}."
      },
      "supportsInterface(bytes4)": {
        "details": "See {IERC165-supportsInterface}."
      },
      "symbol()": {
        "details": "See {IERC721Metadata-symbol}."
      },
      "tokenByIndex(uint256)": {
        "details": "See {IERC721Enumerable-tokenByIndex}."
      },
      "tokenOfOwnerByIndex(address,uint256)": {
        "details": "See {IERC721Enumerable-tokenOfOwnerByIndex}."
      },
      "tokenURI(uint256)": {
        "details": "See {IERC721Metadata-tokenURI}."
      },
      "totalSupply()": {
        "details": "See {IERC721Enumerable-totalSupply}."
      },
      "transferFrom(address,address,uint256)": {
        "details": "See {IERC721-transferFrom}."
      },
      "transferOwnership(address)": {
        "details": "Transfers ownership of the contract to a new account (`newOwner`). Can only be called by the current owner."
      }
    },
    "version": 1
  },
  "userdoc": {
    "kind": "user",
    "methods": {},
    "version": 1
  },
  "storageLayout": {
    "storage": [
      {
        "astId": 222,
        "contract": "contracts/FlyingFormations.sol:FlyingFormations",
        "label": "_name",
        "offset": 0,
        "slot": "0",
        "type": "t_string_storage"
      },
      {
        "astId": 224,
        "contract": "contracts/FlyingFormations.sol:FlyingFormations",
        "label": "_symbol",
        "offset": 0,
        "slot": "1",
        "type": "t_string_storage"
      },
      {
        "astId": 228,
        "contract": "contracts/FlyingFormations.sol:FlyingFormations",
        "label": "_owners",
        "offset": 0,
        "slot": "2",
        "type": "t_mapping(t_uint256,t_address)"
      },
      {
        "astId": 232,
        "contract": "contracts/FlyingFormations.sol:FlyingFormations",
        "label": "_balances",
        "offset": 0,
        "slot": "3",
        "type": "t_mapping(t_address,t_uint256)"
      },
      {
        "astId": 236,
        "contract": "contracts/FlyingFormations.sol:FlyingFormations",
        "label": "_tokenApprovals",
        "offset": 0,
        "slot": "4",
        "type": "t_mapping(t_uint256,t_address)"
      },
      {
        "astId": 242,
        "contract": "contracts/FlyingFormations.sol:FlyingFormations",
        "label": "_operatorApprovals",
        "offset": 0,
        "slot": "5",
        "type": "t_mapping(t_address,t_mapping(t_address,t_bool))"
      },
      {
        "astId": 1176,
        "contract": "contracts/FlyingFormations.sol:FlyingFormations",
        "label": "_ownedTokens",
        "offset": 0,
        "slot": "6",
        "type": "t_mapping(t_address,t_mapping(t_uint256,t_uint256))"
      },
      {
        "astId": 1180,
        "contract": "contracts/FlyingFormations.sol:FlyingFormations",
        "label": "_ownedTokensIndex",
        "offset": 0,
        "slot": "7",
        "type": "t_mapping(t_uint256,t_uint256)"
      },
      {
        "astId": 1183,
        "contract": "contracts/FlyingFormations.sol:FlyingFormations",
        "label": "_allTokens",
        "offset": 0,
        "slot": "8",
        "type": "t_array(t_uint256)dyn_storage"
      },
      {
        "astId": 1187,
        "contract": "contracts/FlyingFormations.sol:FlyingFormations",
        "label": "_allTokensIndex",
        "offset": 0,
        "slot": "9",
        "type": "t_mapping(t_uint256,t_uint256)"
      },
      {
        "astId": 7,
        "contract": "contracts/FlyingFormations.sol:FlyingFormations",
        "label": "_owner",
        "offset": 0,
        "slot": "10",
        "type": "t_address"
      },
      {
        "astId": 122,
        "contract": "contracts/FlyingFormations.sol:FlyingFormations",
        "label": "_paused",
        "offset": 20,
        "slot": "10",
        "type": "t_bool"
      },
      {
        "astId": 2470,
        "contract": "contracts/FlyingFormations.sol:FlyingFormations",
        "label": "eth",
        "offset": 0,
        "slot": "11",
        "type": "t_uint256"
      },
      {
        "astId": 2473,
        "contract": "contracts/FlyingFormations.sol:FlyingFormations",
        "label": "hrs",
        "offset": 0,
        "slot": "12",
        "type": "t_uint256"
      },
      {
        "astId": 2480,
        "contract": "contracts/FlyingFormations.sol:FlyingFormations",
        "label": "price1",
        "offset": 0,
        "slot": "13",
        "type": "t_uint256"
      },
      {
        "astId": 2485,
        "contract": "contracts/FlyingFormations.sol:FlyingFormations",
        "label": "stage1",
        "offset": 0,
        "slot": "14",
        "type": "t_uint256"
      },
      {
        "astId": 2490,
        "contract": "contracts/FlyingFormations.sol:FlyingFormations",
        "label": "price2",
        "offset": 0,
        "slot": "15",
        "type": "t_uint256"
      },
      {
        "astId": 2495,
        "contract": "contracts/FlyingFormations.sol:FlyingFormations",
        "label": "stage2",
        "offset": 0,
        "slot": "16",
        "type": "t_uint256"
      },
      {
        "astId": 2500,
        "contract": "contracts/FlyingFormations.sol:FlyingFormations",
        "label": "floorPrice",
        "offset": 0,
        "slot": "17",
        "type": "t_uint256"
      },
      {
        "astId": 2509,
        "contract": "contracts/FlyingFormations.sol:FlyingFormations",
        "label": "priceDeductionRate1",
        "offset": 0,
        "slot": "18",
        "type": "t_uint256"
      },
      {
        "astId": 2518,
        "contract": "contracts/FlyingFormations.sol:FlyingFormations",
        "label": "priceDeductionRate2",
        "offset": 0,
        "slot": "19",
        "type": "t_uint256"
      },
      {
        "astId": 2522,
        "contract": "contracts/FlyingFormations.sol:FlyingFormations",
        "label": "hasPurchased",
        "offset": 0,
        "slot": "20",
        "type": "t_mapping(t_address,t_bool)"
      },
      {
        "astId": 2524,
        "contract": "contracts/FlyingFormations.sol:FlyingFormations",
        "label": "saleStartsAt",
        "offset": 0,
        "slot": "21",
        "type": "t_uint256"
      },
      {
        "astId": 2526,
        "contract": "contracts/FlyingFormations.sol:FlyingFormations",
        "label": "redeemEnabled",
        "offset": 0,
        "slot": "22",
        "type": "t_bool"
      },
      {
        "astId": 2528,
        "contract": "contracts/FlyingFormations.sol:FlyingFormations",
        "label": "redeemExpired",
        "offset": 1,
        "slot": "22",
        "type": "t_bool"
      },
      {
        "astId": 2530,
        "contract": "contracts/FlyingFormations.sol:FlyingFormations",
        "label": "sneakerBaseURI",
        "offset": 0,
        "slot": "23",
        "type": "t_string_storage"
      },
      {
        "astId": 2532,
        "contract": "contracts/FlyingFormations.sol:FlyingFormations",
        "label": "standardBaseURI",
        "offset": 0,
        "slot": "24",
        "type": "t_string_storage"
      },
      {
        "astId": 2541,
        "contract": "contracts/FlyingFormations.sol:FlyingFormations",
        "label": "sneakerRedeemedBy",
        "offset": 0,
        "slot": "25",
        "type": "t_mapping(t_uint256,t_address)"
      },
      {
        "astId": 2543,
        "contract": "contracts/FlyingFormations.sol:FlyingFormations",
        "label": "footballTeamWallet",
        "offset": 0,
        "slot": "26",
        "type": "t_address_payable"
      },
      {
        "astId": 2545,
        "contract": "contracts/FlyingFormations.sol:FlyingFormations",
        "label": "ducksWallet",
        "offset": 0,
        "slot": "27",
        "type": "t_address_payable"
      },
      {
        "astId": 2547,
        "contract": "contracts/FlyingFormations.sol:FlyingFormations",
        "label": "divisionStreetWallet",
        "offset": 0,
        "slot": "28",
        "type": "t_address_payable"
      }
    ],
    "types": {
      "t_address": {
        "encoding": "inplace",
        "label": "address",
        "numberOfBytes": "20"
      },
      "t_address_payable": {
        "encoding": "inplace",
        "label": "address payable",
        "numberOfBytes": "20"
      },
      "t_array(t_uint256)dyn_storage": {
        "base": "t_uint256",
        "encoding": "dynamic_array",
        "label": "uint256[]",
        "numberOfBytes": "32"
      },
      "t_bool": {
        "encoding": "inplace",
        "label": "bool",
        "numberOfBytes": "1"
      },
      "t_mapping(t_address,t_bool)": {
        "encoding": "mapping",
        "key": "t_address",
        "label": "mapping(address => bool)",
        "numberOfBytes": "32",
        "value": "t_bool"
      },
      "t_mapping(t_address,t_mapping(t_address,t_bool))": {
        "encoding": "mapping",
        "key": "t_address",
        "label": "mapping(address => mapping(address => bool))",
        "numberOfBytes": "32",
        "value": "t_mapping(t_address,t_bool)"
      },
      "t_mapping(t_address,t_mapping(t_uint256,t_uint256))": {
        "encoding": "mapping",
        "key": "t_address",
        "label": "mapping(address => mapping(uint256 => uint256))",
        "numberOfBytes": "32",
        "value": "t_mapping(t_uint256,t_uint256)"
      },
      "t_mapping(t_address,t_uint256)": {
        "encoding": "mapping",
        "key": "t_address",
        "label": "mapping(address => uint256)",
        "numberOfBytes": "32",
        "value": "t_uint256"
      },
      "t_mapping(t_uint256,t_address)": {
        "encoding": "mapping",
        "key": "t_uint256",
        "label": "mapping(uint256 => address)",
        "numberOfBytes": "32",
        "value": "t_address"
      },
      "t_mapping(t_uint256,t_uint256)": {
        "encoding": "mapping",
        "key": "t_uint256",
        "label": "mapping(uint256 => uint256)",
        "numberOfBytes": "32",
        "value": "t_uint256"
      },
      "t_string_storage": {
        "encoding": "bytes",
        "label": "string",
        "numberOfBytes": "32"
      },
      "t_uint256": {
        "encoding": "inplace",
        "label": "uint256",
        "numberOfBytes": "32"
      }
    }
  }
}