{
  "address": "0xeE0f874D607C331267F9eB6aC0865ad797462b51",
  "abi": [
    {
      "inputs": [
        {
          "internalType": "uint256",
          "name": "_saleStartsAt",
          "type": "uint256"
        },
        {
          "internalType": "uint256",
          "name": "_redeemStartsAt",
          "type": "uint256"
        },
        {
          "internalType": "string",
          "name": "_sneakerBaseURI",
          "type": "string"
        },
        {
          "internalType": "string",
          "name": "_standardBaseURI",
          "type": "string"
        },
        {
          "internalType": "address payable",
          "name": "_teamParticipantsWallet",
          "type": "address"
        },
        {
          "internalType": "address payable",
          "name": "_ducksWallet",
          "type": "address"
        },
        {
          "internalType": "address payable",
          "name": "_divisionStreetWallet",
          "type": "address"
        }
      ],
      "stateMutability": "nonpayable",
      "type": "constructor"
    },
    {
      "anonymous": false,
      "inputs": [
        {
          "indexed": true,
          "internalType": "address",
          "name": "owner",
          "type": "address"
        },
        {
          "indexed": true,
          "internalType": "address",
          "name": "approved",
          "type": "address"
        },
        {
          "indexed": true,
          "internalType": "uint256",
          "name": "tokenId",
          "type": "uint256"
        }
      ],
      "name": "Approval",
      "type": "event"
    },
    {
      "anonymous": false,
      "inputs": [
        {
          "indexed": true,
          "internalType": "address",
          "name": "owner",
          "type": "address"
        },
        {
          "indexed": true,
          "internalType": "address",
          "name": "operator",
          "type": "address"
        },
        {
          "indexed": false,
          "internalType": "bool",
          "name": "approved",
          "type": "bool"
        }
      ],
      "name": "ApprovalForAll",
      "type": "event"
    },
    {
      "anonymous": false,
      "inputs": [
        {
          "indexed": true,
          "internalType": "address",
          "name": "previousOwner",
          "type": "address"
        },
        {
          "indexed": true,
          "internalType": "address",
          "name": "newOwner",
          "type": "address"
        }
      ],
      "name": "OwnershipTransferred",
      "type": "event"
    },
    {
      "anonymous": false,
      "inputs": [
        {
          "indexed": false,
          "internalType": "address",
          "name": "account",
          "type": "address"
        }
      ],
      "name": "Paused",
      "type": "event"
    },
    {
      "anonymous": false,
      "inputs": [
        {
          "indexed": false,
          "internalType": "uint256",
          "name": "tokenId",
          "type": "uint256"
        },
        {
          "indexed": false,
          "internalType": "address",
          "name": "recipient",
          "type": "address"
        }
      ],
      "name": "SneakerRedeemed",
      "type": "event"
    },
    {
      "anonymous": false,
      "inputs": [
        {
          "indexed": false,
          "internalType": "uint256",
          "name": "tokenId",
          "type": "uint256"
        },
        {
          "indexed": false,
          "internalType": "address",
          "name": "recipient",
          "type": "address"
        },
        {
          "indexed": false,
          "internalType": "uint256",
          "name": "paid",
          "type": "uint256"
        },
        {
          "indexed": false,
          "internalType": "uint256",
          "name": "teamParticipantsReceives",
          "type": "uint256"
        },
        {
          "indexed": false,
          "internalType": "uint256",
          "name": "ducksReceives",
          "type": "uint256"
        },
        {
          "indexed": false,
          "internalType": "uint256",
          "name": "divisionStreetReceives",
          "type": "uint256"
        }
      ],
      "name": "TokenBought",
      "type": "event"
    },
    {
      "anonymous": false,
      "inputs": [
        {
          "indexed": true,
          "internalType": "address",
          "name": "from",
          "type": "address"
        },
        {
          "indexed": true,
          "internalType": "address",
          "name": "to",
          "type": "address"
        },
        {
          "indexed": true,
          "internalType": "uint256",
          "name": "tokenId",
          "type": "uint256"
        }
      ],
      "name": "Transfer",
      "type": "event"
    },
    {
      "anonymous": false,
      "inputs": [
        {
          "indexed": false,
          "internalType": "address",
          "name": "account",
          "type": "address"
        }
      ],
      "name": "Unpaused",
      "type": "event"
    },
    {
      "inputs": [
        {
          "internalType": "address",
          "name": "to",
          "type": "address"
        },
        {
          "internalType": "uint256",
          "name": "tokenId",
          "type": "uint256"
        }
      ],
      "name": "approve",
      "outputs": [],
      "stateMutability": "nonpayable",
      "type": "function"
    },
    {
      "inputs": [
        {
          "internalType": "address",
          "name": "owner",
          "type": "address"
        }
      ],
      "name": "balanceOf",
      "outputs": [
        {
          "internalType": "uint256",
          "name": "",
          "type": "uint256"
        }
      ],
      "stateMutability": "view",
      "type": "function"
    },
    {
      "inputs": [
        {
          "internalType": "address",
          "name": "recipient",
          "type": "address"
        },
        {
          "internalType": "uint256",
          "name": "tokenId",
          "type": "uint256"
        }
      ],
      "name": "buy",
      "outputs": [],
      "stateMutability": "payable",
      "type": "function"
    },
    {
      "inputs": [],
      "name": "getAllTokens",
      "outputs": [
        {
          "internalType": "uint256[]",
          "name": "allTokens",
          "type": "uint256[]"
        }
      ],
      "stateMutability": "view",
      "type": "function"
    },
    {
      "inputs": [
        {
          "internalType": "uint256",
          "name": "tokenId",
          "type": "uint256"
        }
      ],
      "name": "getApproved",
      "outputs": [
        {
          "internalType": "address",
          "name": "",
          "type": "address"
        }
      ],
      "stateMutability": "view",
      "type": "function"
    },
    {
      "inputs": [],
      "name": "getPrice",
      "outputs": [
        {
          "internalType": "uint256",
          "name": "",
          "type": "uint256"
        }
      ],
      "stateMutability": "view",
      "type": "function"
    },
    {
      "inputs": [
        {
          "internalType": "address",
          "name": "owner",
          "type": "address"
        },
        {
          "internalType": "address",
          "name": "operator",
          "type": "address"
        }
      ],
      "name": "isApprovedForAll",
      "outputs": [
        {
          "internalType": "bool",
          "name": "",
          "type": "bool"
        }
      ],
      "stateMutability": "view",
      "type": "function"
    },
    {
      "inputs": [],
      "name": "name",
      "outputs": [
        {
          "internalType": "string",
          "name": "",
          "type": "string"
        }
      ],
      "stateMutability": "view",
      "type": "function"
    },
    {
      "inputs": [],
      "name": "owner",
      "outputs": [
        {
          "internalType": "address",
          "name": "",
          "type": "address"
        }
      ],
      "stateMutability": "view",
      "type": "function"
    },
    {
      "inputs": [
        {
          "internalType": "uint256",
          "name": "tokenId",
          "type": "uint256"
        }
      ],
      "name": "ownerOf",
      "outputs": [
        {
          "internalType": "address",
          "name": "",
          "type": "address"
        }
      ],
      "stateMutability": "view",
      "type": "function"
    },
    {
      "inputs": [],
      "name": "paused",
      "outputs": [
        {
          "internalType": "bool",
          "name": "",
          "type": "bool"
        }
      ],
      "stateMutability": "view",
      "type": "function"
    },
    {
      "inputs": [
        {
          "internalType": "uint256",
          "name": "tokenId",
          "type": "uint256"
        }
      ],
      "name": "redeem",
      "outputs": [],
      "stateMutability": "nonpayable",
      "type": "function"
    },
    {
      "inputs": [],
      "name": "renounceOwnership",
      "outputs": [],
      "stateMutability": "nonpayable",
      "type": "function"
    },
    {
      "inputs": [
        {
          "internalType": "address",
          "name": "from",
          "type": "address"
        },
        {
          "internalType": "address",
          "name": "to",
          "type": "address"
        },
        {
          "internalType": "uint256",
          "name": "tokenId",
          "type": "uint256"
        }
      ],
      "name": "safeTransferFrom",
      "outputs": [],
      "stateMutability": "nonpayable",
      "type": "function"
    },
    {
      "inputs": [
        {
          "internalType": "address",
          "name": "from",
          "type": "address"
        },
        {
          "internalType": "address",
          "name": "to",
          "type": "address"
        },
        {
          "internalType": "uint256",
          "name": "tokenId",
          "type": "uint256"
        },
        {
          "internalType": "bytes",
          "name": "_data",
          "type": "bytes"
        }
      ],
      "name": "safeTransferFrom",
      "outputs": [],
      "stateMutability": "nonpayable",
      "type": "function"
    },
    {
      "inputs": [
        {
          "internalType": "address",
          "name": "operator",
          "type": "address"
        },
        {
          "internalType": "bool",
          "name": "approved",
          "type": "bool"
        }
      ],
      "name": "setApprovalForAll",
      "outputs": [],
      "stateMutability": "nonpayable",
      "type": "function"
    },
    {
      "inputs": [
        {
          "internalType": "uint256",
          "name": "",
          "type": "uint256"
        }
      ],
      "name": "sneakerRedeemedBy",
      "outputs": [
        {
          "internalType": "address",
          "name": "",
          "type": "address"
        }
      ],
      "stateMutability": "view",
      "type": "function"
    },
    {
      "inputs": [
        {
          "internalType": "bytes4",
          "name": "interfaceId",
          "type": "bytes4"
        }
      ],
      "name": "supportsInterface",
      "outputs": [
        {
          "internalType": "bool",
          "name": "",
          "type": "bool"
        }
      ],
      "stateMutability": "view",
      "type": "function"
    },
    {
      "inputs": [],
      "name": "symbol",
      "outputs": [
        {
          "internalType": "string",
          "name": "",
          "type": "string"
        }
      ],
      "stateMutability": "view",
      "type": "function"
    },
    {
      "inputs": [
        {
          "internalType": "uint256",
          "name": "index",
          "type": "uint256"
        }
      ],
      "name": "tokenByIndex",
      "outputs": [
        {
          "internalType": "uint256",
          "name": "",
          "type": "uint256"
        }
      ],
      "stateMutability": "view",
      "type": "function"
    },
    {
      "inputs": [
        {
          "internalType": "address",
          "name": "owner",
          "type": "address"
        },
        {
          "internalType": "uint256",
          "name": "index",
          "type": "uint256"
        }
      ],
      "name": "tokenOfOwnerByIndex",
      "outputs": [
        {
          "internalType": "uint256",
          "name": "",
          "type": "uint256"
        }
      ],
      "stateMutability": "view",
      "type": "function"
    },
    {
      "inputs": [
        {
          "internalType": "uint256",
          "name": "tokenId",
          "type": "uint256"
        }
      ],
      "name": "tokenURI",
      "outputs": [
        {
          "internalType": "string",
          "name": "",
          "type": "string"
        }
      ],
      "stateMutability": "view",
      "type": "function"
    },
    {
      "inputs": [],
      "name": "totalSupply",
      "outputs": [
        {
          "internalType": "uint256",
          "name": "",
          "type": "uint256"
        }
      ],
      "stateMutability": "view",
      "type": "function"
    },
    {
      "inputs": [
        {
          "internalType": "address",
          "name": "from",
          "type": "address"
        },
        {
          "internalType": "address",
          "name": "to",
          "type": "address"
        },
        {
          "internalType": "uint256",
          "name": "tokenId",
          "type": "uint256"
        }
      ],
      "name": "transferFrom",
      "outputs": [],
      "stateMutability": "nonpayable",
      "type": "function"
    },
    {
      "inputs": [
        {
          "internalType": "address",
          "name": "newOwner",
          "type": "address"
        }
      ],
      "name": "transferOwnership",
      "outputs": [],
      "stateMutability": "nonpayable",
      "type": "function"
    },
    {
      "inputs": [
        {
          "internalType": "string",
          "name": "__baseURI",
          "type": "string"
        }
      ],
      "name": "updateBaseURI",
      "outputs": [],
      "stateMutability": "nonpayable",
      "type": "function"
    },
    {
      "inputs": [
        {
          "internalType": "address payable",
          "name": "_divisionStreetWallet",
          "type": "address"
        }
      ],
      "name": "updateDivisionStreetWallet",
      "outputs": [],
      "stateMutability": "nonpayable",
      "type": "function"
    },
    {
      "inputs": [
        {
          "internalType": "address payable",
          "name": "_ducksWallet",
          "type": "address"
        }
      ],
      "name": "updateDucksWallet",
      "outputs": [],
      "stateMutability": "nonpayable",
      "type": "function"
    },
    {
      "inputs": [
        {
          "internalType": "string",
          "name": "__baseURI",
          "type": "string"
        }
      ],
      "name": "updateSneakerBaseURI",
      "outputs": [],
      "stateMutability": "nonpayable",
      "type": "function"
    },
    {
      "inputs": [
        {
          "internalType": "address payable",
          "name": "_primaryWallet",
          "type": "address"
        }
      ],
      "name": "updateTeamParticipantsWallet",
      "outputs": [],
      "stateMutability": "nonpayable",
      "type": "function"
    }
  ],
  "transactionHash": "0xa6711068d2b1f8e1a1138aef1110e5b22985256d3f21985efabce99cc754ccb0",
  "args": [
    1644821651,
    1644821741,
    "ipfs://Qma9j5M57zD6av19YNAHPnQtC4Pxqm2h99B4jhi78U3nrY/",
    "ipfs://Qma9j5M57zD6av19YNAHPnQtC4Pxqm2h99B4jhi78U3nrY/",
    "0x4b8c87E697AD25994FD5c6BADD5A3e0e498ce9d1",
    "0x4b8c87E697AD25994FD5c6BADD5A3e0e498ce9d1",
    "0x4b8c87E697AD25994FD5c6BADD5A3e0e498ce9d1"
  ],
  "numDeployments": 1,
  "solcInputHash": "877d83189b9cb8b93e8d33db2f1d6279",
  "bytecode": "0x6080604052662386f26fc10000600b55603c600c55600a600b54607d620000279190620006b0565b62000033919062000678565b600d55600c546002620000479190620006b0565b600e55600b5460056200005b9190620006b0565b600f55600c54600a6200006f9190620006b0565b601055600b546001620000839190620006b0565b601155620000b3600e54600f54600d546200009f919062000711565b6200030460201b62001c421790919060201c565b601255620000e3601054601154600f54620000cf919062000711565b6200030460201b62001c421790919060201c565b601355348015620000f357600080fd5b50604051620052a8380380620052a883398181016040528101906200011991906200053a565b6040518060400160405280600781526020017f57617261746168000000000000000000000000000000000000000000000000008152506040518060400160405280600381526020017f575254000000000000000000000000000000000000000000000000000000000081525081600090805190602001906200019d929190620003ea565b508060019080519060200190620001b6929190620003ea565b505050620001d9620001cd6200031c60201b60201c565b6200032460201b60201c565b6000600a60146101000a81548160ff021916908315150217905550866014819055508560158190555084601690805190602001906200021a929190620003ea565b50836017908051906020019062000233929190620003ea565b5082601960006101000a81548173ffffffffffffffffffffffffffffffffffffffff021916908373ffffffffffffffffffffffffffffffffffffffff16021790555081601a60006101000a81548173ffffffffffffffffffffffffffffffffffffffff021916908373ffffffffffffffffffffffffffffffffffffffff16021790555080601b60006101000a81548173ffffffffffffffffffffffffffffffffffffffff021916908373ffffffffffffffffffffffffffffffffffffffff160217905550505050505050506200092d565b6000818362000314919062000678565b905092915050565b600033905090565b6000600a60009054906101000a900473ffffffffffffffffffffffffffffffffffffffff16905081600a60006101000a81548173ffffffffffffffffffffffffffffffffffffffff021916908373ffffffffffffffffffffffffffffffffffffffff1602179055508173ffffffffffffffffffffffffffffffffffffffff168173ffffffffffffffffffffffffffffffffffffffff167f8be0079c531659141344cd1fd0a4f28419497f9722a3daafe3b4186f6b6457e060405160405180910390a35050565b828054620003f890620007c0565b90600052602060002090601f0160209004810192826200041c576000855562000468565b82601f106200043757805160ff191683800117855562000468565b8280016001018555821562000468579182015b82811115620004675782518255916020019190600101906200044a565b5b5090506200047791906200047b565b5090565b5b80821115620004965760008160009055506001016200047c565b5090565b6000620004b1620004ab8462000642565b62000619565b905082815260208101848484011115620004ca57600080fd5b620004d78482856200078a565b509392505050565b600081519050620004f081620008f9565b92915050565b600082601f8301126200050857600080fd5b81516200051a8482602086016200049a565b91505092915050565b600081519050620005348162000913565b92915050565b600080600080600080600060e0888a0312156200055657600080fd5b6000620005668a828b0162000523565b9750506020620005798a828b0162000523565b965050604088015167ffffffffffffffff8111156200059757600080fd5b620005a58a828b01620004f6565b955050606088015167ffffffffffffffff811115620005c357600080fd5b620005d18a828b01620004f6565b9450506080620005e48a828b01620004df565b93505060a0620005f78a828b01620004df565b92505060c06200060a8a828b01620004df565b91505092959891949750929550565b60006200062562000638565b9050620006338282620007f6565b919050565b6000604051905090565b600067ffffffffffffffff82111562000660576200065f620008b9565b5b6200066b82620008e8565b9050602081019050919050565b6000620006858262000780565b9150620006928362000780565b925082620006a557620006a46200085b565b5b828204905092915050565b6000620006bd8262000780565b9150620006ca8362000780565b9250817fffffffffffffffffffffffffffffffffffffffffffffffffffffffffffffffff04831182151516156200070657620007056200082c565b5b828202905092915050565b60006200071e8262000780565b91506200072b8362000780565b9250828210156200074157620007406200082c565b5b828203905092915050565b6000620007598262000760565b9050919050565b600073ffffffffffffffffffffffffffffffffffffffff82169050919050565b6000819050919050565b60005b83811015620007aa5780820151818401526020810190506200078d565b83811115620007ba576000848401525b50505050565b60006002820490506001821680620007d957607f821691505b60208210811415620007f057620007ef6200088a565b5b50919050565b6200080182620008e8565b810181811067ffffffffffffffff82111715620008235762000822620008b9565b5b80604052505050565b7f4e487b7100000000000000000000000000000000000000000000000000000000600052601160045260246000fd5b7f4e487b7100000000000000000000000000000000000000000000000000000000600052601260045260246000fd5b7f4e487b7100000000000000000000000000000000000000000000000000000000600052602260045260246000fd5b7f4e487b7100000000000000000000000000000000000000000000000000000000600052604160045260246000fd5b6000601f19601f8301169050919050565b62000904816200074c565b81146200091057600080fd5b50565b6200091e8162000780565b81146200092a57600080fd5b50565b61496b806200093d6000396000f3fe6080604052600436106101cd5760003560e01c80637cb5f678116100f7578063c87b56dd11610095578063e985e9c511610064578063e985e9c514610677578063f2fde38b146106b4578063f74025cf146106dd578063ff0e69ba1461071a576101cd565b8063c87b56dd146105cc578063cce7ec1314610609578063d287f61914610625578063db006a751461064e576101cd565b806395d89b41116100d157806395d89b411461052457806398d5fdca1461054f578063a22cb4651461057a578063b88d4fde146105a3576101cd565b80637cb5f678146104a75780638da5cb5b146104d0578063931688cb146104fb576101cd565b80632a5c792a1161016f5780635c975abb1161013e5780635c975abb146103eb5780636352211e1461041657806370a0823114610453578063715018a614610490576101cd565b80632a5c792a1461031d5780632f745c591461034857806342842e0e146103855780634f6ccce7146103ae576101cd565b8063095ea7b3116101ab578063095ea7b31461027757806318160ddd146102a057806323b872dd146102cb578063264a5347146102f4576101cd565b806301ffc9a7146101d257806306fdde031461020f578063081812fc1461023a575b600080fd5b3480156101de57600080fd5b506101f960048036038101906101f4919061337d565b610743565b6040516102069190613987565b60405180910390f35b34801561021b57600080fd5b506102246107bd565b60405161023191906139a2565b60405180910390f35b34801561024657600080fd5b50610261600480360381019061025c9190613414565b61084f565b60405161026e91906138fe565b60405180910390f35b34801561028357600080fd5b5061029e60048036038101906102999190613341565b6108d4565b005b3480156102ac57600080fd5b506102b56109ec565b6040516102c29190613cf4565b60405180910390f35b3480156102d757600080fd5b506102f260048036038101906102ed919061323b565b6109f9565b005b34801561030057600080fd5b5061031b600480360381019061031691906131d6565b610a59565b005b34801561032957600080fd5b50610332610b19565b60405161033f9190613965565b60405180910390f35b34801561035457600080fd5b5061036f600480360381019061036a9190613341565b610b92565b60405161037c9190613cf4565b60405180910390f35b34801561039157600080fd5b506103ac60048036038101906103a7919061323b565b610c37565b005b3480156103ba57600080fd5b506103d560048036038101906103d09190613414565b610c57565b6040516103e29190613cf4565b60405180910390f35b3480156103f757600080fd5b50610400610cee565b60405161040d9190613987565b60405180910390f35b34801561042257600080fd5b5061043d60048036038101906104389190613414565b610d05565b60405161044a91906138fe565b60405180910390f35b34801561045f57600080fd5b5061047a600480360381019061047591906131ad565b610db7565b6040516104879190613cf4565b60405180910390f35b34801561049c57600080fd5b506104a5610e6f565b005b3480156104b357600080fd5b506104ce60048036038101906104c991906131d6565b610ef7565b005b3480156104dc57600080fd5b506104e5610fb7565b6040516104f291906138fe565b60405180910390f35b34801561050757600080fd5b50610522600480360381019061051d91906133cf565b610fe1565b005b34801561053057600080fd5b50610539611073565b60405161054691906139a2565b60405180910390f35b34801561055b57600080fd5b50610564611105565b6040516105719190613cf4565b60405180910390f35b34801561058657600080fd5b506105a1600480360381019061059c9190613305565b61125b565b005b3480156105af57600080fd5b506105ca60048036038101906105c5919061328a565b611271565b005b3480156105d857600080fd5b506105f360048036038101906105ee9190613414565b6112d3565b60405161060091906139a2565b60405180910390f35b610623600480360381019061061e9190613341565b6114f8565b005b34801561063157600080fd5b5061064c600480360381019061064791906133cf565b6117e0565b005b34801561065a57600080fd5b5061067560048036038101906106709190613414565b611872565b005b34801561068357600080fd5b5061069e600480360381019061069991906131ff565b6119c3565b6040516106ab9190613987565b60405180910390f35b3480156106c057600080fd5b506106db60048036038101906106d691906131ad565b611a57565b005b3480156106e957600080fd5b5061070460048036038101906106ff9190613414565b611b4f565b60405161071191906138fe565b60405180910390f35b34801561072657600080fd5b50610741600480360381019061073c91906131d6565b611b82565b005b60007f780e9d63000000000000000000000000000000000000000000000000000000007bffffffffffffffffffffffffffffffffffffffffffffffffffffffff1916827bffffffffffffffffffffffffffffffffffffffffffffffffffffffff191614806107b657506107b582611c58565b5b9050919050565b6060600080546107cc90614048565b80601f01602080910402602001604051908101604052809291908181526020018280546107f890614048565b80156108455780601f1061081a57610100808354040283529160200191610845565b820191906000526020600020905b81548152906001019060200180831161082857829003601f168201915b5050505050905090565b600061085a82611d3a565b610899576040517f08c379a000000000000000000000000000000000000000000000000000000000815260040161089090613b94565b60405180910390fd5b6004600083815260200190815260200160002060009054906101000a900473ffffffffffffffffffffffffffffffffffffffff169050919050565b60006108df82610d05565b90508073ffffffffffffffffffffffffffffffffffffffff168373ffffffffffffffffffffffffffffffffffffffff161415610950576040517f08c379a000000000000000000000000000000000000000000000000000000000815260040161094790613c54565b60405180910390fd5b8073ffffffffffffffffffffffffffffffffffffffff1661096f611da6565b73ffffffffffffffffffffffffffffffffffffffff16148061099e575061099d81610998611da6565b6119c3565b5b6109dd576040517f08c379a00000000000000000000000000000000000000000000000000000000081526004016109d490613af4565b60405180910390fd5b6109e78383611dae565b505050565b6000600880549050905090565b610a0a610a04611da6565b82611e67565b610a49576040517f08c379a0000000000000000000000000000000000000000000000000000000008152600401610a4090613c74565b60405180910390fd5b610a54838383611f45565b505050565b610a61611da6565b73ffffffffffffffffffffffffffffffffffffffff16610a7f610fb7565b73ffffffffffffffffffffffffffffffffffffffff1614610ad5576040517f08c379a0000000000000000000000000000000000000000000000000000000008152600401610acc90613bd4565b60405180910390fd5b80601b60006101000a81548173ffffffffffffffffffffffffffffffffffffffff021916908373ffffffffffffffffffffffffffffffffffffffff16021790555050565b606060005b610b266109ec565b811015610b8e57610b3681610c57565b828281518110610b6f577f4e487b7100000000000000000000000000000000000000000000000000000000600052603260045260246000fd5b6020026020010181815250508080610b86906140ab565b915050610b1e565b5090565b6000610b9d83610db7565b8210610bde576040517f08c379a0000000000000000000000000000000000000000000000000000000008152600401610bd5906139f4565b60405180910390fd5b600660008473ffffffffffffffffffffffffffffffffffffffff1673ffffffffffffffffffffffffffffffffffffffff168152602001908152602001600020600083815260200190815260200160002054905092915050565b610c5283838360405180602001604052806000815250611271565b505050565b6000610c616109ec565b8210610ca2576040517f08c379a0000000000000000000000000000000000000000000000000000000008152600401610c9990613c94565b60405180910390fd5b60088281548110610cdc577f4e487b7100000000000000000000000000000000000000000000000000000000600052603260045260246000fd5b90600052602060002001549050919050565b6000600a60149054906101000a900460ff16905090565b6000806002600084815260200190815260200160002060009054906101000a900473ffffffffffffffffffffffffffffffffffffffff169050600073ffffffffffffffffffffffffffffffffffffffff168173ffffffffffffffffffffffffffffffffffffffff161415610dae576040517f08c379a0000000000000000000000000000000000000000000000000000000008152600401610da590613b34565b60405180910390fd5b80915050919050565b60008073ffffffffffffffffffffffffffffffffffffffff168273ffffffffffffffffffffffffffffffffffffffff161415610e28576040517f08c379a0000000000000000000000000000000000000000000000000000000008152600401610e1f90613b14565b60405180910390fd5b600360008373ffffffffffffffffffffffffffffffffffffffff1673ffffffffffffffffffffffffffffffffffffffff168152602001908152602001600020549050919050565b610e77611da6565b73ffffffffffffffffffffffffffffffffffffffff16610e95610fb7565b73ffffffffffffffffffffffffffffffffffffffff1614610eeb576040517f08c379a0000000000000000000000000000000000000000000000000000000008152600401610ee290613bd4565b60405180910390fd5b610ef560006121a1565b565b610eff611da6565b73ffffffffffffffffffffffffffffffffffffffff16610f1d610fb7565b73ffffffffffffffffffffffffffffffffffffffff1614610f73576040517f08c379a0000000000000000000000000000000000000000000000000000000008152600401610f6a90613bd4565b60405180910390fd5b80601a60006101000a81548173ffffffffffffffffffffffffffffffffffffffff021916908373ffffffffffffffffffffffffffffffffffffffff16021790555050565b6000600a60009054906101000a900473ffffffffffffffffffffffffffffffffffffffff16905090565b610fe9611da6565b73ffffffffffffffffffffffffffffffffffffffff16611007610fb7565b73ffffffffffffffffffffffffffffffffffffffff161461105d576040517f08c379a000000000000000000000000000000000000000000000000000000000815260040161105490613bd4565b60405180910390fd5b81816017919061106e929190612fda565b505050565b60606001805461108290614048565b80601f01602080910402602001604051908101604052809291908181526020018280546110ae90614048565b80156110fb5780601f106110d0576101008083540402835291602001916110fb565b820191906000526020600020905b8154815290600101906020018083116110de57829003601f168201915b5050505050905090565b60006111456040518060400160405280601081526020017f47657474696e672070726963652e2e2e00000000000000000000000000000000815250612267565b60145442101561118a576040517f08c379a000000000000000000000000000000000000000000000000000000000815260040161118190613ad4565b60405180910390fd5b60006014544261119a9190613f4c565b90506111db6040518060400160405280601381526020017f656c61707365642074696d652069733a2025730000000000000000000000000081525082612300565b600e548110156112165761120e6111fd6012548361239c90919063ffffffff16565b600d546123b290919063ffffffff16565b915050611258565b601054811015611251576112496112386013548361239c90919063ffffffff16565b600f546123b290919063ffffffff16565b915050611258565b6011549150505b90565b61126d611266611da6565b83836123c8565b5050565b61128261127c611da6565b83611e67565b6112c1576040517f08c379a00000000000000000000000000000000000000000000000000000000081526004016112b890613c74565b60405180910390fd5b6112cd84848484612535565b50505050565b60606112de82611d3a565b61131d576040517f08c379a000000000000000000000000000000000000000000000000000000000815260040161131490613c14565b60405180910390fd5b6060600073ffffffffffffffffffffffffffffffffffffffff166018600085815260200190815260200160002060009054906101000a900473ffffffffffffffffffffffffffffffffffffffff1673ffffffffffffffffffffffffffffffffffffffff161415611419576017805461139490614048565b80601f01602080910402602001604051908101604052809291908181526020018280546113c090614048565b801561140d5780601f106113e25761010080835404028352916020019161140d565b820191906000526020600020905b8154815290600101906020018083116113f057829003601f168201915b505050505090506114a7565b6016805461142690614048565b80601f016020809104026020016040519081016040528092919081815260200182805461145290614048565b801561149f5780601f106114745761010080835404028352916020019161149f565b820191906000526020600020905b81548152906001019060200180831161148257829003601f168201915b505050505090505b60008151116114c557604051806020016040528060008152506114f0565b806114cf84612591565b6040516020016114e09291906138da565b6040516020818303038152906040525b915050919050565b60145442101561153d576040517f08c379a000000000000000000000000000000000000000000000000000000000815260040161153490613c34565b60405180910390fd5b60788110611580576040517f08c379a000000000000000000000000000000000000000000000000000000000815260040161157790613cd4565b60405180910390fd5b600061158a611105565b9050803410156115cf576040517f08c379a00000000000000000000000000000000000000000000000000000000081526004016115c690613b54565b60405180910390fd5b6115d9838361273e565b60006116046127106115f6611a5e3461239c90919063ffffffff16565b611c4290919063ffffffff16565b905060006116316127106116236103e83461239c90919063ffffffff16565b611c4290919063ffffffff16565b9050600061165a8261164c85346123b290919063ffffffff16565b6123b290919063ffffffff16565b9050601960009054906101000a900473ffffffffffffffffffffffffffffffffffffffff1673ffffffffffffffffffffffffffffffffffffffff166108fc849081150290604051600060405180830381858888f193505050501580156116c4573d6000803e3d6000fd5b50601a60009054906101000a900473ffffffffffffffffffffffffffffffffffffffff1673ffffffffffffffffffffffffffffffffffffffff166108fc839081150290604051600060405180830381858888f1935050505015801561172d573d6000803e3d6000fd5b50601b60009054906101000a900473ffffffffffffffffffffffffffffffffffffffff1673ffffffffffffffffffffffffffffffffffffffff166108fc829081150290604051600060405180830381858888f19350505050158015611796573d6000803e3d6000fd5b507f4689c69f82cdf5b000bb00a84dd3258356c9997272fd94a9153e9d13a5b7c29a8587868686866040516117d096959493929190613d38565b60405180910390a1505050505050565b6117e8611da6565b73ffffffffffffffffffffffffffffffffffffffff16611806610fb7565b73ffffffffffffffffffffffffffffffffffffffff161461185c576040517f08c379a000000000000000000000000000000000000000000000000000000000815260040161185390613bd4565b60405180910390fd5b81816016919061186d929190612fda565b505050565b6015544210156118b7576040517f08c379a00000000000000000000000000000000000000000000000000000000081526004016118ae90613bb4565b60405180910390fd5b6118c081610d05565b73ffffffffffffffffffffffffffffffffffffffff163373ffffffffffffffffffffffffffffffffffffffff161461192d576040517f08c379a000000000000000000000000000000000000000000000000000000000815260040161192490613cb4565b60405180910390fd5b61193681610d05565b6018600083815260200190815260200160002060006101000a81548173ffffffffffffffffffffffffffffffffffffffff021916908373ffffffffffffffffffffffffffffffffffffffff1602179055507fb7d04369b0951a44d17f7ed06b0f42dac0f3c7904020fe8c88970ad31bc63dab81336040516119b8929190613d0f565b60405180910390a150565b6000600560008473ffffffffffffffffffffffffffffffffffffffff1673ffffffffffffffffffffffffffffffffffffffff16815260200190815260200160002060008373ffffffffffffffffffffffffffffffffffffffff1673ffffffffffffffffffffffffffffffffffffffff16815260200190815260200160002060009054906101000a900460ff16905092915050565b611a5f611da6565b73ffffffffffffffffffffffffffffffffffffffff16611a7d610fb7565b73ffffffffffffffffffffffffffffffffffffffff1614611ad3576040517f08c379a0000000000000000000000000000000000000000000000000000000008152600401611aca90613bd4565b60405180910390fd5b600073ffffffffffffffffffffffffffffffffffffffff168173ffffffffffffffffffffffffffffffffffffffff161415611b43576040517f08c379a0000000000000000000000000000000000000000000000000000000008152600401611b3a90613a34565b60405180910390fd5b611b4c816121a1565b50565b60186020528060005260406000206000915054906101000a900473ffffffffffffffffffffffffffffffffffffffff1681565b611b8a611da6565b73ffffffffffffffffffffffffffffffffffffffff16611ba8610fb7565b73ffffffffffffffffffffffffffffffffffffffff1614611bfe576040517f08c379a0000000000000000000000000000000000000000000000000000000008152600401611bf590613bd4565b60405180910390fd5b80601960006101000a81548173ffffffffffffffffffffffffffffffffffffffff021916908373ffffffffffffffffffffffffffffffffffffffff16021790555050565b60008183611c509190613ec1565b905092915050565b60007f80ac58cd000000000000000000000000000000000000000000000000000000007bffffffffffffffffffffffffffffffffffffffffffffffffffffffff1916827bffffffffffffffffffffffffffffffffffffffffffffffffffffffff19161480611d2357507f5b5e139f000000000000000000000000000000000000000000000000000000007bffffffffffffffffffffffffffffffffffffffffffffffffffffffff1916827bffffffffffffffffffffffffffffffffffffffffffffffffffffffff1916145b80611d335750611d328261290c565b5b9050919050565b60008073ffffffffffffffffffffffffffffffffffffffff166002600084815260200190815260200160002060009054906101000a900473ffffffffffffffffffffffffffffffffffffffff1673ffffffffffffffffffffffffffffffffffffffff1614159050919050565b600033905090565b816004600083815260200190815260200160002060006101000a81548173ffffffffffffffffffffffffffffffffffffffff021916908373ffffffffffffffffffffffffffffffffffffffff160217905550808273ffffffffffffffffffffffffffffffffffffffff16611e2183610d05565b73ffffffffffffffffffffffffffffffffffffffff167f8c5be1e5ebec7d5bd14f71427d1e84f3dd0314c0f7b2291e5b200ac8c7c3b92560405160405180910390a45050565b6000611e7282611d3a565b611eb1576040517f08c379a0000000000000000000000000000000000000000000000000000000008152600401611ea890613ab4565b60405180910390fd5b6000611ebc83610d05565b90508073ffffffffffffffffffffffffffffffffffffffff168473ffffffffffffffffffffffffffffffffffffffff161480611f2b57508373ffffffffffffffffffffffffffffffffffffffff16611f138461084f565b73ffffffffffffffffffffffffffffffffffffffff16145b80611f3c5750611f3b81856119c3565b5b91505092915050565b8273ffffffffffffffffffffffffffffffffffffffff16611f6582610d05565b73ffffffffffffffffffffffffffffffffffffffff1614611fbb576040517f08c379a0000000000000000000000000000000000000000000000000000000008152600401611fb290613bf4565b60405180910390fd5b600073ffffffffffffffffffffffffffffffffffffffff168273ffffffffffffffffffffffffffffffffffffffff16141561202b576040517f08c379a000000000000000000000000000000000000000000000000000000000815260040161202290613a74565b60405180910390fd5b612036838383612976565b612041600082611dae565b6001600360008573ffffffffffffffffffffffffffffffffffffffff1673ffffffffffffffffffffffffffffffffffffffff16815260200190815260200160002060008282546120919190613f4c565b925050819055506001600360008473ffffffffffffffffffffffffffffffffffffffff1673ffffffffffffffffffffffffffffffffffffffff16815260200190815260200160002060008282546120e89190613e6b565b92505081905550816002600083815260200190815260200160002060006101000a81548173ffffffffffffffffffffffffffffffffffffffff021916908373ffffffffffffffffffffffffffffffffffffffff160217905550808273ffffffffffffffffffffffffffffffffffffffff168473ffffffffffffffffffffffffffffffffffffffff167fddf252ad1be2c89b69c2b068fc378daa952ba7f163c4a11628f55a4df523b3ef60405160405180910390a4505050565b6000600a60009054906101000a900473ffffffffffffffffffffffffffffffffffffffff16905081600a60006101000a81548173ffffffffffffffffffffffffffffffffffffffff021916908373ffffffffffffffffffffffffffffffffffffffff1602179055508173ffffffffffffffffffffffffffffffffffffffff168173ffffffffffffffffffffffffffffffffffffffff167f8be0079c531659141344cd1fd0a4f28419497f9722a3daafe3b4186f6b6457e060405160405180910390a35050565b6122fd8160405160240161227b91906139a2565b6040516020818303038152906040527f41304fac000000000000000000000000000000000000000000000000000000007bffffffffffffffffffffffffffffffffffffffffffffffffffffffff19166020820180517bffffffffffffffffffffffffffffffffffffffffffffffffffffffff8381831617835250505050612a8a565b50565b61239882826040516024016123169291906139c4565b6040516020818303038152906040527f9710a9d0000000000000000000000000000000000000000000000000000000007bffffffffffffffffffffffffffffffffffffffffffffffffffffffff19166020820180517bffffffffffffffffffffffffffffffffffffffffffffffffffffffff8381831617835250505050612a8a565b5050565b600081836123aa9190613ef2565b905092915050565b600081836123c09190613f4c565b905092915050565b8173ffffffffffffffffffffffffffffffffffffffff168373ffffffffffffffffffffffffffffffffffffffff161415612437576040517f08c379a000000000000000000000000000000000000000000000000000000000815260040161242e90613a94565b60405180910390fd5b80600560008573ffffffffffffffffffffffffffffffffffffffff1673ffffffffffffffffffffffffffffffffffffffff16815260200190815260200160002060008473ffffffffffffffffffffffffffffffffffffffff1673ffffffffffffffffffffffffffffffffffffffff16815260200190815260200160002060006101000a81548160ff0219169083151502179055508173ffffffffffffffffffffffffffffffffffffffff168373ffffffffffffffffffffffffffffffffffffffff167f17307eab39ab6107e8899845ad3d59bd9653f200f220920489ca2b5937696c31836040516125289190613987565b60405180910390a3505050565b612540848484611f45565b61254c84848484612ab3565b61258b576040517f08c379a000000000000000000000000000000000000000000000000000000000815260040161258290613a14565b60405180910390fd5b50505050565b606060008214156125d9576040518060400160405280600181526020017f30000000000000000000000000000000000000000000000000000000000000008152509050612739565b600082905060005b6000821461260b5780806125f4906140ab565b915050600a826126049190613ec1565b91506125e1565b60008167ffffffffffffffff81111561264d577f4e487b7100000000000000000000000000000000000000000000000000000000600052604160045260246000fd5b6040519080825280601f01601f19166020018201604052801561267f5781602001600182028036833780820191505090505b5090505b60008514612732576001826126989190613f4c565b9150600a856126a791906140f4565b60306126b39190613e6b565b60f81b8183815181106126ef577f4e487b7100000000000000000000000000000000000000000000000000000000600052603260045260246000fd5b60200101907effffffffffffffffffffffffffffffffffffffffffffffffffffffffffffff1916908160001a905350600a8561272b9190613ec1565b9450612683565b8093505050505b919050565b600073ffffffffffffffffffffffffffffffffffffffff168273ffffffffffffffffffffffffffffffffffffffff1614156127ae576040517f08c379a00000000000000000000000000000000000000000000000000000000081526004016127a590613b74565b60405180910390fd5b6127b781611d3a565b156127f7576040517f08c379a00000000000000000000000000000000000000000000000000000000081526004016127ee90613a54565b60405180910390fd5b61280360008383612976565b6001600360008473ffffffffffffffffffffffffffffffffffffffff1673ffffffffffffffffffffffffffffffffffffffff16815260200190815260200160002060008282546128539190613e6b565b92505081905550816002600083815260200190815260200160002060006101000a81548173ffffffffffffffffffffffffffffffffffffffff021916908373ffffffffffffffffffffffffffffffffffffffff160217905550808273ffffffffffffffffffffffffffffffffffffffff16600073ffffffffffffffffffffffffffffffffffffffff167fddf252ad1be2c89b69c2b068fc378daa952ba7f163c4a11628f55a4df523b3ef60405160405180910390a45050565b60007f01ffc9a7000000000000000000000000000000000000000000000000000000007bffffffffffffffffffffffffffffffffffffffffffffffffffffffff1916827bffffffffffffffffffffffffffffffffffffffffffffffffffffffff1916149050919050565b612981838383612c4a565b600073ffffffffffffffffffffffffffffffffffffffff168373ffffffffffffffffffffffffffffffffffffffff1614156129c4576129bf81612c4f565b612a03565b8173ffffffffffffffffffffffffffffffffffffffff168373ffffffffffffffffffffffffffffffffffffffff1614612a0257612a018382612c98565b5b5b600073ffffffffffffffffffffffffffffffffffffffff168273ffffffffffffffffffffffffffffffffffffffff161415612a4657612a4181612e05565b612a85565b8273ffffffffffffffffffffffffffffffffffffffff168273ffffffffffffffffffffffffffffffffffffffff1614612a8457612a838282612f48565b5b5b505050565b60008151905060006a636f6e736f6c652e6c6f679050602083016000808483855afa5050505050565b6000612ad48473ffffffffffffffffffffffffffffffffffffffff16612fc7565b15612c3d578373ffffffffffffffffffffffffffffffffffffffff1663150b7a02612afd611da6565b8786866040518563ffffffff1660e01b8152600401612b1f9493929190613919565b602060405180830381600087803b158015612b3957600080fd5b505af1925050508015612b6a57506040513d601f19601f82011682018060405250810190612b6791906133a6565b60015b612bed573d8060008114612b9a576040519150601f19603f3d011682016040523d82523d6000602084013e612b9f565b606091505b50600081511415612be5576040517f08c379a0000000000000000000000000000000000000000000000000000000008152600401612bdc90613a14565b60405180910390fd5b805181602001fd5b63150b7a0260e01b7bffffffffffffffffffffffffffffffffffffffffffffffffffffffff1916817bffffffffffffffffffffffffffffffffffffffffffffffffffffffff191614915050612c42565b600190505b949350505050565b505050565b6008805490506009600083815260200190815260200160002081905550600881908060018154018082558091505060019003906000526020600020016000909190919091505550565b60006001612ca584610db7565b612caf9190613f4c565b9050600060076000848152602001908152602001600020549050818114612d94576000600660008673ffffffffffffffffffffffffffffffffffffffff1673ffffffffffffffffffffffffffffffffffffffff168152602001908152602001600020600084815260200190815260200160002054905080600660008773ffffffffffffffffffffffffffffffffffffffff1673ffffffffffffffffffffffffffffffffffffffff168152602001908152602001600020600084815260200190815260200160002081905550816007600083815260200190815260200160002081905550505b6007600084815260200190815260200160002060009055600660008573ffffffffffffffffffffffffffffffffffffffff1673ffffffffffffffffffffffffffffffffffffffff16815260200190815260200160002060008381526020019081526020016000206000905550505050565b60006001600880549050612e199190613f4c565b9050600060096000848152602001908152602001600020549050600060088381548110612e6f577f4e487b7100000000000000000000000000000000000000000000000000000000600052603260045260246000fd5b906000526020600020015490508060088381548110612eb7577f4e487b7100000000000000000000000000000000000000000000000000000000600052603260045260246000fd5b906000526020600020018190555081600960008381526020019081526020016000208190555060096000858152602001908152602001600020600090556008805480612f2c577f4e487b7100000000000000000000000000000000000000000000000000000000600052603160045260246000fd5b6001900381819060005260206000200160009055905550505050565b6000612f5383610db7565b905081600660008573ffffffffffffffffffffffffffffffffffffffff1673ffffffffffffffffffffffffffffffffffffffff168152602001908152602001600020600083815260200190815260200160002081905550806007600084815260200190815260200160002081905550505050565b600080823b905060008111915050919050565b828054612fe690614048565b90600052602060002090601f016020900481019282613008576000855561304f565b82601f1061302157803560ff191683800117855561304f565b8280016001018555821561304f579182015b8281111561304e578235825591602001919060010190613033565b5b50905061305c9190613060565b5090565b5b80821115613079576000816000905550600101613061565b5090565b600061309061308b84613dbe565b613d99565b9050828152602081018484840111156130a857600080fd5b6130b3848285614006565b509392505050565b6000813590506130ca816148c2565b92915050565b6000813590506130df816148d9565b92915050565b6000813590506130f4816148f0565b92915050565b60008135905061310981614907565b92915050565b60008151905061311e81614907565b92915050565b600082601f83011261313557600080fd5b813561314584826020860161307d565b91505092915050565b60008083601f84011261316057600080fd5b8235905067ffffffffffffffff81111561317957600080fd5b60208301915083600182028301111561319157600080fd5b9250929050565b6000813590506131a78161491e565b92915050565b6000602082840312156131bf57600080fd5b60006131cd848285016130bb565b91505092915050565b6000602082840312156131e857600080fd5b60006131f6848285016130d0565b91505092915050565b6000806040838503121561321257600080fd5b6000613220858286016130bb565b9250506020613231858286016130bb565b9150509250929050565b60008060006060848603121561325057600080fd5b600061325e868287016130bb565b935050602061326f868287016130bb565b925050604061328086828701613198565b9150509250925092565b600080600080608085870312156132a057600080fd5b60006132ae878288016130bb565b94505060206132bf878288016130bb565b93505060406132d087828801613198565b925050606085013567ffffffffffffffff8111156132ed57600080fd5b6132f987828801613124565b91505092959194509250565b6000806040838503121561331857600080fd5b6000613326858286016130bb565b9250506020613337858286016130e5565b9150509250929050565b6000806040838503121561335457600080fd5b6000613362858286016130bb565b925050602061337385828601613198565b9150509250929050565b60006020828403121561338f57600080fd5b600061339d848285016130fa565b91505092915050565b6000602082840312156133b857600080fd5b60006133c68482850161310f565b91505092915050565b600080602083850312156133e257600080fd5b600083013567ffffffffffffffff8111156133fc57600080fd5b6134088582860161314e565b92509250509250929050565b60006020828403121561342657600080fd5b600061343484828501613198565b91505092915050565b600061344983836138bc565b60208301905092915050565b61345e81613f80565b82525050565b600061346f82613dff565b6134798185613e2d565b935061348483613def565b8060005b838110156134b557815161349c888261343d565b97506134a783613e20565b925050600181019050613488565b5085935050505092915050565b6134cb81613fa4565b82525050565b60006134dc82613e0a565b6134e68185613e3e565b93506134f6818560208601614015565b6134ff816141e1565b840191505092915050565b600061351582613e15565b61351f8185613e4f565b935061352f818560208601614015565b613538816141e1565b840191505092915050565b600061354e82613e15565b6135588185613e60565b9350613568818560208601614015565b80840191505092915050565b6000613581602b83613e4f565b915061358c826141f2565b604082019050919050565b60006135a4603283613e4f565b91506135af82614241565b604082019050919050565b60006135c7602683613e4f565b91506135d282614290565b604082019050919050565b60006135ea601c83613e4f565b91506135f5826142df565b602082019050919050565b600061360d602483613e4f565b915061361882614308565b604082019050919050565b6000613630601983613e4f565b915061363b82614357565b602082019050919050565b6000613653602c83613e4f565b915061365e82614380565b604082019050919050565b6000613676601783613e4f565b9150613681826143cf565b602082019050919050565b6000613699603883613e4f565b91506136a4826143f8565b604082019050919050565b60006136bc602a83613e4f565b91506136c782614447565b604082019050919050565b60006136df602983613e4f565b91506136ea82614496565b604082019050919050565b6000613702604483613e4f565b915061370d826144e5565b606082019050919050565b6000613725602083613e4f565b91506137308261455a565b602082019050919050565b6000613748602c83613e4f565b915061375382614583565b604082019050919050565b600061376b602e83613e4f565b9150613776826145d2565b604082019050919050565b600061378e602083613e4f565b915061379982614621565b602082019050919050565b60006137b1602983613e4f565b91506137bc8261464a565b604082019050919050565b60006137d4602f83613e4f565b91506137df82614699565b604082019050919050565b60006137f7602983613e4f565b9150613802826146e8565b604082019050919050565b600061381a602183613e4f565b915061382582614737565b604082019050919050565b600061383d603183613e4f565b915061384882614786565b604082019050919050565b6000613860602c83613e4f565b915061386b826147d5565b604082019050919050565b6000613883603083613e4f565b915061388e82614824565b604082019050919050565b60006138a6602183613e4f565b91506138b182614873565b604082019050919050565b6138c581613ffc565b82525050565b6138d481613ffc565b82525050565b60006138e68285613543565b91506138f28284613543565b91508190509392505050565b60006020820190506139136000830184613455565b92915050565b600060808201905061392e6000830187613455565b61393b6020830186613455565b61394860408301856138cb565b818103606083015261395a81846134d1565b905095945050505050565b6000602082019050818103600083015261397f8184613464565b905092915050565b600060208201905061399c60008301846134c2565b92915050565b600060208201905081810360008301526139bc818461350a565b905092915050565b600060408201905081810360008301526139de818561350a565b90506139ed60208301846138cb565b9392505050565b60006020820190508181036000830152613a0d81613574565b9050919050565b60006020820190508181036000830152613a2d81613597565b9050919050565b60006020820190508181036000830152613a4d816135ba565b9050919050565b60006020820190508181036000830152613a6d816135dd565b9050919050565b60006020820190508181036000830152613a8d81613600565b9050919050565b60006020820190508181036000830152613aad81613623565b9050919050565b60006020820190508181036000830152613acd81613646565b9050919050565b60006020820190508181036000830152613aed81613669565b9050919050565b60006020820190508181036000830152613b0d8161368c565b9050919050565b60006020820190508181036000830152613b2d816136af565b9050919050565b60006020820190508181036000830152613b4d816136d2565b9050919050565b60006020820190508181036000830152613b6d816136f5565b9050919050565b60006020820190508181036000830152613b8d81613718565b9050919050565b60006020820190508181036000830152613bad8161373b565b9050919050565b60006020820190508181036000830152613bcd8161375e565b9050919050565b60006020820190508181036000830152613bed81613781565b9050919050565b60006020820190508181036000830152613c0d816137a4565b9050919050565b60006020820190508181036000830152613c2d816137c7565b9050919050565b60006020820190508181036000830152613c4d816137ea565b9050919050565b60006020820190508181036000830152613c6d8161380d565b9050919050565b60006020820190508181036000830152613c8d81613830565b9050919050565b60006020820190508181036000830152613cad81613853565b9050919050565b60006020820190508181036000830152613ccd81613876565b9050919050565b60006020820190508181036000830152613ced81613899565b9050919050565b6000602082019050613d0960008301846138cb565b92915050565b6000604082019050613d2460008301856138cb565b613d316020830184613455565b9392505050565b600060c082019050613d4d60008301896138cb565b613d5a6020830188613455565b613d6760408301876138cb565b613d7460608301866138cb565b613d8160808301856138cb565b613d8e60a08301846138cb565b979650505050505050565b6000613da3613db4565b9050613daf828261407a565b919050565b6000604051905090565b600067ffffffffffffffff821115613dd957613dd86141b2565b5b613de2826141e1565b9050602081019050919050565b6000819050602082019050919050565b600081519050919050565b600081519050919050565b600081519050919050565b6000602082019050919050565b600082825260208201905092915050565b600082825260208201905092915050565b600082825260208201905092915050565b600081905092915050565b6000613e7682613ffc565b9150613e8183613ffc565b9250827fffffffffffffffffffffffffffffffffffffffffffffffffffffffffffffffff03821115613eb657613eb5614125565b5b828201905092915050565b6000613ecc82613ffc565b9150613ed783613ffc565b925082613ee757613ee6614154565b5b828204905092915050565b6000613efd82613ffc565b9150613f0883613ffc565b9250817fffffffffffffffffffffffffffffffffffffffffffffffffffffffffffffffff0483118215151615613f4157613f40614125565b5b828202905092915050565b6000613f5782613ffc565b9150613f6283613ffc565b925082821015613f7557613f74614125565b5b828203905092915050565b6000613f8b82613fdc565b9050919050565b6000613f9d82613fdc565b9050919050565b60008115159050919050565b60007fffffffff0000000000000000000000000000000000000000000000000000000082169050919050565b600073ffffffffffffffffffffffffffffffffffffffff82169050919050565b6000819050919050565b82818337600083830152505050565b60005b83811015614033578082015181840152602081019050614018565b83811115614042576000848401525b50505050565b6000600282049050600182168061406057607f821691505b6020821081141561407457614073614183565b5b50919050565b614083826141e1565b810181811067ffffffffffffffff821117156140a2576140a16141b2565b5b80604052505050565b60006140b682613ffc565b91507fffffffffffffffffffffffffffffffffffffffffffffffffffffffffffffffff8214156140e9576140e8614125565b5b600182019050919050565b60006140ff82613ffc565b915061410a83613ffc565b92508261411a57614119614154565b5b828206905092915050565b7f4e487b7100000000000000000000000000000000000000000000000000000000600052601160045260246000fd5b7f4e487b7100000000000000000000000000000000000000000000000000000000600052601260045260246000fd5b7f4e487b7100000000000000000000000000000000000000000000000000000000600052602260045260246000fd5b7f4e487b7100000000000000000000000000000000000000000000000000000000600052604160045260246000fd5b6000601f19601f8301169050919050565b7f455243373231456e756d657261626c653a206f776e657220696e646578206f7560008201527f74206f6620626f756e6473000000000000000000000000000000000000000000602082015250565b7f4552433732313a207472616e7366657220746f206e6f6e20455243373231526560008201527f63656976657220696d706c656d656e7465720000000000000000000000000000602082015250565b7f4f776e61626c653a206e6577206f776e657220697320746865207a65726f206160008201527f6464726573730000000000000000000000000000000000000000000000000000602082015250565b7f4552433732313a20746f6b656e20616c7265616479206d696e74656400000000600082015250565b7f4552433732313a207472616e7366657220746f20746865207a65726f2061646460008201527f7265737300000000000000000000000000000000000000000000000000000000602082015250565b7f4552433732313a20617070726f766520746f2063616c6c657200000000000000600082015250565b7f4552433732313a206f70657261746f7220717565727920666f72206e6f6e657860008201527f697374656e7420746f6b656e0000000000000000000000000000000000000000602082015250565b7f61756374696f6e20686173206e6f742073746172746564000000000000000000600082015250565b7f4552433732313a20617070726f76652063616c6c6572206973206e6f74206f7760008201527f6e6572206e6f7220617070726f76656420666f7220616c6c0000000000000000602082015250565b7f4552433732313a2062616c616e636520717565727920666f7220746865207a6560008201527f726f206164647265737300000000000000000000000000000000000000000000602082015250565b7f4552433732313a206f776e657220717565727920666f72206e6f6e657869737460008201527f656e7420746f6b656e0000000000000000000000000000000000000000000000602082015250565b7f466c79696e67466f726d6174696f6e733a206e73756666696369656e7420667560008201527f6e64732073656e742c20706c6561736520636865636b2063757272656e74207060208201527f7269636500000000000000000000000000000000000000000000000000000000604082015250565b7f4552433732313a206d696e7420746f20746865207a65726f2061646472657373600082015250565b7f4552433732313a20617070726f76656420717565727920666f72206e6f6e657860008201527f697374656e7420746f6b656e0000000000000000000000000000000000000000602082015250565b7f466c79696e67466f726d6174696f6e733a2072656465656d2077696e646f772060008201527f686173206e6f74206f70656e6564000000000000000000000000000000000000602082015250565b7f4f776e61626c653a2063616c6c6572206973206e6f7420746865206f776e6572600082015250565b7f4552433732313a207472616e73666572206f6620746f6b656e2074686174206960008201527f73206e6f74206f776e0000000000000000000000000000000000000000000000602082015250565b7f4552433732314d657461646174613a2055524920717565727920666f72206e6f60008201527f6e6578697374656e7420746f6b656e0000000000000000000000000000000000602082015250565b7f466c79696e67466f726d6174696f6e733a2061756374696f6e20686173206e6f60008201527f7420737461727465640000000000000000000000000000000000000000000000602082015250565b7f4552433732313a20617070726f76616c20746f2063757272656e74206f776e6560008201527f7200000000000000000000000000000000000000000000000000000000000000602082015250565b7f4552433732313a207472616e736665722063616c6c6572206973206e6f74206f60008201527f776e6572206e6f7220617070726f766564000000000000000000000000000000602082015250565b7f455243373231456e756d657261626c653a20676c6f62616c20696e646578206f60008201527f7574206f6620626f756e64730000000000000000000000000000000000000000602082015250565b7f4552433732314275726e61626c653a2063616c6c6572206973206e6f74206f7760008201527f6e6572206e6f7220617070726f76656400000000000000000000000000000000602082015250565b7f466c79696e67466f726d6174696f6e733a20696e76616c696420746f6b656e4960008201527f6400000000000000000000000000000000000000000000000000000000000000602082015250565b6148cb81613f80565b81146148d657600080fd5b50565b6148e281613f92565b81146148ed57600080fd5b50565b6148f981613fa4565b811461490457600080fd5b50565b61491081613fb0565b811461491b57600080fd5b50565b61492781613ffc565b811461493257600080fd5b5056fea26469706673582212208c5385ec2d906bb443353cd85b872c4fde3665392c73ffae365847cadd30191064736f6c63430008040033",
  "devdoc": {
    "kind": "dev",
    "methods": {
      "approve(address,uint256)": {
        "details": "See {IERC721-approve}."
      },
      "balanceOf(address)": {
        "details": "See {IERC721-balanceOf}."
      },
      "getApproved(uint256)": {
        "details": "See {IERC721-getApproved}."
      },
      "isApprovedForAll(address,address)": {
        "details": "See {IERC721-isApprovedForAll}."
      },
      "name()": {
        "details": "See {IERC721Metadata-name}."
      },
      "owner()": {
        "details": "Returns the address of the current owner."
      },
      "ownerOf(uint256)": {
        "details": "See {IERC721-ownerOf}."
      },
      "paused()": {
        "details": "Returns true if the contract is paused, and false otherwise."
      },
      "renounceOwnership()": {
        "details": "Leaves the contract without owner. It will not be possible to call `onlyOwner` functions anymore. Can only be called by the current owner. NOTE: Renouncing ownership will leave the contract without an owner, thereby removing any functionality that is only available to the owner."
      },
      "safeTransferFrom(address,address,uint256)": {
        "details": "See {IERC721-safeTransferFrom}."
      },
      "safeTransferFrom(address,address,uint256,bytes)": {
        "details": "See {IERC721-safeTransferFrom}."
      },
      "setApprovalForAll(address,bool)": {
        "details": "See {IERC721-setApprovalForAll}."
      },
      "supportsInterface(bytes4)": {
        "details": "See {IERC165-supportsInterface}."
      },
      "symbol()": {
        "details": "See {IERC721Metadata-symbol}."
      },
      "tokenByIndex(uint256)": {
        "details": "See {IERC721Enumerable-tokenByIndex}."
      },
      "tokenOfOwnerByIndex(address,uint256)": {
        "details": "See {IERC721Enumerable-tokenOfOwnerByIndex}."
      },
      "tokenURI(uint256)": {
        "details": "See {IERC721Metadata-tokenURI}."
      },
      "totalSupply()": {
        "details": "See {IERC721Enumerable-totalSupply}."
      },
      "transferFrom(address,address,uint256)": {
        "details": "See {IERC721-transferFrom}."
      },
      "transferOwnership(address)": {
        "details": "Transfers ownership of the contract to a new account (`newOwner`). Can only be called by the current owner."
      }
    },
    "version": 1
  },
  "userdoc": {
    "kind": "user",
    "methods": {},
    "version": 1
  },
  "storageLayout": {
    "storage": [
      {
        "astId": 222,
        "contract": "contracts/WaratahToken.sol:WaratahToken",
        "label": "_name",
        "offset": 0,
        "slot": "0",
        "type": "t_string_storage"
      },
      {
        "astId": 224,
        "contract": "contracts/WaratahToken.sol:WaratahToken",
        "label": "_symbol",
        "offset": 0,
        "slot": "1",
        "type": "t_string_storage"
      },
      {
        "astId": 228,
        "contract": "contracts/WaratahToken.sol:WaratahToken",
        "label": "_owners",
        "offset": 0,
        "slot": "2",
        "type": "t_mapping(t_uint256,t_address)"
      },
      {
        "astId": 232,
        "contract": "contracts/WaratahToken.sol:WaratahToken",
        "label": "_balances",
        "offset": 0,
        "slot": "3",
        "type": "t_mapping(t_address,t_uint256)"
      },
      {
        "astId": 236,
        "contract": "contracts/WaratahToken.sol:WaratahToken",
        "label": "_tokenApprovals",
        "offset": 0,
        "slot": "4",
        "type": "t_mapping(t_uint256,t_address)"
      },
      {
        "astId": 242,
        "contract": "contracts/WaratahToken.sol:WaratahToken",
        "label": "_operatorApprovals",
        "offset": 0,
        "slot": "5",
        "type": "t_mapping(t_address,t_mapping(t_address,t_bool))"
      },
      {
        "astId": 1176,
        "contract": "contracts/WaratahToken.sol:WaratahToken",
        "label": "_ownedTokens",
        "offset": 0,
        "slot": "6",
        "type": "t_mapping(t_address,t_mapping(t_uint256,t_uint256))"
      },
      {
        "astId": 1180,
        "contract": "contracts/WaratahToken.sol:WaratahToken",
        "label": "_ownedTokensIndex",
        "offset": 0,
        "slot": "7",
        "type": "t_mapping(t_uint256,t_uint256)"
      },
      {
        "astId": 1183,
        "contract": "contracts/WaratahToken.sol:WaratahToken",
        "label": "_allTokens",
        "offset": 0,
        "slot": "8",
        "type": "t_array(t_uint256)dyn_storage"
      },
      {
        "astId": 1187,
        "contract": "contracts/WaratahToken.sol:WaratahToken",
        "label": "_allTokensIndex",
        "offset": 0,
        "slot": "9",
        "type": "t_mapping(t_uint256,t_uint256)"
      },
      {
        "astId": 7,
        "contract": "contracts/WaratahToken.sol:WaratahToken",
        "label": "_owner",
        "offset": 0,
        "slot": "10",
        "type": "t_address"
      },
      {
        "astId": 122,
        "contract": "contracts/WaratahToken.sol:WaratahToken",
        "label": "_paused",
        "offset": 20,
        "slot": "10",
        "type": "t_bool"
      },
      {
        "astId": 2470,
        "contract": "contracts/WaratahToken.sol:WaratahToken",
        "label": "eth",
        "offset": 0,
        "slot": "11",
        "type": "t_uint256"
      },
      {
        "astId": 2473,
        "contract": "contracts/WaratahToken.sol:WaratahToken",
        "label": "hrs",
        "offset": 0,
        "slot": "12",
        "type": "t_uint256"
      },
      {
        "astId": 2480,
        "contract": "contracts/WaratahToken.sol:WaratahToken",
        "label": "price1",
        "offset": 0,
        "slot": "13",
        "type": "t_uint256"
      },
      {
        "astId": 2485,
        "contract": "contracts/WaratahToken.sol:WaratahToken",
        "label": "stage1",
        "offset": 0,
        "slot": "14",
        "type": "t_uint256"
      },
      {
        "astId": 2490,
        "contract": "contracts/WaratahToken.sol:WaratahToken",
        "label": "price2",
        "offset": 0,
        "slot": "15",
        "type": "t_uint256"
      },
      {
        "astId": 2495,
        "contract": "contracts/WaratahToken.sol:WaratahToken",
        "label": "stage2",
        "offset": 0,
        "slot": "16",
        "type": "t_uint256"
      },
      {
        "astId": 2500,
        "contract": "contracts/WaratahToken.sol:WaratahToken",
        "label": "floorPrice",
        "offset": 0,
        "slot": "17",
        "type": "t_uint256"
      },
      {
        "astId": 2509,
        "contract": "contracts/WaratahToken.sol:WaratahToken",
        "label": "priceDeductionRate1",
        "offset": 0,
        "slot": "18",
        "type": "t_uint256"
      },
      {
        "astId": 2518,
        "contract": "contracts/WaratahToken.sol:WaratahToken",
        "label": "priceDeductionRate2",
        "offset": 0,
        "slot": "19",
        "type": "t_uint256"
      },
      {
        "astId": 2520,
        "contract": "contracts/WaratahToken.sol:WaratahToken",
        "label": "saleStartsAt",
        "offset": 0,
        "slot": "20",
        "type": "t_uint256"
      },
      {
        "astId": 2522,
        "contract": "contracts/WaratahToken.sol:WaratahToken",
        "label": "redeemStartsAt",
        "offset": 0,
        "slot": "21",
        "type": "t_uint256"
      },
      {
        "astId": 2524,
        "contract": "contracts/WaratahToken.sol:WaratahToken",
        "label": "sneakerBaseURI",
        "offset": 0,
        "slot": "22",
        "type": "t_string_storage"
      },
      {
        "astId": 2526,
        "contract": "contracts/WaratahToken.sol:WaratahToken",
        "label": "standardBaseURI",
        "offset": 0,
        "slot": "23",
        "type": "t_string_storage"
      },
      {
        "astId": 2530,
        "contract": "contracts/WaratahToken.sol:WaratahToken",
        "label": "sneakerRedeemedBy",
        "offset": 0,
        "slot": "24",
        "type": "t_mapping(t_uint256,t_address)"
      },
      {
        "astId": 2532,
        "contract": "contracts/WaratahToken.sol:WaratahToken",
        "label": "teamParticipantsWallet",
        "offset": 0,
        "slot": "25",
        "type": "t_address_payable"
      },
      {
        "astId": 2534,
        "contract": "contracts/WaratahToken.sol:WaratahToken",
        "label": "ducksWallet",
        "offset": 0,
        "slot": "26",
        "type": "t_address_payable"
      },
      {
        "astId": 2536,
        "contract": "contracts/WaratahToken.sol:WaratahToken",
        "label": "divisionStreetWallet",
        "offset": 0,
        "slot": "27",
        "type": "t_address_payable"
      }
    ],
    "types": {
      "t_address": {
        "encoding": "inplace",
        "label": "address",
        "numberOfBytes": "20"
      },
      "t_address_payable": {
        "encoding": "inplace",
        "label": "address payable",
        "numberOfBytes": "20"
      },
      "t_array(t_uint256)dyn_storage": {
        "base": "t_uint256",
        "encoding": "dynamic_array",
        "label": "uint256[]",
        "numberOfBytes": "32"
      },
      "t_bool": {
        "encoding": "inplace",
        "label": "bool",
        "numberOfBytes": "1"
      },
      "t_mapping(t_address,t_bool)": {
        "encoding": "mapping",
        "key": "t_address",
        "label": "mapping(address => bool)",
        "numberOfBytes": "32",
        "value": "t_bool"
      },
      "t_mapping(t_address,t_mapping(t_address,t_bool))": {
        "encoding": "mapping",
        "key": "t_address",
        "label": "mapping(address => mapping(address => bool))",
        "numberOfBytes": "32",
        "value": "t_mapping(t_address,t_bool)"
      },
      "t_mapping(t_address,t_mapping(t_uint256,t_uint256))": {
        "encoding": "mapping",
        "key": "t_address",
        "label": "mapping(address => mapping(uint256 => uint256))",
        "numberOfBytes": "32",
        "value": "t_mapping(t_uint256,t_uint256)"
      },
      "t_mapping(t_address,t_uint256)": {
        "encoding": "mapping",
        "key": "t_address",
        "label": "mapping(address => uint256)",
        "numberOfBytes": "32",
        "value": "t_uint256"
      },
      "t_mapping(t_uint256,t_address)": {
        "encoding": "mapping",
        "key": "t_uint256",
        "label": "mapping(uint256 => address)",
        "numberOfBytes": "32",
        "value": "t_address"
      },
      "t_mapping(t_uint256,t_uint256)": {
        "encoding": "mapping",
        "key": "t_uint256",
        "label": "mapping(uint256 => uint256)",
        "numberOfBytes": "32",
        "value": "t_uint256"
      },
      "t_string_storage": {
        "encoding": "bytes",
        "label": "string",
        "numberOfBytes": "32"
      },
      "t_uint256": {
        "encoding": "inplace",
        "label": "uint256",
        "numberOfBytes": "32"
      }
    }
  }
}