{
  "address": "0xa613Ba9D2BF0Ab4A051fa45543802350A8149347",
  "abi": [
    {
      "inputs": [
        {
          "internalType": "uint256",
          "name": "_saleStartsAt",
          "type": "uint256"
        },
        {
          "internalType": "uint256",
          "name": "_redeemStartsAt",
          "type": "uint256"
        },
        {
          "internalType": "string",
          "name": "_sneakerBaseURI",
          "type": "string"
        },
        {
          "internalType": "string",
          "name": "_standardBaseURI",
          "type": "string"
        },
        {
          "components": [
            {
              "internalType": "address",
              "name": "addr",
              "type": "address"
            },
            {
              "internalType": "uint256",
              "name": "tokenId",
              "type": "uint256"
            }
          ],
          "internalType": "struct FlyingFormations.Premint[]",
          "name": "premintEntries",
          "type": "tuple[]"
        },
        {
          "internalType": "address payable",
          "name": "_footballTeamWallet",
          "type": "address"
        },
        {
          "internalType": "address payable",
          "name": "_ducksWallet",
          "type": "address"
        },
        {
          "internalType": "address payable",
          "name": "_divisionStreetWallet",
          "type": "address"
        }
      ],
      "stateMutability": "nonpayable",
      "type": "constructor"
    },
    {
      "anonymous": false,
      "inputs": [
        {
          "indexed": true,
          "internalType": "address",
          "name": "owner",
          "type": "address"
        },
        {
          "indexed": true,
          "internalType": "address",
          "name": "approved",
          "type": "address"
        },
        {
          "indexed": true,
          "internalType": "uint256",
          "name": "tokenId",
          "type": "uint256"
        }
      ],
      "name": "Approval",
      "type": "event"
    },
    {
      "anonymous": false,
      "inputs": [
        {
          "indexed": true,
          "internalType": "address",
          "name": "owner",
          "type": "address"
        },
        {
          "indexed": true,
          "internalType": "address",
          "name": "operator",
          "type": "address"
        },
        {
          "indexed": false,
          "internalType": "bool",
          "name": "approved",
          "type": "bool"
        }
      ],
      "name": "ApprovalForAll",
      "type": "event"
    },
    {
      "anonymous": false,
      "inputs": [
        {
          "indexed": true,
          "internalType": "address",
          "name": "previousOwner",
          "type": "address"
        },
        {
          "indexed": true,
          "internalType": "address",
          "name": "newOwner",
          "type": "address"
        }
      ],
      "name": "OwnershipTransferred",
      "type": "event"
    },
    {
      "anonymous": false,
      "inputs": [
        {
          "indexed": false,
          "internalType": "address",
          "name": "account",
          "type": "address"
        }
      ],
      "name": "Paused",
      "type": "event"
    },
    {
      "anonymous": false,
      "inputs": [
        {
          "indexed": false,
          "internalType": "uint256",
          "name": "tokenId",
          "type": "uint256"
        },
        {
          "indexed": false,
          "internalType": "address",
          "name": "recipient",
          "type": "address"
        }
      ],
      "name": "SneakerRedeemed",
      "type": "event"
    },
    {
      "anonymous": false,
      "inputs": [
        {
          "indexed": false,
          "internalType": "uint256",
          "name": "tokenId",
          "type": "uint256"
        },
        {
          "indexed": false,
          "internalType": "address",
          "name": "recipient",
          "type": "address"
        },
        {
          "indexed": false,
          "internalType": "uint256",
          "name": "paid",
          "type": "uint256"
        },
        {
          "indexed": false,
          "internalType": "uint256",
          "name": "footballTeamReceives",
          "type": "uint256"
        },
        {
          "indexed": false,
          "internalType": "uint256",
          "name": "ducksReceives",
          "type": "uint256"
        },
        {
          "indexed": false,
          "internalType": "uint256",
          "name": "divisionStreetReceives",
          "type": "uint256"
        }
      ],
      "name": "TokenBought",
      "type": "event"
    },
    {
      "anonymous": false,
      "inputs": [
        {
          "indexed": true,
          "internalType": "address",
          "name": "from",
          "type": "address"
        },
        {
          "indexed": true,
          "internalType": "address",
          "name": "to",
          "type": "address"
        },
        {
          "indexed": true,
          "internalType": "uint256",
          "name": "tokenId",
          "type": "uint256"
        }
      ],
      "name": "Transfer",
      "type": "event"
    },
    {
      "anonymous": false,
      "inputs": [
        {
          "indexed": false,
          "internalType": "address",
          "name": "account",
          "type": "address"
        }
      ],
      "name": "Unpaused",
      "type": "event"
    },
    {
      "inputs": [
        {
          "internalType": "address",
          "name": "to",
          "type": "address"
        },
        {
          "internalType": "uint256",
          "name": "tokenId",
          "type": "uint256"
        }
      ],
      "name": "approve",
      "outputs": [],
      "stateMutability": "nonpayable",
      "type": "function"
    },
    {
      "inputs": [
        {
          "internalType": "address",
          "name": "owner",
          "type": "address"
        }
      ],
      "name": "balanceOf",
      "outputs": [
        {
          "internalType": "uint256",
          "name": "",
          "type": "uint256"
        }
      ],
      "stateMutability": "view",
      "type": "function"
    },
    {
      "inputs": [
        {
          "internalType": "address",
          "name": "recipient",
          "type": "address"
        },
        {
          "internalType": "uint256",
          "name": "tokenId",
          "type": "uint256"
        }
      ],
      "name": "buy",
      "outputs": [],
      "stateMutability": "payable",
      "type": "function"
    },
    {
      "inputs": [],
      "name": "getAllTokens",
      "outputs": [
        {
          "internalType": "uint256[]",
          "name": "",
          "type": "uint256[]"
        }
      ],
      "stateMutability": "view",
      "type": "function"
    },
    {
      "inputs": [
        {
          "internalType": "uint256",
          "name": "tokenId",
          "type": "uint256"
        }
      ],
      "name": "getApproved",
      "outputs": [
        {
          "internalType": "address",
          "name": "",
          "type": "address"
        }
      ],
      "stateMutability": "view",
      "type": "function"
    },
    {
      "inputs": [],
      "name": "getPrice",
      "outputs": [
        {
          "internalType": "uint256",
          "name": "",
          "type": "uint256"
        }
      ],
      "stateMutability": "view",
      "type": "function"
    },
    {
      "inputs": [
        {
          "internalType": "address",
          "name": "owner",
          "type": "address"
        },
        {
          "internalType": "address",
          "name": "operator",
          "type": "address"
        }
      ],
      "name": "isApprovedForAll",
      "outputs": [
        {
          "internalType": "bool",
          "name": "",
          "type": "bool"
        }
      ],
      "stateMutability": "view",
      "type": "function"
    },
    {
      "inputs": [],
      "name": "name",
      "outputs": [
        {
          "internalType": "string",
          "name": "",
          "type": "string"
        }
      ],
      "stateMutability": "view",
      "type": "function"
    },
    {
      "inputs": [],
      "name": "owner",
      "outputs": [
        {
          "internalType": "address",
          "name": "",
          "type": "address"
        }
      ],
      "stateMutability": "view",
      "type": "function"
    },
    {
      "inputs": [
        {
          "internalType": "uint256",
          "name": "tokenId",
          "type": "uint256"
        }
      ],
      "name": "ownerOf",
      "outputs": [
        {
          "internalType": "address",
          "name": "",
          "type": "address"
        }
      ],
      "stateMutability": "view",
      "type": "function"
    },
    {
      "inputs": [],
      "name": "paused",
      "outputs": [
        {
          "internalType": "bool",
          "name": "",
          "type": "bool"
        }
      ],
      "stateMutability": "view",
      "type": "function"
    },
    {
      "inputs": [
        {
          "internalType": "uint256",
          "name": "tokenId",
          "type": "uint256"
        }
      ],
      "name": "redeem",
      "outputs": [],
      "stateMutability": "nonpayable",
      "type": "function"
    },
    {
      "inputs": [],
      "name": "renounceOwnership",
      "outputs": [],
      "stateMutability": "nonpayable",
      "type": "function"
    },
    {
      "inputs": [
        {
          "internalType": "address",
          "name": "from",
          "type": "address"
        },
        {
          "internalType": "address",
          "name": "to",
          "type": "address"
        },
        {
          "internalType": "uint256",
          "name": "tokenId",
          "type": "uint256"
        }
      ],
      "name": "safeTransferFrom",
      "outputs": [],
      "stateMutability": "nonpayable",
      "type": "function"
    },
    {
      "inputs": [
        {
          "internalType": "address",
          "name": "from",
          "type": "address"
        },
        {
          "internalType": "address",
          "name": "to",
          "type": "address"
        },
        {
          "internalType": "uint256",
          "name": "tokenId",
          "type": "uint256"
        },
        {
          "internalType": "bytes",
          "name": "_data",
          "type": "bytes"
        }
      ],
      "name": "safeTransferFrom",
      "outputs": [],
      "stateMutability": "nonpayable",
      "type": "function"
    },
    {
      "inputs": [
        {
          "internalType": "address",
          "name": "operator",
          "type": "address"
        },
        {
          "internalType": "bool",
          "name": "approved",
          "type": "bool"
        }
      ],
      "name": "setApprovalForAll",
      "outputs": [],
      "stateMutability": "nonpayable",
      "type": "function"
    },
    {
      "inputs": [
        {
          "internalType": "uint256",
          "name": "",
          "type": "uint256"
        }
      ],
      "name": "sneakerRedeemedBy",
      "outputs": [
        {
          "internalType": "address",
          "name": "",
          "type": "address"
        }
      ],
      "stateMutability": "view",
      "type": "function"
    },
    {
      "inputs": [
        {
          "internalType": "bytes4",
          "name": "interfaceId",
          "type": "bytes4"
        }
      ],
      "name": "supportsInterface",
      "outputs": [
        {
          "internalType": "bool",
          "name": "",
          "type": "bool"
        }
      ],
      "stateMutability": "view",
      "type": "function"
    },
    {
      "inputs": [],
      "name": "symbol",
      "outputs": [
        {
          "internalType": "string",
          "name": "",
          "type": "string"
        }
      ],
      "stateMutability": "view",
      "type": "function"
    },
    {
      "inputs": [
        {
          "internalType": "uint256",
          "name": "index",
          "type": "uint256"
        }
      ],
      "name": "tokenByIndex",
      "outputs": [
        {
          "internalType": "uint256",
          "name": "",
          "type": "uint256"
        }
      ],
      "stateMutability": "view",
      "type": "function"
    },
    {
      "inputs": [
        {
          "internalType": "address",
          "name": "owner",
          "type": "address"
        },
        {
          "internalType": "uint256",
          "name": "index",
          "type": "uint256"
        }
      ],
      "name": "tokenOfOwnerByIndex",
      "outputs": [
        {
          "internalType": "uint256",
          "name": "",
          "type": "uint256"
        }
      ],
      "stateMutability": "view",
      "type": "function"
    },
    {
      "inputs": [
        {
          "internalType": "uint256",
          "name": "tokenId",
          "type": "uint256"
        }
      ],
      "name": "tokenURI",
      "outputs": [
        {
          "internalType": "string",
          "name": "",
          "type": "string"
        }
      ],
      "stateMutability": "view",
      "type": "function"
    },
    {
      "inputs": [],
      "name": "totalSupply",
      "outputs": [
        {
          "internalType": "uint256",
          "name": "",
          "type": "uint256"
        }
      ],
      "stateMutability": "view",
      "type": "function"
    },
    {
      "inputs": [
        {
          "internalType": "address",
          "name": "from",
          "type": "address"
        },
        {
          "internalType": "address",
          "name": "to",
          "type": "address"
        },
        {
          "internalType": "uint256",
          "name": "tokenId",
          "type": "uint256"
        }
      ],
      "name": "transferFrom",
      "outputs": [],
      "stateMutability": "nonpayable",
      "type": "function"
    },
    {
      "inputs": [
        {
          "internalType": "address",
          "name": "newOwner",
          "type": "address"
        }
      ],
      "name": "transferOwnership",
      "outputs": [],
      "stateMutability": "nonpayable",
      "type": "function"
    },
    {
      "inputs": [
        {
          "internalType": "string",
          "name": "__baseURI",
          "type": "string"
        }
      ],
      "name": "updateBaseURI",
      "outputs": [],
      "stateMutability": "nonpayable",
      "type": "function"
    },
    {
      "inputs": [
        {
          "internalType": "address payable",
          "name": "_wallet",
          "type": "address"
        }
      ],
      "name": "updateDivisionStreetWallet",
      "outputs": [],
      "stateMutability": "nonpayable",
      "type": "function"
    },
    {
      "inputs": [
        {
          "internalType": "address payable",
          "name": "_wallet",
          "type": "address"
        }
      ],
      "name": "updateDucksWallet",
      "outputs": [],
      "stateMutability": "nonpayable",
      "type": "function"
    },
    {
      "inputs": [
        {
          "internalType": "address payable",
          "name": "_wallet",
          "type": "address"
        }
      ],
      "name": "updateFootballTeamWallet",
      "outputs": [],
      "stateMutability": "nonpayable",
      "type": "function"
    },
    {
      "inputs": [
        {
          "internalType": "uint256",
          "name": "_saleStartsAt",
          "type": "uint256"
        }
      ],
      "name": "updateSaleStartsAt",
      "outputs": [],
      "stateMutability": "nonpayable",
      "type": "function"
    },
    {
      "inputs": [
        {
          "internalType": "string",
          "name": "__baseURI",
          "type": "string"
        }
      ],
      "name": "updateSneakerBaseURI",
      "outputs": [],
      "stateMutability": "nonpayable",
      "type": "function"
    }
  ],
  "transactionHash": "0x85cd5c386c1eca448f2e8e8b260c77e7310326bc21c6e4198eb1039e43273765",
  "args": [
    1644981175,
    1644981265,
    "ipfs://QmV1EWt7jde77gb3a9AiGR2Zk7LqfLMjc2GfAC6Qkfx5op/",
    "ipfs://QmV1EWt7jde77gb3a9AiGR2Zk7LqfLMjc2GfAC6Qkfx5op/",
    [],
    "0x4b8c87E697AD25994FD5c6BADD5A3e0e498ce9d1",
    "0x4b8c87E697AD25994FD5c6BADD5A3e0e498ce9d1",
    "0x4b8c87E697AD25994FD5c6BADD5A3e0e498ce9d1"
  ],
  "numDeployments": 1,
  "solcInputHash": "04b7f0d9cae08f1abd1ef0419a692e57",
  "bytecode": "0x6080604052662386f26fc10000600b55603c600c55600a600b54607d620000279190620012f3565b620000339190620012bb565b600d55600c546003620000479190620012f3565b600e55600b5460056200005b9190620012f3565b600f55600c5460096200006f9190620012f3565b601055600b546001620000839190620012f3565b601155620000b3600e54600f54600d546200009f919062001354565b620004a160201b62001d0d1790919060201c565b601255620000e3601054601154600f54620000cf919062001354565b620004a160201b62001d0d1790919060201c565b601355348015620000f357600080fd5b50604051620061e4380380620061e4833981810160405281019062000119919062000fd6565b6040518060400160405280601181526020017f466c79696e6720466f726d6174696f6e730000000000000000000000000000008152506040518060400160405280600381526020017f464654000000000000000000000000000000000000000000000000000000000081525081600090805190602001906200019d92919062000d7a565b508060019080519060200190620001b692919062000d7a565b505050620001d9620001cd620004b960201b60201c565b620004c160201b60201c565b6000600a60146101000a81548160ff021916908315150217905550876014819055508660158190555085601690805190602001906200021a92919062000d7a565b5084601790805190602001906200023392919062000d7a565b5060005b8451811015620003cf57620002dd8582815181106200027f577f4e487b7100000000000000000000000000000000000000000000000000000000600052603260045260246000fd5b602002602001015160000151868381518110620002c5577f4e487b7100000000000000000000000000000000000000000000000000000000600052603260045260246000fd5b6020026020010151602001516200058760201b60201c565b84818151811062000317577f4e487b7100000000000000000000000000000000000000000000000000000000600052603260045260246000fd5b6020026020010151600001516018600087848151811062000361577f4e487b7100000000000000000000000000000000000000000000000000000000600052603260045260246000fd5b602002602001015160200151815260200190815260200160002060006101000a81548173ffffffffffffffffffffffffffffffffffffffff021916908373ffffffffffffffffffffffffffffffffffffffff1602179055508080620003c69062001483565b91505062000237565b5082601960006101000a81548173ffffffffffffffffffffffffffffffffffffffff021916908373ffffffffffffffffffffffffffffffffffffffff16021790555081601a60006101000a81548173ffffffffffffffffffffffffffffffffffffffff021916908373ffffffffffffffffffffffffffffffffffffffff16021790555080601b60006101000a81548173ffffffffffffffffffffffffffffffffffffffff021916908373ffffffffffffffffffffffffffffffffffffffff16021790555050505050505050506200168d565b60008183620004b19190620012bb565b905092915050565b600033905090565b6000600a60009054906101000a900473ffffffffffffffffffffffffffffffffffffffff16905081600a60006101000a81548173ffffffffffffffffffffffffffffffffffffffff021916908373ffffffffffffffffffffffffffffffffffffffff1602179055508173ffffffffffffffffffffffffffffffffffffffff168173ffffffffffffffffffffffffffffffffffffffff167f8be0079c531659141344cd1fd0a4f28419497f9722a3daafe3b4186f6b6457e060405160405180910390a35050565b600073ffffffffffffffffffffffffffffffffffffffff168273ffffffffffffffffffffffffffffffffffffffff161415620005fa576040517f08c379a0000000000000000000000000000000000000000000000000000000008152600401620005f1906200119d565b60405180910390fd5b6200060b816200076d60201b60201c565b156200064e576040517f08c379a0000000000000000000000000000000000000000000000000000000008152600401620006459062001159565b60405180910390fd5b6200066260008383620007d960201b60201c565b6001600360008473ffffffffffffffffffffffffffffffffffffffff1673ffffffffffffffffffffffffffffffffffffffff1681526020019081526020016000206000828254620006b491906200125e565b92505081905550816002600083815260200190815260200160002060006101000a81548173ffffffffffffffffffffffffffffffffffffffff021916908373ffffffffffffffffffffffffffffffffffffffff160217905550808273ffffffffffffffffffffffffffffffffffffffff16600073ffffffffffffffffffffffffffffffffffffffff167fddf252ad1be2c89b69c2b068fc378daa952ba7f163c4a11628f55a4df523b3ef60405160405180910390a45050565b60008073ffffffffffffffffffffffffffffffffffffffff166002600084815260200190815260200160002060009054906101000a900473ffffffffffffffffffffffffffffffffffffffff1673ffffffffffffffffffffffffffffffffffffffff1614159050919050565b620007f18383836200092060201b62001d231760201c565b600073ffffffffffffffffffffffffffffffffffffffff168373ffffffffffffffffffffffffffffffffffffffff1614156200083e5762000838816200092560201b60201c565b62000886565b8173ffffffffffffffffffffffffffffffffffffffff168373ffffffffffffffffffffffffffffffffffffffff161462000885576200088483826200096e60201b60201c565b5b5b600073ffffffffffffffffffffffffffffffffffffffff168273ffffffffffffffffffffffffffffffffffffffff161415620008d357620008cd8162000aeb60201b60201c565b6200091b565b8273ffffffffffffffffffffffffffffffffffffffff168273ffffffffffffffffffffffffffffffffffffffff16146200091a5762000919828262000c3360201b60201c565b5b5b505050565b505050565b6008805490506009600083815260200190815260200160002081905550600881908060018154018082558091505060019003906000526020600020016000909190919091505550565b60006001620009888462000cbf60201b62000eee1760201c565b62000994919062001354565b905060006007600084815260200190815260200160002054905081811462000a7a576000600660008673ffffffffffffffffffffffffffffffffffffffff1673ffffffffffffffffffffffffffffffffffffffff168152602001908152602001600020600084815260200190815260200160002054905080600660008773ffffffffffffffffffffffffffffffffffffffff1673ffffffffffffffffffffffffffffffffffffffff168152602001908152602001600020600084815260200190815260200160002081905550816007600083815260200190815260200160002081905550505b6007600084815260200190815260200160002060009055600660008573ffffffffffffffffffffffffffffffffffffffff1673ffffffffffffffffffffffffffffffffffffffff16815260200190815260200160002060008381526020019081526020016000206000905550505050565b6000600160088054905062000b01919062001354565b905060006009600084815260200190815260200160002054905060006008838154811062000b58577f4e487b7100000000000000000000000000000000000000000000000000000000600052603260045260246000fd5b90600052602060002001549050806008838154811062000ba1577f4e487b7100000000000000000000000000000000000000000000000000000000600052603260045260246000fd5b90600052602060002001819055508160096000838152602001908152602001600020819055506009600085815260200190815260200160002060009055600880548062000c17577f4e487b7100000000000000000000000000000000000000000000000000000000600052603160045260246000fd5b6001900381819060005260206000200160009055905550505050565b600062000c4b8362000cbf60201b62000eee1760201c565b905081600660008573ffffffffffffffffffffffffffffffffffffffff1673ffffffffffffffffffffffffffffffffffffffff168152602001908152602001600020600083815260200190815260200160002081905550806007600084815260200190815260200160002081905550505050565b60008073ffffffffffffffffffffffffffffffffffffffff168273ffffffffffffffffffffffffffffffffffffffff16141562000d33576040517f08c379a000000000000000000000000000000000000000000000000000000000815260040162000d2a906200117b565b60405180910390fd5b600360008373ffffffffffffffffffffffffffffffffffffffff1673ffffffffffffffffffffffffffffffffffffffff168152602001908152602001600020549050919050565b82805462000d889062001417565b90600052602060002090601f01602090048101928262000dac576000855562000df8565b82601f1062000dc757805160ff191683800117855562000df8565b8280016001018555821562000df8579182015b8281111562000df757825182559160200191906001019062000dda565b5b50905062000e07919062000e0b565b5090565b5b8082111562000e2657600081600090555060010162000e0c565b5090565b600062000e4162000e3b84620011e8565b620011bf565b9050808382526020820190508285604086028201111562000e6157600080fd5b60005b8581101562000e95578162000e7a888262000f6c565b84526020840193506040830192505060018101905062000e64565b5050509392505050565b600062000eb662000eb08462001217565b620011bf565b90508281526020810184848401111562000ecf57600080fd5b62000edc848285620013e1565b509392505050565b60008151905062000ef5816200163f565b92915050565b60008151905062000f0c8162001659565b92915050565b600082601f83011262000f2457600080fd5b815162000f3684826020860162000e2a565b91505092915050565b600082601f83011262000f5157600080fd5b815162000f6384826020860162000e9f565b91505092915050565b60006040828403121562000f7f57600080fd5b62000f8b6040620011bf565b9050600062000f9d8482850162000ee4565b600083015250602062000fb38482850162000fbf565b60208301525092915050565b60008151905062000fd08162001673565b92915050565b600080600080600080600080610100898b03121562000ff457600080fd5b6000620010048b828c0162000fbf565b9850506020620010178b828c0162000fbf565b975050604089015167ffffffffffffffff8111156200103557600080fd5b620010438b828c0162000f3f565b965050606089015167ffffffffffffffff8111156200106157600080fd5b6200106f8b828c0162000f3f565b955050608089015167ffffffffffffffff8111156200108d57600080fd5b6200109b8b828c0162000f12565b94505060a0620010ae8b828c0162000efb565b93505060c0620010c18b828c0162000efb565b92505060e0620010d48b828c0162000efb565b9150509295985092959890939650565b6000620010f3601c836200124d565b915062001100826200159e565b602082019050919050565b60006200111a602a836200124d565b91506200112782620015c7565b604082019050919050565b6000620011416020836200124d565b91506200114e8262001616565b602082019050919050565b600060208201905081810360008301526200117481620010e4565b9050919050565b6000602082019050818103600083015262001196816200110b565b9050919050565b60006020820190508181036000830152620011b88162001132565b9050919050565b6000620011cb620011de565b9050620011d982826200144d565b919050565b6000604051905090565b600067ffffffffffffffff8211156200120657620012056200155e565b5b602082029050602081019050919050565b600067ffffffffffffffff8211156200123557620012346200155e565b5b62001240826200158d565b9050602081019050919050565b600082825260208201905092915050565b60006200126b82620013d7565b91506200127883620013d7565b9250827fffffffffffffffffffffffffffffffffffffffffffffffffffffffffffffffff03821115620012b057620012af620014d1565b5b828201905092915050565b6000620012c882620013d7565b9150620012d583620013d7565b925082620012e857620012e762001500565b5b828204905092915050565b60006200130082620013d7565b91506200130d83620013d7565b9250817fffffffffffffffffffffffffffffffffffffffffffffffffffffffffffffffff0483118215151615620013495762001348620014d1565b5b828202905092915050565b60006200136182620013d7565b91506200136e83620013d7565b925082821015620013845762001383620014d1565b5b828203905092915050565b60006200139c82620013b7565b9050919050565b6000620013b082620013b7565b9050919050565b600073ffffffffffffffffffffffffffffffffffffffff82169050919050565b6000819050919050565b60005b8381101562001401578082015181840152602081019050620013e4565b8381111562001411576000848401525b50505050565b600060028204905060018216806200143057607f821691505b602082108114156200144757620014466200152f565b5b50919050565b62001458826200158d565b810181811067ffffffffffffffff821117156200147a57620014796200155e565b5b80604052505050565b60006200149082620013d7565b91507fffffffffffffffffffffffffffffffffffffffffffffffffffffffffffffffff821415620014c657620014c5620014d1565b5b600182019050919050565b7f4e487b7100000000000000000000000000000000000000000000000000000000600052601160045260246000fd5b7f4e487b7100000000000000000000000000000000000000000000000000000000600052601260045260246000fd5b7f4e487b7100000000000000000000000000000000000000000000000000000000600052602260045260246000fd5b7f4e487b7100000000000000000000000000000000000000000000000000000000600052604160045260246000fd5b6000601f19601f8301169050919050565b7f4552433732313a20746f6b656e20616c7265616479206d696e74656400000000600082015250565b7f4552433732313a2062616c616e636520717565727920666f7220746865207a6560008201527f726f206164647265737300000000000000000000000000000000000000000000602082015250565b7f4552433732313a206d696e7420746f20746865207a65726f2061646472657373600082015250565b6200164a816200138f565b81146200165657600080fd5b50565b6200166481620013a3565b81146200167057600080fd5b50565b6200167e81620013d7565b81146200168a57600080fd5b50565b614b47806200169d6000396000f3fe6080604052600436106101d85760003560e01c8063715018a611610102578063c87b56dd11610095578063e985e9c511610064578063e985e9c5146106ab578063f2fde38b146106e8578063f74025cf14610711578063f77f0b991461074e576101d8565b8063c87b56dd14610600578063cce7ec131461063d578063d287f61914610659578063db006a7514610682576101d8565b806395d89b41116100d157806395d89b411461055857806398d5fdca14610583578063a22cb465146105ae578063b88d4fde146105d7576101d8565b8063715018a6146104c45780637cb5f678146104db5780638da5cb5b14610504578063931688cb1461052f576101d8565b80632a5c792a1161017a5780635c975abb116101495780635c975abb146103f65780635dd7b59d146104215780636352211e1461044a57806370a0823114610487576101d8565b80632a5c792a146103285780632f745c591461035357806342842e0e146103905780634f6ccce7146103b9576101d8565b8063095ea7b3116101b6578063095ea7b31461028257806318160ddd146102ab57806323b872dd146102d6578063264a5347146102ff576101d8565b806301ffc9a7146101dd57806306fdde031461021a578063081812fc14610245575b600080fd5b3480156101e957600080fd5b5061020460048036038101906101ff9190613448565b610777565b6040516102119190613aff565b60405180910390f35b34801561022657600080fd5b5061022f6107f1565b60405161023c9190613b1a565b60405180910390f35b34801561025157600080fd5b5061026c600480360381019061026791906134df565b610883565b6040516102799190613a76565b60405180910390f35b34801561028e57600080fd5b506102a960048036038101906102a4919061340c565b610908565b005b3480156102b757600080fd5b506102c0610a20565b6040516102cd9190613e6c565b60405180910390f35b3480156102e257600080fd5b506102fd60048036038101906102f89190613306565b610a2d565b005b34801561030b57600080fd5b50610326600480360381019061032191906132a1565b610a8d565b005b34801561033457600080fd5b5061033d610b4d565b60405161034a9190613add565b60405180910390f35b34801561035f57600080fd5b5061037a6004803603810190610375919061340c565b610c43565b6040516103879190613e6c565b60405180910390f35b34801561039c57600080fd5b506103b760048036038101906103b29190613306565b610ce8565b005b3480156103c557600080fd5b506103e060048036038101906103db91906134df565b610d08565b6040516103ed9190613e6c565b60405180910390f35b34801561040257600080fd5b5061040b610d9f565b6040516104189190613aff565b60405180910390f35b34801561042d57600080fd5b50610448600480360381019061044391906134df565b610db6565b005b34801561045657600080fd5b50610471600480360381019061046c91906134df565b610e3c565b60405161047e9190613a76565b60405180910390f35b34801561049357600080fd5b506104ae60048036038101906104a99190613278565b610eee565b6040516104bb9190613e6c565b60405180910390f35b3480156104d057600080fd5b506104d9610fa6565b005b3480156104e757600080fd5b5061050260048036038101906104fd91906132a1565b61102e565b005b34801561051057600080fd5b506105196110ee565b6040516105269190613a76565b60405180910390f35b34801561053b57600080fd5b506105566004803603810190610551919061349a565b611118565b005b34801561056457600080fd5b5061056d6111aa565b60405161057a9190613b1a565b60405180910390f35b34801561058f57600080fd5b5061059861123c565b6040516105a59190613e6c565b60405180910390f35b3480156105ba57600080fd5b506105d560048036038101906105d091906133d0565b611392565b005b3480156105e357600080fd5b506105fe60048036038101906105f99190613355565b6113a8565b005b34801561060c57600080fd5b50610627600480360381019061062291906134df565b61140a565b6040516106349190613b1a565b60405180910390f35b6106576004803603810190610652919061340c565b611521565b005b34801561066557600080fd5b50610680600480360381019061067b919061349a565b611809565b005b34801561068e57600080fd5b506106a960048036038101906106a491906134df565b61189b565b005b3480156106b757600080fd5b506106d260048036038101906106cd91906132ca565b611a8e565b6040516106df9190613aff565b60405180910390f35b3480156106f457600080fd5b5061070f600480360381019061070a9190613278565b611b22565b005b34801561071d57600080fd5b50610738600480360381019061073391906134df565b611c1a565b6040516107459190613a76565b60405180910390f35b34801561075a57600080fd5b50610775600480360381019061077091906132a1565b611c4d565b005b60007f780e9d63000000000000000000000000000000000000000000000000000000007bffffffffffffffffffffffffffffffffffffffffffffffffffffffff1916827bffffffffffffffffffffffffffffffffffffffffffffffffffffffff191614806107ea57506107e982611d28565b5b9050919050565b606060008054610800906141d5565b80601f016020809104026020016040519081016040528092919081815260200182805461082c906141d5565b80156108795780601f1061084e57610100808354040283529160200191610879565b820191906000526020600020905b81548152906001019060200180831161085c57829003601f168201915b5050505050905090565b600061088e82611e0a565b6108cd576040517f08c379a00000000000000000000000000000000000000000000000000000000081526004016108c490613cec565b60405180910390fd5b6004600083815260200190815260200160002060009054906101000a900473ffffffffffffffffffffffffffffffffffffffff169050919050565b600061091382610e3c565b90508073ffffffffffffffffffffffffffffffffffffffff168373ffffffffffffffffffffffffffffffffffffffff161415610984576040517f08c379a000000000000000000000000000000000000000000000000000000000815260040161097b90613dac565b60405180910390fd5b8073ffffffffffffffffffffffffffffffffffffffff166109a3611e76565b73ffffffffffffffffffffffffffffffffffffffff1614806109d257506109d1816109cc611e76565b611a8e565b5b610a11576040517f08c379a0000000000000000000000000000000000000000000000000000000008152600401610a0890613c6c565b60405180910390fd5b610a1b8383611e7e565b505050565b6000600880549050905090565b610a3e610a38611e76565b82611f37565b610a7d576040517f08c379a0000000000000000000000000000000000000000000000000000000008152600401610a7490613dcc565b60405180910390fd5b610a88838383612015565b505050565b610a95611e76565b73ffffffffffffffffffffffffffffffffffffffff16610ab36110ee565b73ffffffffffffffffffffffffffffffffffffffff1614610b09576040517f08c379a0000000000000000000000000000000000000000000000000000000008152600401610b0090613d2c565b60405180910390fd5b80601b60006101000a81548173ffffffffffffffffffffffffffffffffffffffff021916908373ffffffffffffffffffffffffffffffffffffffff16021790555050565b60606000610b59610a20565b905060008167ffffffffffffffff811115610b9d577f4e487b7100000000000000000000000000000000000000000000000000000000600052604160045260246000fd5b604051908082528060200260200182016040528015610bcb5781602001602082028036833780820191505090505b50905060005b82811015610c3a57610be281610d08565b828281518110610c1b577f4e487b7100000000000000000000000000000000000000000000000000000000600052603260045260246000fd5b6020026020010181815250508080610c3290614238565b915050610bd1565b50809250505090565b6000610c4e83610eee565b8210610c8f576040517f08c379a0000000000000000000000000000000000000000000000000000000008152600401610c8690613b6c565b60405180910390fd5b600660008473ffffffffffffffffffffffffffffffffffffffff1673ffffffffffffffffffffffffffffffffffffffff168152602001908152602001600020600083815260200190815260200160002054905092915050565b610d03838383604051806020016040528060008152506113a8565b505050565b6000610d12610a20565b8210610d53576040517f08c379a0000000000000000000000000000000000000000000000000000000008152600401610d4a90613dec565b60405180910390fd5b60088281548110610d8d577f4e487b7100000000000000000000000000000000000000000000000000000000600052603260045260246000fd5b90600052602060002001549050919050565b6000600a60149054906101000a900460ff16905090565b610dbe611e76565b73ffffffffffffffffffffffffffffffffffffffff16610ddc6110ee565b73ffffffffffffffffffffffffffffffffffffffff1614610e32576040517f08c379a0000000000000000000000000000000000000000000000000000000008152600401610e2990613d2c565b60405180910390fd5b8060148190555050565b6000806002600084815260200190815260200160002060009054906101000a900473ffffffffffffffffffffffffffffffffffffffff169050600073ffffffffffffffffffffffffffffffffffffffff168173ffffffffffffffffffffffffffffffffffffffff161415610ee5576040517f08c379a0000000000000000000000000000000000000000000000000000000008152600401610edc90613cac565b60405180910390fd5b80915050919050565b60008073ffffffffffffffffffffffffffffffffffffffff168273ffffffffffffffffffffffffffffffffffffffff161415610f5f576040517f08c379a0000000000000000000000000000000000000000000000000000000008152600401610f5690613c8c565b60405180910390fd5b600360008373ffffffffffffffffffffffffffffffffffffffff1673ffffffffffffffffffffffffffffffffffffffff168152602001908152602001600020549050919050565b610fae611e76565b73ffffffffffffffffffffffffffffffffffffffff16610fcc6110ee565b73ffffffffffffffffffffffffffffffffffffffff1614611022576040517f08c379a000000000000000000000000000000000000000000000000000000000815260040161101990613d2c565b60405180910390fd5b61102c6000612271565b565b611036611e76565b73ffffffffffffffffffffffffffffffffffffffff166110546110ee565b73ffffffffffffffffffffffffffffffffffffffff16146110aa576040517f08c379a00000000000000000000000000000000000000000000000000000000081526004016110a190613d2c565b60405180910390fd5b80601a60006101000a81548173ffffffffffffffffffffffffffffffffffffffff021916908373ffffffffffffffffffffffffffffffffffffffff16021790555050565b6000600a60009054906101000a900473ffffffffffffffffffffffffffffffffffffffff16905090565b611120611e76565b73ffffffffffffffffffffffffffffffffffffffff1661113e6110ee565b73ffffffffffffffffffffffffffffffffffffffff1614611194576040517f08c379a000000000000000000000000000000000000000000000000000000000815260040161118b90613d2c565b60405180910390fd5b8181601791906111a59291906130a5565b505050565b6060600180546111b9906141d5565b80601f01602080910402602001604051908101604052809291908181526020018280546111e5906141d5565b80156112325780601f1061120757610100808354040283529160200191611232565b820191906000526020600020905b81548152906001019060200180831161121557829003601f168201915b5050505050905090565b600061127c6040518060400160405280601081526020017f47657474696e672070726963652e2e2e00000000000000000000000000000000815250612337565b6014544210156112c1576040517f08c379a00000000000000000000000000000000000000000000000000000000081526004016112b890613d8c565b60405180910390fd5b6000601454426112d191906140d9565b90506113126040518060400160405280601381526020017f656c61707365642074696d652069733a20257300000000000000000000000000815250826123d0565b600e5481101561134d576113456113346012548361246c90919063ffffffff16565b600d5461248290919063ffffffff16565b91505061138f565b6010548110156113885761138061136f6013548361246c90919063ffffffff16565b600f5461248290919063ffffffff16565b91505061138f565b6011549150505b90565b6113a461139d611e76565b8383612498565b5050565b6113b96113b3611e76565b83611f37565b6113f8576040517f08c379a00000000000000000000000000000000000000000000000000000000081526004016113ef90613dcc565b60405180910390fd5b61140484848484612605565b50505050565b606061141582611e0a565b611454576040517f08c379a000000000000000000000000000000000000000000000000000000000815260040161144b90613d6c565b60405180910390fd5b600073ffffffffffffffffffffffffffffffffffffffff166018600084815260200190815260200160002060009054906101000a900473ffffffffffffffffffffffffffffffffffffffff1673ffffffffffffffffffffffffffffffffffffffff1614156114ee5760166114c783612661565b6040516020016114d8929190613a47565b604051602081830303815290604052905061151c565b60176114f983612661565b60405160200161150a929190613a47565b60405160208183030381529060405290505b919050565b601454421015611566576040517f08c379a000000000000000000000000000000000000000000000000000000000815260040161155d90613d8c565b60405180910390fd5b607881106115a9576040517f08c379a00000000000000000000000000000000000000000000000000000000081526004016115a090613e4c565b60405180910390fd5b60006115b361123c565b9050803410156115f8576040517f08c379a00000000000000000000000000000000000000000000000000000000081526004016115ef90613c4c565b60405180910390fd5b611602838361280e565b600061162d61271061161f611a5e3461246c90919063ffffffff16565b611d0d90919063ffffffff16565b9050600061165a61271061164c6103e83461246c90919063ffffffff16565b611d0d90919063ffffffff16565b9050600061168382611675853461248290919063ffffffff16565b61248290919063ffffffff16565b9050601960009054906101000a900473ffffffffffffffffffffffffffffffffffffffff1673ffffffffffffffffffffffffffffffffffffffff166108fc849081150290604051600060405180830381858888f193505050501580156116ed573d6000803e3d6000fd5b50601a60009054906101000a900473ffffffffffffffffffffffffffffffffffffffff1673ffffffffffffffffffffffffffffffffffffffff166108fc839081150290604051600060405180830381858888f19350505050158015611756573d6000803e3d6000fd5b50601b60009054906101000a900473ffffffffffffffffffffffffffffffffffffffff1673ffffffffffffffffffffffffffffffffffffffff166108fc829081150290604051600060405180830381858888f193505050501580156117bf573d6000803e3d6000fd5b507f4689c69f82cdf5b000bb00a84dd3258356c9997272fd94a9153e9d13a5b7c29a8587868686866040516117f996959493929190613eb0565b60405180910390a1505050505050565b611811611e76565b73ffffffffffffffffffffffffffffffffffffffff1661182f6110ee565b73ffffffffffffffffffffffffffffffffffffffff1614611885576040517f08c379a000000000000000000000000000000000000000000000000000000000815260040161187c90613d2c565b60405180910390fd5b8181601691906118969291906130a5565b505050565b6015544210156118e0576040517f08c379a00000000000000000000000000000000000000000000000000000000081526004016118d790613d0c565b60405180910390fd5b600073ffffffffffffffffffffffffffffffffffffffff166018600083815260200190815260200160002060009054906101000a900473ffffffffffffffffffffffffffffffffffffffff1673ffffffffffffffffffffffffffffffffffffffff1614611982576040517f08c379a000000000000000000000000000000000000000000000000000000000815260040161197990613e0c565b60405180910390fd5b61198b81610e3c565b73ffffffffffffffffffffffffffffffffffffffff163373ffffffffffffffffffffffffffffffffffffffff16146119f8576040517f08c379a00000000000000000000000000000000000000000000000000000000081526004016119ef90613e2c565b60405180910390fd5b611a0181610e3c565b6018600083815260200190815260200160002060006101000a81548173ffffffffffffffffffffffffffffffffffffffff021916908373ffffffffffffffffffffffffffffffffffffffff1602179055507fb7d04369b0951a44d17f7ed06b0f42dac0f3c7904020fe8c88970ad31bc63dab8133604051611a83929190613e87565b60405180910390a150565b6000600560008473ffffffffffffffffffffffffffffffffffffffff1673ffffffffffffffffffffffffffffffffffffffff16815260200190815260200160002060008373ffffffffffffffffffffffffffffffffffffffff1673ffffffffffffffffffffffffffffffffffffffff16815260200190815260200160002060009054906101000a900460ff16905092915050565b611b2a611e76565b73ffffffffffffffffffffffffffffffffffffffff16611b486110ee565b73ffffffffffffffffffffffffffffffffffffffff1614611b9e576040517f08c379a0000000000000000000000000000000000000000000000000000000008152600401611b9590613d2c565b60405180910390fd5b600073ffffffffffffffffffffffffffffffffffffffff168173ffffffffffffffffffffffffffffffffffffffff161415611c0e576040517f08c379a0000000000000000000000000000000000000000000000000000000008152600401611c0590613bac565b60405180910390fd5b611c1781612271565b50565b60186020528060005260406000206000915054906101000a900473ffffffffffffffffffffffffffffffffffffffff1681565b611c55611e76565b73ffffffffffffffffffffffffffffffffffffffff16611c736110ee565b73ffffffffffffffffffffffffffffffffffffffff1614611cc9576040517f08c379a0000000000000000000000000000000000000000000000000000000008152600401611cc090613d2c565b60405180910390fd5b80601960006101000a81548173ffffffffffffffffffffffffffffffffffffffff021916908373ffffffffffffffffffffffffffffffffffffffff16021790555050565b60008183611d1b919061404e565b905092915050565b505050565b60007f80ac58cd000000000000000000000000000000000000000000000000000000007bffffffffffffffffffffffffffffffffffffffffffffffffffffffff1916827bffffffffffffffffffffffffffffffffffffffffffffffffffffffff19161480611df357507f5b5e139f000000000000000000000000000000000000000000000000000000007bffffffffffffffffffffffffffffffffffffffffffffffffffffffff1916827bffffffffffffffffffffffffffffffffffffffffffffffffffffffff1916145b80611e035750611e02826129dc565b5b9050919050565b60008073ffffffffffffffffffffffffffffffffffffffff166002600084815260200190815260200160002060009054906101000a900473ffffffffffffffffffffffffffffffffffffffff1673ffffffffffffffffffffffffffffffffffffffff1614159050919050565b600033905090565b816004600083815260200190815260200160002060006101000a81548173ffffffffffffffffffffffffffffffffffffffff021916908373ffffffffffffffffffffffffffffffffffffffff160217905550808273ffffffffffffffffffffffffffffffffffffffff16611ef183610e3c565b73ffffffffffffffffffffffffffffffffffffffff167f8c5be1e5ebec7d5bd14f71427d1e84f3dd0314c0f7b2291e5b200ac8c7c3b92560405160405180910390a45050565b6000611f4282611e0a565b611f81576040517f08c379a0000000000000000000000000000000000000000000000000000000008152600401611f7890613c2c565b60405180910390fd5b6000611f8c83610e3c565b90508073ffffffffffffffffffffffffffffffffffffffff168473ffffffffffffffffffffffffffffffffffffffff161480611ffb57508373ffffffffffffffffffffffffffffffffffffffff16611fe384610883565b73ffffffffffffffffffffffffffffffffffffffff16145b8061200c575061200b8185611a8e565b5b91505092915050565b8273ffffffffffffffffffffffffffffffffffffffff1661203582610e3c565b73ffffffffffffffffffffffffffffffffffffffff161461208b576040517f08c379a000000000000000000000000000000000000000000000000000000000815260040161208290613d4c565b60405180910390fd5b600073ffffffffffffffffffffffffffffffffffffffff168273ffffffffffffffffffffffffffffffffffffffff1614156120fb576040517f08c379a00000000000000000000000000000000000000000000000000000000081526004016120f290613bec565b60405180910390fd5b612106838383612a46565b612111600082611e7e565b6001600360008573ffffffffffffffffffffffffffffffffffffffff1673ffffffffffffffffffffffffffffffffffffffff168152602001908152602001600020600082825461216191906140d9565b925050819055506001600360008473ffffffffffffffffffffffffffffffffffffffff1673ffffffffffffffffffffffffffffffffffffffff16815260200190815260200160002060008282546121b89190613ff8565b92505081905550816002600083815260200190815260200160002060006101000a81548173ffffffffffffffffffffffffffffffffffffffff021916908373ffffffffffffffffffffffffffffffffffffffff160217905550808273ffffffffffffffffffffffffffffffffffffffff168473ffffffffffffffffffffffffffffffffffffffff167fddf252ad1be2c89b69c2b068fc378daa952ba7f163c4a11628f55a4df523b3ef60405160405180910390a4505050565b6000600a60009054906101000a900473ffffffffffffffffffffffffffffffffffffffff16905081600a60006101000a81548173ffffffffffffffffffffffffffffffffffffffff021916908373ffffffffffffffffffffffffffffffffffffffff1602179055508173ffffffffffffffffffffffffffffffffffffffff168173ffffffffffffffffffffffffffffffffffffffff167f8be0079c531659141344cd1fd0a4f28419497f9722a3daafe3b4186f6b6457e060405160405180910390a35050565b6123cd8160405160240161234b9190613b1a565b6040516020818303038152906040527f41304fac000000000000000000000000000000000000000000000000000000007bffffffffffffffffffffffffffffffffffffffffffffffffffffffff19166020820180517bffffffffffffffffffffffffffffffffffffffffffffffffffffffff8381831617835250505050612b5a565b50565b61246882826040516024016123e6929190613b3c565b6040516020818303038152906040527f9710a9d0000000000000000000000000000000000000000000000000000000007bffffffffffffffffffffffffffffffffffffffffffffffffffffffff19166020820180517bffffffffffffffffffffffffffffffffffffffffffffffffffffffff8381831617835250505050612b5a565b5050565b6000818361247a919061407f565b905092915050565b6000818361249091906140d9565b905092915050565b8173ffffffffffffffffffffffffffffffffffffffff168373ffffffffffffffffffffffffffffffffffffffff161415612507576040517f08c379a00000000000000000000000000000000000000000000000000000000081526004016124fe90613c0c565b60405180910390fd5b80600560008573ffffffffffffffffffffffffffffffffffffffff1673ffffffffffffffffffffffffffffffffffffffff16815260200190815260200160002060008473ffffffffffffffffffffffffffffffffffffffff1673ffffffffffffffffffffffffffffffffffffffff16815260200190815260200160002060006101000a81548160ff0219169083151502179055508173ffffffffffffffffffffffffffffffffffffffff168373ffffffffffffffffffffffffffffffffffffffff167f17307eab39ab6107e8899845ad3d59bd9653f200f220920489ca2b5937696c31836040516125f89190613aff565b60405180910390a3505050565b612610848484612015565b61261c84848484612b83565b61265b576040517f08c379a000000000000000000000000000000000000000000000000000000000815260040161265290613b8c565b60405180910390fd5b50505050565b606060008214156126a9576040518060400160405280600181526020017f30000000000000000000000000000000000000000000000000000000000000008152509050612809565b600082905060005b600082146126db5780806126c490614238565b915050600a826126d4919061404e565b91506126b1565b60008167ffffffffffffffff81111561271d577f4e487b7100000000000000000000000000000000000000000000000000000000600052604160045260246000fd5b6040519080825280601f01601f19166020018201604052801561274f5781602001600182028036833780820191505090505b5090505b600085146128025760018261276891906140d9565b9150600a856127779190614281565b60306127839190613ff8565b60f81b8183815181106127bf577f4e487b7100000000000000000000000000000000000000000000000000000000600052603260045260246000fd5b60200101907effffffffffffffffffffffffffffffffffffffffffffffffffffffffffffff1916908160001a905350600a856127fb919061404e565b9450612753565b8093505050505b919050565b600073ffffffffffffffffffffffffffffffffffffffff168273ffffffffffffffffffffffffffffffffffffffff16141561287e576040517f08c379a000000000000000000000000000000000000000000000000000000000815260040161287590613ccc565b60405180910390fd5b61288781611e0a565b156128c7576040517f08c379a00000000000000000000000000000000000000000000000000000000081526004016128be90613bcc565b60405180910390fd5b6128d360008383612a46565b6001600360008473ffffffffffffffffffffffffffffffffffffffff1673ffffffffffffffffffffffffffffffffffffffff16815260200190815260200160002060008282546129239190613ff8565b92505081905550816002600083815260200190815260200160002060006101000a81548173ffffffffffffffffffffffffffffffffffffffff021916908373ffffffffffffffffffffffffffffffffffffffff160217905550808273ffffffffffffffffffffffffffffffffffffffff16600073ffffffffffffffffffffffffffffffffffffffff167fddf252ad1be2c89b69c2b068fc378daa952ba7f163c4a11628f55a4df523b3ef60405160405180910390a45050565b60007f01ffc9a7000000000000000000000000000000000000000000000000000000007bffffffffffffffffffffffffffffffffffffffffffffffffffffffff1916827bffffffffffffffffffffffffffffffffffffffffffffffffffffffff1916149050919050565b612a51838383611d23565b600073ffffffffffffffffffffffffffffffffffffffff168373ffffffffffffffffffffffffffffffffffffffff161415612a9457612a8f81612d1a565b612ad3565b8173ffffffffffffffffffffffffffffffffffffffff168373ffffffffffffffffffffffffffffffffffffffff1614612ad257612ad18382612d63565b5b5b600073ffffffffffffffffffffffffffffffffffffffff168273ffffffffffffffffffffffffffffffffffffffff161415612b1657612b1181612ed0565b612b55565b8273ffffffffffffffffffffffffffffffffffffffff168273ffffffffffffffffffffffffffffffffffffffff1614612b5457612b538282613013565b5b5b505050565b60008151905060006a636f6e736f6c652e6c6f679050602083016000808483855afa5050505050565b6000612ba48473ffffffffffffffffffffffffffffffffffffffff16613092565b15612d0d578373ffffffffffffffffffffffffffffffffffffffff1663150b7a02612bcd611e76565b8786866040518563ffffffff1660e01b8152600401612bef9493929190613a91565b602060405180830381600087803b158015612c0957600080fd5b505af1925050508015612c3a57506040513d601f19601f82011682018060405250810190612c379190613471565b60015b612cbd573d8060008114612c6a576040519150601f19603f3d011682016040523d82523d6000602084013e612c6f565b606091505b50600081511415612cb5576040517f08c379a0000000000000000000000000000000000000000000000000000000008152600401612cac90613b8c565b60405180910390fd5b805181602001fd5b63150b7a0260e01b7bffffffffffffffffffffffffffffffffffffffffffffffffffffffff1916817bffffffffffffffffffffffffffffffffffffffffffffffffffffffff191614915050612d12565b600190505b949350505050565b6008805490506009600083815260200190815260200160002081905550600881908060018154018082558091505060019003906000526020600020016000909190919091505550565b60006001612d7084610eee565b612d7a91906140d9565b9050600060076000848152602001908152602001600020549050818114612e5f576000600660008673ffffffffffffffffffffffffffffffffffffffff1673ffffffffffffffffffffffffffffffffffffffff168152602001908152602001600020600084815260200190815260200160002054905080600660008773ffffffffffffffffffffffffffffffffffffffff1673ffffffffffffffffffffffffffffffffffffffff168152602001908152602001600020600084815260200190815260200160002081905550816007600083815260200190815260200160002081905550505b6007600084815260200190815260200160002060009055600660008573ffffffffffffffffffffffffffffffffffffffff1673ffffffffffffffffffffffffffffffffffffffff16815260200190815260200160002060008381526020019081526020016000206000905550505050565b60006001600880549050612ee491906140d9565b9050600060096000848152602001908152602001600020549050600060088381548110612f3a577f4e487b7100000000000000000000000000000000000000000000000000000000600052603260045260246000fd5b906000526020600020015490508060088381548110612f82577f4e487b7100000000000000000000000000000000000000000000000000000000600052603260045260246000fd5b906000526020600020018190555081600960008381526020019081526020016000208190555060096000858152602001908152602001600020600090556008805480612ff7577f4e487b7100000000000000000000000000000000000000000000000000000000600052603160045260246000fd5b6001900381819060005260206000200160009055905550505050565b600061301e83610eee565b905081600660008573ffffffffffffffffffffffffffffffffffffffff1673ffffffffffffffffffffffffffffffffffffffff168152602001908152602001600020600083815260200190815260200160002081905550806007600084815260200190815260200160002081905550505050565b600080823b905060008111915050919050565b8280546130b1906141d5565b90600052602060002090601f0160209004810192826130d3576000855561311a565b82601f106130ec57803560ff191683800117855561311a565b8280016001018555821561311a579182015b828111156131195782358255916020019190600101906130fe565b5b509050613127919061312b565b5090565b5b8082111561314457600081600090555060010161312c565b5090565b600061315b61315684613f36565b613f11565b90508281526020810184848401111561317357600080fd5b61317e848285614193565b509392505050565b60008135905061319581614a9e565b92915050565b6000813590506131aa81614ab5565b92915050565b6000813590506131bf81614acc565b92915050565b6000813590506131d481614ae3565b92915050565b6000815190506131e981614ae3565b92915050565b600082601f83011261320057600080fd5b8135613210848260208601613148565b91505092915050565b60008083601f84011261322b57600080fd5b8235905067ffffffffffffffff81111561324457600080fd5b60208301915083600182028301111561325c57600080fd5b9250929050565b60008135905061327281614afa565b92915050565b60006020828403121561328a57600080fd5b600061329884828501613186565b91505092915050565b6000602082840312156132b357600080fd5b60006132c18482850161319b565b91505092915050565b600080604083850312156132dd57600080fd5b60006132eb85828601613186565b92505060206132fc85828601613186565b9150509250929050565b60008060006060848603121561331b57600080fd5b600061332986828701613186565b935050602061333a86828701613186565b925050604061334b86828701613263565b9150509250925092565b6000806000806080858703121561336b57600080fd5b600061337987828801613186565b945050602061338a87828801613186565b935050604061339b87828801613263565b925050606085013567ffffffffffffffff8111156133b857600080fd5b6133c4878288016131ef565b91505092959194509250565b600080604083850312156133e357600080fd5b60006133f185828601613186565b9250506020613402858286016131b0565b9150509250929050565b6000806040838503121561341f57600080fd5b600061342d85828601613186565b925050602061343e85828601613263565b9150509250929050565b60006020828403121561345a57600080fd5b6000613468848285016131c5565b91505092915050565b60006020828403121561348357600080fd5b6000613491848285016131da565b91505092915050565b600080602083850312156134ad57600080fd5b600083013567ffffffffffffffff8111156134c757600080fd5b6134d385828601613219565b92509250509250929050565b6000602082840312156134f157600080fd5b60006134ff84828501613263565b91505092915050565b60006135148383613a29565b60208301905092915050565b6135298161410d565b82525050565b600061353a82613f8c565b6135448185613fba565b935061354f83613f67565b8060005b838110156135805781516135678882613508565b975061357283613fad565b925050600181019050613553565b5085935050505092915050565b61359681614131565b82525050565b60006135a782613f97565b6135b18185613fcb565b93506135c18185602086016141a2565b6135ca8161436e565b840191505092915050565b60006135e082613fa2565b6135ea8185613fdc565b93506135fa8185602086016141a2565b6136038161436e565b840191505092915050565b600061361982613fa2565b6136238185613fed565b93506136338185602086016141a2565b80840191505092915050565b6000815461364c816141d5565b6136568186613fed565b945060018216600081146136715760018114613682576136b5565b60ff198316865281860193506136b5565b61368b85613f77565b60005b838110156136ad5781548189015260018201915060208101905061368e565b838801955050505b50505092915050565b60006136cb602b83613fdc565b91506136d68261437f565b604082019050919050565b60006136ee603283613fdc565b91506136f9826143ce565b604082019050919050565b6000613711602683613fdc565b915061371c8261441d565b604082019050919050565b6000613734601c83613fdc565b915061373f8261446c565b602082019050919050565b6000613757602483613fdc565b915061376282614495565b604082019050919050565b600061377a601983613fdc565b9150613785826144e4565b602082019050919050565b600061379d602c83613fdc565b91506137a88261450d565b604082019050919050565b60006137c0604583613fdc565b91506137cb8261455c565b606082019050919050565b60006137e3603883613fdc565b91506137ee826145d1565b604082019050919050565b6000613806602a83613fdc565b915061381182614620565b604082019050919050565b6000613829602983613fdc565b91506138348261466f565b604082019050919050565b600061384c602083613fdc565b9150613857826146be565b602082019050919050565b600061386f602c83613fdc565b915061387a826146e7565b604082019050919050565b6000613892600583613fed565b915061389d82614736565b600582019050919050565b60006138b5602e83613fdc565b91506138c08261475f565b604082019050919050565b60006138d8602083613fdc565b91506138e3826147ae565b602082019050919050565b60006138fb602983613fdc565b9150613906826147d7565b604082019050919050565b600061391e602f83613fdc565b915061392982614826565b604082019050919050565b6000613941602983613fdc565b915061394c82614875565b604082019050919050565b6000613964602183613fdc565b915061396f826148c4565b604082019050919050565b6000613987603183613fdc565b915061399282614913565b604082019050919050565b60006139aa602c83613fdc565b91506139b582614962565b604082019050919050565b60006139cd603383613fdc565b91506139d8826149b1565b604082019050919050565b60006139f0602583613fdc565b91506139fb82614a00565b604082019050919050565b6000613a13602183613fdc565b9150613a1e82614a4f565b604082019050919050565b613a3281614189565b82525050565b613a4181614189565b82525050565b6000613a53828561363f565b9150613a5f828461360e565b9150613a6a82613885565b91508190509392505050565b6000602082019050613a8b6000830184613520565b92915050565b6000608082019050613aa66000830187613520565b613ab36020830186613520565b613ac06040830185613a38565b8181036060830152613ad2818461359c565b905095945050505050565b60006020820190508181036000830152613af7818461352f565b905092915050565b6000602082019050613b14600083018461358d565b92915050565b60006020820190508181036000830152613b3481846135d5565b905092915050565b60006040820190508181036000830152613b5681856135d5565b9050613b656020830184613a38565b9392505050565b60006020820190508181036000830152613b85816136be565b9050919050565b60006020820190508181036000830152613ba5816136e1565b9050919050565b60006020820190508181036000830152613bc581613704565b9050919050565b60006020820190508181036000830152613be581613727565b9050919050565b60006020820190508181036000830152613c058161374a565b9050919050565b60006020820190508181036000830152613c258161376d565b9050919050565b60006020820190508181036000830152613c4581613790565b9050919050565b60006020820190508181036000830152613c65816137b3565b9050919050565b60006020820190508181036000830152613c85816137d6565b9050919050565b60006020820190508181036000830152613ca5816137f9565b9050919050565b60006020820190508181036000830152613cc58161381c565b9050919050565b60006020820190508181036000830152613ce58161383f565b9050919050565b60006020820190508181036000830152613d0581613862565b9050919050565b60006020820190508181036000830152613d25816138a8565b9050919050565b60006020820190508181036000830152613d45816138cb565b9050919050565b60006020820190508181036000830152613d65816138ee565b9050919050565b60006020820190508181036000830152613d8581613911565b9050919050565b60006020820190508181036000830152613da581613934565b9050919050565b60006020820190508181036000830152613dc581613957565b9050919050565b60006020820190508181036000830152613de58161397a565b9050919050565b60006020820190508181036000830152613e058161399d565b9050919050565b60006020820190508181036000830152613e25816139c0565b9050919050565b60006020820190508181036000830152613e45816139e3565b9050919050565b60006020820190508181036000830152613e6581613a06565b9050919050565b6000602082019050613e816000830184613a38565b92915050565b6000604082019050613e9c6000830185613a38565b613ea96020830184613520565b9392505050565b600060c082019050613ec56000830189613a38565b613ed26020830188613520565b613edf6040830187613a38565b613eec6060830186613a38565b613ef96080830185613a38565b613f0660a0830184613a38565b979650505050505050565b6000613f1b613f2c565b9050613f278282614207565b919050565b6000604051905090565b600067ffffffffffffffff821115613f5157613f5061433f565b5b613f5a8261436e565b9050602081019050919050565b6000819050602082019050919050565b60008190508160005260206000209050919050565b600081519050919050565b600081519050919050565b600081519050919050565b6000602082019050919050565b600082825260208201905092915050565b600082825260208201905092915050565b600082825260208201905092915050565b600081905092915050565b600061400382614189565b915061400e83614189565b9250827fffffffffffffffffffffffffffffffffffffffffffffffffffffffffffffffff03821115614043576140426142b2565b5b828201905092915050565b600061405982614189565b915061406483614189565b925082614074576140736142e1565b5b828204905092915050565b600061408a82614189565b915061409583614189565b9250817fffffffffffffffffffffffffffffffffffffffffffffffffffffffffffffffff04831182151516156140ce576140cd6142b2565b5b828202905092915050565b60006140e482614189565b91506140ef83614189565b925082821015614102576141016142b2565b5b828203905092915050565b600061411882614169565b9050919050565b600061412a82614169565b9050919050565b60008115159050919050565b60007fffffffff0000000000000000000000000000000000000000000000000000000082169050919050565b600073ffffffffffffffffffffffffffffffffffffffff82169050919050565b6000819050919050565b82818337600083830152505050565b60005b838110156141c05780820151818401526020810190506141a5565b838111156141cf576000848401525b50505050565b600060028204905060018216806141ed57607f821691505b6020821081141561420157614200614310565b5b50919050565b6142108261436e565b810181811067ffffffffffffffff8211171561422f5761422e61433f565b5b80604052505050565b600061424382614189565b91507fffffffffffffffffffffffffffffffffffffffffffffffffffffffffffffffff821415614276576142756142b2565b5b600182019050919050565b600061428c82614189565b915061429783614189565b9250826142a7576142a66142e1565b5b828206905092915050565b7f4e487b7100000000000000000000000000000000000000000000000000000000600052601160045260246000fd5b7f4e487b7100000000000000000000000000000000000000000000000000000000600052601260045260246000fd5b7f4e487b7100000000000000000000000000000000000000000000000000000000600052602260045260246000fd5b7f4e487b7100000000000000000000000000000000000000000000000000000000600052604160045260246000fd5b6000601f19601f8301169050919050565b7f455243373231456e756d657261626c653a206f776e657220696e646578206f7560008201527f74206f6620626f756e6473000000000000000000000000000000000000000000602082015250565b7f4552433732313a207472616e7366657220746f206e6f6e20455243373231526560008201527f63656976657220696d706c656d656e7465720000000000000000000000000000602082015250565b7f4f776e61626c653a206e6577206f776e657220697320746865207a65726f206160008201527f6464726573730000000000000000000000000000000000000000000000000000602082015250565b7f4552433732313a20746f6b656e20616c7265616479206d696e74656400000000600082015250565b7f4552433732313a207472616e7366657220746f20746865207a65726f2061646460008201527f7265737300000000000000000000000000000000000000000000000000000000602082015250565b7f4552433732313a20617070726f766520746f2063616c6c657200000000000000600082015250565b7f4552433732313a206f70657261746f7220717565727920666f72206e6f6e657860008201527f697374656e7420746f6b656e0000000000000000000000000000000000000000602082015250565b7f466c79696e67466f726d6174696f6e733a20696e73756666696369656e74206660008201527f756e64732073656e742c20706c6561736520636865636b2063757272656e742060208201527f7072696365000000000000000000000000000000000000000000000000000000604082015250565b7f4552433732313a20617070726f76652063616c6c6572206973206e6f74206f7760008201527f6e6572206e6f7220617070726f76656420666f7220616c6c0000000000000000602082015250565b7f4552433732313a2062616c616e636520717565727920666f7220746865207a6560008201527f726f206164647265737300000000000000000000000000000000000000000000602082015250565b7f4552433732313a206f776e657220717565727920666f72206e6f6e657869737460008201527f656e7420746f6b656e0000000000000000000000000000000000000000000000602082015250565b7f4552433732313a206d696e7420746f20746865207a65726f2061646472657373600082015250565b7f4552433732313a20617070726f76656420717565727920666f72206e6f6e657860008201527f697374656e7420746f6b656e0000000000000000000000000000000000000000602082015250565b7f2e6a736f6e000000000000000000000000000000000000000000000000000000600082015250565b7f466c79696e67466f726d6174696f6e733a2072656465656d2077696e646f772060008201527f686173206e6f74206f70656e6564000000000000000000000000000000000000602082015250565b7f4f776e61626c653a2063616c6c6572206973206e6f7420746865206f776e6572600082015250565b7f4552433732313a207472616e73666572206f6620746f6b656e2074686174206960008201527f73206e6f74206f776e0000000000000000000000000000000000000000000000602082015250565b7f4552433732314d657461646174613a2055524920717565727920666f72206e6f60008201527f6e6578697374656e7420746f6b656e0000000000000000000000000000000000602082015250565b7f466c79696e67466f726d6174696f6e733a2061756374696f6e20686173206e6f60008201527f7420737461727465640000000000000000000000000000000000000000000000602082015250565b7f4552433732313a20617070726f76616c20746f2063757272656e74206f776e6560008201527f7200000000000000000000000000000000000000000000000000000000000000602082015250565b7f4552433732313a207472616e736665722063616c6c6572206973206e6f74206f60008201527f776e6572206e6f7220617070726f766564000000000000000000000000000000602082015250565b7f455243373231456e756d657261626c653a20676c6f62616c20696e646578206f60008201527f7574206f6620626f756e64730000000000000000000000000000000000000000602082015250565b7f466c79696e67466f726d6174696f6e733a20746f6b656e2068617320616c726560008201527f616479206265656e65642072656465656d656400000000000000000000000000602082015250565b7f466c79696e67466f726d6174696f6e733a2063616c6c6572206973206e6f742060008201527f6f776e6572000000000000000000000000000000000000000000000000000000602082015250565b7f466c79696e67466f726d6174696f6e733a20696e76616c696420746f6b656e4960008201527f6400000000000000000000000000000000000000000000000000000000000000602082015250565b614aa78161410d565b8114614ab257600080fd5b50565b614abe8161411f565b8114614ac957600080fd5b50565b614ad581614131565b8114614ae057600080fd5b50565b614aec8161413d565b8114614af757600080fd5b50565b614b0381614189565b8114614b0e57600080fd5b5056fea264697066735822122070ed4d18f9ffdab5f11ba5d84fd8bcb76cf3a2358fea017e9cbece794fb4462764736f6c63430008040033",
  "devdoc": {
    "kind": "dev",
    "methods": {
      "approve(address,uint256)": {
        "details": "See {IERC721-approve}."
      },
      "balanceOf(address)": {
        "details": "See {IERC721-balanceOf}."
      },
      "getApproved(uint256)": {
        "details": "See {IERC721-getApproved}."
      },
      "isApprovedForAll(address,address)": {
        "details": "See {IERC721-isApprovedForAll}."
      },
      "name()": {
        "details": "See {IERC721Metadata-name}."
      },
      "owner()": {
        "details": "Returns the address of the current owner."
      },
      "ownerOf(uint256)": {
        "details": "See {IERC721-ownerOf}."
      },
      "paused()": {
        "details": "Returns true if the contract is paused, and false otherwise."
      },
      "renounceOwnership()": {
        "details": "Leaves the contract without owner. It will not be possible to call `onlyOwner` functions anymore. Can only be called by the current owner. NOTE: Renouncing ownership will leave the contract without an owner, thereby removing any functionality that is only available to the owner."
      },
      "safeTransferFrom(address,address,uint256)": {
        "details": "See {IERC721-safeTransferFrom}."
      },
      "safeTransferFrom(address,address,uint256,bytes)": {
        "details": "See {IERC721-safeTransferFrom}."
      },
      "setApprovalForAll(address,bool)": {
        "details": "See {IERC721-setApprovalForAll}."
      },
      "supportsInterface(bytes4)": {
        "details": "See {IERC165-supportsInterface}."
      },
      "symbol()": {
        "details": "See {IERC721Metadata-symbol}."
      },
      "tokenByIndex(uint256)": {
        "details": "See {IERC721Enumerable-tokenByIndex}."
      },
      "tokenOfOwnerByIndex(address,uint256)": {
        "details": "See {IERC721Enumerable-tokenOfOwnerByIndex}."
      },
      "tokenURI(uint256)": {
        "details": "See {IERC721Metadata-tokenURI}."
      },
      "totalSupply()": {
        "details": "See {IERC721Enumerable-totalSupply}."
      },
      "transferFrom(address,address,uint256)": {
        "details": "See {IERC721-transferFrom}."
      },
      "transferOwnership(address)": {
        "details": "Transfers ownership of the contract to a new account (`newOwner`). Can only be called by the current owner."
      }
    },
    "version": 1
  },
  "userdoc": {
    "kind": "user",
    "methods": {},
    "version": 1
  },
  "storageLayout": {
    "storage": [
      {
        "astId": 222,
        "contract": "contracts/FlyingFormations.sol:FlyingFormations",
        "label": "_name",
        "offset": 0,
        "slot": "0",
        "type": "t_string_storage"
      },
      {
        "astId": 224,
        "contract": "contracts/FlyingFormations.sol:FlyingFormations",
        "label": "_symbol",
        "offset": 0,
        "slot": "1",
        "type": "t_string_storage"
      },
      {
        "astId": 228,
        "contract": "contracts/FlyingFormations.sol:FlyingFormations",
        "label": "_owners",
        "offset": 0,
        "slot": "2",
        "type": "t_mapping(t_uint256,t_address)"
      },
      {
        "astId": 232,
        "contract": "contracts/FlyingFormations.sol:FlyingFormations",
        "label": "_balances",
        "offset": 0,
        "slot": "3",
        "type": "t_mapping(t_address,t_uint256)"
      },
      {
        "astId": 236,
        "contract": "contracts/FlyingFormations.sol:FlyingFormations",
        "label": "_tokenApprovals",
        "offset": 0,
        "slot": "4",
        "type": "t_mapping(t_uint256,t_address)"
      },
      {
        "astId": 242,
        "contract": "contracts/FlyingFormations.sol:FlyingFormations",
        "label": "_operatorApprovals",
        "offset": 0,
        "slot": "5",
        "type": "t_mapping(t_address,t_mapping(t_address,t_bool))"
      },
      {
        "astId": 1176,
        "contract": "contracts/FlyingFormations.sol:FlyingFormations",
        "label": "_ownedTokens",
        "offset": 0,
        "slot": "6",
        "type": "t_mapping(t_address,t_mapping(t_uint256,t_uint256))"
      },
      {
        "astId": 1180,
        "contract": "contracts/FlyingFormations.sol:FlyingFormations",
        "label": "_ownedTokensIndex",
        "offset": 0,
        "slot": "7",
        "type": "t_mapping(t_uint256,t_uint256)"
      },
      {
        "astId": 1183,
        "contract": "contracts/FlyingFormations.sol:FlyingFormations",
        "label": "_allTokens",
        "offset": 0,
        "slot": "8",
        "type": "t_array(t_uint256)dyn_storage"
      },
      {
        "astId": 1187,
        "contract": "contracts/FlyingFormations.sol:FlyingFormations",
        "label": "_allTokensIndex",
        "offset": 0,
        "slot": "9",
        "type": "t_mapping(t_uint256,t_uint256)"
      },
      {
        "astId": 7,
        "contract": "contracts/FlyingFormations.sol:FlyingFormations",
        "label": "_owner",
        "offset": 0,
        "slot": "10",
        "type": "t_address"
      },
      {
        "astId": 122,
        "contract": "contracts/FlyingFormations.sol:FlyingFormations",
        "label": "_paused",
        "offset": 20,
        "slot": "10",
        "type": "t_bool"
      },
      {
        "astId": 2470,
        "contract": "contracts/FlyingFormations.sol:FlyingFormations",
        "label": "eth",
        "offset": 0,
        "slot": "11",
        "type": "t_uint256"
      },
      {
        "astId": 2473,
        "contract": "contracts/FlyingFormations.sol:FlyingFormations",
        "label": "hrs",
        "offset": 0,
        "slot": "12",
        "type": "t_uint256"
      },
      {
        "astId": 2480,
        "contract": "contracts/FlyingFormations.sol:FlyingFormations",
        "label": "price1",
        "offset": 0,
        "slot": "13",
        "type": "t_uint256"
      },
      {
        "astId": 2485,
        "contract": "contracts/FlyingFormations.sol:FlyingFormations",
        "label": "stage1",
        "offset": 0,
        "slot": "14",
        "type": "t_uint256"
      },
      {
        "astId": 2490,
        "contract": "contracts/FlyingFormations.sol:FlyingFormations",
        "label": "price2",
        "offset": 0,
        "slot": "15",
        "type": "t_uint256"
      },
      {
        "astId": 2495,
        "contract": "contracts/FlyingFormations.sol:FlyingFormations",
        "label": "stage2",
        "offset": 0,
        "slot": "16",
        "type": "t_uint256"
      },
      {
        "astId": 2500,
        "contract": "contracts/FlyingFormations.sol:FlyingFormations",
        "label": "floorPrice",
        "offset": 0,
        "slot": "17",
        "type": "t_uint256"
      },
      {
        "astId": 2509,
        "contract": "contracts/FlyingFormations.sol:FlyingFormations",
        "label": "priceDeductionRate1",
        "offset": 0,
        "slot": "18",
        "type": "t_uint256"
      },
      {
        "astId": 2518,
        "contract": "contracts/FlyingFormations.sol:FlyingFormations",
        "label": "priceDeductionRate2",
        "offset": 0,
        "slot": "19",
        "type": "t_uint256"
      },
      {
        "astId": 2520,
        "contract": "contracts/FlyingFormations.sol:FlyingFormations",
        "label": "saleStartsAt",
        "offset": 0,
        "slot": "20",
        "type": "t_uint256"
      },
      {
        "astId": 2522,
        "contract": "contracts/FlyingFormations.sol:FlyingFormations",
        "label": "redeemStartsAt",
        "offset": 0,
        "slot": "21",
        "type": "t_uint256"
      },
      {
        "astId": 2524,
        "contract": "contracts/FlyingFormations.sol:FlyingFormations",
        "label": "sneakerBaseURI",
        "offset": 0,
        "slot": "22",
        "type": "t_string_storage"
      },
      {
        "astId": 2526,
        "contract": "contracts/FlyingFormations.sol:FlyingFormations",
        "label": "standardBaseURI",
        "offset": 0,
        "slot": "23",
        "type": "t_string_storage"
      },
      {
        "astId": 2535,
        "contract": "contracts/FlyingFormations.sol:FlyingFormations",
        "label": "sneakerRedeemedBy",
        "offset": 0,
        "slot": "24",
        "type": "t_mapping(t_uint256,t_address)"
      },
      {
        "astId": 2537,
        "contract": "contracts/FlyingFormations.sol:FlyingFormations",
        "label": "footballTeamWallet",
        "offset": 0,
        "slot": "25",
        "type": "t_address_payable"
      },
      {
        "astId": 2539,
        "contract": "contracts/FlyingFormations.sol:FlyingFormations",
        "label": "ducksWallet",
        "offset": 0,
        "slot": "26",
        "type": "t_address_payable"
      },
      {
        "astId": 2541,
        "contract": "contracts/FlyingFormations.sol:FlyingFormations",
        "label": "divisionStreetWallet",
        "offset": 0,
        "slot": "27",
        "type": "t_address_payable"
      }
    ],
    "types": {
      "t_address": {
        "encoding": "inplace",
        "label": "address",
        "numberOfBytes": "20"
      },
      "t_address_payable": {
        "encoding": "inplace",
        "label": "address payable",
        "numberOfBytes": "20"
      },
      "t_array(t_uint256)dyn_storage": {
        "base": "t_uint256",
        "encoding": "dynamic_array",
        "label": "uint256[]",
        "numberOfBytes": "32"
      },
      "t_bool": {
        "encoding": "inplace",
        "label": "bool",
        "numberOfBytes": "1"
      },
      "t_mapping(t_address,t_bool)": {
        "encoding": "mapping",
        "key": "t_address",
        "label": "mapping(address => bool)",
        "numberOfBytes": "32",
        "value": "t_bool"
      },
      "t_mapping(t_address,t_mapping(t_address,t_bool))": {
        "encoding": "mapping",
        "key": "t_address",
        "label": "mapping(address => mapping(address => bool))",
        "numberOfBytes": "32",
        "value": "t_mapping(t_address,t_bool)"
      },
      "t_mapping(t_address,t_mapping(t_uint256,t_uint256))": {
        "encoding": "mapping",
        "key": "t_address",
        "label": "mapping(address => mapping(uint256 => uint256))",
        "numberOfBytes": "32",
        "value": "t_mapping(t_uint256,t_uint256)"
      },
      "t_mapping(t_address,t_uint256)": {
        "encoding": "mapping",
        "key": "t_address",
        "label": "mapping(address => uint256)",
        "numberOfBytes": "32",
        "value": "t_uint256"
      },
      "t_mapping(t_uint256,t_address)": {
        "encoding": "mapping",
        "key": "t_uint256",
        "label": "mapping(uint256 => address)",
        "numberOfBytes": "32",
        "value": "t_address"
      },
      "t_mapping(t_uint256,t_uint256)": {
        "encoding": "mapping",
        "key": "t_uint256",
        "label": "mapping(uint256 => uint256)",
        "numberOfBytes": "32",
        "value": "t_uint256"
      },
      "t_string_storage": {
        "encoding": "bytes",
        "label": "string",
        "numberOfBytes": "32"
      },
      "t_uint256": {
        "encoding": "inplace",
        "label": "uint256",
        "numberOfBytes": "32"
      }
    }
  }
}